:1000000040330020A12F0000D5A400008D2F000058
:100010008D2F00008D2F00008D2F000000000000AC
:100020000000000000000000000000001931000086
:100030008D2F000000000000B53000008D2F000063
:100040001533000015330000153300001533000090
:100050001533000015330000153300001533000080
:100060001533000015330000153300001533000070
:100070001533000015330000153300001533000060
:100080001533000015330000153300001533000050
:100090001533000015330000153300001533000040
:1000A0001533000015330000153300001533000030
:1000B0001533000015330000153300001533000020
:1000C0001533000015330000153300001533000010
:0C00D0001533000015330000153300004C
:1000DC0053B94AB9002908BF00281CBF4FF0FF31A3
:1000EC004FF0FF3000F00CB8ADF1080C6DE904CE08
:1000FC0000F010F8DDF804E0DDE9022304B07047ED
:10010C00704700BF034613F8012B002AFBD1181AC5
:10011C00013870472DE9F04786468C460846089E04
:10012C00154674461946002B40F0C2808542B2FA3F
:10013C0082F245D94AB1C2F1200300FA02FC2EFA30
:10014C0003F3954043EA0C0C94404FEA154EA8B2C9
:10015C00BCFBFEF8230C0EFB18CC08FB00F943EAA1
:10016C000C43994528D9EB1808F1FF3704D299456F
:10017C0002D9A8F102072B44A3EB0903A4B2B3FBE9
:10018C00FEFC0EFB1C330CFB00F044EA0344A042C3
:10019C0014D92C190CF1FF3304D2A04202D9ACF1C2
:1001AC0002032C44241A43EA07401EB1D440002316
:1001BC0034607360BDE8F0874746DDE76346F1E7DE
:1001CC0092BB431B01214FEA154EAFB2B3FBFEFCB1
:1001DC00200C0EFB1C330CFB07F840EA034398453C
:1001EC0062D9EB180CF1FF3004D2984502D9ACF16E
:1001FC0002002B44A3EB0803A4B2B3FBFEFC0EFBE2
:10020C001C330CFB07F744EA0344A7424ED92C19C4
:10021C000CF1FF3304D2A74202D9ACF102032C44F7
:10022C00E41B43EA0040C0E7C2F1200320FA03F1CB
:10023C00954090402EFA03F303434FEA154EAFB2AC
:10024C00B1FBFEFC0EFB1C10190C0CFB07F841EA71
:10025C000041884504FA02F422D969180CF1FF30E8
:10026C0004D2884502D9ACF102002944A1EB080163
:10027C009BB2B1FBFEFC0EFB1C110CFB07F743EA17
:10028C0001439F420ED9EB180CF1FF3104D29F426F
:10029C0002D9ACF102012B44DB1B41EA004192E78D
:1002AC006046E3E76146F7E76046A3E76346B7E7D6
:1002BC00834206D916B9002108467BE7C6E900E05F
:1002CC00F9E7B3FA83F78FB9834201D3724508D8A3
:1002DC00BEEB020460EB030301209C461EB9002117
:1002EC0068E73846FAE7C6E9004CF8E7C7F1200C96
:1002FC00BB4022FA0CF41C432EFA0CF120FA0CF33E
:10030C00B84001434FEA14490EFA07F5B3FBF9F86C
:10031C001FFA84FE09FB18300B0C08FB0EFA43EA9B
:10032C0000439A4502FA07F240D9E31808F1FF306E
:10033C0004D29A4502D9A8F102002344A3EB0A0384
:10034C0089B2B3FBF9F809FB183308FB0EFE41EA3E
:10035C0003418E452CD9611808F1FF3304D28E4528
:10036C0002D9A8F10203214443EA0040A0FB029801
:10037C00A1EB0E014145CE46434602D306D14D4575
:10038C0004D2B9EB020E68EB04030138002EA6D0A0
:10039C00B5EB0E0261EB030101FA0CFC22FA07F338
:1003AC004CEA0303F940C6E9003198E74046C5E73B
:1003BC004346D9E713B5164809F09DFD00F036F811
:1003CC00044600F051F8E4B9124809F094FD0422F7
:1003DC00114B01930DEB0201204600F06DF80F4814
:1003EC0009F075FC014640B90D4809F084FD002167
:1003FC004FF4004007F07CFCF9E70A4809F07BFD5C
:10040C00F5E70948214609F076FD002002B010BD41
:10041C00A4BA0000D3BA0000E1400C00E1BA00001D
:10042C003ABB000057BB0000BDBA000010B50A4C27
:10043C000A4820600AF07BFC48B1094809F05BFDD2
:10044C0020680AF074FC28B9064809F054FD6FF0D6
:10045C00120010BD0020FCE73819002024B3000066
:10046C0071BB00008FBB00002DE9FF41104E114FF6
:10047C00082400250223CDE9015530688DF80C3095
:10048C009DF80C30826843F002038DF80C30D2F8E2
:10049C000880A3B2012201A9C04718B921463846E9
:1004AC0009F029FD0134782CE4D104B0BDE8F081C9
:1004BC00381900209EBB000030B5C5B040BAADF86D
:1004CC000C000DF10E0014460AF0D1FC0E4B03ADDE
:1004DC00186800950234022301948DF808309DF8B9
:1004EC000830826843F002038DF808309468532377
:1004FC0001226946A04704460021A42007F0F8FB1E
:10050C00204645B030BD00BF38190020B2F5802F11
:10051C002DE9F04110D2042A28D84549454A4648CD
:10052C0040F21A2309F0FDFC444809F0FAFC40F2B1
:10053C001A21404809F0ECFC0823D21ACC1D1144B6
:10054C0024F0070421F00701091B17294FEAD106F3
:10055C000ED83B49374A384840F2232309F0E1FCD6
:10056C00364809F0DEFC40F22321E2E70423E4E7FD
:10057C00002504603146A660E560204609F010FCB9
:10058C00B6F5004F2CBF08230423421D92000833FC
:10059C00D11DDB0803EBD103B3424FEAD10739D8A5
:1005AC000130A2F110022946B8BF2A4604F110000E
:1005BC000AF06BFC3A462946204609F0EDFB2B4627
:1005CC002A462946204609F0BEFBA6EB0708204622
:1005DC002946012209F0C8FB4246394609F0DCFBEA
:1005EC003B462A463946204609F0ADFB31462046AB
:1005FC0009F0D2FB43462A463146204609F0A3FBBC
:10060C0031462046012209F0AFFB3946BDE8F041E6
:10061C0009F0D5BB0B49074A07484FF40E7309F094
:10062C0080FC064809F07DFC4FF40E7181E700BF99
:10063C00A0BC0000B5BB0000E9BB0000C1BC0000C1
:10064C00DABC000003BD00002DE9F04F91B0054667
:10065C00009302F004030193C2F3C2030133049329
:10066C008307DDF8689002920E4640F0FC81041D71
:10067C0030B1072909D86FF01B0011B0BDE8F08F1D
:10068C0001F007063444C6F10806009B4FF0000841
:10069C004FF0040B591ECDF80C80474643464FF0E3
:1006AC00FF32DA460DB1009820600498002800F360
:1006BC00DF809B48DDF800C0844503D3994884450E
:1006CC00C0F0D680DDF808C0A4EB050E1CF0020FBC
:1006DC004FEA9E0000F0E7804FF0000CD1E07A2842
:1006EC0062D84B280FD847285ED829282DD8252822
:1006FC0059D059D820287DD0A0F12309D9F1000375
:10070C0043EB090376E04C382E284DD8DFE800F097
:10071C00724C4C4C4C4C4C4C4C4C4C4C4E4C4C4CE5
:10072C004C4C4C4C4C5C4C4E4E5C5C5C724E6F4C6E
:10073C00724C184E184C4C817E4E4C4C4E4C7E00DC
:10074C00002000234FF0040B3CE02A384FF0010E40
:10075C00C0B20EFA00F04FF6DA7E10EA0E0F49D155
:10076C0010F0625E30D110F0010343D07046013CB2
:10077C005C44B4FBFBF40BFB04F4002D5ED0AAEB41
:10078C00050EA644B6453FF676AF002868D1BAF1FF
:10079C00040F43D1E14659F8040B20600434CC46D5
:1007AC004FF0040A26E0013A002323E011F8013C43
:1007BC006C2B30D111F8023C00206C2B0346C1D1BC
:1007CC004FF0080BDA46D2E70CF1070929F0070CB9
:1007DC000734FCE802AB24F0070435B1059820443B
:1007EC00B0423FF648AFC4E900AB083400234FF0E9
:1007FC00080BDA4611F8010F002800F0BC80002B22
:10080C007FF46DAF2528F5D1013201234FF0040B95
:10081C00EFE7184695E700200346A8E7BAF1080F62
:10082C0040F09B800CF1070929F0070CFCE8029AB8
:10083C00C4E9009A08344FF0080ADBE780B9BAF132
:10084C00040F02D10CF10409A8E7BAF1080F40F02B
:10085C0084800CF1070929F0070909F1080CE9E774
:10086C000498E1460138049059F8040B009019E7FC
:10087C000298800748D5A4EB050E4FEA9E004FF076
:10088C00010CBEF5007F1DD32749284A28484FF498
:10089C001F7309F046FB274809F043FB4FF41F7107
:1008AC00224809F035FB0F2F0ED8002D46D007F14A
:1008BC00400CEC440CF8200C0CF8102C0398013074
:1008CC00039020E00F2F0CD91749184A184840F212
:1008DC00812309F026FB184809F023FB40F2812103
:1008EC00DEE7BDB107F1400EEE44C0B20EF8200CAD
:1008FC000EF8102CBCF1000FE0D060F07F000EF869
:10090C00200C08F101080137C5F108000434CC466D
:10091C0005906FE7BCF1000F10D00136F3E700BF74
:10092C0064B20000F8DB000049D300002EBD0000CB
:10093C00E9BB00005CBD00007DBD000001980236E3
:10094C000028E0D100980592CDE90631FFF7DAFBDB
:10095C00DDE90631059A0644D5E7444A4449454841
:10096C0040F2C62309F0DDFA5146434809F0D9FAA2
:10097C0040F2C62194E7631BB3F5806F0CD33C495E
:10098C003A4A3C4840F2D22309F0CBFA3B4809F0F2
:10099C00C8FA40F2D22183E71DB9A6F10804E01889
:1009AC006BE6019A28609B082B709DF80C30C2B145
:1009BC00EB7085F80280B8F1000F05D008A8002272
:1009CC00C5F1010C97420ED1C5F101030DF12009BF
:1009DC004FF0000A02930DF1300B574512D1601BFA
:1009EC004BE66B70E5E710F8013B190608D50CEBEC
:1009FC00040EB64503F07F033FF63DAE04F8013B11
:100A0C000132DFE7B8F1000F03D099F90020002A7A
:100A1C0017DB019BD3B11AF80B2004F8012B002231
:100A2C00029B18191044B0423FF625AE99F800000D
:100A3C0004F8010B0099039220460AF018FA039A65
:100A4C0014440AF1010A09F10109C6E799F80020DA
:100A5C0055F822300093019B45F822300098FFF79F
:100A6C0051FB421CDCE76FF00D0006E62EBD0000CA
:100A7C0049D30000E9BB000097BD0000ACBD0000ED
:100A8C002DE9F04F97B000AF8946D7F880B0FA62E5
:100A9C003B62044658B9A849A84AA94840F2993380
:100AAC0009F03FFA40F29931A44809F031FACBF33E
:100ABC00C00390F802A07B6141B9457800780AEB3D
:100ACC00800020444D4517D8A0EB0409E378FB6166
:100ADC00BAF1000F02D01BF0010F16D1FB6953BB0A
:100AEC00FB6A1BB13A6A4946204698474D46284650
:100AFC005C37BD46BDE8F08F461C3046FFF702FB65
:100B0C000130304409F10109DCE7237862687A622C
:100B1C00FA6A9900B96104EB8301002A40F0018163
:100B2C004D460E4601EB0A094FF000084E454CD1DC
:100B3C0001EB0A0610E01BF0020FD1D023789A00CB
:100B4C00BA6162687A62FA6A04EB8301002A77D18F
:100B5C004D4601EB0A0690461BF0050F0CBF022315
:100B6C000123FB62FB6906EB430A0BF00203BB6239
:100B7C005645BCD016F8021B16F8013C54F82390CD
:100B8C00704B994502D3704B994536D37B69002B3A
:100B9C0040D0786A09F086F900283BD0E9468AB043
:100BAC006A466A4B53617B6AC2E906314FF40073A3
:100BBC001384674B42F8103F664800234FF41251E0
:100BCC0001F09AFA023DCD46D2E716F8013BF962E4
:100BDC0054F82300FFF796FAD7F88430F96A0130FD
:100BEC004BB1D7F8883098453EBFD7F8843023F8FE
:100BFC00180008F10108054498E77B6923B1786A6D
:100C0C0009F050F90028C9D11BF0010F05D1FB6A7E
:100C1C00ED1AADE7BB6A002BAAD04846FFF772FA73
:100C2C00D7F8843053B1D7F8883098453FBFD7F800
:100C3C008420431C22F8183008F10108054497E77A
:100C4C00BAF1000F73D01BF0040673D0D046002607
:100C5C0007F1480052463B61B9620AF008F9B96ADB
:100C6C003B6901EB0A02BA62FA69F9695200FA604F
:100C7C00BA6A02EB41023A610BF00202BA60BA6A3C
:100C8C0039698A4268D162787A621BF0020F324469
:100C9C000CBF4FEA580100211BF0010FD2B240F0FB
:100CAC00E4801BF0040F14BF404600207B6162708F
:100CBC00A070E1703A6AB969FB6A20469847051E34
:100CCC00FFF615AF7B6923707B6A6370FB69E37079
:100CDC0041463A6AFB6A84F802A007F1480098473B
:100CEC00B0F10008C0F2F580BB693A6AA9EB0A01C1
:100CFC00C91AFB68C91AD7E90A0398470028C0F239
:100D0C00EA80A84408EB00054FF0000B07F1380A05
:100D1C00B345C0F0AC8000213A6AFB6A084698479C
:100D2C00E5E656464FF0000807F1380092E75646C4
:100D3C00D04696E7B04694E7C3BD00002EBD000038
:100D4C00E9BB000064B20000F8DB0000DEBD00006F
:100D5C0004000001E0B40000BA6A12F8021BBA6287
:100D6C0012F8015C5D4A54F82500904202D35C4AAB
:100D7C00904218D37A693AB1786A7B6009F092F89C
:100D8C007B6800287FF47BAFBA68002A4CD00F2E0A
:100D9C0040D95449544A554840F24D4309F0C1F8E2
:100DAC0040F24D4180E67A693AB1786A7B6009F08D
:100DBC0079F87B6800287FF462AF1BF0010F0BD031
:100DCC000F2E27D94749484A484840F2434309F077
:100DDC00A8F840F2434167E61BF0040F3FF44FAF15
:100DEC00B8F10F0F09D942493F4A404840F24643F7
:100DFC0009F097F840F2464156E608F1280207F14F
:100E0C00300008F1010102EB000808F8105C5FFAF1
:100E1C0081F834E706F1280207F13000711C16182E
:100E2C0006F8205CCEB22AE7B8F10F0F09D9304989
:100E3C002D4A2E484FF48A6309F073F84FF48A61F7
:100E4C0032E608F1280207F1300C08F10100944455
:100E5C0007F1580252FA80F008F102080CF8101C45
:100E6C005FFA88F800F8105C09E700201EE71BF811
:100E7C000A3087F8373054F82390D7F884302BB3E6
:100E8C00D7F888309B4521D2D7F8843033F81B80B3
:100E9C003A6AFB6A012107F13700984700281ADBF0
:100EAC000544B8F1000F06D14846FFF72BF900F1C5
:100EBC0001081FFA88F83A6AFB6A41464846984787
:100ECC00002808DB05440BF1010B21E74FF000086B
:100EDC00DEE745460BE6054609E600BF64B20000B6
:100EEC00F8DB000081BE00002EBD0000E9BB000055
:100EFC00A0BE0000014B1860704700BFC01000205E
:100F0C0080B505460E461746984606F08DFF0346FB
:100F1C000AF098F9DFF81890044649F80030424678
:100F2C0030463946A84754F8090002F0A7F800BF2C
:100F3C000800000038B50D4604462022002109F0B7
:100F4C00A4FFEB68E361AB68A3612B6823626B6859
:100F5C0063620022A2622A6923B1591E194208BF9A
:100F6C0042F0010222610122002104F12C0009F05F
:100F7C00F1FE48B105490648064A2F2308F0D1FF77
:100F8C0004482F2108F0C4FF38BD00BFF7BE000095
:100F9C00E9BB0000D1BE00002DE9F04F89B0CDE9CE
:100FAC000123436A00278B4204468846059707971E
:100FBC00BA4654D300F11406EFF31185202383F3C2
:100FCC001288BFF36F8F3046A94607F037F958B92E
:100FDC004D4A4E494E48882308F0A3FF31464D48F0
:100FEC0008F09FFF882163E0304607F04BF9079A21
:100FFC002AB13946204609F07CF80023079306A94C
:10100C00204608F09BFF06994145834630D3226861
:10101C00236A13F8221021F0030103F8221003EBCA
:10102C00820A21684246204608F0ACFFE368206043
:10103C00984218D04FF0000B304607F00DF950B322
:10104C0089F31188BFF36F8F059929B1A2690AB191
:10105C002046904700230593BBF1000FACD15046BE
:10106C0009B0BDE8F08F236943F008032361E1E781
:10107C0018B1204608F0A0FFDEE7DDE9013213438A
:10108C0039D0039109F072FE0399A0BB9DBB304689
:10109C0007F0E2F878B91C4A1F491D484FF49A73BF
:1010AC0008F03FFF31461D4808F03BFF4FF49A71A2
:1010BC00154808F02DFF85F31188BFF36F8FDDE91C
:1010CC00012304F12C0005F0ABFE8346EFF31189EC
:1010DC00202383F31288BFF36F8F304607F0AEF8EE
:1010EC0000283FF475AF3046BBFA8BFB07F0CAF80B
:1010FC004FEA5B1BA0E707AB05AA2046276808F060
:10110C0078FF834698E700BF00BF00002DBF0000AA
:10111C00E9BB000042BF000058BF00006FBF0000D9
:10112C002DE9F0410446C36908460E46984704F180
:10113C0014050746EFF31188202383F31288BFF3BD
:10114C006F8F284607F07AF868B91B4A1B491C4870
:10115C00882308F0E6FE29461A4808F0E2FE8821AA
:10116C00154808F0D5FE284607F08CF8337843F084
:10117C000103337061683A46204608F003FF606053
:10118C00204608F0D1FF284607F066F868B90A4AED
:10119C000D490B484FF49A7308F0C3FE29460B48CF
:1011AC0008F0BFFE4FF49A71DAE788F31188BFF3A9
:1011BC006F8FBDE8F08100BF00BF00002DBF0000A5
:1011CC00E9BB000042BF000058BF00006FBF000029
:1011DC002DE9F843044600F11407EFF3118820239E
:1011EC0083F31288BFF36F8F384607F027F8054654
:1011FC0068B9354A35493648882308F092FE394695
:10120C00344808F08EFE88212F4808F081FE3846BD
:10121C0007F038F82369A26813F0080F02D163684D
:10122C009A4200D9636A9B1A002B3FD0216A11F8AD
:10123C00223013F0030001EB82093AD0022803D1CB
:10124C0051F82260B60805D1D8071FD4E369484687
:10125C0098470646A1683246204608F093FE314670
:10126C00A060204608F09CFE384606F0F5FF10BB47
:10127C00154A194916484FF49A7308F052FE39462C
:10128C00164808F04EFE4FF49A71BDE743F0020386
:10129C0001F822304846E369A5689847294602467A
:1012AC00204608F06FFE0025A060DDE71D46A9462C
:1012BC00DAE70546FBE788F31188BFF36F8F002D43
:1012CC008BD14846BDE8F88300BF00002DBF00005D
:1012DC00E9BB000042BF000058BF00006FBF000018
:1012EC002DE9F0410446C36908460D46984704F1C0
:1012FC0014060746EFF31188202383F31288BFF3FB
:10130C006F8F304606F09AFF68B9284A2849294859
:10131C00882308F006FE3146274808F002FE882193
:10132C00224808F0F5FD304606F0ACFF2B786FF341
:10133C0000032B7023699B0705D5E268236A03EB36
:10134C0082039D4222D12B786FF341032B70D4E999
:10135C000231994204D13A46204608F013FEA060AF
:10136C003946204608F01CFE304606F075FF90B951
:10137C000E4A12490F484FF49A7308F0D2FD3146C9
:10138C000F4808F0CEFD4FF49A71C9E72B6867F34C
:10139C009F032B60E8E788F31188BFF36F8F04F18C
:1013AC002C00BDE8F04105F0BDBC00BF00BF000043
:1013BC002DBF0000E9BB000042BF000058BF000079
:1013CC006FBF000070B5044600F11405EFF31186F1
:1013DC00202383F31288BFF36F8F284606F02EFF6D
:1013EC0068B91B4A1B491C48882308F09AFD2946FA
:1013FC001A4808F096FD8821154808F089FD284602
:10140C0006F040FF2369A06813F0080F02D163684F
:10141C00984213D9646A241A284606F01DFF78B93D
:10142C000B4A0F490C484FF49A7308F07AFD294681
:10143C000C4808F076FD4FF49A71DDE71C1AEBE7C7
:10144C0086F31188BFF36F8F201E18BF012070BD6B
:10145C0000BF00002DBF0000E9BB000042BF000030
:10146C0058BF00006FBF00002DE9F84F0446084636
:10147C00A38B1907154612D4022803F0070165D176
:10148C00204608F05EFE88B10138042800F237814E
:10149C00DFE810F05C0035018200D4000401012863
:1014AC000CBF43F0100143F02001A18314342046FB
:1014BC0006F0D2FE002840F09D819A499A4A9B483A
:1014CC004FF49A7308F02DFD2146B1E003F00702AA
:1014DC00501F01281ED80020062A2768C4E90000E6
:1014EC0014D13A4603E0E08B0130E0831268002A05
:1014FC00F9D123F0070343F00202A283204608F03F
:10150C0020FE90B342F02002A2832EE023F00703CA
:10151C009AB2F2E7042A33D123F007039AB2A283DA
:10152C00204608F00EFE10B142F02002A283A38BDD
:10153C0003F00709894540F0EC80A18BCA0640F105
:10154C00508121F01003A38301F00701D4F8188017
:10155C00A38BB8F1000FB9DA0022276823F0070338
:10156C00C4E9002243F00103A383A38B03F0070912
:10157C00894540F0CF80002FDFD00026B24644E0F2
:10158C006B496C4A694840F21B1308F0CAFC40F2E4
:10159C001B11684808F0BCFC49B16749654A6348AF
:1015AC004FF4AB7308F0BDFC4FF4AB71F1E723685B
:1015BC004BB962495F4A5D4840F2571308F0B1FCE1
:1015CC0040F25711E5E723691E684EB95C49594A48
:1015DC0056484FF4AD7308F0A4FC4FF4AD71D8E746
:1015EC00A38B23F0070343F006039BB2A3830F46A0
:1015FC0088464FF00609A268002A40F08D80002F23
:10160C0040F08D80002E98D0BA4643F0080304F1C8
:10161C00140BA383584606F01FFE002840F09A8056
:10162C004049414A41484FF49A7308F07AFC5946B4
:10163C00444808F076FC4FF49A71ADE0022909D0C9
:10164C0041493C4A394840F25D1308F06AFC40F2CB
:10165C005D119EE7E78B4FB13C49364A33484FF456
:10166C00AF7308F05EFC4FF4AF7192E723695E68CC
:10167C004EB933492F4A2D4840F2611308F051FC02
:10168C0040F2611185E7A38B23F0070343F00403B9
:10169C009BB2A383B8464FF00409ACE7012909D0EB
:1016AC002B49244A21484FF4B27308F03AFC4FF40A
:1016BC00B2716EE723684BB920491E4A1B4840F2B1
:1016CC00651308F02EFC40F2651162E723699E68F1
:1016DC004EB91B49174A15484FF4B47308F021FC56
:1016EC004FF4B47155E7A38B23F0070343F00503C4
:1016FC009BB20027A383B8464FF005097BE70C4942
:10170C000C4A0A4840F26B1308F00BFC40F26B11C8
:10171C003FE7002700266EE74FF0010A75E7924677
:10172C0073E700BF58BF000000BF0000E9BB00001A
:10173C0049D3000084BF0000A9BF0000B5BF000062
:10174C00D8BF00006FBF0000EFBF000005C0000055
:10175C0014C0000085F31188BFF36F8FBAF1000F2E
:10176C001CD177BB16B126492046B047EFF3118543
:10177C00202383F31288BFF36F8F584606F05EFD6B
:10178C0038BB204A20492148882308F0CAFB594617
:10179C001F4808F0C6FB88211A48FBE6A1680029FF
:1017AC00DFD00D680029DCD0D1F804A043464A46AE
:1017BC002046D0471DB12B6829461D46F2E72B4623
:1017CC00FAE7394643464A4620463F6808F0E5FCAE
:1017DC00C7E7584606F056FDA38B23F00803A383F6
:1017EC00ABE68B067FF562AE21F02003A38301F0FC
:1017FC00070145E685F31188BFF36F8FBDE8F88FBD
:10180C002118000000BF00002DBF0000E9BB000044
:10181C0042BF0000F8B504460D4600F11406EFF384
:10182C001187202383F31288BFF36F8F304606F0A5
:10183C0005FD68B90C4A0D490D48882308F071FB69
:10184C000C48314608F06DFB0748882108F060FB16
:10185C00304606F017FDA5613A4620460121BDE849
:10186C00F840FFF701BE00BF00BF00002DBF000015
:10187C00E9BB000042BF00002DE9F04704460F46CB
:10188C0008F07BFC051E68DB04F11409EFF3118AE8
:10189C00202383F31288BFF36F8F484606F0CEFCEB
:1018AC00804660B9384A39493948882308F039FBF1
:1018BC004946384808F035FB8821334842E0484611
:1018CC0006F0E0FCE38BA68B4FF6FF72934206F01A
:1018DC00070645D0022E15D10133E3833546484621
:1018EC0006F0BAFC002841D1274A2B4928484FF46E
:1018FC009A7308F016FB4946284808F012FB4FF47F
:10190C009A71DAE7062E13D8DFE806F0092D1212C9
:10191C00090409006FF085054FF00008DFE700238C
:10192C003B60636883B9C4E9007786B13546F3E759
:10193C001B4917481B4A4FF4E47308F0F2FA194894
:10194C004FF4E47108F0E4FA1F606760EDE752466B
:10195C0002212046FFF788FD35462846BDE8F08772
:10196C006FF00A05D8E76FF00405D5E78AF3118804
:10197C00BFF36F8FB8F1000FEFD00023324639461A
:10198C00204608F00AFCE8E700BF00002DBF00006D
:10199C00E9BB000042BF000058BF00006FBF000051
:1019AC0014C0000084BF000008B54268816002F0DA
:1019BC000302032A034602D02AB1002000E000688B
:1019CC0000225A6008BD05490548064A452308F01F
:1019DC00A8FA0448452108F09BFA00BF49D300003F
:1019EC00E9BB00002AC0000030B51049104889B08E
:1019FC00002209F014FA0F4D0F4900220023CDE903
:101A0C00062300240E23CDE90334CDE901440B4B0E
:101A1C0000944FF40062284605F05AFB084928460A
:101A2C0005F078FA204609B030BD00BF991B0000C4
:101A3C00A0160020E8110020401D0020ED1E000023
:101A4C0050C000002DE9F047DFF8588004460746E7
:101A5C004FF0010914B93846BDE8F08794FAA4F5A3
:101A6C00B5FA85F509FA05F32E0108EB05156FEAB1
:101A7C00030A24EA03042B7B002BEBD058F8063026
:101A8C001B694BB94644042273682846196807EA57
:101A9C000A0708F0F1FBDDE7284698470028D9D162
:101AAC00F0E700BF38B500002DE9F047DFF8BC9037
:101ABC002F4CA9EB04038F2B80460F460BD92D49D5
:101ACC002D4A2E484FF4A67308F02BFA4FF4A6714A
:101ADC00294808F01DFA2A4808F0AEFB064678B3F0
:101AEC0000252846BDE8F087237B83B12368DB689B
:101AFC000BB120469847636883F806A023681B69DE
:101B0C00B3B9636804221968204608F0B5FB0136A6
:101B1C0010344C4518D91B49174A18484FF4AC736C
:101B2C0008F0FFF9184808F0FCF94FF4AC71CFE756
:101B3C00204698470028E4D00AFA06F31D43E6E74E
:101B4C0005464FF0010AE4E7CED3B8F1000FC8D038
:101B5C00002DC5D02846FFF775FF0546002FF7D09E
:101B6C0000214FF4A47006F0C3F8F1E758B500005B
:101B7C0038B5000085C0000058C00000E9BB00006B
:101B8C0050190020B5C00000D6C00000014805F077
:101B9C00C9B800BFD8110020014B53F82000704782
:101BAC004CB8000008B5034608462BB1044A136034
:101BBC0000F0BEFD002008BD6FF01500FBE700BF74
:101BCC00C410002010B5044C237813B9034805F059
:101BDC00A9F80123237010BD0C1B0020D811002084
:101BEC0010B504460B4808F027FB5CB1BFF35B8FC4
:101BFC00094B53E8001F013943E80012002AF8D1C1
:101C0C00BFF35B8F054809F016F90548BDE8104095
:101C1C0005F088B8481900204C190020A0160020A7
:101C2C00D81100200020064BBFF35B8F014653E810
:101C3C00000F43E80012002AF9D1BFF35B8F704705
:101C4C004819002070B5FFF7EDFF104C104E0546FB
:101C5C00B44219D90F49104A10484FF4037308F0D5
:101C6C0060F90F4808F05DF90B484FF4037108F068
:101C7C004FF963685B792BB123685B6813B1294614
:101C8C00204698471034E3E7F3D370BD38B5000015
:101C9C0058B50000B5C0000058C00000E9BB0000FA
:101CAC00D6C0000010B5044C04492046FFF742F999
:101CBC00034B1C6010BD00BF9811002038B8000009
:101CCC003C190020154A1648002310B51370154A0C
:101CDC001360154A4FF400411360FFF763FFFFF7E1
:101CEC00E1FF124B124918468B4215D91149124A81
:101CFC00124840F2271308F014F9114808F011F9B2
:101D0C000D4840F2271108F003F91A1A5C681211F9
:101D1C00013222711033E7E7F7D310BD0D1B002001
:101D2C0041A20000481900204C19002038B50000D1
:101D3C0058B50000B5C0000058C00000E9BB000059
:101D4C00D6C000000146002201480023FFF724B949
:101D5C00981100200148FFF73BBA00BF98110020F2
:101D6C00024B01461868FFF7BBBA00BF3C190020B4
:101D7C000148FFF727BB00BF9811002070B5314B0D
:101D8C00187800285DD0FFF7E5FF0546002844D100
:101D9C002D4B2E4C1B68002B19DD09F03EF84FF42F
:101DAC007A72A0FB020302FB0131C30BD4E90020C1
:101DBC0043EA41439B1A4FEAD13140F2E93261EBDD
:101DCC000001934271F1000101D3FFF73BFFD4E90D
:101DDC00003213F57A7342F10002C4E90032BDE817
:101DEC007040FFF7C5BF63685B7923B12368294650
:101DFC001B68204698471034B44211D91449154A2F
:101E0C0015484FF4007308F08CF8144808F089F862
:101E1C0010484FF4007108F07BF8114C114EEBE7B1
:101E2C00E1D32846FFF79CFFBFF35B8F0E4B53E8C3
:101E3C00001F013943E80012002AF8D1BFF35B8F71
:101E4C00A6E770BD0C1B0020481900209816002036
:101E5C00B5C0000058C00000E9BB0000D6C00000AF
:101E6C0038B5000058B500004C19002070B5154D60
:101E7C00297829BB0120FFF717FE134C134EB442EF
:101E8C0017D91349134A144840F2C51308F049F8FE
:101E9C00124808F046F80F4840F2C51108F038F81F
:101EAC0063685B791BB1236820469B6898471034A4
:101EBC00E5E7F5D3FFF762FF0028FBD101232B7078
:101ECC0070BD00BF0D1B002038B5000058B50000D8
:101EDC00B5C0000058C00000E9BB0000D6C000002F
:101EEC002DE9F047304B314FFB1A1B090BD1304910
:101EFC00304A314840F2A93308F013F840F2A931C6
:101F0C002C4808F005F800210846FFF7CDFD0446E3
:101F1C0050B340F267684FF0000909F093F9274B72
:101F2C00274A1B58136033B1264B1B68092B02DD63
:101F3C00254804F0F7FEDFF890A0002544B12046B8
:101F4C00FFF780FD044618B94FF0FF384FF0FF390A
:101F5C00FFF714FF064628B95DB942464B4650467A
:101F6C0004F05EFF3546E9E74FF0FF384FF0FF39DC
:101F7C00D3E70D4D08E0F0D22B689B691BB1002212
:101F8C001146284698471035BD42F4D90F49094AE5
:101F9C00094840F29D3307F0C4FF0D4807F0C1FF1C
:101FAC0040F29D31ACE700BF38B5000058B50000D9
:101FBC00F5C0000058C00000E9BB0000080000009C
:101FCC00441900204C190020D8110020B5C0000085
:101FDC00D6C0000013B52C4808F02EF92B4B1B78FB
:101FEC00002B35D0EFF31184202383F31288BFF339
:101FFC006F8F274806F022F968B9264A26492748E8
:10200C00882307F08EFF2249254807F08AFF882194
:10201C00204807F07DFF1E4806F034F9FFF7AEFEAE
:10202C001B4806F019F968B91A4A1E491B484FF4A7
:10203C009A7307F076FF16491B4807F072FF4FF4AE
:10204C009A71E5E784F31188BFF36F8F02B010BD6E
:10205C00164B1B68002BF9D050B900220023CDE998
:10206C00002313484FF40042002306F099FCEDE7DF
:10207C000928EBD10E4808F0DEFE0E4802B0BDE890
:10208C00104004F04FBE00BF4C1900200D1B002067
:10209C004019002000BF00002DBF0000E9BB00006C
:1020AC0042BF000058BF00006FBF00004419002061
:1020BC00A0160020D811002010B5064B1B68044652
:1020CC0098472146A0600448FFF72AF8BDE8104065
:1020DC00FFF780BFC410002098110020044A054B64
:1020EC009B1AB1EBD30F34BF52F83100002070476C
:1020FC00E0B4000038B500002DE9F04F8FB004AF0C
:10210C00C1F34A28B8600D4691467B600C0DB8F1BE
:10211C00000F68D0002607F114034FF0040B4FF0AA
:10212C000A0AC7F80C80C7E907667E620193CDF8EE
:10213C0008B0CDF800A007F11C03F96832464846F8
:10214C00FEF79EFCB0F5006F03461CD36C468AB0BC
:10215C00D9F8041004AB2C48C3E9050140F2FF7117
:10216C00D9611A464FF400711984284B42F8103F7C
:10217C00274833464FF41251FFF7BEFFA5462C37C4
:10218C00BD46BDE8F08FC0F30A0804F117001844EF
:10219C0020F0070080083B60FFF7D4FD68F353255F
:1021AC00044640B33B681B4AC7E9083600F11001EE
:1021BC0007F11403F961CDE900A3CDF808B0F96873
:1021CC0007F11C034846FEF75BFC002813DA1249A2
:1021DC001248134A4FF4A37307F0A3FE10484FF4B0
:1021EC00A37107F095FE04F1170020F0070080089A
:1021FC00FFF7A8FD044668F353257B68B9682A46A7
:10220C00204608F059F8BAE71EC10000040000018E
:10221C0000B5000097A200008AC10000E9BB0000D5
:10222C005DC100002DE9F04F87B0DDE91279DDE9E1
:10223C00106A044603919346984627B3CDF8009054
:10224C003B46524610210020CDF81490FEF7FCF9C5
:10225C00051E0BDA2649274A274840F2651307F07A
:10226C0060FE40F26511234807F052FEB5F5006F91
:10227C000ADB224A224840F2FF73022107B0BDE874
:10228C00F04F08F072B83D4606F11700284420F0D4
:10229C00070004F007048008FFF754FD0BF0070B50
:1022AC00E40044EA8B1444EA452444EA0654064606
:1022BC00A0B19FB1CDF800903B4652462946103054
:1022CC00FEF7C2F9002809DA09490A4A0A484FF40C
:1022DC00C47307F026FE4FF4C471C4E70399434658
:1022EC002246304607B0BDE8F04F07F0E5BF00BF0F
:1022FC0089C100005DC10000E9BB000093C1000072
:10230C0000B50000406820B1034BC01A40F3CF0069
:10231C0070474FF0FF307047E0B400000EB403B5C7
:10232C0003AB014653F8042B0448019301F004FA63
:10233C0002B05DF804EB03B0704700BF69230000E6
:10234C00CA0605D48B064CBF02490349FFF7E6BF0A
:10235C00704700BFB3D50000CBC1000038B54B6847
:10236C001A68CB689A4205460C4602D1084608F01A
:10237C0020F86368BFF35B8F53E8002F511C43E8D0
:10238C0000100028F8D1BFF35B8FA3689D546368DD
:10239C001A68E3689A4209D905490648064A722325
:1023AC0007F0BFFD0448722107F0B2FD002038BDD4
:1023BC00FDC10000E9BB0000CEC100002DE9F04FCB
:1023CC0089B09B46149B06939DF84CA0159B0593D6
:1023DC00169B179E049304460D469046BAF1000FC7
:1023EC0000F0AD80BAF1040F0BD9A349A34AA4485D
:1023FC0040F2462307F095FD40F246219F4807F036
:10240C0087FD06F48073079307F034FF06F002098A
:10241C00024600283FD09B492046FFF77FFF074626
:10242C00B9F1000F08D016F0440F36D196492A4660
:10243C002046FFF773FF074406F0010353B1934B9B
:10244C00934953F82A20934B2046002A08BF1A467A
:10245C00FFF764FF06F48073002B4AD006F00803E4
:10246C00002B64D1B8F1000F67D08B49424620464F
:10247C00FFF754FF0546069B3D44002B6ED1049B91
:10248C00002B40F08380F30700F1F08031462046AA
:10249C00FFF756FFE4E00746C2E7804B18680028B8
:1024AC00C9D07F4B4FF47A791B68B5FBF3F54FF429
:1024BC006163B5FBF0F100FB115509FB05F54FF01D
:1024CC003C0CB1FBF3F203FB1211B5FBF0FEB1FBBC
:1024DC00FCF300FB1E550CFB131109FB05F50091D9
:1024EC00B5FBF0F56F49CDE901E52046FFF716FF86
:1024FC00A1E706F00803EBB16B4B6C4953F82A20AB
:10250C002046FFF70BFF0546B8F1000F05D06249D6
:10251C0042462046FFF702FF0544BBF1000FAAD04C
:10252C0063495A462046FFF7F9FE0544A3E74FF0EE
:10253C00000BE1E706F00805E6E745469BE7BBF133
:10254C00010F069B06D1DBB9049B002B00F08880A1
:10255C0000251BE0002BF7D0564812E05648069B8E
:10256C005649224607F06DFC00280CDA5449434AC0
:10257C0043484FF4287307F0D4FC4FF428713DE71F
:10258C004D485546EBE7049B002B65D0DFF83481B2
:10259C00DFF83491049F3146102F204628BF1027B6
:1025AC00FFF7CEFE4FF0000B5D4542DC059B494624
:1025BC001A782046FFF7B2FE4FF0010B1BF0070F05
:1025CC0003D141462046FFF7A9FE5F4538D9059B4C
:1025DC00494613F80B202046FFF7A0FE0BF1010B28
:1025EC00BBF1100FEAD1394920464FF0000BFFF731
:1025FC0095FE5A46059B9A5CA2F120015F2928BFE3
:10260C002E2233492046FFF789FE0BF1010BBBF15B
:10261C00100F1AD01BF0070F03D141462046FFF7CD
:10262C007DFE5F455A46E5D841462046FFF776FECB
:10263C00EBE741462046FFF771FE0BF1010BB3E7C8
:10264C0024492046FFF76AFEC8E7059B3B440593E7
:10265C00049BDB1B04939DD1BAF1000F7FF413AFE5
:10266C00204609B0BDE8F04F07F0A3BE094A08495F
:10267C002046FFF753FE09E732C20000CEC100002E
:10268C00E9BB00003DC2000041C200005CB8000084
:10269C007FCE00002DC2000066C200005819002039
:1026AC00541900204AC2000070B800006AC2000031
:1026BC0070C20000D9A30000692300004537000058
:1026CC0075C2000086C200007EC2000088C20000F5
:1026DC008AC2000084C2000073B542F20F738B42B1
:1026EC0028BF0B4605680F4A04460521684606F0CC
:1026FC00C5F963680C495B6806460B22284607F04F
:10270C004AFE63683246694628465B6807F043FE1A
:10271C00636806495B681B22284607F03CFE02B042
:10272C0070BD00BF65C40000A9C200008DC20000CE
:10273C00074A00210123904206D8064A01B9012319
:10274C001360054B1860704740085B000121F2E7ED
:10275C0040420F005419002058190020014B01224F
:10276C001A7070470E1B0020014B00201960704737
:10277C00701900200148FFF7AFBF00BFA0B80000E0
:10278C0010B5064B18680C46FFF706FA21460346AF
:10279C00BDE8104002480F22184700BF70190020F6
:1027AC00A0B80000F8B5094D094B0A4ED5E9004711
:1027BC0001221A700CB92C60F8BD214630463A46FD
:1027CC0000F01EF8241A0644F4E700BF6419002038
:1027DC000F1B0020101B002010B9074B18707047FE
:1027EC00064B1B781BB141F2883008F09CBAA42030
:1027FC00002105F07DBA00BF0E1B00200F1B00202E
:10280C002DE9F047DFF878901E4F80460E460424E1
:10281C0099F80050A5B908F079FA3246824641463B
:10282C00284603F067FF0546504608F077FAE5B1F5
:10283C0001233B7099F8003073B93046BDE8F0873E
:10284C0032464146002003F055FF0546EFE720468F
:10285C00FFF7C2FF651E2C46002003F0D5FF0028B1
:10286C00EBD03B78002BF2D1E7E73B78002BE4D0A0
:10287C00013C2046FFF7B0FF3B78002BC8D1DCE7CA
:10288C000F1B00200E1B0020F8B5074F0D46044609
:10289C004618B44201D12846F8BD14F8011BBB6898
:1028AC0001485B689847F4E704B3000010B543682F
:1028BC001C68094808F03BFA48B908490848094A15
:1028CC00992307F02EFB0748992107F021FB236879
:1028DC005B685C6010BD00BF04B3000023C3000044
:1028EC00E9BB0000E5C20000014B0360002070470B
:1028FC00E4B8000008B5044807F0FDFABDE808404C
:10290C00024807F0F8BA00BF57C300008CC30000A0
:10291C0008B50348034A0021121A07F0CDFD08BD83
:10292C00E8110020281D00200748084A084908B56E
:10293C00121A07F0C3FD0748074A0849BDE80840CA
:10294C00121A07F0BBBD00BFC0100020E811002018
:10295C0000DC0000B8100020C0100020F8DB0000E4
:10296C002DE9F047064600AF0C46002936D0E94663
:10297C008AB0D1E90012A3686D462148A8464FF0F1
:10298C00050AC5E90501C5E9072348F810AF1D483C
:10299C00424600234FF42151FFF7AEFBCD46D4E95C
:1029AC0003126369AD461848C5F810A0C5E90501C6
:1029BC00C5E907231348002342464FF42151FFF782
:1029CC009BFBCD46E369114A0E48012107F0CDFC73
:1029DC00A3690F4A0B48012107F0C7FC012E07D150
:1029EC00EFF305830B4A0748103B314607F0BDFC5B
:1029FC002146304603F068FFBD46BDE8F08700BFB6
:102A0C00BAC3000020B50000E9C3000018C40000E0
:102A1C0027C4000055C4000030BFFFF7FDBF00BF46
:102A2C002DE9F0410B4EDFF8308006EB0807CC1B8C
:102A3C00054632460949204608F019FAA0194246C3
:102A4C000021083C08F021FAC5F8A44007F1080061
:102A5C00BDE8F08100000000040000009CB50000FF
:102A6C00054B5A699B689A421FBF044A536843F04E
:102A7C0080535360704700BFC81A002000ED00E07F
:102A8C0070B5294C06460D462848294907F023FD08
:102A9C00A36AD9043CD52548264907F01CFD17200C
:102AAC00A36A1A0504D52148234907F014FD182000
:102ABC001D4CA36A9B0512D51C48204907F00BFD41
:102ACC00A36BA26A100409D51D4A1848012107F00E
:102ADC004CFC1EB1A36A23F40043A3621920124CD0
:102AEC00A36A590504D51148164907F0F4FC1A20BD
:102AFC00A36ADA050ED50D48134907F0ECFC1B2030
:102B0C00094A936A43F47F43936200232B7070BD90
:102B1C001620C5E7A36A9B04F2D504480B4907F0BD
:102B2C00DAFC1C20ECE700BF00ED00E020B5000053
:102B3C0068C400007EC400008FC40000A2C4000062
:102B4C00BBC40000D0C40000EBC4000003C50000EF
:102B5C0010B5204C2049214807F0BDFCA36A99010F
:102B6C0036D51E481E4907F0B6FC1E20A36ADA01B2
:102B7C0004D51A481B4907F0AEFC1F20154CA36A5C
:102B8C001B0304D51548184907F0A5FC2120A36A9E
:102B9C00590304D51148154907F09DFC22200D4C12
:102BAC00A36A9A0304D50D48114907F094FC23201D
:102BBC00A36ADB0304D509480E4907F08CFC2420DA
:102BCC00044A936A6FEA03436FEA1343936210BD9E
:102BDC001D20CBE700ED00E032C5000020B5000061
:102BEC004AC500005DC5000077C5000095C5000012
:102BFC00BAC50000D4C500002DE9F8433F4D80460E
:102C0C0089463F483F49174607F065FCAB6ADA0630
:102C1C0027D53D493A4807F05EFC1124AB6A1B07E7
:102C2C0004D53A49364807F056FC1224334DAB6AAA
:102C3C009E0718D53649324807F04DFC6E6BAB6ACF
:102C4C001C0646D5334A2E483346012107F08DFB2E
:102C5C00B9F1000F03D0AB6A23F08003AB621324ED
:102C6C0003E01024DAE76FF01506244DAB6AD807A1
:102C7C0004D52949224807F02EFC1424AB6A990686
:102C8C0004D526491E4807F026FC15241B4DAB6ABB
:102C9C00DA0602D4AB6A9B070AD56B68180507D510
:102CAC004146304600F0E6FAB0B180F309880224C0
:102CBC00124B9A6A920642BF5A6A22F400525A6226
:102CCC009A6A42F0FF029A6200233B702046BDE8EC
:102CDC00F8836FF01506C2E7AB6AD906E8D5104940
:102CEC00104A114840F2271307F01BF90F4807F060
:102CFC0018F90C4840F2271107F00AF900ED00E032
:102D0C0020B50000FFC5000015C600008FC40000F0
:102D1C0048C6000060C6000076C6000003C500006F
:102D2C00C7C6000095C60000E9BB000011C7000033
:102D3C00F0B5794B8BB00446586800AFC0F308036C
:102D4C00002686F31188BFF36F8F02F07F45B5F133
:102D5C007F4F07D102F00C05082D12D16F49704836
:102D6C0007F0B9FB6F49704A704840F2144307F002
:102D7C00D8F86F4807F0D5F840F214416A4807F0CC
:102D8C00C7F815074CBF0C460126002CEAD00022D0
:102D9C00FA71DA1E092A00F29E80DFE802F005942F
:102DAC0097779C9C9C9C9C9A62495D485A4D07F075
:102DBC0092FB0023FB71EB6A9A0705D55E495848D4
:102DCC0007F089FB002329E0EB6A002B01DA5B4951
:102DDC00F5E7EB6A5B0069D55949514807F07BFB75
:102DEC006B69A26943F480736B61BFF34F8FBFF3C0
:102DFC006F8F6B6932F8022C23F480736B61BFF315
:102E0C004F8FBFF36F8F4DF602739A4227D1236811
:102E1C004C4A4348012107F0A8FA2368FA79DAB939
:102E2C0007F1080504F1200C206861682A4603C2EA
:102E3C00083464451546F7D17A6A002E67D0C2F380
:102E4C00080121B96FEA52226FEA42227A6207F135
:102E5C0008011846FFF784FD2C37BD46F0BDAB6A60
:102E6C00DBB233B1FA1D01212046FFF7C5FE034644
:102E7C00D4E7AB6A13F47F4F04D0F91D0120FFF7A0
:102E8C00FFFDF4E7AB6AB3F5803F02D3FFF760FEBA
:102E9C00EDE72D49244A254840F2ED2307F041F88F
:102EAC002A4807F03EF840F2ED2167E726491E4A12
:102EBC001E484FF43C7307F034F8254807F031F8FE
:102ECC004FF43C715AE7FA1D0021CDE7F91D0020A3
:102EDC00D5E7204973E7204A204910F4F87F6D4666
:102EEC008AB018BF11466A46103BD3611C484FF498
:102EFC00007313841B4BC2E9050142F8103F0848CC
:102F0C0000234FF41151FFF7F7F8AD465AE722F4BE
:102F1C00FF7222F0010299E700ED00E062C70000A9
:102F2C0020B500008DC7000095C60000E9BB00006D
:102F3C00A0C70000DEC70000F5C7000016C80000DF
:102F4C0024C8000043C8000049D300005FC800003B
:102F5C0083C80000B3C8000049C7000034C7000094
:102F6C00D7C8000004000001044B5A6942F010025B
:102F7C005A615A6922F008025A61704700ED00E06C
:102F8C00EFF30880EFF3098101B57246FFF7D0FE2D
:102F9C0001BD00BF002080F31488BFF36F8F114870
:102FAC0080F3088800201049087001F01FFE0020F3
:102FBC000E490860BFF34F8F00F02EF8202080F3ED
:102FCC0011880B484FF40461401880F30988EFF323
:102FDC0014800221084380F31488BFF36F8F00F034
:102FEC0019F9000040330020261D002094ED00E06C
:102FFC00802500200749D1F890200023C2F3072236
:10300C001846934200DB7047C1F89830C1F8A00015
:10301C000133F6E700ED00E008B572B6002383F348
:10302C001388FFF7E7FF144B4FF0FF32C3F88020F3
:10303C00C3F88420C3F88820C3F88C20C3F89020F0
:10304C00C3F89420C3F89820C3F89C20C3F88021BF
:10305C00C3F88421C3F88821C3F88C21C3F89021CC
:10306C00C3F89421C3F89821C3F89C2162B6BFF32E
:10307C004F8FBFF36F8F08BD00E100E0084B9B68DA
:10308C0083420BD1EFF3058343B1064B5A6842F0F0
:10309C0080525A605A6A22F400425A6204F0CABE44
:1030AC00C81A002000ED00E015498A684FF0300086
:1030BC001044EFF3098C80E8F01F202080F3128875
:1030CC00BFF36F8F0F4F4FF000664A698A603E6006
:1030DC00D2F8A4000C4C2060D2F8A8000023C2F84F
:1030EC00A83080F3118804B5104600F02BF9BDE828
:1030FC00044002F1300090E8F01F8CF3098870470F
:10310C00C81A002004ED00E0981900201EF0040FEE
:10311C000CBFEFF30880EFF30980816911F8021CF2
:10312C000229FFD001B5724607F0CAF901BD00BFF4
:10313C0040B2002807DB044A4109012300F01F00BC
:10314C00834042F82130704700E100E040B2002893
:10315C000CDB4309064900F01F002033012282409A
:10316C0041F82320BFF34F8FBFF36F8F704700BF21
:10317C0000E100E0054B420900F01F0053F822204B
:10318C00012303FA00F01040704700BF00E100E09B
:10319C0038B54B1C072B04460D460FD9114A124962
:1031AC0012486B2306F0BDFE114829460723224620
:1031BC0006F0B7FE0B486B2106F0AAFE40B20028C1
:1031CC00ACBF00F160400B4A4FEA4313B8BF00F0AC
:1031DC000F00DBB2AABF00F56140135480F8003336
:1031EC0038BD00BFEAC8000021C90000E9BB0000DF
:1031FC003CC9000014ED00E0044B054A23F07F03AA
:10320C009360BFF34F8FBFF36F8F704700000000C8
:10321C0000ED00E008B5FFF7EFFF074AD2F8883061
:10322C0023F47003C2F88830FFF772FBFFF77CFBC6
:10323C0000F05EF803F0AAFC00ED00E042F8203C40
:10324C00009B42F81C3C0A49019B42F8183C029B2B
:10325C0042F8143C21F001014FF0807342F8043C19
:10326C0042F8081C0023203A0265C0F8A8307047C9
:10327C000D0F00000A4A0346906878B113F1160F3F
:10328C00D0F8940005D0A0F140029A4205D88342B0
:10329C0003D2814228BF002070470020704700BF36
:1032AC00C81A002008B515460C4A0D4B9060D0F892
:1032BC00A4201A600E4600F045F82C4686F30988C7
:1032CC000020044B98472046002100220023024C8A
:1032DC0020470000F9A400000D0F0000C81A0020C0
:1032EC0098190020014B10221A61704700ED00E084
:1032FC00044800232021C2180133272B82F8001325
:10330C00F9D1704700E100E008B5EFF30583064AF8
:10331C00103B02EBC30152F8330049688847BDE803
:10332C000840FFF79DBB00BF44B30000024B034AAB
:10333C000348012100F08CB800000120000000209F
:10334C00E4B80000D0F89420054B403A1A60054AC6
:10335C004021C3E901121846012100F09FB800BFBB
:10336C009C19002000000B1508B503461048D0F836
:10337C009020C2F30722013A934207D90D480E4A16
:10338C00012106F0F2FF6FF0150008BDC0F898306F
:10339C000A6822F01F021A4342F01002C0F89C2067
:1033AC008A6842F00102C0F8A0201846EDE700BF81
:1033BC0000ED00E018B5000080C90000F0B50E4625
:1033CC0085B01F4604460025B5420DDA606810B37F
:1033DC0097B1431E18420AD0104A11482B460121BE
:1033EC0006F0C3FF6FF01502104605B0F0BD1F28A4
:1033FC00F2D921680B42EFD12368019307F099F8B9
:10340C00A36801A90343D0B20393FFF7ADFF10F1FA
:10341C00160FE7D0421C01350C34D5E7A6C90000C5
:10342C0018B50000044B0522C3F89420BFF34F8F4E
:10343C00BFF36F8F704700BF00ED00E0BFF35F8FED
:10344C00024B0022C3F89420704700BF00ED00E04F
:10345C0038B50D4D01232A780C46FFF7AFFF2870C5
:10346C0016300FD1094A0A490A484FF4BF7306F0C7
:10347C0058FD0948214606F054FD04484FF4BF712D
:10348C0006F046FD38BD00BF211B0020C9C9000055
:10349C0049D30000E9BB0000F8C9000010B5144A7C
:1034AC00002312780C46FFF789FF10F1160F08D095
:1034BC00104A0021D2F89030C3F30723984210DB56
:1034CC0010BD0D4A0D490E4840F29D1306F029FD22
:1034DC000C48214606F025FD074840F29D1106F0E8
:1034EC0017FDC2F89800C2F8A0100130E2E700BF47
:1034FC00211B002000ED00E0C9C9000049D30000E9
:10350C00E9BB000024CA00002DE9F04F7B4C7C493C
:10351C00D4F890300D68C3F307239D4285B013D9BE
:10352C00784A7949794840F2F71306F0FAFCD4F856
:10353C00902077482946C2F3072206F0F2FC40F2AD
:10354C00F711704806F0E4FCFFF778FF4968002299
:10355C00954201F10C012DD16E4C6F4F25706846D0
:10356C00FFF7C2F9DFF8B481DFF8B4910646002505
:10357C00AE4232D1237861490020D1F89020C2F3B9
:10358C0007229342C0F2AF80FFF74CFFD1F8903086
:10359C00C3F30723082B00F0AC806249594A5B48FF
:1035AC0040F2692306F0BDFC5F4806F0BAFC40F21D
:1035BC006921C6E7C4F8982051F80C3C23F01F038E
:1035CC00134343F01003C4F89C3051F8043C43F00F
:1035DC000103C4F8A0300132BAE7009A02EB0513DC
:1035EC002901D3F80CA00AEA0700B0F5000F60D04F
:1035FC000AD8B0F5001F38D0B0F5800F4ED0B0F51A
:10360C00801F12D00135B3E7B0F1807F5CD0B0F1F0
:10361C00007FF7D19868D3F804A0525806F089FFC0
:10362C00CDE901A240F480200BE09868D3F804A007
:10363C00525806F07EFFCDE901A240F0885040F4CC
:10364C0030200390207801A9FFF78EFE002846DA7F
:10365C002D492C4A2D4840F2212306F062FC3348B8
:10366C0006F05FFC40F221216BE79868D3F804B0B8
:10367C00525806F05EFF1AF0010F40EA0800CDE93F
:10368C0001B20390DED02A491E4A2048832306F05B
:10369C0048FC284806F045FC832152E79868D3F88B
:1036AC0004A0525806F045FFCDE901A240EA0900FA
:1036BC00C7E79868D3F804A0525806F03AFFCDE952
:1036CC0001A240F08270BCE79868D3F804A052586D
:1036DC0006F02FFFCDE901A240F08870B1E7237806
:1036EC00013323708EE7C1F89830C1F8A000013384
:1036FC0043E7002005B0BDE8F08F00BF00ED00E00F
:10370C00F0B80000C9C9000049D30000E9BB0000B3
:10371C0051CA0000211B00200000F0FF000008111E
:10372C000000020604CB000054CB0000DACA0000F3
:10373C0085CA0000ABCA0000F0B587B007460E463C
:10374C0014460021102268461D4607F09EFB0223FA
:10375C008DF802302A46054B019321466846CDE987
:10376C00047605F053FA07B0F0BD00BF5FA500006A
:10377C0008B5024B1B689847002008BDA81900200B
:10378C00034B044A1860937843F00203937070471C
:10379C00A8190020D010002008B50649064821F0D1
:1037AC000701C1F1005202F58032FCF7AFFE002098
:1037BC0008BD00BF87330020AC190020044A012348
:1037CC00C2F840354FF080420020C2F8783570477F
:1037DC0000E0014048B1054B054A1B68B3FBF2F30E
:1037EC005843044B43F00103184770477C110020E9
:1037FC0040420F00A0B5000008B50448044A3F231E
:10380C00C0E9002301F02EFB002008BDB8190020F0
:10381C00FFFF0F0037B50C460A490B4A411A4023EB
:10382C000093491105462346084806F09DFE011EEB
:10383C0005DA2846234603B0BDE83040184703B0EC
:10384C0030BD00BFD4190020DDA50000C4B20000BB
:10385C00C9B2012908B509D908490948094A7E2382
:10386C0006F05FFB07487E2106F052FB03690C2231
:10387C0001FB0233986C00F0070008BDC5CB0000BB
:10388C00E9BB000088CB000070B5C9B201290369FF
:10389C000BD918491848194A40F2D71306F041FBC6
:1038AC00164840F2D71106F033FBEFF311852024B4
:1038BC0084F31288BFF36F8F0C2606FB0134A46CC3
:1038CC0014F0C00408D0A24206D085F31188BFF3CF
:1038DC006F8F4FF0FF3070BD71430B4401229A641F
:1038EC0085F31188BFF36F8F43680B445B6898476F
:1038FC000020F0E7C5CB0000E9BB000088CB00003E
:10390C0070B50D460649411A044649110548402236
:10391C00FFF7BAFF2B4601462046BDE8704018471A
:10392C00D4190020C4B200000022F8B501210546CC
:10393C001046FFF72DFC104801F0CCFA0446B8B93C
:10394C0001F0E8FA2F690D49384606F03CFC031EDD
:10395C0009DB0126BE642D69084905F1200006F03B
:10396C0032FC031E02DA1C462046F8BD6E65FBE7EE
:10397C006FF00404F8E700BF613A000010B90000D2
:10398C001FB500220123CDE90223094ACDF800D04E
:10399C006B46CDF804D006F014FE002805DB4FF47E
:1039AC0080420023684603F03BFA05B05DF804FB47
:1039BC00E9A5000010B5064C23782BB94FF4A5707F
:1039CC0007F0B1F901232370BDE8104001F0F6BBFC
:1039DC00221B002010B5EFF31184202383F31288EF
:1039EC00BFF36F8F074A136823F00201DB071160E6
:1039FC0002D4012001F0DEFA84F31188BFF36F8F3B
:103A0C0010BD00BF2C1A002030B4104B0C2202FB4E
:103A1C00003301460020D3E910521864EFF31180F3
:103A2C00202484F31288BFF36F8F9C6C04F0C004C5
:103A3C0044F002049C6480F31188BFF36F8F1DB1B6
:103A4C002B46034830BC184730BC7047D4190020B3
:103A5C00C4B20000012808B506D0032808D098B9D4
:103A6C000F4B9B6C5B0719D1BDE80840FFF7CCBF2F
:103A7C000C490D4A0D4840F2FE2306F052FA40F272
:103A8C00FE21094806F044FA0649074A07484FF454
:103A9C00427306F046FA4FF44271F2E708BD00BFDC
:103AAC00D419002049D3000088CB0000E9BB0000EA
:103ABC0010B4EFF31182202383F31288BFF36F8FBE
:103ACC001748016841F002040460C80707D482F368
:103ADC001188BFF36F8F012010BC01F03DBA4FF07D
:103AEC008041D1F80C04D1F80C14C907EFD5EFF3D1
:103AFC00118083F31288BFF36F8F0A498B6C03F02C
:103B0C00C00343F002038B6480F31188BFF36F8F03
:103B1C0082F31188BFF36F8F002010BCFFF774BFC6
:103B2C002C1A0020D41900202DE9F0414449BFF390
:103B3C005B8F0646012251E8003F41E80020002837
:103B4C00F9D1BFF35B8FA3B93E493F484B60CB60C3
:103B5C008A60FDF791FE00280BDA3C493C4A3D484F
:103B6C0040F2AA2306F0DDF940F2AA21384806F00B
:103B7C00CFF976B3731E012B58D8012E07D14FF015
:103B8C008043D3F81C3403F00303012B21D007F03E
:103B9C00EDF80546F8B9304B1B78E3B14FF0804394
:103BAC000222C3F808230746DFF8B0804FF08044A8
:103BBC00D4F81824D4F81834D20315D503F0030321
:103BCC00012B01D0012E0FD155B387F31188BFF310
:103BDC006F8FBDE8F081EFF31187202383F31288F8
:103BEC00BFF36F8F0125DFE7ADB1384606F092FCCD
:103BFC00D4F81835002BDBD1D4F80421002AD7D007
:103C0C00C4F80431D4F804310123C4F81835C8F8C9
:103C1C008031A360CCE70021212004F069F8E7E7AC
:103C2C004FF080430222C3F80423D2E70C49084A20
:103C3C0008484FF42F7306F074F94FF42F7195E781
:103C4C00D0190020C0190020F419002075C2000002
:103C5C0088CB0000E9BB0000261D002000E100E03D
:103C6C0049D3000010B5044C2046FDF743F920461B
:103C7C00FFF786FD002010BD893C000073B5104E87
:103C8C008DF807000446032501220DF107010020E1
:103C9C0002F0A0FD20B101233370204602B070BDAC
:103CAC003378002BF9D0013D08D007F05FF80028DD
:103CBC00EAD10021422004F01BF8E5E73570ECE76F
:103CCC00231B002008B5074807F031F838B1064827
:103CDC00FFF756FD0448FDF70DF9002008BD6FF005
:103CEC001200FBE704B30000F93C00000A2838B5C9
:103CFC00074D044604D1AB680D215B6828469847F4
:103D0C00AB6803485B68E1B29847204638BD00BFFA
:103D1C0004B3000010B5036961B92049204A214859
:103D2C004F2306F0FEF8204806F0FBF84F211C4804
:103D3C0006F0EEF8486850B91C49194A1948502346
:103D4C0006F0EFF81A4806F0ECF85021EFE7586847
:103D5C00F8B1884219D19C6808685860A14200D11A
:103D6C009860002008602AB15A680A609A68596005
:103D7C0002B99960002010E0814206D108682060E9
:103D8C0098688142EDD19C60EBE7044600680028FE
:103D9C00F2D1002AE8D16FF0150010BD4ECC000016
:103DAC0012CC0000E9BB000057CC000066CC000030
:103DBC0078CC000008B50268530904D14FF0FF33EA
:103DCC00D340DB070BD407490748084A4FF47473F8
:103DDC0006F0A7F805484FF4747106F099F84FF007
:103DEC00A04008BDC2CC0000E9BB00008FCC000095
:103DFC0070B54468207C01F01F0545EA4015A068A9
:103E0C0086B000286DD0B2F5001F04D1294601F010
:103E1C002BFE002049E001A80026B2F5800F019688
:103E2C00466031D1B3F1007F14BF052304238DF814
:103E3C0004300023CDE904030393E368CB40D90796
:103E4C0035D4B2F1A07F32D168460095FFF7B2FFAE
:103E5C0005F5E07350F82330DB0728D4A0686A46D8
:103E6C00294601F0A1FC163019D0CDF808D0A06875
:103E7C0003AA294601F04EFB002816DBA06801229C
:103E8C00294601F071FDC4E7B3F1C06F05D0B3F161
:103E9C00007F14BF01230223C9E70323C7E7A068EF
:103EAC00694601F041FD0028DFDA06B070BDA0685C
:103EBC006A46294601F078FC0028D8D19DF80010FC
:103ECC00A06801F015FD0028D1D007490748084A21
:103EDC0040F2E51306F025F8054840F2E51106F02E
:103EEC0017F86FF08500E0E7F7BE0000E9BB0000B3
:103EFC00E5CC0000430970B507D1124B596821B1CC
:103F0C0001250C68104E854001B970BD8A682A40A5
:103F1C0010D04B6863B90D490D4A0E48742306F056
:103F2C0000F80D4805F0FDFF0948742105F0F0FF7D
:103F3C00304698471CB1236821461C46E4E72346CB
:103F4C00FAE700BF301A0020E4B20000C8D200002B
:103F5C0012CC0000E9BB000078CC00002DE9F04346
:103F6C00476840F206363B7CD00687B001F01F054F
:103F7C0002EA060645EA431554BFC2F34013032375
:103F8C00B6F5837F14468DF8033044D00DD8062E39
:103F9C0016D005D8A6B1022E3FD06FF0150037E031
:103FAC00B6F5807FF9D101260AE040F20222964252
:103FBC0035D0B6F5407F34D0B6F5007FEDD1022672
:103FCC000123220303FA01F12DD57B68C3F80815F0
:103FDC00B86870BB03A80395FFF7ECFE84F480333C
:103FEC0000EB8500C3F30043C4F34044D0F8002732
:103FFC0044EA43049DF8033022F4E16244EA83046A
:10400C0022F0070244EA06231343C0F800370020CD
:10401C0007B0BDE8F0830726D2E70426D0E70526D3
:10402C00CEE70326CCE7630344BF7B68C3F80C15CB
:10403C00CEE70DF10202294601F0B6FB14F4403F25
:10404C00804617D1B868294601F03AFCB8F1000F48
:10405C00DDD19DF80210B86801F04AFC0028D6D0DA
:10406C001E491F481F4AF42305F05BFF1D48F4212D
:10407C0005F04EFF4FF0000901ABCDE90199CDE9F8
:10408C000439CDF80C90B86803AA294601F042FA1D
:10409C004845BCDB14F4003314D084F480349DF810
:1040AC0003308DF80E30C4F300448DF80C608DF89D
:1040BC000D40B8684B4603AA294601F0DDFA0028EA
:1040CC00C4DAA4E7CDE904330DF103030393B86814
:1040DC0003AA294601F01EFAF1E700BFF7BE000063
:1040EC00E9BB0000E5CC000038B54568A86890B184
:1040FC0001F0CCFB014670B9A86801F087FB0446BF
:10410C0058B902460649A86801F036FB224605213B
:10411C000620FFF73DF8002038BD6FF00400FBE7E8
:10412C00013F0000054A064B93624FF040221A6093
:10413C00012100220420FFF72BB800BF50110020F2
:10414C003C1A00202DE9F04F89B002AF9346BB60BA
:10415C0003693B614368D3F820A09B8AFB604FF056
:10416C00FF324FF0FF3305460C4606F098FA3B69D8
:10417C0040337B61002378690022002602F050FE58
:10418C0033465E4501D3002340E0207A010700F15D
:10419C00938001365E4521680BD2820709D4227DBB
:1041AC0080EA020C0CF0010C02F004025CEA020C36
:1041BC0008D023B901F06042B2F1005F3FD04FF05C
:1041CC00000801E04FF001086268D7F80CE003EB3F
:1041DC00020CF44524D96C468CB0286802A9384EE0
:1041EC00CA61C1E90563FB680A46C1E9083040F2BF
:1041FC0003530B85334B42F8103F002332484FF4E6
:10420C005151FDF779FF6FF01B03A54628467B61E2
:10421C0006F049FA7B691C371846BD46BDE8F08F9D
:10422C00C00705D40AEB03007B6006F020FE7B6818
:10423C0062681A4493B2B8F1000F26D1D3B9D4F8FE
:10424C000090A3884FF00008BA68217A00922846A3
:10425C004A4600F05FF8031ED8DB4FF480427869C1
:10426C00002302F0DDFD40B1284606F02FFA6FF076
:10427C000403CBE79846D146E6E73B691B6D002B60
:10428C00F5DB237ADB0702D400230C3479E7CA452B
:10429C00FAD123460AE0A8EB0201D8687B601FFA2A
:1042AC0081F819FA81F106F0E2FD7B685A689045B5
:1042BC00A3F10C03EFD2E7E76FF08503A6E700BF8D
:1042CC0023CD000006000001F8B4000008B5CA07B1
:1042DC0043680AD4C1F34201012909D002290FD045
:1042EC000A4A0B48012106F037F86FF0150006E07A
:1042FC009B6A1B684FF0CC72C3F82425002008BDC4
:10430C009B6A4FF0C8621B68F6E700BF09CE00003D
:10431C00F8B40000F0B589B047680C461646002189
:10432C0012220DF10E001D4606F0AFFD04F0010344
:10433C008DF80C30BDF838308DF80D30BB8C0495F1
:10434C00AB4206960AD20A4800930A4A2B46012130
:10435C0006F015F86FF01B0009B0F0BD84F00202F6
:10436C00C2F34002B86A520103A901F0E9FDF3E778
:10437C00F8B400001BCE0000B0B5456800AFAB69C7
:10438C0004469847E869012106F091F92A69A86A60
:10439C002346294601F0C0FC002817DA23686C4636
:1043AC0088B06A460C49C2E905134FF40073938335
:1043BC000A4B42F8103F0A4800234FF4E251FDF734
:1043CC009BFE6FF00400A546BD46B0BD204606F02E
:1043DC0095F90020F8E700BF62CE00000300000151
:1043EC00F8B4000008B50268530904D14FF0FF334C
:1043FC00D340DB070BD407490748084A4FF47473C2
:10440C0005F08FFD05484FF4747105F081FD4FF0F8
:10441C00A04008BDC2CC0000E9BB00008FCC00005E
:10442C002DE9F04FDFF854B185B01546824600EB0C
:10443C00810840F2FF19D04503D1002005B0BDE83A
:10444C00F08FDAF800305A04C3F3C321C3F3080425
:10445C0000F18E804A4A1B0E575C4C4508BF4FF04A
:10446C00FF34192B00F28780DFE803F00D141A1DBE
:10447C0020261D8585858535618585858585858580
:10448C00858564797C7FC5F80C45631C5CD10AF189
:10449C00040AD0E7C5F81445661CF8D000265CE089
:1044AC00C5F80845F1E7C5F81045F5E7601CC5F8F7
:1044BC000845ECD0002604E0611CC5F80C45E6D09C
:1044CC00012603A80394FFF78DFF012101FA04F3E1
:1044DC00C0F80C3508E0C5F80845002FDCD1631C8A
:1044EC00D5D0002631460627DAF80030019303F4C4
:1044FC000040002818BF002103A8009118BF012616
:10450C000394FFF76FFF019B009900EB8400C3F34A
:10451C00412CD0F800473B0243EA8C030B4304EADE
:10452C000B04234343EA4603C0F80037AFE7C5F852
:10453C000C45D2E7C5F86045621CDAF80030A6D00D
:10454C00C3F30043002BBBD003A80394FFF74AFF2F
:10455C00012606FA04F3C0F808353146C4E7C5F85D
:10456C006445E9E7C5F86845E6E7C5F86C45E3E757
:10457C006FF0150062E76FF085005FE7F0F8FCFF65
:10458C0082CE00002DE9F041044647680D4606F046
:10459C00EDFB4FF0200888B9264B1B7873B16426CD
:1045AC00606806F0F7F8F0B9012006F04BF9013E0F
:1045BC00F6D10021212003F09BFBF0E7EFF31186ED
:1045CC00314688F31288BFF36F8F606806F0E2F80B
:1045DC00A8B986F31188BFF36F8FEFE786F31188C4
:1045EC00BFF36F8FE5E7EFF31186314688F312883E
:1045FC00BFF36F8F606806F0CDF80028EED0BB6972
:10460C001D706368BA691B680020C3F84425012239
:10461C00C3F84825C3F82001D3F82041C3F858014A
:10462C00D3F858019A6081F31188BFF36F8FBDE8FE
:10463C00F08100BF261D00202DE9F0410022054627
:10464C0001210220FEF7A4FD0220FEF771FD6C682B
:10465C000121E06806F0CFF86B681A682369C2F88C
:10466C002435637D217D0B43C2F86C356F68D7E927
:10467C00004313F0010346D0D5F8108004F10C016F
:10468C0008F1080204F5907006F019F9061E07DA15
:10469C002A4A2B48012105F05FFE3046BDE8F08127
:1046AC0098F8080000F002FC0823C4F80035BB6938
:1046BC00C4F844350023C4F848350123A360D4F86A
:1046CC005831002BFBD00026C4F800656B683146CE
:1046DC00D86806F090F86D6831462C68E86806F0EA
:1046EC008AF80823C4F800352A7A52B9EB69C4F861
:1046FC0034350123C4F83835C4F81021D4F810210E
:10470C0023600026C9E70822C4F80025BA69C4F85A
:10471C004425C4F848350123A360D4F82031002B7C
:10472C00FBD00023C4F82031D4F820310123E360FE
:10473C004FF48073C4F80433C1E700BF8ACE000085
:10474C0030B5000070B40E49D1E90034D01AC3184A
:10475C0044F10004C2F30E06C1E90034A6F58053FF
:10476C00B3F5C04F09D2074B1B685A0CDB039C19DD
:10477C00054B42F10005C3E9004570BC03F046BF90
:10478C00F8160020A81A002000170020E0B1BFF393
:10479C005B8F0E4B53E8001F41F0020143E80012FF
:1047AC00002AF7D1BFF35B8F094A4FF40033C2F8EC
:1047BC000433084ABFF35B8F1268BFF35B8F920719
:1047CC0044BF054AC2F80031704700BFA41A00204C
:1047DC00001001409C1A002000E100E00C4BBFF3DC
:1047EC005B8F53E8000F20F0020243E80021002900
:1047FC00F7D1BFF35B8F074B4FF40032C3F808239C
:10480C00BFF35F8FBFF36F8FC0F34000704700BFE3
:10481C00A41A00200010014030B5144B1868410C4C
:10482C00C003BFF35F8F124BD3F8043547F6FF720A
:10483C0093420AD10F4AD2E90045844275EB01023A
:10484C0009D3C01841F1000130BD181841F1000125
:10485C00B3F5006FF8D2074BD3E90023904271EB0C
:10486C000303F1D210F50040ECE700BFA81A0020BA
:10487C0000100140001700202DE9F743374CD4F805
:10488C000433D90319D540230022990810290CD1DF
:10489C00D4F84031002B41D00023C4F84031D4F877
:1048AC0040314FF480324423EFE70433502BECD1EA
:1048BC001AB12B4A136801331360D4F804339A03EA
:1048CC0029D5BFF35B8F274B53E8002F22F0020151
:1048DC0043E800100028F7D1BFF35B8F930702D495
:1048EC00D4F84431BBB10025C4F84451D4F8443158
:1048FC00FFF792FFEFF31182202383F31288BFF3AB
:10490C006F8F194BD3E90667B042B94108D282F3D5
:10491C001188BFF36F8F03B0BDE8F0834423B4E775
:10492C004FF0FF384FF0FF39C3E90689D3E9041083
:10493C001D614FF40033C4F84833C4F84451D4F823
:10494C00443182F31188BFF36F8F0029E3D00090BC
:10495C0032463B4601208847DDE700BF001001408E
:10496C00A81A00209C1A0020D81600202DE9F74F19
:10497C000D461F46044601929DF83080FFF72EFF2E
:10498C000090FFF749FFA04271EB05034CD2201AAF
:10499C0044F2010365EB0101984271F1000146D22A
:1049AC00324BD3E906239D4208BF944255D0304B7D
:1049BC004FF4003E4FF00009C3F848E3C4F30E0C6B
:1049CC00C3F84491D3F84421032062466FF0020AE5
:1049DC0043F6FD7BC2F30E01002908BF0122C2F38E
:1049EC000E01C3F84415C3F844E3D3F80465AAEBED
:1049FC0006011144C1F30E0159452ED9D3F84421B7
:104A0C0062B1D3F80465A6EB0C02C2F30E02B2F548
:104A1C00804F22D9C3F84491D3F84421B8F1000F48
:104A2C0005D182190130D5E7B8F1000F08D06FF02D
:104A3C0015040098FFF7AAFE204603B0BDE8F08FDE
:104A4C000C4BBFF35B8F53E8001F41F0020143E8AE
:104A5C000012002AF7D1BFF35B8F044B019AC3E914
:104A6C000645C3E904270024E3E700BFD81600205D
:104A7C00001001409C1A00207FB5284C284BC4F82C
:104A8C000833C4F84833274B274A00254FF0FF3032
:104A9C004FF0FF314FF48036C4F80855C3E90201DA
:104AAC00C4F80463C3E906014FF40033C4F80433BB
:104ABC000121C2F8803111202A46FEF769FB112032
:104ACC00FEF736FB0123A3602360184B03221A6008
:104ADC000021174A00952B4643F6FF70FFF746FF5F
:104AEC000220FFF721F8134A13491368134823F0E7
:104AFC000103136047F6FF73C4F844630DF10F0212
:104B0C00C4F8403505F0DBFE002804DB9DF80F00EF
:104B1C0000F0CCF9284604B070BD00BF0010014075
:104B2C0001000F00D816002000E100E0A41A0020BC
:104B3C0051470000A01A002008100140401101400C
:104B4C00421C13B5034643F6FF7020D08342A8BF26
:104B5C000346012B1C46B8BF0124FFF75DFE0E4B2C
:104B6C00D3E90021801AB0F5804F43F6FF7310D2C1
:104B7C002044984228BF184680184FF00003074A7B
:104B8C00009341F10001FFF7F1FE02B010BD0446A5
:104B9C00E3E71846F0E700BFF81600205147000085
:104BAC0008B5FFF739FE024B1B68C01A08BD00BFE1
:104BBC00F81600204FF0704393F8E02F062A09D125
:104BCC00D3F8E83FC3F30313033B042B02D8024A88
:104BDC00D05C704700207047D6CE0000024AD2F855
:104BEC000034002BFBD0704700E0014010B505F0FD
:104BFC0018FE40B14FF080538E4AD3F82433C3F3E0
:104C0C000423C2F84035FFF7D5FF10B18A4B8B4A0D
:104C1C005A6705F006FE48B14FF080534FF08042C2
:104C2C00D3F84432C3F34233C2F83C35FFF7C2FF2A
:104C3C0030B1834AD2F8FC3023F08073C2F8FC30D8
:104C4C0005F0EFFD40B14FF080430022C3F80C217A
:104C5C00C3F81021C3F83825FFF7ACFF20B14FF093
:104C6C0080430322C3F8A025FFF7A4FF60B1754B66
:104C7C000522C3F810260122C3F888260022C3F8A7
:104C8C0018263F22C3F814264FF08053D3F8302156
:104C9C00511C09BF4FF07043D3F8343193F8E02F17
:104CAC00D3F8E83F08BFC3F30313062A4DD1033BE7
:104CBC00042B03D8644AD35C002B46D04FF08052AF
:104CCC00624BD2F80414C3F82015D2F80814C3F8B8
:104CDC002415D2F80C14C3F82815D2F81014C3F804
:104CEC002C15D2F81414C3F83015D2F81814C3F8D4
:104CFC003415D2F81C14C3F84015D2F82014C3F89C
:104D0C004415D2F82414C3F84815D2F82814C3F863
:104D1C004C15D2F82C14C3F85015D2F83014C3F833
:104D2C005415D2F83414C3F86015D2F83814C3F8FB
:104D3C006415D2F83C14C3F86815D2F84014C3F8C3
:104D4C006C15D2F84424C3F8702505F06AFD48B1FF
:104D5C004FF080534FF08042D3F8583203F04F039A
:104D6C00C2F8E43E05F05DFD48B14FF08043D3F846
:104D7C000024D20744BF6FF00102C3F800244FF0A7
:104D8C008053D3F83021062A26D1D3F83431033B93
:104D9C00042B02D82E4AD35C63B12E4AD2F83C378E
:104DAC0043F48063C2F83C374FF08053D3F8303172
:104DBC00062B11D14FF08053D3F83431033B042B25
:104DCC0002D8254AD35C3BB14FF01023D3F808220C
:104DDC004FF08043C3F858254FF01023D3F800222E
:104DEC00002A03DBD3F80432002B22DA1B490123FF
:104DFC004FF01020C1F804351524FFF7EFFEC0F872
:104E0C000042FFF7EBFEC0F80442FFF7E7FE002379
:104E1C00C1F80435FFF7E2FEBFF34F8F0849104B82
:104E2C00CA6802F4E0621343CB60BFF34F8F00BF3C
:104E3C00FDE710BD0030014000C007400DF0ADBAD9
:104E4C0000ED00E000500040D1CE000000C000405A
:104E5C00CCCE000000100040C7CE000000E00140A6
:104E6C000400FA05014B1860704700BFAC1A002013
:104E7C0010B50A4B1868144648B9094909480A4A3A
:104E8C003B2305F04EF808483B2105F041F805F0AE
:104E9C00DBFC0028A4BF2070002010BDAC1A002041
:104EAC0017CF0000E9BB0000DBCE0000024A012353
:104EBC008340C2F80435704700F00140014B0020DC
:104ECC001B681847B01A0020014B1B68184700BF1D
:104EDC00B01A002010B50C4C237993B9012323711F
:104EEC000A4B2060002818BF184600F0D9F850B9BA
:104EFC0023680748002BBDE8104008BF184600F097
:104F0C004BB96FF0770010BDB01A0020C94E0000ED
:104F1C00D54E000008B50C4B1A794AB90B490C4810
:104F2C000C4AAD2304F0FDFF0A48AD2104F0F0FF5C
:104F3C001B683BB10020FEF71DF918B9BDE808400D
:104F4C00FEF7F6B808BD00BFB01A00206ACF00000B
:104F5C00E9BB00002DCF000008B5114B1B794BB9F4
:104F6C001049114A1148FE2304F0DBFFFE210E48C4
:104F7C0004F0CEFF58B101280DD00D490A4A0B4858
:104F8C0040F21B1304F0CDFF40F21B11EFE7BDE81C
:104F9C00084000F013B9BDE8084000F095B800BF18
:104FAC00B01A00206ACF00002DCF0000E9BB000032
:104FBC0049D3000008B5124B1B795BB91149124A51
:104FCC0012484FF4917304F0ACFF4FF491710E48FA
:104FDC0004F09EFF28B1012807D1BDE8084000F07D
:104FEC00A1B8BDE8084000F059B90949064A07487C
:104FFC0040F23F1304F095FF40F23F11E7E700BF8A
:10500C00B01A00206ACF00002DCF0000E9BB0000D1
:10501C0049D300004FF08053D3F83021511C09BF05
:10502C004FF07043D3F8343193F8E02FD3F8E83FC6
:10503C0008BFC3F30313062A05D1033B042B04D882
:10504C00034AD05C7047002070470120704700BFB6
:10505C00CBCF000038B54FF080440123C4F808339F
:10506C0063600023C4F80031D4F8003142F21075AB
:10507C00D4F80C24D4F80C34D20307D5DB0705D5AF
:10508C00012005F0DFFB013DF2D138BDFFF7C2FF77
:10509C000028FAD0014B00225A71F6E7B81A00200A
:1050AC0038B5084C25794DB9012320602371FFF7E1
:1050BC00B1FF08B9002038BD6571FBE76FF07700D0
:1050CC00F9E700BFB81A002008B512490B794BB9A3
:1050DC0011491248124A772304F023FF1048772114
:1050EC0004F016FF4FF080430022C3F80021D3F8E0
:1050FC00002101221A60096811B1C3F8042308BD0C
:10510C00D3F80021002AFBD00022C3F80021D3F8E9
:10511C000031F4E7B81A00206ACF0000E9BB0000A8
:10512C0088CF000008B5084B1B794BB907490848D4
:10513C00084A892304F0F5FE0648892104F0E8FEAC
:10514C00BDE80840FFF786BFB81A00206ACF000000
:10515C00E9BB000088CF000010B54FF08043D3F8B6
:10516C000423D20715D5D3F8002192B10022C3F83D
:10517C0000210124D3F80021C3F80843FFF74AFFAC
:10518C00044B10B15A7922B95C71BDE810401B6810
:10519C00184710BDB81A0020074A137943B90121EA
:1051AC00106011714FF080421846C2F818357047E4
:1051BC006FF07700704700BFC01A002010B5324C5A
:1051CC0023794BB931493248324AE32304F0A9FE22
:1051DC003048E32104F09CFE4FF08043D3F81814C0
:1051EC00D3F81824C90337D502F00303012B03D0DD
:1051FC000BB105F081FB00234FF08042C2F818354B
:10520C000023C2F80431D2F804314FF08053D3F8A4
:10521C003021511C09BF4FF07043D3F8343193F84F
:10522C00E02FD3F8E83F08BFC3F30313062A08D1D5
:10523C00033B042B02D8184AD35C13B18A2005F027
:10524C0001FB4FF0804301229A60226872B9D3F8B7
:10525C000421002AFBD011E0D3F81424D207CAD5BC
:10526C00D3F81C249007C4D422681AB10222C3F8C4
:10527C00042310BDD3F80421002AFBD00022C3F86C
:10528C000421D3F80431F4E7C01A00206ACF0000DF
:10529C00E9BB0000D0CF000013D0000008B5094BCB
:1052AC001B795BB908490948094A4FF4907304F01B
:1052BC0038FE07484FF4907104F02AFEBDE8084010
:1052CC0005F01ABBC01A00206ACF0000E9BB000031
:1052DC00D0CF0000F8B54FF080431F4FD3F80443F4
:1052EC00012504F01A04002604B9F8BDB4FA84F0C0
:1052FC00C0F11F00830003F580739BB203F1804360
:10530C0005FA00F2196824EA02040029ECD01E60A8
:10531C001B684FF080430128C3F808230FD1D3F842
:10532C001824D3F81824920702D03B689847DBE77F
:10533C000222C3F81805C3F804239860D4E7074980
:10534C000748084A4FF4F47304F0EBFD05484FF49A
:10535C00F47104F0DDFD00BFC01A002049D3000039
:10536C00E9BB0000D0CF00004FF08053D3F83021C0
:10537C00511C09BF4FF07043D3F8343193F8E02F30
:10538C00D3F8E83F08BFC3F30313062A05D1033B48
:10539C00042B04D8034AD05C7047002070470120CE
:1053AC00704700BFF4D0000008B5026801461046F3
:1053BC0005F0BBFA58B90F490F4A10484FF47473F3
:1053CC0004F0AFFD4FF474710B4804F0A1FD02F032
:1053DC001F0352090B6009D00949074A074840F2DC
:1053EC00D93304F09EFD40F2D931EDE74FF0A040E7
:1053FC0008BD00BFC2CC00008FCC0000E9BB000090
:10540C0049D30000072808B50BD908490848094AB0
:10541C0040F2A73304F085FD064840F2A73104F0B2
:10542C0077FD800000F5807008BD00BF4DD00000F6
:10543C00E9BB000018D0000010B5CBB200EB430361
:10544C009A8AD1051BD5C2F3432122F4F8529A82D1
:10545C0000F1520400F1120232F8023F13F4807F83
:10546C0003D0C3F34323994209D09442F4D100EB07
:10547C00C10300225A60583005F004FA00B910BD7F
:10548C0005490648064A4FF4DB7304F04AFD04480C
:10549C004FF4DB7104F03CFDF7BE0000E9BB0000EB
:1054AC0057D0000073B5CEB200EB46060546B38A62
:1054BC00DB070C4628D505F017FB2146284605F0DE
:1054CC003EFA48B1B28A2B68520B03EB82030022DE
:1054DC00C3F81025C3F81025284621460025FFF7F0
:1054EC00ABFFB58201A80194FFF75EFF019B00EBB7
:1054FC008300074BD0F80027134043F00203C0F899
:10550C000037284602B070BD6FF01500FAE700BFF7
:10551C00F0F8FCFFF0B50D4685B01646044658B9B8
:10552C0052495348534A40F23A4304F0FAFC51486A
:10553C0040F23A4104F0ECFC1768CFB105F00DFADB
:10554C0000BBCDE900008DF80E008DF80F003B4636
:10555C000DF10F020DF10E01284605F028FAEAB202
:10556C0004EB4202938A23F0020343F0010393827B
:10557C00736853B3294620461A785F6805F0E6F93C
:10558C0018B1CFB16FF0150022E0E9B204EB410184
:10559C008B8A23F4604323F020038B8267B1032AA8
:1055AC00F0D8736858682368077803EB87038AB9C7
:1055BC00C3F81025C3F81025E9B204EB41018B8A1E
:1055CC0023F01C0343EA82038B82B3684BBB00209D
:1055DC0005B0F0BDD3F8100520F00300C3F810059A
:1055EC00206800EB8700D0F8103523F4473323F400
:1055FC004073C0F810352B02D0F810C503F4F853E3
:10560C0043EA024343EA0C03C0F8103504EB4703AA
:10561C00A3F85C508B8A43EA473343F020038B8218
:10562C00CAE7D3E9006729462046FFF705FF002E9D
:10563C00CDD063689E4206D004F1580005F004F901
:10564C00002804DAC4E7A3689F42F5D1002004EBDC
:10565C00C003C3E90167EDB204EB4505C0B2AB8AE8
:10566C0043EA402343F48073AB82B0E7D4D000000C
:10567C00E9BB000057D00000F0B50C4685B01E46C3
:10568C00054658B939493A483A4A40F2444304F07D
:10569C0048FC384840F2444104F03AFC12B305F09F
:1056AC0055F920B92146284605F049F908BBE7B25F
:1056BC0005EB4707BB8A13F01C0F02D05378012B64
:1056CC0017D001238DF80F300023CDE900230DF105
:1056DC000F01931C2046013205F069F9BB8A43F097
:1056EC000303BB82002E3FD02146284605F02EF93D
:1056FC0018B96FF0150005B0F0BD37782B6803EBC7
:10570C0087030022C3F81025C3F81025E2B205EB7D
:10571C0042024FEA870C938A23F4604323F0200360
:10572C009382707800B32968B67861440004D1F88C
:10573C00103523F4981323F4F853C1F810352302D1
:10574C0000F4403003F4F85303433005D1F81055FE
:10575C0000F4801003432B43C1F81035938A43EABD
:10576C00473343F0200393820020C4E7D4D00000D9
:10577C00E9BB000057D0000008B558B907490848E4
:10578C00084A40F24D4304F0CCFB064840F24D4130
:10579C0004F0BEFBC0E9031208BD00BFD4D000006A
:1057AC00E9BB000057D0000010B503460C4658B9B1
:1057BC001249134A134840F2564304F0B2FB40F22C
:1057CC0056410F4804F0A4FB4AB90F490C4A0D4846
:1057DC004FF4457304F0A5FB4FF44571F1E705F068
:1057EC00AEF838B1E4B203EB440300209B8A5B0BA8
:1057FC00137010BD6FF01500FBE700BFD4D0000094
:10580C0057D00000E9BB0000DFD00000F8B505461A
:10581C0058B91B491B481C4A40F2644304F081FBF5
:10582C00194840F2644104F073FB90F86C4024BBBF
:10583C0040222146143005F028FB2E682746E0B2A2
:10584C00FFF7E0FDA0F580739B081F2B08BF3750B6
:10585C0004F1010408BF3358082CF0D10024C6F819
:10586C007C4146F30730D6F87C31FDF761FC01230F
:10587C0085F86C30AB652046F8BD6FF07700FBE720
:10588C00D4D00000E9BB000057D0000008B558B9CF
:10589C0008490948094A40F26B4304F042FB0748A7
:1058AC0040F26B4104F034FB90F86C00003818BFE8
:1058BC00012008BDD4D00000E9BB000057D0000087
:1058CC0008B558B907490848084A40F2794304F02A
:1058DC0028FB064840F2794104F01AFBBDE8084069
:1058EC00FFF7E0BDD4D00000E9BB000057D00000AA
:1058FC0008B558B908490948094A4FF4906304F0AF
:10590C0010FB07484FF4906104F002FBBDE808401F
:10591C00044804F0B7BF00BFD4D00000E9BB0000BE
:10592C0057D000008011002010B50C4658B90A4918
:10593C000A480B4A40F2874304F0F3FA084840F255
:10594C00874104F0E5FA074804F07EFF0028A4BF65
:10595C002070002010BD00BFD4D00000E9BB0000B7
:10596C0057D00000801100202DE9F3410D4616465A
:10597C00044658B93749384A384840F2045304F0C1
:10598C00D0FA40F20451344804F0C2FACBB200EB26
:10599C0043039A8A12F01C0F09D131492E4A2F4821
:1059AC0040F2114304F0BDFA40F21141EBE704F070
:1059BC00C6FF2768F0B12946204604F0C7FF804691
:1059CC00C0B9550B2846FFF71DFD47F800803B5822
:1059DC00236803EB8503D3F8102542F00102C3F8CA
:1059EC00102526B122680123AB40C2F8043302B063
:1059FC00BDE8F081D7F80423002AA4BF4FF0004281
:105A0C00C7F804234EB91749134A144840F22B43E4
:105A1C0004F087FA40F22B41B5E79B8AC3F382036B
:105A2C00042B12D0052B12D001A80195FFF7BCFC5A
:105A3C00019BD0F81015D94001F001010231284624
:105A4C0002B0BDE8F04104F0FFBF0321F7E70221EB
:105A5C00F5E700BFD4D0000057D00000E9BB000030
:105A6C00B3D00000E9D0000008B558B90749084880
:105A7C00084A40F20B5304F054FA064840F20B511A
:105A8C0004F046FABDE8084005F02EB8D4D000006A
:105A9C00E9BB000057D000002DE9F04F074685B058
:105AAC0058B961496148624A4FF4C76304F039FA46
:105ABC005F484FF4C76104F02BFA8046082258F86F
:105ACC00049BD9F80413C9B241F00041484604F0D4
