:10000000C0330020A12F0000E9AC00008D2F0000BC
:100010008D2F00008D2F00008D2F000000000000AC
:100020000000000000000000000000001931000086
:100030008D2F000000000000B53000008D2F000063
:100040001533000015330000153300001533000090
:100050001533000015330000153300001533000080
:100060001533000015330000153300001533000070
:100070001533000015330000153300001533000060
:100080001533000015330000153300001533000050
:100090001533000015330000153300001533000040
:1000A0001533000015330000153300001533000030
:1000B0001533000015330000153300001533000020
:1000C0001533000015330000153300001533000010
:0C00D0001533000015330000153300004C
:1000DC0053B94AB9002908BF00281CBF4FF0FF31A3
:1000EC004FF0FF3000F00CB8ADF1080C6DE904CE08
:1000FC0000F010F8DDF804E0DDE9022304B07047ED
:10010C00704700BF034613F8012B002AFBD1181AC5
:10011C00013870472DE9F04786468C460846089E04
:10012C00154674461946002B40F0C2808542B2FA3F
:10013C0082F245D94AB1C2F1200300FA02FC2EFA30
:10014C0003F3954043EA0C0C94404FEA154EA8B2C9
:10015C00BCFBFEF8230C0EFB18CC08FB00F943EAA1
:10016C000C43994528D9EB1808F1FF3704D299456F
:10017C0002D9A8F102072B44A3EB0903A4B2B3FBE9
:10018C00FEFC0EFB1C330CFB00F044EA0344A042C3
:10019C0014D92C190CF1FF3304D2A04202D9ACF1C2
:1001AC0002032C44241A43EA07401EB1D440002316
:1001BC0034607360BDE8F0874746DDE76346F1E7DE
:1001CC0092BB431B01214FEA154EAFB2B3FBFEFCB1
:1001DC00200C0EFB1C330CFB07F840EA034398453C
:1001EC0062D9EB180CF1FF3004D2984502D9ACF16E
:1001FC0002002B44A3EB0803A4B2B3FBFEFC0EFBE2
:10020C001C330CFB07F744EA0344A7424ED92C19C4
:10021C000CF1FF3304D2A74202D9ACF102032C44F7
:10022C00E41B43EA0040C0E7C2F1200320FA03F1CB
:10023C00954090402EFA03F303434FEA154EAFB2AC
:10024C00B1FBFEFC0EFB1C10190C0CFB07F841EA71
:10025C000041884504FA02F422D969180CF1FF30E8
:10026C0004D2884502D9ACF102002944A1EB080163
:10027C009BB2B1FBFEFC0EFB1C110CFB07F743EA17
:10028C0001439F420ED9EB180CF1FF3104D29F426F
:10029C0002D9ACF102012B44DB1B41EA004192E78D
:1002AC006046E3E76146F7E76046A3E76346B7E7D6
:1002BC00834206D916B9002108467BE7C6E900E05F
:1002CC00F9E7B3FA83F78FB9834201D3724508D8A3
:1002DC00BEEB020460EB030301209C461EB9002117
:1002EC0068E73846FAE7C6E9004CF8E7C7F1200C96
:1002FC00BB4022FA0CF41C432EFA0CF120FA0CF33E
:10030C00B84001434FEA14490EFA07F5B3FBF9F86C
:10031C001FFA84FE09FB18300B0C08FB0EFA43EA9B
:10032C0000439A4502FA07F240D9E31808F1FF306E
:10033C0004D29A4502D9A8F102002344A3EB0A0384
:10034C0089B2B3FBF9F809FB183308FB0EFE41EA3E
:10035C0003418E452CD9611808F1FF3304D28E4528
:10036C0002D9A8F10203214443EA0040A0FB029801
:10037C00A1EB0E014145CE46434602D306D14D4575
:10038C0004D2B9EB020E68EB04030138002EA6D0A0
:10039C00B5EB0E0261EB030101FA0CFC22FA07F338
:1003AC004CEA0303F940C6E9003198E74046C5E73B
:1003BC004346D9E713B516480AF0A7F900F036F80A
:1003CC00044600F051F8E4B912480AF09EF90422F0
:1003DC00114B01930DEB0201204600F06DF80F4814
:1003EC000AF07FF8014640B90D480AF08EF9002159
:1003FC004FF4004008F086F8F9E70A480AF085F94E
:10040C00F5E7094821460AF080F9002002B010BD3A
:10041C0000C500002FC50000E1400C003DC50000E8
:10042C0096C50000B3C5000019C5000010B50A4CF4
:10043C000A4820600BF05AF948B109480AF065F9EE
:10044C0020680BF053F928B906480AF05EF96FF0F2
:10045C00120010BD0020FCE7681900200CBD000044
:10046C00CDC50000EBC500002DE9FF41104E114F2A
:10047C00082400250223CDE9015530688DF80C3095
:10048C009DF80C30826843F002038DF80C30D2F8E2
:10049C000880A3B2012201A9C04718B921463846E9
:1004AC000AF033F90134782CE4D104B0BDE8F081C2
:1004BC0068190020FAC5000030B5C5B040BAADF8D7
:1004CC000C000DF10E0014460BF0B0F90E4B03AD01
:1004DC00186800950234022301948DF808309DF8B9
:1004EC000830826843F002038DF808309468532377
:1004FC0001226946A04704460021A42008F002F816
:10050C00204645B030BD00BF68190020B2F5802FE1
:10051C002DE9F04110D2042A28D84549454A4648CD
:10052C0040F21A230AF007F944480AF004F940F2A1
:10053C001A2140480AF0F6F80823D21ACC1D1144AF
:10054C0024F0070421F00701091B17294FEAD106F3
:10055C000ED83B49374A384840F223230AF0EBF8CF
:10056C0036480AF0E8F840F22321E2E70423E4E7F6
:10057C00002504603146A660E56020460AF01AF8B2
:10058C00B6F5004F2CBF08230423421D92000833FC
:10059C00D11DDB0803EBD103B3424FEAD10739D8A5
:1005AC000130A2F110022946B8BF2A4604F110000E
:1005BC000BF04AF93A462946204609F0F7FF2B463C
:1005CC002A462946204609F0C8FFA6EB0708204614
:1005DC002946012209F0D2FF4246394609F0E6FFCE
:1005EC003B462A463946204609F0B7FF314620469D
:1005FC0009F0DCFF43462A463146204609F0ADFFA0
:10060C0031462046012209F0B9FF3946BDE8F041D8
:10061C0009F0DFBF0B49074A07484FF40E730AF085
:10062C008AF806480AF087F84FF40E7181E700BF8C
:10063C00FCC6000011C6000045C600001DC7000026
:10064C0036C700005FC700002DE9F04F91B005469A
:10065C00009302F004030193C2F3C2030133049329
:10066C008307DDF8689002920E4640F0FC81041D71
:10067C0030B1072909D86FF01B0011B0BDE8F08F1D
:10068C0001F007063444C6F10806009B4FF0000841
:10069C004FF0040B591ECDF80C80474643464FF0E3
:1006AC00FF32DA460DB1009820600498002800F360
:1006BC00DF809B48DDF800C0844503D3994884450E
:1006CC00C0F0D680DDF808C0A4EB050E1CF0020FBC
:1006DC004FEA9E0000F0E7804FF0000CD1E07A2842
:1006EC0062D84B280FD847285ED829282DD8252822
:1006FC0059D059D820287DD0A0F12309D9F1000375
:10070C0043EB090376E04C382E284DD8DFE800F097
:10071C00724C4C4C4C4C4C4C4C4C4C4C4E4C4C4CE5
:10072C004C4C4C4C4C5C4C4E4E5C5C5C724E6F4C6E
:10073C00724C184E184C4C817E4E4C4C4E4C7E00DC
:10074C00002000234FF0040B3CE02A384FF0010E40
:10075C00C0B20EFA00F04FF6DA7E10EA0E0F49D155
:10076C0010F0625E30D110F0010343D07046013CB2
:10077C005C44B4FBFBF40BFB04F4002D5ED0AAEB41
:10078C00050EA644B6453FF676AF002868D1BAF1FF
:10079C00040F43D1E14659F8040B20600434CC46D5
:1007AC004FF0040A26E0013A002323E011F8013C43
:1007BC006C2B30D111F8023C00206C2B0346C1D1BC
:1007CC004FF0080BDA46D2E70CF1070929F0070CB9
:1007DC000734FCE802AB24F0070435B1059820443B
:1007EC00B0423FF648AFC4E900AB083400234FF0E9
:1007FC00080BDA4611F8010F002800F0BC80002B22
:10080C007FF46DAF2528F5D1013201234FF0040B95
:10081C00EFE7184695E700200346A8E7BAF1080F62
:10082C0040F09B800CF1070929F0070CFCE8029AB8
:10083C00C4E9009A08344FF0080ADBE780B9BAF132
:10084C00040F02D10CF10409A8E7BAF1080F40F02B
:10085C0084800CF1070929F0070909F1080CE9E774
:10086C000498E1460138049059F8040B009019E7FC
:10087C000298800748D5A4EB050E4FEA9E004FF076
:10088C00010CBEF5007F1DD32749284A28484FF498
:10089C001F7309F050FF274809F04DFF4FF41F71EB
:1008AC00224809F03FFF0F2F0ED8002D46D007F13C
:1008BC00400CEC440CF8200C0CF8102C0398013074
:1008CC00039020E00F2F0CD91749184A184840F212
:1008DC00812309F030FF184809F02DFF40F28121E7
:1008EC00DEE7BDB107F1400EEE44C0B20EF8200CAD
:1008FC000EF8102CBCF1000FE0D060F07F000EF869
:10090C00200C08F101080137C5F108000434CC466D
:10091C0005906FE7BCF1000F10D00136F3E700BF74
:10092C0024BC00002CE800007DDF00008AC700001A
:10093C0045C60000B8C70000D9C7000001980236B0
:10094C000028E0D100980592CDE90631FFF7DAFBDB
:10095C00DDE90631059A0644D5E7444A4449454841
:10096C0040F2C62309F0E7FE5146434809F0E3FE86
:10097C0040F2C62194E7631BB3F5806F0CD33C495E
:10098C003A4A3C4840F2D22309F0D5FE3B4809F0E4
:10099C00D2FE40F2D22183E71DB9A6F10804E0187B
:1009AC006BE6019A28609B082B709DF80C30C2B145
:1009BC00EB7085F80280B8F1000F05D008A8002272
:1009CC00C5F1010C97420ED1C5F101030DF12009BF
:1009DC004FF0000A02930DF1300B574512D1601BFA
:1009EC004BE66B70E5E710F8013B190608D50CEBEC
:1009FC00040EB64503F07F033FF63DAE04F8013B11
:100A0C000132DFE7B8F1000F03D099F90020002A7A
:100A1C0017DB019BD3B11AF80B2004F8012B002231
:100A2C00029B18191044B0423FF625AE99F800000D
:100A3C0004F8010B0099039220460AF0F7FE039A82
:100A4C0014440AF1010A09F10109C6E799F80020DA
:100A5C0055F822300093019B45F822300098FFF79F
:100A6C0051FB421CDCE76FF00D0006E68AC7000064
:100A7C007DDF000045C60000F3C7000008C8000079
:100A8C002DE9F04F97B000AF8946D7F880B0FA62E5
:100A9C003B62044658B9A849A84AA94840F2993380
:100AAC0009F049FE40F29931A44809F03BFECBF322
:100ABC00C00390F802A07B6141B9457800780AEB3D
:100ACC00800020444D4517D8A0EB0409E378FB6166
:100ADC00BAF1000F02D01BF0010F16D1FB6953BB0A
:100AEC00FB6A1BB13A6A4946204698474D46284650
:100AFC005C37BD46BDE8F08F461C3046FFF702FB65
:100B0C000130304409F10109DCE7237862687A622C
:100B1C00FA6A9900B96104EB8301002A40F0018163
:100B2C004D460E4601EB0A094FF000084E454CD1DC
:100B3C0001EB0A0610E01BF0020FD1D023789A00CB
:100B4C00BA6162687A62FA6A04EB8301002A77D18F
:100B5C004D4601EB0A0690461BF0050F0CBF022315
:100B6C000123FB62FB6906EB430A0BF00203BB6239
:100B7C005645BCD016F8021B16F8013C54F82390CD
:100B8C00704B994502D3704B994536D37B69002B3A
:100B9C0040D0786A09F090FD00283BD0E9468AB035
:100BAC006A466A4B53617B6AC2E906314FF40073A3
:100BBC001384674B42F8103F664800234FF41251E0
:100BCC0001F09AFA023DCD46D2E716F8013BF962E4
:100BDC0054F82300FFF796FAD7F88430F96A0130FD
:100BEC004BB1D7F8883098453EBFD7F8843023F8FE
:100BFC00180008F10108054498E77B6923B1786A6D
:100C0C0009F05AFD0028C9D11BF0010F05D1FB6A70
:100C1C00ED1AADE7BB6A002BAAD04846FFF772FA73
:100C2C00D7F8843053B1D7F8883098453FBFD7F800
:100C3C008420431C22F8183008F10108054497E77A
:100C4C00BAF1000F73D01BF0040673D0D046002607
:100C5C0007F1480052463B61B9620AF0E7FDB96AF8
:100C6C003B6901EB0A02BA62FA69F9695200FA604F
:100C7C00BA6A02EB41023A610BF00202BA60BA6A3C
:100C8C0039698A4268D162787A621BF0020F324469
:100C9C000CBF4FEA580100211BF0010FD2B240F0FB
:100CAC00E4801BF0040F14BF404600207B6162708F
:100CBC00A070E1703A6AB969FB6A20469847051E34
:100CCC00FFF615AF7B6923707B6A6370FB69E37079
:100CDC0041463A6AFB6A84F802A007F1480098473B
:100CEC00B0F10008C0F2F580BB693A6AA9EB0A01C1
:100CFC00C91AFB68C91AD7E90A0398470028C0F239
:100D0C00EA80A84408EB00054FF0000B07F1380A05
:100D1C00B345C0F0AC8000213A6AFB6A084698479C
:100D2C00E5E656464FF0000807F1380092E75646C4
:100D3C00D04696E7B04694E71FC800008AC700006B
:100D4C0045C6000024BC00002CE800003AC8000096
:100D5C0004000001E0BE0000BA6A12F8021BBA627D
:100D6C0012F8015C5D4A54F82500904202D35C4AAB
:100D7C00904218D37A693AB1786A7B6009F09CFC8E
:100D8C007B6800287FF47BAFBA68002A4CD00F2E0A
:100D9C0040D95449544A554840F24D4309F0CBFCD4
:100DAC0040F24D4180E67A693AB1786A7B6009F08D
:100DBC0083FC7B6800287FF462AF1BF0010F0BD023
:100DCC000F2E27D94749484A484840F2434309F077
:100DDC00B2FC40F2434167E61BF0040F3FF44FAF07
:100DEC00B8F10F0F09D942493F4A404840F24643F7
:100DFC0009F0A1FC40F2464156E608F1280207F141
:100E0C00300008F1010102EB000808F8105C5FFAF1
:100E1C0081F834E706F1280207F13000711C16182E
:100E2C0006F8205CCEB22AE7B8F10F0F09D9304989
:100E3C002D4A2E484FF48A6309F07DFC4FF48A61E9
:100E4C0032E608F1280207F1300C08F10100944455
:100E5C0007F1580252FA80F008F102080CF8101C45
:100E6C005FFA88F800F8105C09E700201EE71BF811
:100E7C000A3087F8373054F82390D7F884302BB3E6
:100E8C00D7F888309B4521D2D7F8843033F81B80B3
:100E9C003A6AFB6A012107F13700984700281ADBF0
:100EAC000544B8F1000F06D14846FFF72BF900F1C5
:100EBC0001081FFA88F83A6AFB6A41464846984787
:100ECC00002808DB05440BF1010B21E74FF000086B
:100EDC00DEE745460BE6054609E600BF24BC0000EC
:100EEC002CE80000DDC800008AC7000045C60000E1
:100EFC00FCC80000014B1860704700BFC0100020F8
:100F0C0080B505460E461746984607F097FB0346F4
:100F1C000AF078FEDFF81890044649F80030424693
:100F2C0030463946A84754F8090002F0A7F800BF2C
:100F3C000800000038B50D460446202200210AF0B6
:100F4C0083FCEB68E361AB68A3612B6823626B687D
:100F5C0063620022A2622A6923B1591E194208BF9A
:100F6C0042F0010222610122002104F12C000AF05E
:100F7C00D0FB48B105490648064A2F2309F0DBFB94
:100F8C0004482F2109F0CEFB38BD00BF53C9000027
:100F9C0045C600002DC900002DE9F04F89B0CDE900
:100FAC000123436A00278B4204468846059707971E
:100FBC00BA4654D300F11406EFF31185202383F3C2
:100FCC001288BFF36F8F3046A94607F041FD58B920
:100FDC004D4A4E494E48882309F0ADFB31464D48E9
:100FEC0009F0A9FB882163E0304607F055FD079A0C
:100FFC002AB13946204609F086FC0023079306A93E
:10100C00204609F0A5FB06994145834630D322685A
:10101C00236A13F8221021F0030103F8221003EBCA
:10102C00820A21684246204609F0B6FBE36820603C
:10103C00984218D04FF0000B304607F017FD50B314
:10104C0089F31188BFF36F8F059929B1A2690AB191
:10105C002046904700230593BBF1000FACD15046BE
:10106C0009B0BDE8F08F236943F008032361E1E781
:10107C0018B1204609F0AAFBDEE7DDE90132134383
:10108C0039D003910AF051FB0399A0BB9DBB3046AC
:10109C0007F0ECFC78B91C4A1F491D484FF49A73B1
:1010AC0009F049FB31461D4809F045FB4FF49A7194
:1010BC00154809F037FB85F31188BFF36F8FDDE915
:1010CC00012304F12C0006F0B5FA8346EFF31189E5
:1010DC00202383F31288BFF36F8F304607F0B8FCE0
:1010EC0000283FF475AF3046BBFA8BFB07F0D4FCFD
:1010FC004FEA5B1BA0E707AB05AA2046276809F05F
:10110C0082FB834698E700BF5CC9000089C90000D8
:10111C0045C600009EC90000B4C90000CBC9000040
:10112C002DE9F0410446C36908460E46984704F180
:10113C0014050746EFF31188202383F31288BFF3BD
:10114C006F8F284607F084FC68B91B4A1B491C4862
:10115C00882309F0F0FA29461A4809F0ECFA88219C
:10116C00154809F0DFFA284607F096FC337843F06F
:10117C000103337061683A46204609F00DFB60604C
:10118C00204609F0DBFB284607F070FC68B90A4AD8
:10119C000D490B484FF49A7309F0CDFA29460B48C8
:1011AC0009F0C9FA4FF49A71DAE788F31188BFF3A2
:1011BC006F8FBDE8F08100BF5CC9000089C90000D9
:1011CC0045C600009EC90000B4C90000CBC9000090
:1011DC002DE9F843044600F11407EFF3118820239E
:1011EC0083F31288BFF36F8F384607F031FC054646
:1011FC0068B9354A35493648882309F09CFA39468E
:10120C00344809F098FA88212F4809F08BFA3846AF
:10121C0007F042FC2369A26813F0080F02D163683F
:10122C009A4200D9636A9B1A002B3FD0216A11F8AD
:10123C00223013F0030001EB82093AD0022803D1CB
:10124C0051F82260B60805D1D8071FD4E369484687
:10125C0098470646A1683246204609F09DFA314669
:10126C00A060204609F0A6FA384607F0FFFB10BB39
:10127C00154A194916484FF49A7309F05CFA394625
:10128C00164809F058FA4FF49A71BDE743F002037F
:10129C0001F822304846E369A5689847294602467A
:1012AC00204609F079FA0025A060DDE71D46A94625
:1012BC00DAE70546FBE788F31188BFF36F8F002D43
:1012CC008BD14846BDE8F8835CC9000089C9000091
:1012DC0045C600009EC90000B4C90000CBC900007F
:1012EC002DE9F0410446C36908460D46984704F1C0
:1012FC0014060746EFF31188202383F31288BFF3FB
:10130C006F8F304607F0A4FB68B9284A2849294852
:10131C00882309F010FA3146274809F00CFA882185
:10132C00224809F0FFF9304607F0B6FB2B786FF333
:10133C0000032B7023699B0705D5E268236A03EB36
:10134C0082039D4222D12B786FF341032B70D4E999
:10135C000231994204D13A46204609F01DFAA060A8
:10136C003946204609F026FA304607F07FFB90B943
:10137C000E4A12490F484FF49A7309F0DCF93146C2
:10138C000F4809F0D8F94FF49A71C9E72B6867F345
:10139C009F032B60E8E788F31188BFF36F8F04F18C
:1013AC002C00BDE8F04106F0C7B800BF5CC90000D6
:1013BC0089C9000045C600009EC90000B4C90000E0
:1013CC00CBC9000070B5044600F11405EFF311868B
:1013DC00202383F31288BFF36F8F284607F038FB66
:1013EC0068B91B4A1B491C48882309F0A4F92946F3
:1013FC001A4809F0A0F98821154809F093F92846F4
:10140C0007F04AFB2369A06813F0080F02D1636848
:10141C00984213D9646A241A284607F027FB78B936
:10142C000B4A0F490C484FF49A7309F084F929467A
:10143C000C4809F080F94FF49A71DDE71C1AEBE7C0
:10144C0086F31188BFF36F8F201E18BF012070BD6B
:10145C005CC9000089C9000045C600009EC9000097
:10146C00B4C90000CBC900002DE9F84F044608466A
:10147C00A38B1907154612D4022803F0070165D176
:10148C00204609F068FA88B10138042800F2378147
:10149C00DFE810F05C0035018200D4000401012863
:1014AC000CBF43F0100143F02001A18314342046FB
:1014BC0007F0DCFA002840F09D819A499A4A9B4833
:1014CC004FF49A7309F037F92146B1E003F00702A3
:1014DC00501F01281ED80020062A2768C4E90000E6
:1014EC0014D13A4603E0E08B0130E0831268002A05
:1014FC00F9D123F0070343F00202A283204609F03E
:10150C002AFA90B342F02002A2832EE023F00703C4
:10151C009AB2F2E7042A33D123F007039AB2A283DA
:10152C00204609F018FA10B142F02002A283A38BD6
:10153C0003F00709894540F0EC80A18BCA0640F105
:10154C00508121F01003A38301F00701D4F8188017
:10155C00A38BB8F1000FB9DA0022276823F0070338
:10156C00C4E9002243F00103A383A38B03F0070912
:10157C00894540F0CF80002FDFD00026B24644E0F2
:10158C006B496C4A694840F21B1309F0D4F840F2DD
:10159C001B11684809F0C6F849B16749654A6348A8
:1015AC004FF4AB7309F0C7F84FF4AB71F1E7236854
:1015BC004BB962495F4A5D4840F2571309F0BBF8DA
:1015CC0040F25711E5E723691E684EB95C49594A48
:1015DC0056484FF4AD7309F0AEF84FF4AD71D8E73F
:1015EC00A38B23F0070343F006039BB2A3830F46A0
:1015FC0088464FF00609A268002A40F08D80002F23
:10160C0040F08D80002E98D0BA4643F0080304F1C8
:10161C00140BA383584607F029FA002840F09A804F
:10162C004049414A41484FF49A7309F084F85946AD
:10163C00444809F080F84FF49A71ADE0022909D0C2
:10164C0041493C4A394840F25D1309F074F840F2C4
:10165C005D119EE7E78B4FB13C49364A33484FF456
:10166C00AF7309F068F84FF4AF7192E723695E68C5
:10167C004EB933492F4A2D4840F2611309F05BF8FB
:10168C0040F2611185E7A38B23F0070343F00403B9
:10169C009BB2A383B8464FF00409ACE7012909D0EB
:1016AC002B49244A21484FF4B27309F044F84FF403
:1016BC00B2716EE723684BB920491E4A1B4840F2B1
:1016CC00651309F038F840F2651162E723699E68EA
:1016DC004EB91B49174A15484FF4B47309F02BF84F
:1016EC004FF4B47155E7A38B23F0070343F00503C4
:1016FC009BB20027A383B8464FF005097BE70C4942
:10170C000C4A0A4840F26B1309F015F840F26B11C1
:10171C003FE7002700266EE74FF0010A75E7924677
:10172C0073E700BFB4C900005CC9000045C60000E7
:10173C007DDF0000E0C9000005CA000011CA0000EE
:10174C0034CA0000CBC900004BCA000061CA0000BB
:10175C0070CA000085F31188BFF36F8FBAF1000FC8
:10176C001CD177BB16B126492046B047EFF3118543
:10177C00202383F31288BFF36F8F584607F068F964
:10178C0038BB204A20492148882308F0D4FF594609
:10179C001F4808F0D0FF88211A48FBE6A1680029F1
:1017AC00DFD00D680029DCD0D1F804A043464A46AE
:1017BC002046D0471DB12B6829461D46F2E72B4623
:1017CC00FAE7394643464A4620463F6809F0EFF8A7
:1017DC00C7E7584607F060F9A38B23F00803A383EF
:1017EC00ABE68B067FF562AE21F02003A38301F0FC
:1017FC00070145E685F31188BFF36F8FBDE8F88FBD
:10180C00211800005CC9000089C9000045C6000011
:10181C009EC90000F8B504460D4600F11406EFF31E
:10182C001187202383F31288BFF36F8F304607F0A4
:10183C000FF968B90C4A0D490D48882308F07BFF55
:10184C000C48314608F077FF0748882108F06AFFFA
:10185C00304607F021F9A5613A4620460121BDE842
:10186C00F840FFF701BE00BF5CC9000089C9000049
:10187C0045C600009EC900002DE9F04704460F46FE
:10188C0009F085F8051E68DB04F11409EFF3118AE1
:10189C00202383F31288BFF36F8F484607F0D8F8E4
:1018AC00804660B9384A39493948882308F043FFE3
:1018BC004946384808F03FFF8821334842E0484603
:1018CC0007F0EAF8E38BA68B4FF6FF72934206F013
:1018DC00070645D0022E15D10133E3833546484621
:1018EC0007F0C4F8002841D1274A2B4928484FF467
:1018FC009A7308F020FF4946284808F01CFF4FF463
:10190C009A71DAE7062E13D8DFE806F0092D1212C9
:10191C00090409006FF085054FF00008DFE700238C
:10192C003B60636883B9C4E9007786B13546F3E759
:10193C001B4917481B4A4FF4E47308F0FCFE194886
:10194C004FF4E47108F0EEFE1F606760EDE752465D
:10195C0002212046FFF788FD35462846BDE8F08772
:10196C006FF00A05D8E76FF00405D5E78AF3118804
:10197C00BFF36F8FB8F1000FEFD00023324639461A
:10198C00204609F014F8E8E75CC9000089C900009A
:10199C0045C600009EC90000B4C90000CBC90000B8
:1019AC0070CA0000E0C9000008B54268816002F00E
:1019BC000302032A034602D02AB1002000E000688B
:1019CC0000225A6008BD05490548064A452308F01F
:1019DC00B2FE0448452108F0A5FE00BF7DDF0000E3
:1019EC0045C6000086CA000030B51049104889B0C1
:1019FC00002209F0F3FE0F4D0F4900220023CDE920
:101A0C00062300240E23CDE90334CDE901440B4B0E
:101A1C0000944FF40062284605F064FF08492846FC
:101A2C0005F082FE204609B030BD00BF991B0000B6
:101A3C00D016002018120020C01D0020ED1E000042
:101A4C00ACCA00002DE9F047DFF858800446074681
:101A5C004FF0010914B93846BDE8F08794FAA4F5A3
:101A6C00B5FA85F509FA05F32E0108EB05156FEAB1
:101A7C00030A24EA03042B7B002BEBD058F8063026
:101A8C001B694BB94644042273682846196807EA57
:101A9C000A0708F0FBFFDDE7284698470028D9D154
:101AAC00F0E700BF40BF00002DE9F047DFF8BC9025
:101ABC002F4CA9EB04038F2B80460F460BD92D49D5
:101ACC002D4A2E484FF4A67308F035FE4FF4A6713C
:101ADC00294808F027FE2A4808F0B8FF064678B3D4
:101AEC0000252846BDE8F087237B83B12368DB689B
:101AFC000BB120469847636883F806A023681B69DE
:101B0C00B3B9636804221968204608F0BFFF013698
:101B1C0010344C4518D91B49174A18484FF4AC736C
:101B2C0008F009FE184808F006FE4FF4AC71CFE738
:101B3C00204698470028E4D00AFA06F31D43E6E74E
:101B4C0005464FF0010AE4E7CED3B8F1000FC8D038
:101B5C00002DC5D02846FFF775FF0546002FF7D09E
:101B6C0000214FF4A47006F0CDFCF1E760BF00003B
:101B7C0040BF0000E1CA0000B4CA000045C6000026
:101B8C008019002011CB000032CB0000014805F079
:101B9C00D3BC00BF04120020014B53F82000704747
:101BAC005CC2000008B5034608462BB1044A13601A
:101BBC0000F0BEFD002008BD6FF01500FBE700BF74
:101BCC00C410002010B5044C237813B9034805F059
:101BDC00B3FC0123237010BD781B002004120020DD
:101BEC0010B504460B4808F031FF5CB1BFF35B8FB6
:101BFC00094B53E8001F013943E80012002AF8D1C1
:101C0C00BFF35B8F054809F0F5FD0548BDE81040B2
:101C1C0005F092BC781900207C190020D016002009
:101C2C00041200200020064BBFF35B8F014653E8E3
:101C3C00000F43E80012002AF9D1BFF35B8F704705
:101C4C007819002070B5FFF7EDFF104C104E0546CB
:101C5C00B44219D90F49104A10484FF4037308F0D5
:101C6C006AFD0F4808F067FD0B484FF4037108F04C
:101C7C0059FD63685B792BB123685B6813B1294606
:101C8C00204698471034E3E7F3D370BD40BF000003
:101C9C0060BF000011CB0000B4CA000045C60000B4
:101CAC0032CB000010B5044C04492046FFF742F932
:101CBC00034B1C6010BD00BFC411002048C20000C3
:101CCC006C190020154A1648002310B51370154ADC
:101CDC001360154A4FF400411360FFF763FFFFF7E1
:101CEC00E1FF124B124918468B4215D91149124A81
:101CFC00124840F2271308F01EFD114808F01BFD96
:101D0C000D4840F2271108F00DFD1A1A5C681211EB
:101D1C00013222711033E7E7F7D310BD791B002095
:101D2C0055AA0000781900207C19002040BF000043
:101D3C0060BF000011CB0000B4CA000045C6000013
:101D4C0032CB00000146002201480023FFF724B9E2
:101D5C00C41100200148FFF73BBA00BFC41100209A
:101D6C00024B01461868FFF7BBBA00BF6C19002084
:101D7C000148FFF727BB00BFC411002070B5314BE1
:101D8C00187800285DD0FFF7E5FF0546002844D100
:101D9C002D4B2E4C1B68002B19DD09F01DFD4FF44B
:101DAC007A72A0FB020302FB0131C30BD4E90020C1
:101DBC0043EA41439B1A4FEAD13140F2E93261EBDD
:101DCC000001934271F1000101D3FFF73BFFD4E90D
:101DDC00003213F57A7342F10002C4E90032BDE817
:101DEC007040FFF7C5BF63685B7923B12368294650
:101DFC001B68204698471034B44211D91449154A2F
:101E0C0015484FF4007308F096FC144808F093FC46
:101E1C0010484FF4007108F085FC114C114EEBE7A3
:101E2C00E1D32846FFF79CFFBFF35B8F0E4B53E8C3
:101E3C00001F013943E80012002AF8D1BFF35B8F71
:101E4C00A6E770BD781B002078190020C81600206A
:101E5C0011CB0000B4CA000045C6000032CB000014
:101E6C0040BF000060BF00007C19002070B5154D0C
:101E7C00297829BB0120FFF717FE134C134EB442EF
:101E8C0017D91349134A144840F2C51308F053FCF0
:101E9C00124808F050FC0F4840F2C51108F042FC03
:101EAC0063685B791BB1236820469B6898471034A4
:101EBC00E5E7F5D3FFF762FF0028FBD101232B7078
:101ECC0070BD00BF791B002040BF000060BF000048
:101EDC0011CB0000B4CA000045C6000032CB000094
:101EEC002DE9F047304B314FFB1A1B090BD1304910
:101EFC00304A314840F2A93308F01DFC40F2A931B8
:101F0C002C4808F00FFC00210846FFF7CDFD0446D5
:101F1C0050B340F267684FF0000909F073FE274B8D
:101F2C00274A1B58136033B1264B1B68092B02DD63
:101F3C00254805F001FBDFF890A0002544B12046B0
:101F4C00FFF780FD044618B94FF0FF384FF0FF390A
:101F5C00FFF714FF064628B95DB942464B4650467A
:101F6C0005F068FB3546E9E74FF0FF384FF0FF39D5
:101F7C00D3E70D4D08E0F0D22B689B691BB1002212
:101F8C001146284698471035BD42F4D90F49094AE5
:101F9C00094840F29D3308F0CEFB0D4808F0CBFB0E
:101FAC0040F29D31ACE700BF40BF000060BF0000B5
:101FBC0051CB0000B4CA000045C600000800000068
:101FCC00741900207C1900200412002011CB000091
:101FDC0032CB000013B52C4808F038FD2B4B1B7886
:101FEC00002B35D0EFF31184202383F31288BFF339
:101FFC006F8F274806F02CFD68B9264A26492748DA
:10200C00882308F098FB2249254808F094FB882186
:10201C00204808F087FB1E4806F03EFDFFF7AEFE99
:10202C001B4806F023FD68B91A4A1E491B484FF499
:10203C009A7308F080FB16491B4808F07CFB4FF4A0
:10204C009A71E5E784F31188BFF36F8F02B010BD6E
:10205C00164B1B68002BF9D050B900220023CDE998
:10206C00002313484FF40042002307F0A3F8EDE7D8
:10207C000928EBD10E4809F0BDFB0E4802B0BDE8B3
:10208C00104005F059BA00BF7C190020791B0020C4
:10209C00701900205CC9000089C9000045C6000009
:1020AC009EC90000B4C90000CBC9000074190020FF
:1020BC00D01600200412002010B5064B1B680446F5
:1020CC0098472146A0600448FFF72AF8BDE8104065
:1020DC00FFF780BFC4100020C4110020044A054B38
:1020EC009B1AB1EBD30F34BF52F83100002070476C
:1020FC00E0BE000040BF00002DE9F04F8FB004AFF0
:10210C00C1F34A28B8600D4691467B600C0DB8F1BE
:10211C00000F68D0002607F114034FF0040B4FF0AA
:10212C000A0AC7F80C80C7E907667E620193CDF8EE
:10213C0008B0CDF800A007F11C03F96832464846F8
:10214C00FEF79EFCB0F5006F03461CD36C468AB0BC
:10215C00D9F8041004AB2C48C3E9050140F2FF7117
:10216C00D9611A464FF400711984284B42F8103F7C
:10217C00274833464FF41251FFF7BEFFA5462C37C4
:10218C00BD46BDE8F08FC0F30A0804F117001844EF
:10219C0020F0070080083B60FFF7D4FD68F353255F
:1021AC00044640B33B681B4AC7E9083600F11001EE
:1021BC0007F11403F961CDE900A3CDF808B0F96873
:1021CC0007F11C034846FEF75BFC002813DA1249A2
:1021DC001248134A4FF4A37308F0ADFA10484FF4A9
:1021EC00A37108F09FFA04F1170020F00700800893
:1021FC00FFF7A8FD044668F353257B68B9682A46A7
:10220C00204608F063FCBAE77ACB0000040000011A
:10221C0008BF0000ABAA0000E6CB000045C60000DA
:10222C00B9CB00002DE9F04F87B0DDE91279DDE97B
:10223C00106A044603919346984627B3CDF8009054
:10224C003B46524610210020CDF81490FEF7FCF9C5
:10225C00051E0BDA2649274A274840F2651308F079
:10226C006AFA40F26511234808F05CFAB5F5006F84
:10227C000ADB224A224840F2FF73022107B0BDE874
:10228C00F04F08F07CBC3D4606F11700284420F0C6
:10229C00070004F007048008FFF754FD0BF0070B50
:1022AC00E40044EA8B1444EA452444EA0654064606
:1022BC00A0B19FB1CDF800903B4652462946103054
:1022CC00FEF7C2F9002809DA09490A4A0A484FF40C
:1022DC00C47308F030FA4FF4C471C4E70399434651
:1022EC002246304607B0BDE8F04F08F0EFBB00BF08
:1022FC00E5CB0000B9CB000045C60000EFCB0000D9
:10230C0008BF0000406820B1034BC01A40F3CF0057
:10231C0070474FF0FF307047E0BE00000EB403B5BD
:10232C0003AB014653F8042B0448019301F004FA63
:10233C0002B05DF804EB03B0704700BF69230000E6
:10234C00CA0605D48B064CBF02490349FFF7E6BF0A
:10235C00704700BFE7E1000027CC000038B54B68A0
:10236C001A68CB689A4205460C4602D1084608F01A
:10237C002AFC6368BFF35B8F53E8002F511C43E8C2
:10238C0000100028F8D1BFF35B8FA3689D546368DD
:10239C001A68E3689A4209D905490648064A722325
:1023AC0008F0C9F90448722108F0BCF9002038BDC6
:1023BC0059CC000045C600002ACC00002DE9F04F96
:1023CC0089B09B46149B06939DF84CA0159B0593D6
:1023DC00169B179E049304460D469046BAF1000FC7
:1023EC0000F0AD80BAF1040F0BD9A349A34AA4485D
:1023FC0040F2462308F09FF940F246219F4808F02E
:10240C0091F906F48073079308F03EFB06F002097D
:10241C00024600283FD09B492046FFF77FFF074626
:10242C00B9F1000F08D016F0440F36D196492A4660
:10243C002046FFF773FF074406F0010353B1934B9B
:10244C00934953F82A20934B2046002A08BF1A467A
:10245C00FFF764FF06F48073002B4AD006F00803E4
:10246C00002B64D1B8F1000F67D08B49424620464F
:10247C00FFF754FF0546069B3D44002B6ED1049B91
:10248C00002B40F08380F30700F1F08031462046AA
:10249C00FFF756FFE4E00746C2E7804B18680028B8
:1024AC00C9D07F4B4FF47A791B68B5FBF3F54FF429
:1024BC006163B5FBF0F100FB115509FB05F54FF01D
:1024CC003C0CB1FBF3F203FB1211B5FBF0FEB1FBBC
:1024DC00FCF300FB1E550CFB131109FB05F50091D9
:1024EC00B5FBF0F56F49CDE901E52046FFF716FF86
:1024FC00A1E706F00803EBB16B4B6C4953F82A20AB
:10250C002046FFF70BFF0546B8F1000F05D06249D6
:10251C0042462046FFF702FF0544BBF1000FAAD04C
:10252C0063495A462046FFF7F9FE0544A3E74FF0EE
:10253C00000BE1E706F00805E6E745469BE7BBF133
:10254C00010F069B06D1DBB9049B002B00F08880A1
:10255C0000251BE0002BF7D0564812E05648069B8E
:10256C005649224608F077F800280CDA5449434AB9
:10257C0043484FF4287308F0DEF84FF428713DE718
:10258C004D485546EBE7049B002B65D0DFF83481B2
:10259C00DFF83491049F3146102F204628BF1027B6
:1025AC00FFF7CEFE4FF0000B5D4542DC059B494624
:1025BC001A782046FFF7B2FE4FF0010B1BF0070F05
:1025CC0003D141462046FFF7A9FE5F4538D9059B4C
:1025DC00494613F80B202046FFF7A0FE0BF1010B28
:1025EC00BBF1100FEAD1394920464FF0000BFFF731
:1025FC0095FE5A46059B9A5CA2F120015F2928BFE3
:10260C002E2233492046FFF789FE0BF1010BBBF15B
:10261C00100F1AD01BF0070F03D141462046FFF7CD
:10262C007DFE5F455A46E5D841462046FFF776FECB
:10263C00EBE741462046FFF771FE0BF1010BB3E7C8
:10264C0024492046FFF76AFEC8E7059B3B440593E7
:10265C00049BDB1B04939DD1BAF1000F7FF413AFE5
:10266C00204609B0BDE8F04F08F0ADBA094A084958
:10267C002046FFF753FE09E78ECC00002ACC000061
:10268C0045C6000099CC00009DCC00006CC2000037
:10269C00B6D7000089CC0000C2CC000088190020FD
:1026AC0084190020A6CC000080C20000C6CC00001B
:1026BC00CCCC0000EDAB00006923000045370000D6
:1026CC00D1CC0000E2CC0000DACC0000E4CC00005D
:1026DC00E6CC0000E0CC000073B542F20F738B42E5
:1026EC0028BF0B4605680F4A04460521684606F0CC
:1026FC00CFFD63680C495B6806460B22284608F040
:10270C0054FA63683246694628465B6808F04DFA0D
:10271C00636806495B681B22284608F046FA02B03B
:10272C0070BD00BFC1CE000005CD0000E9CC00009B
:10273C00074A00210123904206D8064A01B9012319
:10274C001360054B1860704740085B000121F2E7ED
:10275C0040420F008419002088190020014B0122EF
:10276C001A7070477A1B0020014B002019607047CB
:10277C00A01900200148FFF7AFBF00BFB0C2000096
:10278C0010B5064B18680C46FFF706FA21460346AF
:10279C00BDE8104002480F22184700BFA0190020C6
:1027AC00B0C20000F8B5094D094B0A4ED5E90047F7
:1027BC0001221A700CB92C60F8BD214630463A46FD
:1027CC0000F01EF8241A0644F4E700BF9419002008
:1027DC007B1B00207C1B002010B9074B1870704726
:1027EC00064B1B781BB141F2883008F07BBFA4204C
:1027FC00002105F087BE00BF7A1B00207B1B002048
:10280C002DE9F047DFF878901E4F80460E460424E1
:10281C0099F80050A5B908F058FF32468246414657
:10282C00284604F071FB0546504608F056FFE5B10A
:10283C0001233B7099F8003073B93046BDE8F0873E
:10284C0032464146002004F05FFB0546EFE7204688
:10285C00FFF7C2FF651E2C46002004F0DFFB0028AA
:10286C00EBD03B78002BF2D1E7E73B78002BE4D0A0
:10287C00013C2046FFF7B0FF3B78002BC8D1DCE7CA
:10288C007B1B00207A1B0020F8B5074F0D46044631
:10289C004618B44201D12846F8BD14F8011BBB6898
:1028AC0001485B689847F4E7CCBC000010B543685E
:1028BC001C68094808F01AFF48B908490848094A31
:1028CC00992307F038FF0748992107F02BFF23685D
:1028DC005B685C6010BD00BFCCBC00007FCD00000D
:1028EC0045C6000041CD0000014B0360002070473D
:1028FC00F4C2000008B5044807F007FFBDE8084023
:10290C00024807F002BF00BFB3CD0000E8CD0000C5
:10291C0008B50348034A0021121A08F0D7F908BD7C
:10292C0018120020941D00200748084A084908B5D1
:10293C00121A08F0CDF90748074A0849BDE80840C3
:10294C00121A08F0C5B900BFC010002014120020E4
:10295C0034E80000B8100020C01000202CE8000063
:10296C002DE9F047064600AF0C46002936D0E94663
:10297C008AB0D1E90012A3686D462148A8464FF0F1
:10298C00050AC5E90501C5E9072348F810AF1D483C
:10299C00424600234FF42151FFF7AEFBCD46D4E95C
:1029AC0003126369AD461848C5F810A0C5E90501C6
:1029BC00C5E907231348002342464FF42151FFF782
:1029CC009BFBCD46E369114A0E48012108F0D7F86C
:1029DC00A3690F4A0B48012108F0D1F8012E07D149
:1029EC00EFF305830B4A0748103B314608F0C7F854
:1029FC002146304604F072FBBD46BDE8F08700BFAF
:102A0C0016CE000028BF000045CE000074CE00009A
:102A1C0083CE0000B1CE000030BFFFF7FDBF00BF7A
:102A2C002DE9F0410B4EDFF8308006EB0807CC1B8C
:102A3C00054632460949204608F0F8FEA0194246E0
:102A4C000021083C08F000FFC5F8A44007F108007D
:102A5C00BDE8F0810000000004000000A4BF0000ED
:102A6C00054B5A699B689A421FBF044A536843F04E
:102A7C0080535360704700BF341B002000ED00E012
:102A8C0070B5294C06460D462848294908F02DF901
:102A9C00A36AD9043CD52548264908F026F9172005
:102AAC00A36A1A0504D52148234908F01EF91820F9
:102ABC001D4CA36A9B0512D51C48204908F015F93A
:102ACC00A36BA26A100409D51D4A1848012108F00D
:102ADC0056F81EB1A36A23F40043A3621920124CCA
:102AEC00A36A590504D51148164908F0FEF81A20B6
:102AFC00A36ADA050ED50D48134908F0F6F81B2029
:102B0C00094A936A43F47F43936200232B7070BD90
:102B1C001620C5E7A36A9B04F2D504480B4908F0BC
:102B2C00E4F81C20ECE700BF00ED00E028BF00003B
:102B3C00C4CE0000DACE0000EBCE0000FECE0000CA
:102B4C0017CF00002CCF000047CF00005FCF000054
:102B5C0010B5204C2049214808F0C7F8A36A990108
:102B6C0036D51E481E4908F0C0F81E20A36ADA01AB
:102B7C0004D51A481B4908F0B8F81F20154CA36A55
:102B8C001B0304D51548184908F0AFF82120A36A97
:102B9C00590304D51148154908F0A7F822200D4C0B
:102BAC00A36A9A0304D50D48114908F09EF8232016
:102BBC00A36ADB0304D509480E4908F096F82420D3
:102BCC00044A936A6FEA03436FEA1343936210BD9E
:102BDC001D20CBE700ED00E08ECF000028BF0000E9
:102BEC00A6CF0000B9CF0000D3CF0000F1CF00007A
:102BFC0016D0000030D000002DE9F8433F4D804640
:102C0C0089463F483F49174608F06FF8AB6ADA0629
:102C1C0027D53D493A4808F068F81124AB6A1B07E0
:102C2C0004D53A49364808F060F81224334DAB6AA3
:102C3C009E0718D53649324808F057F86E6BAB6AC8
:102C4C001C0646D5334A2E483346012107F097FF20
:102C5C00B9F1000F03D0AB6A23F08003AB621324ED
:102C6C0003E01024DAE76FF01506244DAB6AD807A1
:102C7C0004D52949224808F038F81424AB6A99067F
:102C8C0004D526491E4808F030F815241B4DAB6AB4
:102C9C00DA0602D4AB6A9B070AD56B68180507D510
:102CAC004146304600F0E6FAB0B180F309880224C0
:102CBC00124B9A6A920642BF5A6A22F400525A6226
:102CCC009A6A42F0FF029A6200233B702046BDE8EC
:102CDC00F8836FF01506C2E7AB6AD906E8D5104940
:102CEC00104A114840F2271307F025FD0F4807F052
:102CFC0022FD0C4840F2271107F014FD00ED00E016
:102D0C0028BF00005BD0000071D00000EBCE0000AB
:102D1C00A4D00000BCD00000D2D000005FCF0000D7
:102D2C0023D10000F1D0000045C600006DD1000099
:102D3C00F0B5794B8BB00446586800AFC0F308036C
:102D4C00002686F31188BFF36F8F02F07F45B5F133
:102D5C007F4F07D102F00C05082D12D16F49704836
:102D6C0007F0C3FF6F49704A704840F2144307F0F4
:102D7C00E2FC6F4807F0DFFC40F214416A4807F0B0
:102D8C00D1FC15074CBF0C460126002CEAD00022C2
:102D9C00FA71DA1E092A00F29E80DFE802F005942F
:102DAC0097779C9C9C9C9C9A62495D485A4D07F075
:102DBC009CFF0023FB71EB6A9A0705D55E495848C6
:102DCC0007F093FF002329E0EB6A002B01DA5B4943
:102DDC00F5E7EB6A5B0069D55949514807F085FF67
:102DEC006B69A26943F480736B61BFF34F8FBFF3C0
:102DFC006F8F6B6932F8022C23F480736B61BFF315
:102E0C004F8FBFF36F8F4DF602739A4227D1236811
:102E1C004C4A4348012107F0B2FE2368FA79DAB92B
:102E2C0007F1080504F1200C206861682A4603C2EA
:102E3C00083464451546F7D17A6A002E67D0C2F380
:102E4C00080121B96FEA52226FEA42227A6207F135
:102E5C0008011846FFF784FD2C37BD46F0BDAB6A60
:102E6C00DBB233B1FA1D01212046FFF7C5FE034644
:102E7C00D4E7AB6A13F47F4F04D0F91D0120FFF7A0
:102E8C00FFFDF4E7AB6AB3F5803F02D3FFF760FEBA
:102E9C00EDE72D49244A254840F2ED2307F04BFC81
:102EAC002A4807F048FC40F2ED2167E726491E4A04
:102EBC001E484FF43C7307F03EFC254807F03BFCE2
:102ECC004FF43C715AE7FA1D0021CDE7F91D0020A3
:102EDC00D5E7204973E7204A204910F4F87F6D4666
:102EEC008AB018BF11466A46103BD3611C484FF498
:102EFC00007313841B4BC2E9050142F8103F0848CC
:102F0C0000234FF41151FFF7F7F8AD465AE722F4BE
:102F1C00FF7222F0010299E700ED00E0BED1000043
:102F2C0028BF0000E9D10000F1D0000045C6000028
:102F3C00FCD100003AD2000051D2000072D2000045
:102F4C0080D200009FD200007DDF0000BBD20000C9
:102F5C00DFD200000FD30000A5D1000090D10000FB
:102F6C0033D3000004000001044B5A6942F01002F4
:102F7C005A615A6922F008025A61704700ED00E06C
:102F8C00EFF30880EFF3098101B57246FFF7D0FE2D
:102F9C0001BD00BF002080F31488BFF36F8F114870
:102FAC0080F3088800201049087001F007FF00200A
:102FBC000E490860BFF34F8F00F02EF8202080F3ED
:102FCC0011880B484FF40461401880F30988EFF323
:102FDC0014800221084380F31488BFF36F8F00F034
:102FEC0019F90000C0330020921D002094ED00E080
:102FFC00002600200749D1F890200023C2F30722B5
:10300C001846934200DB7047C1F89830C1F8A00015
:10301C000133F6E700ED00E008B572B6002383F348
:10302C001388FFF7E7FF144B4FF0FF32C3F88020F3
:10303C00C3F88420C3F88820C3F88C20C3F89020F0
:10304C00C3F89420C3F89820C3F89C20C3F88021BF
:10305C00C3F88421C3F88821C3F88C21C3F89021CC
:10306C00C3F89421C3F89821C3F89C2162B6BFF32E
:10307C004F8FBFF36F8F08BD00E100E0084B9B68DA
:10308C0083420BD1EFF3058343B1064B5A6842F0F0
:10309C0080525A605A6A22F400425A6205F0D4BA3D
:1030AC00341B002000ED00E015498A684FF0300019
:1030BC001044EFF3098C80E8F01F202080F3128875
:1030CC00BFF36F8F0F4F4FF000664A698A603E6006
:1030DC00D2F8A4000C4C2060D2F8A8000023C2F84F
:1030EC00A83080F3118804B5104600F02BF9BDE828
:1030FC00044002F1300090E8F01F8CF3098870470F
:10310C00341B002004ED00E0C81900201EF0040F51
:10311C000CBFEFF30880EFF30980816911F8021CF2
:10312C000229FFD001B5724607F0D4FD01BD00BFE6
:10313C0040B2002807DB044A4109012300F01F00BC
:10314C00834042F82130704700E100E040B2002893
:10315C000CDB4309064900F01F002033012282409A
:10316C0041F82320BFF34F8FBFF36F8F704700BF21
:10317C0000E100E0054B420900F01F0053F822204B
:10318C00012303FA00F01040704700BF00E100E09B
:10319C0038B54B1C072B04460D460FD9114A124962
:1031AC0012486B2307F0C7FA114829460723224619
:1031BC0007F0C1FA0B486B2107F0B4FA40B20028B3
:1031CC00ACBF00F160400B4A4FEA4313B8BF00F0AC
:1031DC000F00DBB2AABF00F56140135480F8003336
:1031EC0038BD00BF46D300007DD3000045C60000AB
:1031FC0098D3000014ED00E0044B054A23F07F0344
:10320C009360BFF34F8FBFF36F8F704700000000C8
:10321C0000ED00E008B5FFF7EFFF074AD2F8883061
:10322C0023F47003C2F88830FFF772FBFFF77CFBC6
:10323C0000F05EF804F0B4F800ED00E042F8203C39
:10324C00009B42F81C3C0A49019B42F8183C029B2B
:10325C0042F8143C21F001014FF0807342F8043C19
:10326C0042F8081C0023203A0265C0F8A8307047C9
:10327C000D0F00000A4A0346906878B113F1160F3F
:10328C00D0F8940005D0A0F140029A4205D88342B0
:10329C0003D2814228BF002070470020704700BF36
:1032AC00341B002008B515460C4A0D4B9060D0F825
:1032BC00A4201A600E4600F045F82C4686F30988C7
:1032CC000020044B98472046002100220023024C8A
:1032DC00204700000DAD00000D0F0000341B002036
:1032EC00C8190020014B10221A61704700ED00E054
:1032FC00044800232021C2180133272B82F8001325
:10330C00F9D1704700E100E008B5EFF30583064AF8
:10331C00103B02EBC30152F8330049688847BDE803
:10332C000840FFF79DBB00BF2CBD0000024B034AB9
:10333C000348012100F08CB800000120000000209F
:10334C00F4C20000D0F89420054B403A1A60054AAC
:10335C004021C3E901121846012100F09FB800BFBB
:10336C00CC19002000000B1508B503461048D0F806
:10337C009020C2F30722013A934207D90D480E4A16
:10338C00012107F0FCFB6FF0150008BDC0F8983068
:10339C000A6822F01F021A4342F01002C0F89C2067
:1033AC008A6842F00102C0F8A0201846EDE700BF81
:1033BC0000ED00E020BF0000DCD30000F0B50E46AD
:1033CC0085B01F4604460025B5420DDA606810B37F
:1033DC0097B1431E18420AD0104A11482B460121BE
:1033EC0007F0CDFB6FF01502104605B0F0BD1F289D
:1033FC00F2D921680B42EFD12368019307F0A3FCAB
:10340C00A36801A90343D0B20393FFF7ADFF10F1FA
:10341C00160FE7D0421C01350C34D5E702D400005E
:10342C0020BF0000044B0522C3F89420BFF34F8F3C
:10343C00BFF36F8F704700BF00ED00E0BFF35F8FED
:10344C00024B0022C3F89420704700BF00ED00E04F
:10345C0038B50D4D01232A780C46FFF7AFFF2870C5
:10346C0016300FD1094A0A490A484FF4BF7307F0C6
:10347C0062F90948214607F05EF904484FF4BF7120
:10348C0007F050F938BD00BF8D1B002025D400007B
:10349C007DDF000045C6000054D4000010B5144A6E
:1034AC00002312780C46FFF789FF10F1160F08D095
:1034BC00104A0021D2F89030C3F30723984210DB56
:1034CC0010BD0D4A0D490E4840F29D1307F033F91B
:1034DC000C48214607F02FF9074840F29D1107F0E0
:1034EC0021F9C2F89800C2F8A0100130E2E700BF41
:1034FC008D1B002000ED00E025D400007DDF0000D6
:10350C0045C6000080D400002DE9F04F7B4C7C496F
:10351C00D4F890300D68C3F307239D4285B013D9BE
:10352C00784A7949794840F2F71307F004F9D4F84E
:10353C00902077482946C2F3072207F0FCF840F2A6
:10354C00F711704807F0EEF8FFF778FF4968002292
:10355C00954201F10C012DD16E4C6F4F25706846D0
:10356C00FFF7C2F9DFF8B481DFF8B4910646002505
:10357C00AE4232D1237861490020D1F89020C2F3B9
:10358C0007229342C0F2AF80FFF74CFFD1F8903086
:10359C00C3F30723082B00F0AC806249594A5B48FF
:1035AC0040F2692307F0C7F85F4807F0C4F840F20F
:1035BC006921C6E7C4F8982051F80C3C23F01F038E
:1035CC00134343F01003C4F89C3051F8043C43F00F
:1035DC000103C4F8A0300132BAE7009A02EB0513DC
:1035EC002901D3F80CA00AEA0700B0F5000F60D04F
:1035FC000AD8B0F5001F38D0B0F5800F4ED0B0F51A
:10360C00801F12D00135B3E7B0F1807F5CD0B0F1F0
:10361C00007FF7D19868D3F804A0525807F093FBB9
:10362C00CDE901A240F480200BE09868D3F804A007
:10363C00525807F088FBCDE901A240F0885040F4C5
:10364C0030200390207801A9FFF78EFE002846DA7F
:10365C002D492C4A2D4840F2212307F06CF83348B1
:10366C0007F069F840F221216BE79868D3F804B0B1
:10367C00525807F068FB1AF0010F40EA0800CDE938
:10368C0001B20390DED02A491E4A2048832307F05A
:10369C0052F8284807F04FF8832152E79868D3F87E
:1036AC0004A0525807F04FFBCDE901A240EA0900F3
:1036BC00C7E79868D3F804A0525807F044FBCDE94B
:1036CC0001A240F08270BCE79868D3F804A052586D
:1036DC0007F039FBCDE901A240F08870B1E72378FF
:1036EC00013323708EE7C1F89830C1F8A000013384
:1036FC0043E7002005B0BDE8F08F00BF00ED00E00F
:10370C0000C3000025D400007DDF000045C600008A
:10371C00ADD400008D1B00200000F0FF000008114C
:10372C000000020660D50000B0D5000036D50000C0
:10373C00E1D4000007D50000F0B587B007460E466F
:10374C0014460021102268461D4608F07DF802231D
:10375C008DF802302A46054B019321466846CDE987
:10376C00047605F05DFE07B0F0BD00BF73AD000040
:10377C0008B5024B1B689847002008BDD8190020DB
:10378C00034B044A1860937843F00203937070471C
:10379C00D8190020D010002008B50649064821F0A1
:1037AC000701C1F1005202F58032FCF7AFFE002098
:1037BC0008BD00BF07340020DC190020044A012397
:1037CC00C2F840354FF080420020C2F8783570477F
:1037DC0000E0014048B1054B054A1B68B3FBF2F30E
:1037EC005843044B43F0010318477047A4110020C1
:1037FC0040420F00B0BF000008B50448044A3F2304
:10380C00C0E9002301F016FC002008BDE8190020D7
:10381C00FFFF0F0037B50C460A490B4A411A4023EB
:10382C000093491105462346084807F0A7FA011EE4
:10383C0005DA2846234603B0BDE83040184703B0EC
:10384C0030BD00BF041A0020F1AD00008CBC00009C
:10385C00C9B2012908B509D908490948094A7E2382
:10386C0006F069FF07487E2106F05CFF03690C2215
:10387C0001FB0233986C00F0070008BD21D6000054
:10388C0045C60000E4D5000070B5C9B20129036932
:10389C000BD918491848194A40F2D71306F04BFFB8
:1038AC00164840F2D71106F03DFFEFF311852024A6
:1038BC0084F31288BFF36F8F0C2606FB0134A46CC3
:1038CC0014F0C00408D0A24206D085F31188BFF3CF
:1038DC006F8F4FF0FF3070BD71430B4401229A641F
:1038EC0085F31188BFF36F8F43680B445B6898476F
:1038FC000020F0E721D6000045C60000E4D500000A
:10390C0070B50D460649411A044649110548402236
:10391C00FFF7BAFF2B4601462046BDE8704018471A
:10392C00041A00208CBC00000022F8B501210546C9
:10393C001046FFF72DFC104801F0B4FB0446B8B953
:10394C0001F0D0FB2F690D49384607F046F8031EED
:10395C0009DB0126BE642D69084905F1200007F03A
:10396C003CF8031E02DA1C462046F8BD6E65FBE7E8
:10397C006FF00404F8E700BF613A000020C30000B8
:10398C001FB500220123CDE90223094ACDF800D04E
:10399C006B46CDF804D007F01EFA002805DB4FF477
:1039AC0080420023684603F045FE05B05DF804FB39
:1039BC00FDAD000010B5064C23782BB94FF4A57063
:1039CC0007F090FE01232370BDE8104001F0DEBC2F
:1039DC008E1B002010B5EFF31184202383F3128883
:1039EC00BFF36F8F074A136823F00201DB071160E6
:1039FC0002D4012001F0C6FB84F31188BFF36F8F52
:103A0C0010BD00BF5C1A002030B4104B0C2202FB1E
:103A1C00003301460020D3E910521864EFF31180F3
:103A2C00202484F31288BFF36F8F9C6C04F0C004C5
:103A3C0044F002049C6480F31188BFF36F8F1DB1B6
:103A4C002B46034830BC184730BC7047041A002082
:103A5C008CBC0000012808B506D0032808D098B902
:103A6C000F4B9B6C5B0719D1BDE80840FFF7CCBF2F
:103A7C000C490D4A0D4840F2FE2306F05CFE40F264
:103A8C00FE21094806F04EFE0649074A07484FF446
:103A9C00427306F050FE4FF44271F2E708BD00BFCE
:103AAC00041A00207DDF0000E4D5000045C60000AC
:103ABC0010B4EFF31182202383F31288BFF36F8FBE
:103ACC001748016841F002040460C80707D482F368
:103ADC001188BFF36F8F012010BC01F025BB4FF094
:103AEC008041D1F80C04D1F80C14C907EFD5EFF3D1
:103AFC00118083F31288BFF36F8F0A498B6C03F02C
:103B0C00C00343F002038B6480F31188BFF36F8F03
:103B1C0082F31188BFF36F8F002010BCFFF774BFC6
:103B2C005C1A0020041A00202DE9F0414449BFF32F
:103B3C005B8F0646012251E8003F41E80020002837
:103B4C00F9D1BFF35B8FA3B93E493F484B60CB60C3
:103B5C008A60FDF791FE00280BDA3C493C4A3D484F
:103B6C0040F2AA2306F0E7FD40F2AA21384806F0FD
:103B7C00D9FD76B3731E012B58D8012E07D14FF007
:103B8C008043D3F81C3403F00303012B21D007F03E
:103B9C00CCFD0546F8B9304B1B78E3B14FF08043B0
:103BAC000222C3F808230746DFF8B0804FF08044A8
:103BBC00D4F81824D4F81834D20315D503F0030321
:103BCC00012B01D0012E0FD155B387F31188BFF310
:103BDC006F8FBDE8F081EFF31187202383F31288F8
:103BEC00BFF36F8F0125DFE7ADB1384607F09CF8C6
:103BFC00D4F81835002BDBD1D4F80421002AD7D007
:103C0C00C4F80431D4F804310123C4F81835C8F8C9
:103C1C008031A360CCE70021212004F073FCE7E79E
:103C2C004FF080430222C3F80423D2E70C49084A20
:103C3C0008484FF42F7306F07EFD4FF42F7195E773
:103C4C00001A0020F0190020241A0020D1CC00000A
:103C5C00E4D5000045C60000921D002000E100E004
:103C6C007DDF000010B5044C2046FDF743F92046DB
:103C7C00FFF786FD002010BD893C000073B5104E87
:103C8C008DF807000446032501220DF107010020E1
:103C9C0003F0AAF920B101233370204602B070BDA5
:103CAC003378002BF9D0013D08D007F03EFD0028F9
:103CBC00EAD10021422004F025FCE5E73570ECE761
:103CCC008F1B002008B5074807F010FD38B10648D7
:103CDC00FFF756FD0448FDF70DF9002008BD6FF005
:103CEC001200FBE7CCBC0000F93C00000A2838B5F8
:103CFC00074D044604D1AB680D215B6828469847F4
:103D0C00AB6803485B68E1B29847204638BD00BFFA
:103D1C00CCBC000010B5036961B92049204A214888
:103D2C004F2306F008FD204806F005FD4F211C48E6
:103D3C0006F0F8FC486850B91C49194A1948502338
:103D4C0006F0F9FC1A4806F0F6FC5021EFE758682B
:103D5C00F8B1884219D19C6808685860A14200D11A
:103D6C009860002008602AB15A680A609A68596005
:103D7C0002B99960002010E0814206D108682060E9
:103D8C0098688142EDD19C60EBE7044600680028FE
:103D9C00F2D1002AE8D16FF0150010BDAAD60000B0
:103DAC006ED6000045C60000B3D60000C2D6000097
:103DBC00D4D6000008B50268530904D14FF0FF3384
:103DCC00D340DB070BD407490748084A4FF47473F8
:103DDC0006F0B1FC05484FF4747106F0A3FC4FF0EB
:103DEC00A04008BD1ED7000045C60000EBD6000061
:103DFC0070B54468207C01F01F0545EA4015A068A9
:103E0C0086B000286DD0B2F5001F04D1294601F010
:103E1C0013FF002049E001A80026B2F5800F01969F
:103E2C00466031D1B3F1007F14BF052304238DF814
:103E3C0004300023CDE904030393E368CB40D90796
:103E4C0035D4B2F1A07F32D168460095FFF7B2FFAE
:103E5C0005F5E07350F82330DB0728D4A0686A46D8
:103E6C00294601F089FD163019D0CDF808D0A0688C
:103E7C0003AA294601F036FC002816DBA0680122B3
:103E8C00294601F059FEC4E7B3F1C06F05D0B3F178
:103E9C00007F14BF01230223C9E70323C7E7A068EF
:103EAC00694601F029FE0028DFDA06B070BDA06873
:103EBC006A46294601F060FD0028D8D19DF8001013
:103ECC00A06801F0FDFD0028D1D007490748084A39
:103EDC0040F2E51306F02FFC054840F2E51106F020
:103EEC0021FC6FF08500E0E753C9000045C60000D7
:103EFC0041D70000430970B507D1124B596821B165
:103F0C0001250C68104E854001B970BD8A682A40A5
:103F1C0010D04B6863B90D490D4A0E48742306F056
:103F2C000AFC0D4806F007FC0948742106F0FAFB60
:103F3C00304698471CB1236821461C46E4E72346CB
:103F4C00FAE700BF601A0020ACBC0000B7DD00002F
:103F5C006ED6000045C60000D4D600002DE9F04313
:103F6C00476840F206363B7CD00687B001F01F054F
:103F7C0002EA060645EA431554BFC2F34013032375
:103F8C00B6F5837F14468DF8033044D00DD8062E39
:103F9C0016D005D8A6B1022E3FD06FF0150037E031
:103FAC00B6F5807FF9D101260AE040F20222964252
:103FBC0035D0B6F5407F34D0B6F5007FEDD1022672
:103FCC000123220303FA01F12DD57B68C3F80815F0
:103FDC00B86870BB03A80395FFF7ECFE84F480333C
:103FEC0000EB8500C3F30043C4F34044D0F8002732
:103FFC0044EA43049DF8033022F4E16244EA83046A
:10400C0022F0070244EA06231343C0F800370020CD
:10401C0007B0BDE8F0830726D2E70426D0E70526D3
:10402C00CEE70326CCE7630344BF7B68C3F80C15CB
:10403C00CEE70DF10202294601F09EFC14F4403F3C
:10404C00804617D1B868294601F022FDB8F1000F5F
:10405C00DDD19DF80210B86801F032FD0028D6D0F1
:10406C001E491F481F4AF42306F065FB1D48F42126
:10407C0006F058FB4FF0000901ABCDE90199CDE9F1
:10408C000439CDF80C90B86803AA294601F02AFB34
:10409C004845BCDB14F4003314D084F480349DF810
:1040AC0003308DF80E30C4F300448DF80C608DF89D
:1040BC000D40B8684B4603AA294601F0C5FB002801
:1040CC00C4DAA4E7CDE904330DF103030393B86814
:1040DC0003AA294601F006FBF1E700BF53C9000013
:1040EC0045C6000041D7000038B54568A86890B1B6
:1040FC0001F0B4FC014670B9A86801F06FFC0446ED
:10410C0058B902460649A86801F01EFC2246052152
:10411C000620FFF73DF8002038BD6FF00400FBE7E8
:10412C00013F00002DE9F04FD0F81090D0F804803A
:10413C0085B005460C461746029309F1040A4FF068
:10414C00FF324FF0FF33504603F074FA09F1140BB1
:10415C0000230022584603F06DFA404601F0D6FFCA
:10416C007B1E00260393B74201D8002322E0039B59
:10417C00217AB34283BF237D83F00403C3F380030E
:10418C0000230193029B0093D4E90023284600F0FE
:10419C0077F8034670B94FF480420023584603F079
:1041AC0049FA98B1404601F0D7FF284606F08BFE3D
:1041BC006FF004034046029301F0CEFF504603F02B
:1041CC00BBF9029B184605B0BDE8F08FD9F8243036
:1041DC00034A934204F10C04EAD10136C3E700BF51
:1041EC000000AD0BB0B50446406800AF82692346B1
:1041FC0000F1080101F02CFF054698B123686C46CC
:10420C0088B06A460949C2E905134FF400739383D9
:10421C00074B42F8103F074800234FF4E251FDF7DB
:10422C006BFFA5462846BD46B0BD00BF99D7000020
:10423C0003000001F8BE000008B5CA074368006916
:10424C000AD4C1F34202012A09D0022A0FD00A4A29
:10425C000A48012106F08AFC6FF0150006E01B6885
:10426C004FF0CC72C3F824250160002008BD1B68F8
:10427C004FF0CD62F6E700BFB9D70000F8BE0000E2
:10428C002DE9F04186B00C4647689DF83480154600
:10429C00002112220DF106001E4607F0D5FABDF8DA
:1042AC0030208DF8052004F0010314F008028DF87D
:1042BC0004300296049509D00C4A0D48012106F0F1
:1042CC0055FC6FF0850006B0BDE8F081A10705D460
:1042DC00B8F1000F07D1002BF3D1202201A93846E9
:1042EC0001F06CFFEFE74022F8E700BFCBD70000EE
:1042FC00F8BE0000054A064B93624FF040221A604C
:10430C00012100220420FEF743BF00BF78110020DA
:10431C006C1A00202DE9F04F89B002AF9346BB60B8
:10432C0003693B614368D3F820A09B8AFB604FF084
:10433C00FF324FF0FF3305460C4606F0F7FD3B69A4
:10434C0040337B61002378690022002603F072F968
:10435C0033465E4501D3002340E0207A010700F18B
:10436C00938001365E4521680BD2820709D4227DE9
:10437C0080EA020C0CF0010C02F004025CEA020C64
:10438C0008D023B901F06042B2F1005F3FD04FF08A
:10439C00000801E04FF001086268D7F80CE003EB6D
:1043AC00020CF44524D96C468CB0286802A9384E0E
:1043BC00CA61C1E90563FB680A46C1E9083040F2ED
:1043CC0003530B85334B42F8103F002332484FF414
:1043DC005151FDF791FE6FF01B03A54628467B61FA
:1043EC0006F0A8FD7B691C371846BD46BDE8F08F6A
:1043FC00C00705D40AEB03007B6007F017FA7B6853
:10440C0062681A4493B2B8F1000F26D1D3B9D4F82C
:10441C000090A3884FF00008BA68217A00922846D1
:10442C004A4600F05FF8031ED8DB4FF480427869EF
:10443C00002303F0FFF840B1284606F08EFD6FF024
:10444C000403CBE79846D146E6E73B691B6D002B8E
:10445C00F5DB237ADB0702D400230C3479E7CA4559
:10446C00FAD123460AE0A8EB0201D8687B601FFA58
:10447C0081F819FA81F107F0D9F97B685A689045EF
:10448C00A3F10C03EFD2E7E76FF08503A6E700BFBB
:10449C00F1D700000600000100BF000008B5CA07F4
:1044AC0043680AD4C1F34201012909D002290FD073
:1044BC000A4A0B48012106F059FB6FF0150006E083
:1044CC009B6A1B684FF0CC72C3F82425002008BDF2
:1044DC009B6A4FF0C8621B68F6E700BFB9D70000B3
:1044EC0000BF0000F0B589B047680C4616460021A5
:1044FC0012220DF10E001D4607F0A6F904F001037F
:10450C008DF80C30BDF838308DF80D30BB8C04951F
:10451C00AB4206960AD20A4800930A4A2B4601215E
:10452C0006F037FB6FF01B0009B0F0BD84F00202FF
:10453C00C2F34002B86A520103A902F00BF9F3E787
:10454C0000BF0000D7D80000B0B5456800AFAB691C
:10455C0004469847E869012106F0F0FC2A69A86A2C
:10456C002346294601F0E2FF002817DA23686C463F
:10457C0088B06A460C49C2E905134FF40073938363
:10458C000A4B42F8103F0A4800234FF4E251FDF762
:10459C00B3FD6FF00400A546BD46B0BD204606F045
:1045AC00F4FC0020F8E700BF99D7000003000001DD
:1045BC0000BF000008B50268530904D14FF0FF3367
:1045CC00D340DB070BD407490748084A4FF47473F0
:1045DC0006F0B1F805484FF4747106F0A3F84FF0EB
:1045EC00A04008BD1ED7000045C60000EBD6000059
:1045FC002DE9F04FDFF854B185B01546824600EB3B
:10460C00810840F2FF19D04503D1002005B0BDE868
:10461C00F08FDAF800305A04C3F3C321C3F3080453
:10462C0000F18E804A4A1B0E575C4C4508BF4FF078
:10463C00FF34192B00F28780DFE803F00D141A1DEC
:10464C0020261D85858585356185858585858585AE
:10465C00858564797C7FC5F80C45631C5CD10AF1B7
:10466C00040AD0E7C5F81445661CF8D000265CE0B7
:10467C00C5F80845F1E7C5F81045F5E7601CC5F825
:10468C000845ECD0002604E0611CC5F80C45E6D0CA
:10469C00012603A80394FFF78DFF012101FA04F30F
:1046AC00C0F80C3508E0C5F80845002FDCD1631CB8
:1046BC00D5D0002631460627DAF80030019303F4F2
:1046CC000040002818BF002103A8009118BF012644
:1046DC000394FFF76FFF019B009900EB8400C3F379
:1046EC00412CD0F800473B0243EA8C030B4304EA0D
:1046FC000B04234343EA4603C0F80037AFE7C5F881
:10470C000C45D2E7C5F86045621CDAF80030A6D03B
:10471C00C3F30043002BBBD003A80394FFF74AFF5D
:10472C00012606FA04F3C0F808353146C4E7C5F88B
:10473C006445E9E7C5F86845E6E7C5F86C45E3E785
:10474C006FF0150062E76FF085005FE7F0F8FCFF93
:10475C001ED900002DE9F041044647680D4606F0CD
:10476C00E4FF4FF0200888B9264B1B7873B1642600
:10477C00606806F056FCF0B9012006F0AAFC013E78
:10478C00F6D10021212003F0BDFEF0E7EFF31186F6
:10479C00314688F31288BFF36F8F606806F041FCD6
:1047AC00A8B986F31188BFF36F8FEFE786F31188F2
:1047BC00BFF36F8FE5E7EFF31186314688F312886C
:1047CC00BFF36F8F606806F02CFC0028EED0BB693D
:1047DC001D706368BA691B680020C3F84425012268
:1047EC00C3F84825C3F82001D3F82041C3F8580179
:1047FC00D3F858019A6081F31188BFF36F8FBDE82D
:10480C00F08100BF921D00202DE9F04100220546E9
:10481C0001210220FEF7BCFC0220FEF789FC6C682B
:10482C000121E06806F02EFC6B681A682369C2F857
:10483C002435637D217D0B43C2F86C356F68D7E955
:10484C00004313F0010346D0D5F8108004F10C019D
:10485C0008F1080204F5907006F078FC061E07DAE1
:10486C002A4A2B48012106F081F93046BDE8F08137
:10487C0098F8080000F002FC0823C4F80035BB6966
:10488C00C4F844350023C4F848350123A360D4F898
:10489C005831002BFBD00026C4F800656B683146FC
:1048AC00D86806F0EFFB6D6831462C68E86806F0B6
:1048BC00E9FB0823C4F800352A7A52B9EB69C4F82D
:1048CC0034350123C4F83835C4F81021D4F810213C
:1048DC0023600026C9E70822C4F80025BA69C4F889
:1048EC004425C4F848350123A360D4F82031002BAB
:1048FC00FBD00023C4F82031D4F820310123E3602D
:10490C004FF48073C4F80433C1E700BF26D900000C
:10491C0038BF000070B40E49D1E90034D01AC31866
:10492C0044F10004C2F30E06C1E90034A6F580532D
:10493C00B3F5C04F09D2074B1B685A0CDB039C190B
:10494C00054B42F10005C3E9004570BC04F068BAA0
:10495C0028170020D81A002030170020E0B1BFF330
:10496C005B8F0E4B53E8001F41F0020143E800122D
:10497C00002AF7D1BFF35B8F094A4FF40033C2F81A
:10498C000433084ABFF35B8F1268BFF35B8F920747
:10499C0044BF054AC2F80031704700BFD41A00204A
:1049AC0000100140CC1A002000E100E00C4BBFF3DA
:1049BC005B8F53E8000F20F0020243E8002100292E
:1049CC00F7D1BFF35B8F074B4FF40032C3F80823CA
:1049DC00BFF35F8FBFF36F8FC0F34000704700BF12
:1049EC00D41A00200010014030B5144B1868410C4B
:1049FC00C003BFF35F8F124BD3F8043547F6FF7239
:104A0C0093420AD10F4AD2E90045844275EB010268
:104A1C0009D3C01841F1000130BD181841F1000153
:104A2C00B3F5006FF8D2074BD3E90023904271EB3A
:104A3C000303F1D210F50040ECE700BFD81A0020B8
:104A4C0000100140301700202DE9F743374CD4F803
:104A5C000433D90319D540230022990810290CD10D
:104A6C00D4F84031002B41D00023C4F84031D4F8A5
:104A7C0040314FF480324423EFE70433502BECD118
:104A8C001AB12B4A136801331360D4F804339A0318
:104A9C0029D5BFF35B8F274B53E8002F22F002017F
:104AAC0043E800100028F7D1BFF35B8F930702D4C3
:104ABC00D4F84431BBB10025C4F84451D4F8443186
:104ACC00FFF792FFEFF31182202383F31288BFF3D9
:104ADC006F8F194BD3E90667B042B94108D282F304
:104AEC001188BFF36F8F03B0BDE8F0834423B4E7A4
:104AFC004FF0FF384FF0FF39C3E90689D3E90410B2
:104B0C001D614FF40033C4F84833C4F84451D4F851
:104B1C00443182F31188BFF36F8F0029E3D00090EA
:104B2C0032463B4601208847DDE700BF00100140BC
:104B3C00D81A0020CC1A0020081700202DE9F74FB6
:104B4C000D461F46044601929DF83080FFF72EFF5C
:104B5C000090FFF749FFA04271EB05034CD2201ADD
:104B6C0044F2010365EB0101984271F1000146D258
:104B7C00324BD3E906239D4208BF944255D0304BAB
:104B8C004FF4003E4FF00009C3F848E3C4F30E0C99
:104B9C00C3F84491D3F84421032062466FF0020A13
:104BAC0043F6FD7BC2F30E01002908BF0122C2F3BC
:104BBC000E01C3F84415C3F844E3D3F80465AAEB1B
:104BCC0006011144C1F30E0159452ED9D3F84421E5
:104BDC0062B1D3F80465A6EB0C02C2F30E02B2F577
:104BEC00804F22D9C3F84491D3F84421B8F1000F77
:104BFC0005D182190130D5E7B8F1000F08D06FF05C
:104C0C0015040098FFF7AAFE204603B0BDE8F08F0C
:104C1C000C4BBFF35B8F53E8001F41F0020143E8DC
:104C2C000012002AF7D1BFF35B8F044B019AC3E942
:104C3C000645C3E904270024E3E700BF081700205A
:104C4C0000100140CC1A00207FB5284C284BC4F82A
:104C5C000833C4F84833274B274A00254FF0FF3060
:104C6C004FF0FF314FF48036C4F80855C3E9020108
:104C7C00C4F80463C3E906014FF40033C4F80433E9
:104C8C000121C2F8803111202A46FEF781FA112049
:104C9C00FEF74EFA0123A3602360184B03221A601F
:104CAC000021174A00952B4643F6FF70FFF746FF8D
:104CBC000220FEF739FF134A13491368134823F0F7
:104CCC000103136047F6FF73C4F844630DF10F0240
:104CDC00C4F8403506F03AFA002804DB9DF80F00C2
:104CEC0000F0CCF9284604B070BD00BF00100140A4
:104CFC0001000F000817002000E100E0D41A00208A
:104D0C0021490000D01A0020081001404011014038
:104D1C00421C13B5034643F6FF7020D08342A8BF54
:104D2C000346012B1C46B8BF0124FFF75DFE0E4B5A
:104D3C00D3E90021801AB0F5804F43F6FF7310D2EF
:104D4C002044984228BF184680184FF00003074AA9
:104D5C00009341F10001FFF7F1FE02B010BD0446D3
:104D6C00E3E71846F0E700BF2817002021490000B0
:104D7C0008B5FFF739FE024B1B68C01A08BD00BF0F
:104D8C00281700204FF0704393F8E02F062A09D122
:104D9C00D3F8E83FC3F30313033B042B02D8024AB6
:104DAC00D05C70470020704772D90000024AD2F8DC
:104DBC000034002BFBD0704700E0014010B506F02A
:104DCC0077F940B14FF080538E4AD3F82433C3F3B4
:104DDC000423C2F84035FFF7D5FF10B18A4B8B4A3C
:104DEC005A6706F065F948B14FF080534FF0804296
:104DFC00D3F84432C3F34233C2F83C35FFF7C2FF59
:104E0C0030B1834AD2F8FC3023F08073C2F8FC3006
:104E1C0006F04EF940B14FF080430022C3F80C214C
:104E2C00C3F81021C3F83825FFF7ACFF20B14FF0C1
:104E3C0080430322C3F8A025FFF7A4FF60B1754B94
:104E4C000522C3F810260122C3F888260022C3F8D5
:104E5C0018263F22C3F814264FF08053D3F8302184
:104E6C00511C09BF4FF07043D3F8343193F8E02F45
:104E7C00D3F8E83F08BFC3F30313062A4DD1033B15
:104E8C00042B03D8644AD35C002B46D04FF08052DD
:104E9C00624BD2F80414C3F82015D2F80814C3F8E6
:104EAC002415D2F80C14C3F82815D2F81014C3F832
:104EBC002C15D2F81414C3F83015D2F81814C3F802
:104ECC003415D2F81C14C3F84015D2F82014C3F8CA
:104EDC004415D2F82414C3F84815D2F82814C3F892
:104EEC004C15D2F82C14C3F85015D2F83014C3F862
:104EFC005415D2F83414C3F86015D2F83814C3F82A
:104F0C006415D2F83C14C3F86815D2F84014C3F8F1
:104F1C006C15D2F84424C3F8702506F0C9F848B1D2
:104F2C004FF080534FF08042D3F8583203F04F03C8
:104F3C00C2F8E43E06F0BCF848B14FF08043D3F819
:104F4C000024D20744BF6FF00102C3F800244FF0D5
:104F5C008053D3F83021062A26D1D3F83431033BC1
:104F6C00042B02D82E4AD35C63B12E4AD2F83C37BC
:104F7C0043F48063C2F83C374FF08053D3F83031A0
:104F8C00062B11D14FF08053D3F83431033B042B53
:104F9C0002D8254AD35C3BB14FF01023D3F808223A
:104FAC004FF08043C3F858254FF01023D3F800225C
:104FBC00002A03DBD3F80432002B22DA1B4901232D
:104FCC004FF01020C1F804351524FFF7EFFEC0F8A0
:104FDC000042FFF7EBFEC0F80442FFF7E7FE0023A8
:104FEC00C1F80435FFF7E2FEBFF34F8F0849104BB1
:104FFC00CA6802F4E0621343CB60BFF34F8F00BF6B
:10500C00FDE710BD0030014000C007400DF0ADBA07
:10501C0000ED00E0005000406DD9000000C00040E1
:10502C0068D900000010004063D9000000E0014086
:10503C000400FA05014B1860704700BFDC1A002011
:10504C0010B50A4B1868144648B9094909480A4A68
:10505C003B2305F070FB08483B2105F063FB06F091
:10506C003AF80028A4BF2070002010BDDC1A0020E4
:10507C00B3D9000045C6000077D90000024A0123CD
:10508C008340C2F80435704700F00140014B00200A
:10509C001B681847E01A0020014B1B68184700BF1B
:1050AC00E01A002010B50C4C237993B9012323711D
:1050BC000A4B2060002818BF184600F0D9F850B9E8
:1050CC0023680748002BBDE8104008BF184600F0C5
:1050DC004BB96FF0770010BDE01A0020995000001A
:1050EC00A550000008B50C4B1A794AB90B490C486D
:1050FC000C4AAD2305F01FFB0A48AD2105F012FB4D
:10510C001B683BB10020FEF735F818B9BDE8084024
:10511C00FEF70EB808BD00BFE01A002006DA00004A
:10512C0045C60000C9D9000008B5114B1B794BB915
:10513C001049114A1148FE2305F0FDFAFE210E48D4
:10514C0005F0F0FA58B101280DD00D490A4A0B4868
:10515C0040F21B1305F0EFFA40F21B11EFE7BDE82C
:10516C00084000F013B9BDE8084000F095B800BF46
:10517C00E01A002006DA0000C9D9000045C600007C
:10518C007DDF000008B5124B1B795BB91149124A3F
:10519C0012484FF4917305F0CEFA4FF491710E480A
:1051AC0005F0C0FA28B1012807D1BDE8084000F08D
:1051BC00A1B8BDE8084000F059B90949064A0748AA
:1051CC0040F23F1305F0B7FA40F23F11E7E700BF9A
:1051DC00E01A002006DA0000C9D9000045C600001C
:1051EC007DDF00004FF08053D3F83021511C09BFF4
:1051FC004FF07043D3F8343193F8E02FD3F8E83FF5
:10520C0008BFC3F30313062A05D1033B042B04D8B0
:10521C00034AD05C7047002070470120704700BFE4
:10522C0067DA000038B54FF080440123C4F8083326
:10523C0063600023C4F80031D4F8003142F21075D9
:10524C00D4F80C24D4F80C34D20307D5DB0705D5DD
:10525C00012005F03EFF013DF2D138BDFFF7C2FF42
:10526C000028FAD0014B00225A71F6E7E81A002008
:10527C0038B5084C25794DB9012320602371FFF70F
:10528C00B1FF08B9002038BD6571FBE76FF07700FE
:10529C00F9E700BFE81A002008B512490B794BB9A1
:1052AC0011491248124A772305F045FA1048772124
:1052BC0005F038FA4FF080430022C3F80021D3F8F0
:1052CC00002101221A60096811B1C3F8042308BD3A
:1052DC00D3F80021002AFBD00022C3F80021D3F818
:1052EC000031F4E7E81A002006DA000045C6000099
:1052FC0024DA000008B5084B1B794BB9074908485C
:10530C00084A892305F017FA0648892105F00AFA9C
:10531C00BDE80840FFF786BFE81A002006DA000057
:10532C0045C6000024DA000010B54FF08043D3F8D6
:10533C000423D20715D5D3F8002192B10022C3F86B
:10534C0000210124D3F80021C3F80843FFF74AFFDA
:10535C00044B10B15A7922B95C71BDE810401B683E
:10536C00184710BDE81A0020074A137943B90121E8
:10537C00106011714FF080421846C2F81835704712
:10538C006FF07700704700BFF01A002010B5324C58
:10539C0023794BB931493248324AE32305F0CBF932
:1053AC003048E32105F0BEF94FF08043D3F81814D0
:1053BC00D3F81824C90337D502F00303012B03D00B
:1053CC000BB105F0E0FE00234FF08042C2F8183517
:1053DC000023C2F80431D2F804314FF08053D3F8D3
:1053EC003021511C09BF4FF07043D3F8343193F87E
:1053FC00E02FD3F8E83F08BFC3F30313062A08D104
:10540C00033B042B02D8184AD35C13B18A2005F055
:10541C0060FE4FF0804301229A60226872B9D3F883
:10542C000421002AFBD011E0D3F81424D207CAD5EA
:10543C00D3F81C249007C4D422681AB10222C3F8F2
:10544C00042310BDD3F80421002AFBD00022C3F89A
:10545C000421D3F80431F4E7F01A002006DA000036
:10546C0045C600006CDA0000AFDA000008B5094B45
:10547C001B795BB908490948094A4FF4907305F048
:10548C005AF907484FF4907105F04CF9BDE8084003
:10549C0005F079BEF01A002006DA000045C60000BF
:1054AC006CDA0000F8B54FF080431F4FD3F804437B
:1054BC00012504F01A04002604B9F8BDB4FA84F0EE
:1054CC00C0F11F00830003F580739BB203F180438E
:1054DC0005FA00F2196824EA02040029ECD01E60D7
:1054EC001B684FF080430128C3F808230FD1D3F871
:1054FC001824D3F81824920702D03B689847DBE7AE
:10550C000222C3F81805C3F804239860D4E70749AE
:10551C000748084A4FF4F47305F00DF905484FF4A9
:10552C00F47105F0FFF800BFF01A00207DDF0000D9
:10553C0045C600006CDA00004FF08053D3F83021E0
:10554C00511C09BF4FF07043D3F8343193F8E02F5E
:10555C00D3F8E83F08BFC3F30313062A05D1033B76
:10556C00042B04D8034AD05C7047002070470120FC
:10557C00704700BF90DB000008B50268014610467A
:10558C0005F01AFE58B90F490F4A10484FF47473BE
:10559C0005F0D1F84FF474710B4805F0C3F802F024
:1055AC001F0352090B6009D00949074A074840F20A
:1055BC00D93305F0C0F840F2D931EDE74FF0A040F7
:1055CC0008BD00BF1ED70000EBD6000045C600008A
:1055DC007DDF0000072808B50BD908490848094A9F
:1055EC0040F2A73305F0A7F8064840F2A73105F0C2
:1055FC0099F8800000F5807008BD00BFE9DA000062
:10560C0045C60000B4DA000010B5CBB200EB430382
:10561C009A8AD1051BD5C2F3432122F4F8529A82FF
:10562C0000F1520400F1120232F8023F13F4807FB1
:10563C0003D0C3F34323994209D09442F4D100EB35
:10564C00C10300225A60583005F063FD00B910BD4B
:10565C0005490648064A4FF4DB7305F06CF804481C
:10566C004FF4DB7105F05EF853C9000045C600002D
:10567C00F3DA000073B5CEB200EB46060546B38AEA
:10568C00DB070C4628D505F076FE2146284605F0AA
:10569C009DFD48B1B28A2B68520B03EB82030022AA
:1056AC00C3F81025C3F81025284621460025FFF71E
:1056BC00ABFFB58201A80194FFF75EFF019B00EBE5
:1056CC008300074BD0F80027134043F00203C0F8C7
:1056DC000037284602B070BD6FF01500FAE700BF26
:1056EC00F0F8FCFFF0B50D4685B01646044658B9E7
:1056FC0052495348534A40F23A4305F01CF851487A
:10570C0040F23A4105F00EF81768CFB105F06CFD88
:10571C0000BBCDE900008DF80E008DF80F003B4664
:10572C000DF10F020DF10E01284605F087FDEAB2CE
:10573C0004EB4202938A23F0020343F001039382A9
:10574C00736853B3294620461A785F6805F045FD07
:10575C0018B1CFB16FF0150022E0E9B204EB4101B2
:10576C008B8A23F4604323F020038B8267B1032AD6
:10577C00F0D8736858682368077803EB87038AB9F5
:10578C00C3F81025C3F81025E9B204EB41018B8A4C
:10579C0023F01C0343EA82038B82B3684BBB0020CB
:1057AC0005B0F0BDD3F8100520F00300C3F81005C8
:1057BC00206800EB8700D0F8103523F4473323F42E
:1057CC004073C0F810352B02D0F810C503F4F85311
:1057DC0043EA024343EA0C03C0F8103504EB4703D9
:1057EC00A3F85C508B8A43EA473343F020038B8247
:1057FC00CAE7D3E9006729462046FFF705FF002ECC
:10580C00CDD063689E4206D004F1580005F063FCCD
:10581C00002804DAC4E7A3689F42F5D1002004EB0A
:10582C00C003C3E90167EDB204EB4505C0B2AB8A16
:10583C0043EA402343F48073AB82B0E770DB000093
:10584C0045C60000F3DA0000F0B50C4685B01E46E4
:10585C00054658B939493A483A4A40F2444304F0AB
:10586C006AFF384840F2444104F05CFF12B305F083
:10587C00B4FC20B92146284605F0A8FC08BBE7B2C9
:10588C0005EB4707BB8A13F01C0F02D05378012B92
:10589C0017D001238DF80F300023CDE900230DF133
:1058AC000F01931C2046013205F0C8FCBB8A43F063
:1058BC000303BB82002E3FD02146284605F08DFC09
:1058CC0018B96FF0150005B0F0BD37782B6803EBF5
:1058DC0087030022C3F81025C3F81025E2B205EBAC
:1058EC0042024FEA870C938A23F4604323F020038F
:1058FC009382707800B32968B67861440004D1F8BB
:10590C00103523F4981323F4F853C1F810352302FF
:10591C0000F4403003F4F85303433005D1F810552C
:10592C0000F4801003432B43C1F81035938A43EAEB
:10593C00473343F0200393820020C4E770DB000060
:10594C0045C60000F3DA000008B558B90749084805
:10595C00084A40F24D4304F0EEFE064840F24D4139
:10596C0004F0E0FEC0E9031208BD00BF70DB0000CC
:10597C0045C60000F3DA000010B503460C4658B9D2
:10598C001249134A134840F2564304F0D4FE40F235
:10599C0056410F4804F0C6FE4AB90F490C4A0D484F
:1059AC004FF4457304F0C7FE4FF44571F1E705F071
:1059BC000DFC38B1E4B203EB440300209B8A5B0B73
:1059CC00137010BD6FF01500FBE700BF70DB00001B
:1059DC00F3DA000045C600007BDB0000F8B5054695
:1059EC0058B91B491B481C4A40F2644304F0A3FEFF
:1059FC00194840F2644104F095FE90F86C4024BBC9
:105A0C0040222146143005F01FFF2E682746E0B2D5
:105A1C00FFF7E0FDA0F580739B081F2B08BF3750E4
:105A2C0004F1010408BF3358082CF0D10024C6F847
:105A3C007C4146F30730D6F87C31FDF779FB012326
:105A4C0085F86C30AB652046F8BD6FF07700FBE74E
:105A5C0070DB000045C60000F3DA000008B558B949
:105A6C0008490948094A40F26B4304F064FE0748B0
:105A7C0040F26B4104F056FE90F86C00003818BFF1
:105A8C00012008BD70DB000045C60000F3DA000001
:105A9C0008B558B907490848084A40F2794304F058
:105AAC004AFE064840F2794104F03CFEBDE808404D
:105ABC00FFF7E0BD70DB000045C60000F3DA000024
:105ACC0008B558B908490948094A4FF4906304F0DD
