:10000000404500203D230000C17900002923000065
:1000100029230000292300002923000000000000FC
:10002000000000000000000000000000B5240000F7
:1000300029230000000000005124000029230000B3
:100040007926000079260000792600007926000034
:100050007926000079260000792600007926000024
:100060007926000079260000792600007926000014
:100070007926000079260000792600007926000004
:1000800079260000792600007926000079260000F4
:1000900079260000792600007926000079260000E4
:1000A00079260000792600007926000079260000D4
:1000B00079260000792600007926000079260000C4
:1000C00079260000792600007926000079260000B4
:0C00D00079260000792600007926000047
:1000DC0053B94AB9002908BF00281CBF4FF0FF31A3
:1000EC004FF0FF3000F00CB8ADF1080C6DE904CE08
:1000FC0000F018F8DDF804E0DDE9022304B07047E5
:10010C00704700BF034611F8012B03F8012B002A9E
:10011C00F9D17047034613F8012B002AFBD1181AAA
:10012C00013870472DE9F04786468C460846089EF4
:10013C00154674461946002B40F0C2808542B2FA2F
:10014C0082F245D94AB1C2F1200300FA02FC2EFA20
:10015C0003F3954043EA0C0C94404FEA154EA8B2B9
:10016C00BCFBFEF8230C0EFB18CC08FB00F943EA91
:10017C000C43994528D9EB1808F1FF3704D299455F
:10018C0002D9A8F102072B44A3EB0903A4B2B3FBD9
:10019C00FEFC0EFB1C330CFB00F044EA0344A042B3
:1001AC0014D92C190CF1FF3304D2A04202D9ACF1B2
:1001BC0002032C44241A43EA07401EB1D440002306
:1001CC0034607360BDE8F0874746DDE76346F1E7CE
:1001DC0092BB431B01214FEA154EAFB2B3FBFEFCA1
:1001EC00200C0EFB1C330CFB07F840EA034398452C
:1001FC0062D9EB180CF1FF3004D2984502D9ACF15E
:10020C0002002B44A3EB0803A4B2B3FBFEFC0EFBD1
:10021C001C330CFB07F744EA0344A7424ED92C19B4
:10022C000CF1FF3304D2A74202D9ACF102032C44E7
:10023C00E41B43EA0040C0E7C2F1200320FA03F1BB
:10024C00954090402EFA03F303434FEA154EAFB29C
:10025C00B1FBFEFC0EFB1C10190C0CFB07F841EA61
:10026C000041884504FA02F422D969180CF1FF30D8
:10027C0004D2884502D9ACF102002944A1EB080153
:10028C009BB2B1FBFEFC0EFB1C110CFB07F743EA07
:10029C0001439F420ED9EB180CF1FF3104D29F425F
:1002AC0002D9ACF102012B44DB1B41EA004192E77D
:1002BC006046E3E76146F7E76046A3E76346B7E7C6
:1002CC00834206D916B9002108467BE7C6E900E04F
:1002DC00F9E7B3FA83F78FB9834201D3724508D893
:1002EC00BEEB020460EB030301209C461EB9002107
:1002FC0068E73846FAE7C6E9004CF8E7C7F1200C86
:10030C00BB4022FA0CF41C432EFA0CF120FA0CF32D
:10031C00B84001434FEA14490EFA07F5B3FBF9F85C
:10032C001FFA84FE09FB18300B0C08FB0EFA43EA8B
:10033C0000439A4502FA07F240D9E31808F1FF305E
:10034C0004D29A4502D9A8F102002344A3EB0A0374
:10035C0089B2B3FBF9F809FB183308FB0EFE41EA2E
:10036C0003418E452CD9611808F1FF3304D28E4518
:10037C0002D9A8F10203214443EA0040A0FB0298F1
:10038C00A1EB0E014145CE46434602D306D14D4565
:10039C0004D2B9EB020E68EB04030138002EA6D090
:1003AC00B5EB0E0261EB030101FA0CFC22FA07F328
:1003BC004CEA0303F940C6E9003198E74046C5E72B
:1003CC004346D9E7F9280DD877290BD8CB1003EB86
:1003DC000010054AC94301F0070101238B40115C51
:1003EC000B431354704700BF602400202DE9F04FDD
:1003FC001F4D2B68A3BB1F4CDFF87CC04FF01808B7
:10040C004FF00C0E4FF00109264600200EFB03C7DF
:10041C00B0FBF8F217F802A00022934642F35B01FE
:10042C00C1F107014AFA01F1C90742BFC2F10F013C
:10043C0009FA01F14BEA010102F1010248BF1FFA6E
:10044C0081FB102AEAD10C30B0F5907F26F802BB64
:10045C00DED10133262B04F13004D5D101232B60DE
:10046C00BDE8F04F05484FF47A62002108F056BC05
:10047C00A81B0020401D0020341200206024002006
:10048C002DE9F04F87B0DFF8B8900392CDE9010168
:10049C000025A9F13003A9F5DE6A019A505D10B967
:1004AC0007B0BDE8F08FA02D46D0A0F13004E2B229
:1004BC00092A2DD8302202FB04A4039918222F11EB
:1004CC0002FB0717029A05F00F0B02EB0B1B002621
:1004DC00B919772917DC34F816204FF00008C8F149
:1004EC000F0042FA00F0C00708D50BEB0800CDE96D
:1004FC000412FFF767FFDDE90412124B08F1010843
:10050C00B8F1100FEBD10136182EE1D10135C4E74B
:10051C00A0F14102192A04D83738302404FB00A476
:10052C00CBE7A0F16102192A01D85738F5E720284A
:10053C0014BF4C461C46C0E74FF0FF30B0E700BF7D
:10054C00302400200024002084B000B58BB00DF1C5
:10055C00300C8CE80F00FFF749FF0C9B7BB1042299
:10056C000A2117A8FFF78CFF09490DAA12AB6846A0
:10057C0005F0E4F91C220A216846FFF781FF0548C3
:10058C0006F034FC00200BB05DF804EB04B07047AF
:10059C00849900006024002008B54C220A21FFF742
:1005AC006FFF024806F022FC002008BD60240020EA
:1005BC00F0B51D4899B006F076FD00F0A9F8064696
:1005CC0038B11A4806F06FFD4FF0FF36304619B0BF
:1005DC00F0BD012316490B930CA8FFF793FD1549A9
:1005EC0011A8FFF78FFD0FAD134916A8FFF78AFD71
:1005FC000FCD6C460FC40FCD0FC42B6823600BAF0F
:10060C0097E80F00FFF7A0FF304606F03FFB0521EF
:10061C000A48FFF7C1FF0A4808F0FFF9052109480D
:10062C00FFF7BAFFD2E700BF8A9900009399000048
:10063C00AE990000B5990000BA990000BF9900006E
:10064C00404B4C00C599000007B5019001A806F07D
:10065C009AFA019B00EB8300054BD0F8002713405E
:10066C0043F00303C0F8003703B05DF804FB00BF90
:10067C00F0F8FCFF10B5144C86B08DF8070020681C
:10068C0008F0E7F920B9114806F00DFD06B010BDD1
:10069C00032006F08FFA21460DF10703029302AAFC
:1006AC000123CDE9042351F8040B0393836804AAB6
:1006BC001C680023A047011E02DA054806F0F3FC73
:1006CC00032006F06AFAE1E7C0100020CB99000085
:1006DC00DE99000038B51D204224002506F05DFA95
:1006EC002946204606F073FA1D2006F063FA002115
:1006FC00212006F06CFA1D2006F04FFA2946204600
:10070C0006F065FA014B00221A6038BDB41B0020BC
:10071C0007B50420FFF798FF0320FFF795FF002192
:10072C0001A8019106F02FFA019B00EB8300114BFD
:10073C00D0F80027134043F00C03C0F800371D20FD
:10074C00FFF782FF0C4B10221A600C4B3F221A60F1
:10075C000B4B0320196006F020FA042006F01DFA5A
:10076C001D2006F01AFA084603B05DF804EB06F0FB
:10077C008DBA00BFF0F8FCFFB01B0020AC1B0020B2
:10078C00B41B00202DE9F04F91B08407009302F0C8
:10079C0004030293C2F3C20303F10103DDF8688082
:1007AC00039205460E46059340F0BA81041D30B104
:1007BC00072909D86FF01B0011B0BDE8F08F01F0CC
:1007CC0007063444C6F10806009B4FF00009591E79
:1007DC004FF0040A4FF0FF330193CDF810904F46C1
:1007EC00CB4653460DB1009A22600598002800F3C1
:1007FC00E8809848009A824203D397488242C0F01E
:10080C00E080039AA4EB050E92074FEA9E0000F1DC
:10081C0003810F2F00F2B180002D00F0058107F14C
:10082C0040020DEB020C019A0CF8200C0CF8102C69
:10083C00049801300490E7E07A285DD84B280ED854
:10084C00472859D829282DD8252852D054D82028C3
:10085C007AD02338D0F1000B4BEB000B74E04C3802
:10086C002E2849D8DFE800F07048484848484848E6
:10087C00484848484B484848484848484859484BD5
:10088C004B595959704B6D487048184B1848488251
:10089C007F4B48484B487F0000204FF0000B4FF037
:1008AC00040A38E02A38C0B2012202FA00F010EA39
:1008BC000E0F49D110F0625C2FD110EA020B43D01D
:1008CC006046013C5444B4FBFAF40AFB04F4002DDA
:1008DC0061D0A3EB050CA444B4453FF66BAF0028E4
:1008EC0068D1042B47D158F8043B2360043404230B
:1008FC002AE0019A013A01924FF0000B24E011F822
:10090C00010C6C2834D111F8023C00206C2B83466E
:10091C00C5D14FF0080A5346D3E708F1070828F071
:10092C0007080734F8E802AB24F0070435B1069841
:10093C002044B0423FF63EAFC4E900AB08344FF060
:10094C00000B4FF0080A534611F8010F002878D01D
:10095C00BBF1000F7FF470AF2528F5D1019B01335B
:10096C0001934FF0010B4FF0040AECE7584694E763
:10097C0000208346A5E7082B02D06FF015001BE77B
:10098C0008F1070828F00708F8E80223C4E9002357
:10099C0008340823D8E768B9042B02D108F10408FD
:1009AC00A4E7082BE9D108F1070828F0070808F19B
:1009BC000808EDE7059A013A059258F8042B0092C5
:1009CC0010E7039A900720D5A4EB050E4FEA9E0082
:1009DC004FF0010CBEF5007FCFD20F2FCDD8F5B163
:1009EC0007F140020DEB020EC0B2019A0EF8200C7A
:1009FC000EF8102CBCF1000F3FF41AAF60F07F0022
:100A0C000EF8200C09F101090137C5F10802043474
:100A1C0006924FF6DA7E97E74FF0000CDAE7BCF15E
:100A2C00000F01D00136EFE7029802360028EBD117
:100A3C000098CDE90631FFF76DFBDDE90631064480
:100A4C00E2E7631BB3F5806F97D23DB9A6F10804BA
:100A5C00E018B1E6F89000000CA40000029A28609F
:100A6C009B082B709DF81030C2B1EB7085F802908A
:100A7C00B9F1000F05D008A80022C5F1010C97426E
:100A8C000ED1C5F101030DF120084FF0000A0193BE
:100A9C000DF1300B574512D1601B8DE66B70E5E7FD
:100AAC0010F8013B190608D50CEB040EB64503F003
:100ABC007F033FF67FAE04F8013B0132DFE7B9F16B
:100ACC00000F03D098F90020002A17DB029BD3B14A
:100ADC001AF80B2004F8012B0022019B1819104462
:100AEC00B0423FF667AE98F8000004F8010B00998D
:100AFC000392204608F004F9039A14440AF1010AFF
:100B0C0008F10108C6E798F8002055F82230009348
:100B1C00029B45F822300098FFF7FCFA421CDCE7F8
:100B2C006FF00D0048E600BF2DE9F04F97B000AF15
:100B3C0090F802A0D7F880B03B62CBF3C003044618
:100B4C00FA62BB61894641B9457800780AEB8000AE
:100B5C0020444D4517D8A0EB0409E378FB61BAF1AA
:100B6C00000F02D01BF0010F16D1FB6953BBFB6ABF
:100B7C001BB13A6A4946204698474D4628465C3791
:100B8C00BD46BDE8F08F461C3046FFF7C3FA013076
:100B9C00304409F10109DCE7237862687A62FA6A69
:100BAC009900796104EB8301002A40F000814D46E5
:100BBC000E4601EB0A094FF000084E454CD101EBF3
:100BCC000A0610E01BF0020FD1D023789A007A614C
:100BDC0062687A62FA6A04EB8301002A77D14D4687
:100BEC0001EB0A0690461BF0050F0CBF02230123F4
:100BFC00FB62FB6906EB430A0BF00203BB62564532
:100C0C00BCD016F8021B16F8013C54F82390994BF3
:100C1C00994502D3984B994536D3BB69002B40D0EC
:100C2C00786A06F019FA00283BD0E9468AB06A4681
:100C3C00924B53617B6AC2E906314FF40073138403
:100C4C008F4B42F8103F8F4800234FF4125100F0A5
:100C5C0023FD023DCD46D2E716F8013BF96254F86C
:100C6C002300FFF757FAD7F88430F96A01304BB1FB
:100C7C00D7F8883098453EBFD7F8843023F8180051
:100C8C0008F10108054498E7BB6923B1786A06F0BE
:100C9C00E3F90028C9D11BF0010F05D1FB6AED1A4D
:100CAC00ADE7BB6A002BAAD04846FFF733FAD7F85A
:100CBC00843053B1D7F8883098453FBFD7F884209B
:100CCC00431C22F8183008F10108054497E7BAF1E3
:100CDC00000F72D01BF0040672D0D046002607F12C
:100CEC00480052463B61B96208F00AF8B96A3B69A0
:100CFC0001EB0A02BA62FA69F9695200FA60BA6A3F
:100D0C0002EB41023A610BF00202BA603A69B96A2D
:100D1C008A4257D162787A621BF0020F32440CBFC0
:100D2C004FEA580100211BF0010FD2B240F09F8016
:100D3C001BF0040F14BF40460020BB616270A07012
:100D4C00E1703A6A7969FB6A20469847051EFFF6FE
:100D5C0015AFBB6923707B6A6370FB69E370414616
:100D6C003A6AFB6A84F802A007F148009847B0F190
:100D7C000008C0F2BB807B693A6AA9EB0A01C91A68
:100D8C00FB68C91AD7E90A0398470028C0F2B0805B
:100D9C00A84408EB00054FF0000B07F1380AB345E7
:100DAC0072D300213A6AFB6A08469847E6E6564633
:100DBC004FF0000807F1380093E75646D04697E706
:100DCC00B04695E7BA6A12F8021BBA6212F8015CD7
:100DDC00284A54F82500904202D3274A90421ED349
:100DEC00BA6932B1786A7B6006F036F97B68002804
:100DFC008CD1BA6802BB08F1280207F1300C08F15B
:100E0C000100944407F1580252FA80F008F10208EC
:100E1C000CF8101C5FFA88F800F8105C76E7BA69D9
:100E2C003AB1786A7B6006F017F97B6800287FF48A
:100E3C006DAF1BF0010F09D006F1280207F130004D
:100E4C00711C161806F8205CCEB25FE71BF0040F7D
:100E5C003FF45CAF08F1280207F1300008F1010102
:100E6C0002EB000808F8105C5FFA81F84EE70020EE
:100E7C0063E700BFF89000000CA40000F799000095
:100E8C0004000001849300001BF80A3087F8373007
:100E9C0054F82390D7F884302BB3D7F888309B457F
:100EAC0021D2D7F8843033F81B803A6AFB6A0121CF
:100EBC0007F13700984700281ADB0544B8F1000FFA
:100ECC0006D14846FFF726F900F101081FFA88F809
:100EDC003A6AFB6A414648469847002808DB0544B5
:100EEC000BF1010B5BE74FF00008DEE7454645E6EA
:100EFC00054643E6014B1860704700BFD810002030
:100F0C0080B505460E461746984604F0A9F90346E7
:100F1C0008F0E2F8DFF81890044649F80030424631
:100F2C0030463946A84754F8090001F075FA00BF5D
:100F3C00080000002DE9F047058B04462807904671
:100F4C0011D4022905F0070540F0CC80204606F0AC
:100F5C0021FB78B10138218B042811D8DFE800F08F
:100F6C00C2106D85950001290CBF45F0100545F0A8
:100F7C002005258388F31188BFF36F8FBDE8F087B8
:100F8C0001F0070AAA4500F0A5800027B9463E46A5
:100F9C00A368002B00F0BC8041F00801218388F38A
:100FAC001188BFF36F8FA168002900F0BA800D681B
:100FBC00002900F0B680D1F8048033465246204612
:100FCC00C047002D76D02B6829461D46F0E701F06E
:100FDC0007035A1F012A1BD8002221F00701062BF8
:100FEC00276889B2C4E9002209D13B4603E0628B31
:100FFC00013262831B68002BF9D141F0020121837D
:10100C00204606F0C7FA00287AD041F0200176E09D
:10101C00042B0AD121F0070189B22183204606F066
:10102C00B9FA10B141F020012183218B01F0070A9C
:10103C00AA454FD00027B946AAE7236921F007013A
:10104C0041F00601062DD3F8009021832DD1B9F182
:10105C00000F3FD041F00801218388F31188BFF3C2
:10106C006F8F3A492046C84729E021F007012369D0
:10107C0041F0040189B2042DD3F804902183E6D009
:10108C0000273E464FF0040A82E721F0070123694E
:10109C0041F0050189B2052DD3F808902183D6D0F3
:1010AC0000273E464FF0050A72E700273E464FF0F8
:1010BC00060A6DE72B4687E7B9F1000FD1D1EFF3A4
:1010CC001188202383F31288BFF36F8F238B23F0B7
:1010DC0008032383258BEA062ED525F010032383E2
:1010EC0005F007056669218B002EBFF670AF002353
:1010FC002768C4E9003321F0070141F00101218385
:10110C00218B01F0070AAA454FF000097FF440AF8C
:10111C00002F9CD041F00801218388F31188BFF384
:10112C006F8F002FC8D03D68394633465246204653
:10113C0006F05CFA2F46F4E7AB067FF51BAF25F003
:10114C002003238305F0070500E700BF2576000088
:10115C002DE9F047DFF85880044607464FF00109A7
:10116C0014B93846BDE8F08794FAA4F5B5FA85F5BC
:10117C0009FA05F32E0108EB05156FEA030A24EAB8
:10118C0003042B7B002BEBD058F806301B694BB9B2
:10119C004644042273682846196807EA0A0706F0D1
:1011AC0005FBDDE7284698470028D9D1F0E700BFBA
:1011BC00CC93000030B51049104889B0002207F0DC
:1011CC0077FD0F4D0F4900220023CDE906230024A3
:1011DC000E23CDE90334CDE901440B4B00944FF4BD
:1011EC004072284603F0EAFD0849284603F060FDEA
:1011FC00204609B030BD00BF1D12000010190020A0
:10120C00581400204034002049150000AB9A00000F
:10121C00014803F0B9BC00BF441400202DE9F0478D
:10122C00804621480F4606F0A1FA0646002833D026
:10123C0000252846BDE8F087237B83B12368DB6853
:10124C000BB120469847636883F8069023681B69A6
:10125C00D3B9636804221968204606F0A7FA013650
:10126C0010345445E8D3B8F1000FE2D0002DDFD094
:10127C002846FFF76DFF0546002FF7D000214FF4ED
:10128C00A47007F0A9FCF1E7204698470028E0D0AD
:10129C0009FA06F31D43E2E7044CDFF814A00546F7
:1012AC004FF00109DDE700BFC81B0020CC93000004
:1012BC00DC930000014B53F820007047CC960000E3
:1012CC0008B5034608462BB1044A136000F07AFCBB
:1012DC00002008BD6FF01500FBE700BFDC100020FC
:1012EC0010B5044C237813B9034803F04DFC0123CB
:1012FC00237010BD003400204414002010B50446A7
:10130C000B4806F033FA5CB1BFF35B8F094B53E823
:10131C00001F013943E80012002AF8D1BFF35B8F9C
:10132C00054807F0D1FC0548BDE8104003F02CBC83
:10133C00C01B0020C41B00201019002044140020E6
:10134C000020064BBFF35B8F014653E8000F43E8C8
:10135C000012002AF9D1BFF35B8F7047C01B00202D
:10136C0070B5FFF7EDFF084C084E0546B44200D3AC
:10137C0070BD63685B792BB123685B6813B1294638
:10138C00204698471034F1E7CC930000DC93000022
:10139C0010B5044C0449204605F095FF034B1C6026
:1013AC0010BD00BF08140020B8960000B81B002028
:1013BC000D4A0E48002310B513700D4A13600D4AE8
:1013CC004FF400411360FFF77BFFFFF7E1FF0A4B7F
:1013DC000A4918468B4200D310BD1A1A5C681211C8
:1013EC00013222711033F5E70134002075770000CB
:1013FC00C01B0020C41B0020CC930000DC93000019
:10140C00014600220148002305F07EBF081400208D
:10141C00014806F017B800BF08140020024B014623
:10142C00186806F063B800BFB81B0020014806F02E
:10143C0098B800BF0814002070B5294B1878002804
:10144C004DD0FFF7E5FF0546002845D1254B264C2E
:10145C001B68002B19DD07F029FC4FF47A72A0FBF6
:10146C00020302FB0131C30BD4E9002043EA4143E0
:10147C009B1A4FEAD13140F2E93261EB0001934201
:10148C0071F1000101D3FFF76BFFD4E9003213F5C2
:10149C007A7342F10002C4E90032BDE87040FFF7F4
:1014AC00C5BF63685B7923B1236829461B68204656
:1014BC0098471034B442F4D32846FFF7AFFFBFF37C
:1014CC005B8F0A4B53E8001F013943E80012002AD6
:1014DC00F8D1BFF35B8FB9E7054C064EEAE770BD58
:1014EC0000340020C01B002008190020C41B002061
:1014FC00CC930000DC93000070B50D4D297861B9D8
:10150C000120FFF78BFE0B4C0B4EB44206D3FFF7BA
:10151C0093FF0028FBD101232B7070BD63685B79AE
:10152C001BB1236820469B6898471034EDE700BF39
:10153C0001340020CC930000DC93000000212DE945
:10154C00F0470846FFF76AFE044658B340F2676856
:10155C004FF0000907F0C0FD1B4B1C4A1B581360D1
:10156C0033B11B4B1B68092B02DD1A4803F00CFB33
:10157C00194FDFF860A0002544B12046FFF7E8FDC5
:10158C00044618B94FF0FF384FF0FF39FFF754FFFE
:10159C00064628B9B5B942464B46504603F028FBDF
:1015AC003546E9E74FF0FF384FF0FF39D2E72B68AB
:1015BC009B691BB100221146284698471035BD4245
:1015CC00F5D3E8E7054DFAE708000000BC1B002046
:1015DC00C41B002044140020DC930000CC930000BA
:1015EC0013B5184806F0C2F8174B1B7873B1EFF31C
:1015FC001184202383F31288BFF36F8FFFF71CFF36
:10160C0084F31188BFF36F8F02B010BD0F4B1B68B2
:10161C00002BF9D050B900220023CDE900230C484F
:10162C004FF40042002304F025F9EDE70928EBD133
:10163C00074807F049FB074802B0BDE8104003F02B
:10164C00A3BA00BFC41B002001340020BC1B002027
:10165C00101900204414002010B5064B1B680446DA
:10166C0098472146A060044805F0CDFEBDE8104027
:10167C00FFF7B6BFDC10002008140020044A054B0D
:10168C009B1AB1EBD30F34BF52F8310000207047D6
:10169C0084930000CC9300002DE9F04F8FB004AF81
:1016AC00C1F34A28B8600D4691467B600C0DB8F129
:1016BC00000F63D0002607F114034FF0040B4FF01A
:1016CC000A0AC7F80C80C7E907667E620193CDF859
:1016DC0008B0CDF800A007F11C03F9683246484663
:1016EC00FFF722FAB0F5006F03461CD36C468AB0A4
:1016FC00D9F8041004AB2648C3E9050140F2FF7188
:10170C00D9611A464FF400711984224B42F8103FEC
:10171C00214833464FF41251FFF7BEFFA5462C3734
:10172C00BD46BDE8F08FC0F30A0804F11700184459
:10173C0020F0070080083B60FFF762FE68F353253A
:10174C00044690B13B68154AC7E9083600F1100110
:10175C0007F11403F961CDE900A3CDF808B0F968DD
:10176C0007F11C034846FFF7DFF968F353257B6844
:10177C00B9682A46204606F039F8D0E704F117007C
:10178C0020F007008008FFF73BFE0446EDE700BFA2
:10179C00C09A00000400000194930000CB77000075
:1017AC002DE9F04F87B0DDE91279DDE9105A0446D6
:1017BC00039193469846BFB1CDF800903B465246F4
:1017CC0010210020CDF81490FEF7DCFFB0F5006F6F
:1017DC0006460AD3184A194840F2FF73022107B093
:1017EC00BDE8F04F06F05BB83E4605F117003044FB
:1017FC0020F0070004F007048008FFF701FE0BF04F
:10180C00070BE40044EA8B1444EA462444EA0554EA
:10181C00054640B13FB1CDF800903B4652463146AB
:10182C001030FEF7AFFF039943462246284607B017
:10183C00BDE8F04F05F0DABFFF9A0000949300006A
:10184C00406820B1034BC01A40F3CF0070474FF0F3
:10185C00FF307047849300000EB403B503AB014610
:10186C0053F8042B0448019301F088F802B05DF89A
:10187C0004EB03B0704700BFF5780000CA0605D42E
:10188C008B064CBF02490349FFF7E6BF704700BF08
:10189C00389B0000379B00002DE9F04F89B09B4628
:1018AC00149B06939DF84CA0159B0593169B179EB5
:1018BC00049304460D469046BAF1000F00F09D804B
:1018CC0006F48073079305F06FFF06F002090246D9
:1018DC0000283ED091492046FFF7BEFF0746B9F1DC
:1018EC00000F08D016F0440F35D18D492A462046FA
:1018FC00FFF7B2FF074406F0010353B1894B8A4945
:10190C0053F82A20894B2046002A08BF1A46FFF7B5
:10191C00A3FF06F48073002B49D006F00803002BBC
:10192C0063D1B8F1000F66D0814942462046FFF7DB
:10193C0093FF0546069B3D44002B6DD1049B002B69
:10194C0073D1F30700F1E48031462046FFF796FF90
:10195C00D8E00746C3E7774B18680028CAD0764B07
:10196C004FF47A791B68B5FBF3F54FF46163B5FB63
:10197C00F0F100FB115509FB05F54FF03C0CB1FBE8
:10198C00F3F203FB1211B5FBF0FEB1FBFCF300FB11
:10199C001E550CFB131109FB05F50091B5FBF0F579
:1019AC006649CDE901E52046FFF756FFA2E706F0B0
:1019BC000803EBB1624B634953F82A202046FFF72A
:1019CC004BFF0546B8F1000F05D059494246204659
:1019DC00FFF742FF0544BBF1000FABD05A495A4602
:1019EC002046FFF739FF0544A4E74FF0000BE1E771
:1019FC0006F00805E6E745469CE7BBF1010F069BA0
:101A0C0006D1002B64D1049B002B7BD000250CE06D
:101A1C00002BF8D04D485CE04D48069B4D492246C2
:101A2C0005F0E9FA049B002B68D0DFF82C81DFF875
:101A3C002C91049F3146102F204628BF1027FFF70A
:101A4C001DFF4FF0000B5D4545DC059B49461A78A0
:101A5C002046FFF701FF4FF0010B1BF0070F03D1DE
:101A6C0041462046FFF7F8FE5F453BD9059B4946AA
:101A7C0013F80B202046FFF7EFFE0BF1010BBBF127
:101A8C00100FEAD1364920464FF0000BFFF7E4FE69
:101A9C005A46059B9A5CA2F120015F2928BF2E2291
:101AAC0030492046FFF7D8FE0BF1010BBBF1100FAC
:101ABC001DD01BF0070F03D141462046FFF7CCFE8B
:101ACC005F455A46E5D841462046FFF7C5FEEBE791
:101ADC001F485546A1E741462046FFF7BDFE0BF1D6
:101AEC00010BB0E720492046FFF7B6FEC5E7059B82
:101AFC003B440593049BDB1B04939AD1BAF1000F72
:101B0C007FF41FAF204609B0BDE8F04F05F0DFBEF3
:101B1C00064A05492046FFF79FFE15E73F9B00004C
:101B2C00439B0000DC960000C8A100003A9B00001B
:101B3C00689B0000D01B0020CC1B00204C9B00009D
:101B4C00F09600006C9B0000729B00002B7900004B
:101B5C00F578000089290000C9990000779B0000E6
:101B6C007D9B00007F9B0000C799000073B542F27B
:101B7C000F738B4228BF0B4605680F4A044605219C
:101B8C00684603F0AFFE63680C495B6806460B229F
:101B9C00284605F08EFE63683246694628465B6827
:101BAC0005F087FE636806495B681B22284605F032
:101BBC0080FE02B070BD00BFE89C00009E9B000040
:101BCC00829B0000074A00210123904206D8064A56
:101BDC0001B901231360054B1860704740085B0086
:101BEC000121F2E740420F00CC1B0020D01B00204B
:101BFC00014B01221A70704702340020014B002067
:101C0C0019607047E81B00200148FFF7AFBF00BF09
:101C1C002097000010B5064B18680C46FFF74AFBDE
:101C2C0021460346BDE8104002480F22184700BF6A
:101C3C00E81B002020970000F8B5094D094B0A4E0F
:101C4C00D5E9004701221A700CB92C60F8BD214669
:101C5C0030463A4600F01EF8241A0644F4E700BF5A
:101C6C00DC1B0020033400200434002010B9074B87
:101C7C0018707047064B1B781BB141F2883006F088
:101C8C00CCBEA420002106F0A7BF00BF0234002068
:101C9C00033400202DE9F047DFF878901E4F804682
:101CAC000E46042499F80050A5B906F0A9FE324658
:101CBC0082464146284602F01DFD0546504606F078
:101CCC00A7FEE5B101233B7099F8003073B930469B
:101CDC00BDE8F08732464146002002F00BFD054678
:101CEC00EFE72046FFF7C2FF651E2C46002002F0EE
:101CFC008BFD0028EBD03B78002BF2D1E7E73B784B
:101D0C00002BE4D0013C2046FFF7B0FF3B78002BC2
:101D1C00C8D1DCE70334002002340020014B0360FF
:101D2C00002070473097000008B5044805F0BBF957
:101D3C00BDE80840024805F0B6B900BFDA9B0000C8
:101D4C000F9C000008B50348034A0021121A05F045
:101D5C0029FE08BD581400201C3400200748084AEE
:101D6C00084908B5121A05F01FFE0748074A08492A
:101D7C00BDE80840121A05F017BE00BFC0100020C5
:101D8C005414002014A40000B8100020C01000202F
:101D9C000CA400002DE9F047064600AF0C460029C4
:101DAC0036D0E9468AB0D1E90012A3686D462148C5
:101DBC00A8464FF0050AC5E90501C5E9072348F80F
:101DCC0010AF1D48424600234FF42151FFF764FC2D
:101DDC00CD46D4E903126369AD461848C5F810A086
:101DEC00C5E90501C5E907231348002342464FF412
:101DFC002151FFF751FCCD46E369114A0E480121F0
:101E0C0005F04DFDA3690F4A0B48012105F047FD74
:101E1C00012E07D1EFF305830B4A0748103B3146DF
:101E2C0005F03DFD2146304602F01EFDBD46BDE8E5
:101E3C00F08700BF3D9C0000AC9300006C9C000040
:101E4C009B9C0000AA9C0000D89C000030BFFFF7B0
:101E5C00FDBF00BF2DE9F0410B4EDFF8308006EBE3
:101E6C000807CC1B054632460949204606F048FFB8
:101E7C00A01942460021083C06F050FFC5F8A440CA
:101E8C0007F10800BDE8F08100000000040000002C
:101E9C0020940000054B5A699B689A421FBF044A64
:101EAC00536843F080535360704700BF101D0020EF
:101EBC0000ED00E070B5294C06460D46284829492E
:101ECC0005F07FFDA36AD9043CD52548264905F0C9
:101EDC0078FD1720A36A1A0504D52148234905F07B
:101EEC0070FD18201D4CA36A9B0512D51C48204977
:101EFC0005F067FDA36BA26A100409D51D4A1848AA
:101F0C00012105F0CCFC1EB1A36A23F40043A362AB
:101F1C001920124CA36A590504D51148164905F02D
:101F2C0050FD1A20A36ADA050ED50D48134905F0A9
:101F3C0048FD1B20094A936A43F47F4393620023B4
:101F4C002B7070BD1620C5E7A36A9B04F2D504481C
:101F5C000B4905F036FD1C20ECE700BF00ED00E05E
:101F6C00AC930000EB9C0000019D0000129D000052
:101F7C00259D00003E9D0000539D00006E9D0000BD
:101F8C00869D000010B5204C2049214805F019FD14
:101F9C00A36A990136D51E481E4905F012FD1E2074
:101FAC00A36ADA0104D51A481B4905F00AFD1F2063
:101FBC00154CA36A1B0304D51548184905F001FDFF
:101FCC002120A36A590304D51148154905F0F9FCE1
:101FDC0022200D4CA36A9A0304D50D48114905F033
:101FEC00F0FC2320A36ADB0304D509480E4905F055
:101FFC00E8FC2420044A936A6FEA03436FEA134314
:10200C00936210BD1D20CBE700ED00E0B59D0000F4
:10201C00AC930000CD9D0000E09D0000FA9D0000F7
:10202C00189E00003D9E0000579E00002DE9F843CD
:10203C00364D8046894636483649174605F0C1FC70
:10204C00AB6ADE0627D53449314805F0BAFC1124B9
:10205C00AB6A1D0704D531492D4805F0B2FC12249A
:10206C002A4DAB6A980718D52D49294805F0A9FCCB
:10207C006E6BAB6A190646D52A4A254833460121B0
:10208C0005F00DFCB9F1000F03D0AB6A23F080030F
:10209C00AB62132403E01024DAE76FF015061B4D36
:1020AC00AB6ADA0704D52049194805F08AFC1424D8
:1020BC00AB6A9B0604D51D49154805F082FC152416
:1020CC00124B9A6AD50602D49A6A90070AD55B68B5
:1020DC00190507D54146304600F07EFA10B180F361
:1020EC0009880224094B9A6A920642BF5A6A22F462
:1020FC0000525A629A6A42F0FF029A6200233B70C5
:10210C002046BDE8F8836FF01506C2E700ED00E04D
:10211C00AC930000829E0000989E0000129D00006F
:10212C00CB9E0000E39E0000F99E0000869D0000FF
:10213C002DE9F041664B8AB0D3F8048000AF044619
:10214C00C8F30805002686F31188BFF36F8F02F0E1
:10215C007F43B3F17F4F07D102F00C03082B12D150
:10216C005C495D4805F02DFC002634460023FB71CC
:10217C00EB1E092B00F28A80DFE803F00A80837CD7
:10218C0088888888888610074CBF0C460126EDE7A6
:10219C00524951484E4D05F014FC0023FB71EB6A7B
:1021AC009A0705D54E494C4805F00BFC002332E04C
:1021BC00EB6A002B01DA4B49F5E7EB6A5B00F5D5CE
:1021CC004949454805F0FDFB6B69A26943F48073EE
:1021DC006B61BFF34F8FBFF36F8F6B6932F8022CBB
:1021EC0023F480736B61BFF34F8FBFF36F8F4DF68A
:1021FC0002739A4208D0AB6ADBB273B3FA1D0121A9
:10220C002046FFF713FF37E02368384A3248012194
:10221C0005F045FB2368FA79DAB907F1080504F1F2
:10222C00200C206861682A4603C2083464451546B0
:10223C00F7D17A6A002E45D0C2F3080121B96FEAB2
:10224C0052226FEA42227A6207F108011846FFF720
:10225C00A1FD2837BD46BDE8F081AB6A13F47F4F72
:10226C0004D0F91D0120FFF725FE05E0AB6AB3F59C
:10227C00803F9BD3FFF786FE0346CCE7FA1D002177
:10228C00BEE7F91D0020EEE719498CE7194A1A4BF5
:10229C0018F4F87FE8468AB018BF13466A46174907
:1022AC00C2E905134FF400731384103D144BD56130
:1022BC0042F8103F084800234FF41151FFF7ECF996
:1022CC00C54673E722F4FF7222F00102BBE700BFA0
:1022DC0000ED00E0469F0000AC930000719F0000F1
:1022EC00889F0000A99F0000B79F0000D69F0000A8
:1022FC00F29F00002D9F0000189F000016A0000008
:10230C0004000001044B5A6942F010025A615A69E8
:10231C0022F008025A61704700ED00E0EFF30880EC
:10232C00EFF3098101B57246FFF702FF01BD00BF53
:10233C00002080F31488BFF36F8F114880F3088856
:10234C0000201049087001F0BDFC00200E49086007
:10235C00BFF34F8F00F02EF8202080F311880B482C
:10236C004FF40461401880F30988EFF314800221C4
:10237C00084380F31488BFF36F8F00F0FDF8000062
:10238C00404500201934002094ED00E080370020F7
:10239C000749D1F890200023C2F307221846934234
:1023AC0000DB7047C1F89830C1F8A0000133F6E7A4
:1023BC0000ED00E008B572B6002383F31388FFF735
:1023CC00E7FF144B4FF0FF32C3F88020C3F8842092
:1023DC00C3F88820C3F88C20C3F89020C3F894204D
:1023EC00C3F89820C3F89C20C3F88021C3F884213B
:1023FC00C3F88821C3F88C21C3F89021C3F8942129
:10240C00C3F89821C3F89C2162B6BFF34F8FBFF37A
:10241C006F8F08BD00E100E0084B9B6883420BD135
:10242C00EFF3058343B1064B5A6842F080525A6071
:10243C005A6A22F400425A6202F018BF101D0020A2
:10244C0000ED00E015498A684FF030001044EFF3BE
:10245C00098C80E8F01F202080F31288BFF36F8F67
:10246C000F4F4FF000664A698A603E60D2F8A400B4
:10247C000C4C2060D2F8A8000023C2F8A83080F3DE
:10248C00118804B5104600F00FF9BDE8044002F1C4
:10249C00300090E8F01F8CF309887047101D002065
:1024AC0004ED00E0EC1B00201EF0040F0CBFEFF35A
:1024BC000880EFF30980816911F8021C0229FFD012
:1024CC0001B5724605F072FA01BD00BF40B200289A
:1024DC0007DB044A4109012300F01F00834042F846
:1024EC002130704700E100E040B200280CDB4309CA
:1024FC00064900F01F0020330122824041F82320BE
:10250C00BFF34F8FBFF36F8F704700BF00E100E048
:10251C00054B420900F01F0053F82220012303FA57
:10252C0000F01040704700BF00E100E040B200280E
:10253C00A8BF00F1604001F10101B8BF064B4FEAA2
:10254C004111ACBF00F5614000F00F00C9B2B4BF3F
:10255C00195480F80013704714ED00E0044B054A41
:10256C0023F07F039360BFF34F8FBFF36F8F7047E0
:10257C000000000000ED00E008B5FFF7EFFF074A90
:10258C00D2F8883023F47003C2F88830FFF7DAFBF6
:10259C00FFF7E4FB00F05EF802F08EFA00ED00E0CD
:1025AC0042F8203C009B42F81C3C0A49019B42F833
:1025BC00183C029B42F8143C21F001014FF080734F
:1025CC0042F8043C42F8081C0023203A0265C0F88B
:1025DC00A83070470D0F00000A4A0346906878B186
:1025EC0013F1160FD0F8940005D0A0F140029A42D6
:1025FC0005D8834203D2814228BF002070470020B7
:10260C00704700BF101D002008B515460C4A0D4B35
:10261C009060D0F8A4201A600E4600F045F82C46C5
:10262C0086F309880020044B98472046002100229D
:10263C000023024C20470000E57900000D0F00003C
:10264C00101D0020EC1B0020014B10221A6170475A
:10265C0000ED00E0044800232021C2180133272B91
:10266C0082F80013F9D1704700E100E008B5EFF3F0
:10267C000583064A103B02EBC30152F8330049684C
:10268C008847BDE80840FFF705BC00BFF891000083
:10269C00024B034A0348012100F08CB800000120D2
:1026AC000000002030970000D0F89420054B403AF1
:1026BC001A60054A4021C3E901121846012100F0B5
:1026CC0083B800BFF01B002000000B1508B50346B3
:1026DC001048D0F89020C2F30722013A934207D950
:1026EC000D480E4A012105F0DAF86FF0150008BD0F
:1026FC00C0F898300A6822F01F021A4342F0100208
:10270C00C0F89C208A6842F00102C0F8A02018464C
:10271C00EDE700BF00ED00E0A49300002DA0000049
:10272C00F0B50E4685B01F4604460025B5420DDABD
:10273C00606810B397B1431E18420AD0104A114872
:10274C002B46012105F0ABF86FF01502104605B0D1
:10275C00F0BD1F28F2D921680B42EFD123680193F9
:10276C0005F05DF9A36801A90343D0B20393FFF709
:10277C00ADFF10F1160FE7D0421C01350C34D5E734
:10278C0053A00000A4930000044B0522C3F894202E
:10279C00BFF34F8FBFF36F8F704700BF00ED00E0AA
:1027AC00BFF35F8F024B0022C3F89420704700BF29
:1027BC0000ED00E010B5034C01232278FFF7B0FFC9
:1027CC00207010BD1434002008B50B4A0023127879
:1027DC00FFF7A6FF10F1160F07D0084A0021D2F818
:1027EC009030C3F30723984200DB08BDC2F8980071
:1027FC00C2F8A0100130F2E71434002000ED00E024
:10280C002DE9F04357485849D0F890300D68C3F380
:10281C0007239D4285B000F2A180FFF7C1FF4968F4
:10282C000022954201F10C011AD1504C504F2570E9
:10283C006846FFF773FADFF83C81DFF83C910646F7
:10284C000025AE421FD1237846490020D1F89020B4
:10285C00C2F3072293427BDBFFF796FF00204CE08C
:10286C00C0F8982051F80C3C23F01F03134343F09D
:10287C001003C0F89C3051F8043C43F00103C0F83D
:10288C00A0300132CDE7009800EB05114FEA051C92
:10289C00CB683B40B3F5000F44D00AD8B3F5001F0A
:1028AC002ED0B3F5800F34D0B3F5801F10D0013586
:1028BC00C7E7B3F1807F3ED0B3F1007FF7D150F87A
:1028CC000C3088684A6805F0AAF840F4802009E0CA
:1028DC0050F80C3088684A6805F0A1F840F0885030
:1028EC0040F43020039001A92078CDE90123FFF7B3
:1028FC00EDFE002828DA6FF0150005B0BDE8F08376
:10290C0050F80C3088684A6805F089F840EA0800ED
:10291C00E8E750F80C3088684A6805F080F840EA1F
:10292C000900DFE750F80C3088684A6805F077F842
:10293C0040F08270D6E750F80C3088684A6805F091
:10294C006EF840F08870CDE7237801332370AEE742
:10295C00C1F89830C1F8A000013377E74FF0FF3091
:10296C00CBE700BF00ED00E03C97000014340020E2
:10297C000000F0FF0000081100000206F0B587B05F
:10298C0007460E4614460021102268461D4606F0E6
:10299C00C5F902238DF802302A46054B01932146D6
:1029AC006846CDE9047603F08DF807B0F0BD00BFA2
:1029BC004B7A000008B5024B1B689847002008BDF5
:1029CC00FC1B0020034B044A1860937843F002036D
:1029DC0093707047FC1B0020E010002008B50649DE
:1029EC00064821F00701C1F1005202F5803204F0D3
:1029FC00AAFA002008BD00BF87450020001C00205B
:102A0C00044A0123C2F840354FF080420020C2F83E
:102A1C007835704700E0014048B1054B054A1B680A
:102A2C00B3FBF2F35843044B43F0010318477047D0
:102A3C002012002040420F002094000008B50448EA
:102A4C00044A3F23C0E9002301F078FA002008BDB6
:102A5C000C1C0020FFFF0F00084B70B5C31A0D466D
:102A6C0007499B10044659430648402204F0FBFFDB
:102A7C002B4601462046BDE870401847281C002014
:102A8C00B76DDBB65891000073B50C4C0C4A402363
:102A9C00041B00930D460B460A49A41061430646DD
:102AAC00094805F00BF8011E05DA30462B4602B03A
:102ABC00BDE87040184702B070BD00BF281C002054
:102ACC00317B0000B76DDBB6589100000022F8B5E1
:102ADC00012105461046FFF729FD104801F056FA72
:102AEC000446B8B901F072FA2F690D49384604F062
:102AFC00A0FD031E09DB01263E642D69084905F182
:102B0C001C0004F096FD031E02DA1C462046F8BD9C
:102B1C00EE64FBE76FF00404F8E700BF7D2C0000C7
:102B2C005C9700001FB500220123CDE90223094A5E
:102B3C00CDF800D06B46CDF804D004F0ECFF0028A3
:102B4C0005DB4FF480420023684602F051F805B0D3
:102B5C005DF804FB437B000010B5064C23782BB9C1
:102B6C004FF4A57005F059FF01232370BDE8104008
:102B7C0001F0E4BA1534002010B5EFF311842023D2
:102B8C0083F31288BFF36F8F074A136823F0020197
:102B9C00DB07116002D4012005F0FFFA84F31188E1
:102BAC00BFF36F8F10BD00BF781C002030B4104BEA
:102BBC000C2202FB003301460020D3E90E5298632D
:102BCC00EFF31180202484F31288BFF36F8F1C6CF9
:102BDC0004F0C00444F002041C6480F31188BFF3B9
:102BEC006F8F1DB12B46034830BC184730BC704763
:102BFC00281C00205891000010B4EFF31182202300
:102C0C0083F31288BFF36F8F1748016841F00204F9
:102C1C000460C80707D482F31188BFF36F8F0120BB
:102C2C0010BC05F0B2BA4FF08041D1F80C04D1F8C9
:102C3C000C14C907EFD5EFF3118083F31288BFF39F
:102C4C006F8F0A490B6C03F0C00343F002030B6453
:102C5C0080F31188BFF36F8F82F31188BFF36F8FEE
:102C6C00002010BCFFF7A2BF781C0020281C0020FD
:102C7C0010B1012804D07047034B1B6C5B0701D1CA
:102C8C00FFF794BF704700BF281C00202DE9F041CE
:102C9C003849BFF35B8F0746012251E8003F41E8FA
:102CAC0000200028F9D1BFF35B8F33B93249334888
:102CBC004B60CB608A6004F0CFFC7B1E012B2BD8C1
:102CCC00012F07D14FF08043D3F81C3403F00303DA
:102CDC00012B21D005F0E7FE0546F8B9284B1B78EF
:102CEC00E3B14FF080430222C3F808230646DFF815
:102CFC0094804FF08044D4F81824D4F81834D203BC
:102D0C0015D503F00303012B01D0012F0FD155B3BF
:102D1C0086F31188BFF36F8FBDE8F081EFF3118656
:102D2C00202383F31288BFF36F8F0125DFE7ADB14A
:102D3C00304604F065FED4F81835002BDBD1D4F8FE
:102D4C000421002AD7D0C4F80431D4F8043101236B
:102D5C00C4F81835C8F88031A360CCE700212120D5
:102D6C0005F03AFFE7E74FF080430222C3F8042353
:102D7C00D2E700BF241C0020141C0020441C00209F
:102D8C001934002000E100E010B5044C2046FEF799
:102D9C00B1F82046FFF716FE002010BDAD2D000047
:102DAC0073B5104E8DF807000446032501220DF172
:102DBC000701002001F00EFD20B1012333702046E5
:102DCC0002B070BD3378002BF9D0013D08D005F06E
:102DDC006AFE0028EAD10021422005F0FDFEE5E75D
:102DEC003570ECE716340020430970B507D10B4B56
:102DFC00596821B101250C68094E854001B970BD97
:102E0C008A682A4002D04B68304698471CB1236828
:102E1C0021461C46F2E72346FAE700BF7C1C002043
:102E2C007891000038B54568A86890B105F018FC99
:102E3C00014670B9A86805F0F7FB044658B902467C
:102E4C000649A86805F0E1FB224605210620FFF79C
:102E5C006DFB002038BD6FF00400FBE7F52D000082
:102E6C002DE9F0435B4E5C4F00EB810140F2FF1506
:102E7C00814202D10020BDE8F083046814F4804F35
:102E8C00C4F3C32CC4F3080340F09080240E16F84E
:102E9C000CC0AB4208BF4FF0FF33192C00F28980F5
:102EAC00DFE804F00D13191C1F251C878787873654
:102EBC0063878787878787878787667B7E81C2F84A
:102ECC000C355C1C5ED10430D2E7C2F814355C1CA6
:102EDC00F9D000245FE0C2F80835F2E7C2F81035EB
:102EEC00F5E75C1CC2F80835EDD0002404E05C1C4E
:102EFC00C2F80C35E7D001245FEA531E5CD14FF0C9
:102F0C0001084FF0A04E08FA03F9CEF80C950AE030
:102F1C00C2F80835BCF1000FD9D15C1CD3D0002409
:102F2C00A0464FF0060CD0F8009009F4004EBEF10C
:102F3C00000F1CBF4FF00008012403F01F0E5B09AB
:102F4C0042D14FEA8E0E0EF1A04EC9F34129DEF8A4
:102F5C0000373B4043EA890343EA0C2343EA080366
:102F6C0043EA4403CEF80037ADE7C2F80C35D1E79D
:102F7C00C2F86035B3F1FF3F0468A4D0C4F3004439
:102F8C00002CB8D05C091BD101244FF0A04E04FAE0
:102F9C0003F8CEF80885A046C5E7C2F86435E9E722
:102FAC00C2F86835E6E7C2F86C35E3E76FF0150058
:102FBC0061E76FF085005EE70023C3F80C35FFDE98
:102FCC000023C3F80835FAE70EF5E07E002353F82A
:102FDC002E30F4E7C0A00000F0F8FCFF2DE9F04122
:102FEC00044647680D4605F05EFD4FF0200888B991
:102FFC00264B1B7873B16426606804F056FFF0B959
:10300C00012005F06FF8013EF6D10021212005F0DA
:10301C00E3FDF0E7EFF31186314688F31288BFF336
:10302C006F8F606804F041FFA8B986F31188BFF375
:10303C006F8FEFE786F31188BFF36F8FE5E7EFF340
:10304C001186314688F31288BFF36F8F606804F0E5
:10305C002CFF0028EED0BB691D706368BA691B6831
:10306C000020C3F844250122C3F84825C3F82001E9
:10307C00D3F82041C3F85801D3F858019A6081F372
:10308C001188BFF36F8FBDE8F08100BF19340020A9
:10309C002DE9F0410022054601210220FFF746FAF6
:1030AC000220FFF713FA6C680121E06804F02EFF90
:1030BC006B681A682369C2F82435637D217D0B4344
:1030CC00C2F86C356F68D7E9004313F0010346D0A2
:1030DC00D5F8108004F10C0108F1080204F5907089
:1030EC0005F03DF8061E07DA2A4A2B48012104F0A8
:1030FC00CDFB3046BDE8F08198F8080000F032FFB7
:10310C000823C4F80035BB69C4F844350023C4F85F
:10311C0048350123A360D4F85831002BFBD000268E
:10312C00C4F800656B683146D86804F0EFFE6D6832
:10313C0031462C68E86804F0E9FE0823C4F8003531
:10314C002A7A52B9EB69C4F834350123C4F83835FE
:10315C00C4F81021D4F8102123600026C9E70822F6
:10316C00C4F80025BA69C4F84425C4F848350123CD
:10317C00A360D4F82031002BFBD00023C4F82031FD
:10318C00D4F820310123E3604FF48073C4F8043386
:10319C00C1E700BFC8A00000C49300002DE9F043B4
:1031AC0083B045680669D5F8208000AF3A1D002130
:1031BC00404604F04DFE041E19DB7B68D8F8002055
:1031CC0019791868FFF74CFE041E10DBA96A481C1D
:1031DC001AD0686A04F03DFF10F1130F04460BD1AE
:1031EC00304A3148012104F0A3FE6FF0120420464E
:1031FC000C37BD46BDE8F083411D05D12B4A2A484A
:10320C00012104F095FEF2E7EB699847B5684FF0A1
:10321C000108D6E9023203EBC2039D4204D33046C7
:10322C0004F0B9FE0024E2E7286805F012FC03461E
:10323C00B0B92A68297910686C468AB06A461C4D68
:10324C00D1614FF4007111841A49C2E9055042F85A
:10325C00101F15484FF41151FEF71EFAA546C4E78E
:10326C0028682979EB88D0F810C0D0F80890DCF8E1
:10327C000040DA0754BF43F4B01383F4D01323F4A3
:10328C00801208FA01FEDB074CBF44EA0E0424EA64
:10329C000E04CCF80040D9F800309847041EA6DB89
:1032AC000835B6E705A10000BC93000030A1000072
:1032BC004DA100000400000138B503780C4663B939
:1032CC008D6D5DB94B6D1C696FF07303236304F155
:1032DC00200001F059FC84F85C5038BD8B6C33B184
:1032EC009D4213D9224A2348012104F021FE236D6B
:1032FC00A26D33B19A4221D91D4A1E48012104F016
:10330C0017FE606DBDE8384004F06FBE5B1B8B642C
:10331C0073B94B6B08334B638B6B013B8B6301F1C4
:10332C00480204F13400383104F00EFE6064DEE72C
:10333C004B6C002BDBD02B444B64D8E79B1A2365DA
:10334C007BB9E36B0833E363236C013B236404F127
:10335C00500204F1400104F13C0004F0F5FDE0647E
:10336C00CFE7E36C002BCCD01344E364C9E700BF78
:10337C0071A10000BC9300002DE9F04F8BB000AFA1
:10338C00C7E9023243687B608B88046989469904DB
:10339C00804631D44FF0FF324FF0FF3304F1100070
:1033AC0001F026FCC4F80490D8F810A0D8F804B0AA
:1033BC009AF85D3023B1DAF80030994500F0D680E8
:1033CC00B9F8046016F400631DD0B24AB24801216A
:1033DC0004F0AEFD6FF08505236813B19B889B0448
:1033EC0005D40023636004F1100001F0CDFB2846E6
:1033FC002C37BD46BDE8F08FA369002BCAD163689A
:10340C009945C7D1D0E7F20716D56D4688B0D8F8E4
:10341C0000106A46A148C2E905014FF4007191837E
:10342C009F4942F8101F9C484FF4E251FEF734F9C3
:10343C00AD466FF01505CFE7350705D5994A964887
:10344C00012104F075FDF4E7C6F34513082B01D0F8
:10345C00954AF4E7D9F80050944B9D4201D8944A10
:10346C00EDE70BF1080EBEE80F0007F1140CACE809
:10347C000F00DEF80030CCF800308E4B9D4254D952
:10348C008D4B9D4254D98D4B9D4254D98C4B9D42B2
:10349C0054D98C4B9D4254D98B4B9D422CBF4FF031
:1034AC0000454FF08045B007FD6106F004034BD595
:1034BC00002B14BF0323022387F82030C6F300131C
:1034CC0087F82130DBF80030D3F80825511C12D0D6
:1034DC0016F0020F02F01F00C6F340014FEA521221
:1034EC004FF0010334D1002A40F029814FF0A04263
:1034FC008340C2F80C359AF85D302BB1584601F078
:10350C0007F800238AF85D305346704A07F114011E
:10351C00584600F0CDFF034618B36D4A5E480121B2
:10352C0004F0BDF96FF0040556E74FF00075BAE7EB
:10353C004FF08065B7E74FF00065B4E74FF080556A
:10354C00B1E74FF00055AEE7003B18BF0123B3E7DE
:10355C00002A40F0F7804FF0A0428340C2F80835B3
:10356C00C9E701238AF85D30CAF80090012384F87A
:10357C005C307B68996A4A1C09D0586A00F0E6F8FE
:10358C00743004D1534A4448022104F0D1FCFB6846
:10359C00002B76D163630023A36304F1480204F18A
:1035AC00380104F1340004F0CFFCBB686064002BDC
:1035BC0040F09480E3630023236404F1500204F18F
:1035CC00400104F13C0004F0BFFCE06420680023DF
:1035DC00236348B183683BB10121083004F0C7FC78
:1035EC002368186905F019FA404604F0FEFC002324
:1035FC00A06B1A4682427AD10022256C1146A94250
:10360C007CD19342264638BF13464FF4FA5202FB44
:10361C0003F556F8203B4FF4004C1B68B5FBF3F553
:10362C0040F2E730C83500214FF47A720023E5FBF5
:10363C000C01FCF74DFD02460B46304601F0D8FA62
:10364C00002862D0244A1448012104F071FC4FF088
:10365C0000097868C4F8589000F05AFF84F85D901F
:10366C00D8F810506FF07308C5F8308005F12000C1
:10367C0001F08AFA85F85C90304601F0DFFA454695
:10368C0047E0FB681B686363002B84D0FB685B68B6
:10369C0082E700BF8FA10000BC930000A9A100002D
:1036AC0003000001CBA10000EAA1000047E80100E3
:1036BC0019A200008FD003001FA107003F420F008A
:1036CC007F841E00FF083D0000127A00C532000006
:1036DC004AA200006FA2000099A20000BB681B6800
:1036EC00E363002B3FF467AFBB685B6864E7616B17
:1036FC0001EBC201013249680B447BE7E06B00EB44
:10370C00C10001314068024479E7256B15F1740F53
:10371C009DD02368002B3FF45FAE9A68002A3FF4DB
:10372C005BAE998811F480567FF456AE186905F09B
:10373C0074F920683146083004F019FC4CE6C1F8E5
:10374C000C15FFDE0023C3F80835FAE72DE9F0412C
:10375C000D46064604F0D5FF0022074629463046A2
:10376C0004F086FF6B0905F01F0429D1A40004F1B5
:10377C00A044164BD4F80027134043F00C03C4F8B4
:10378C00003704F09AFC80463368DB597BB1002784
:10379C003046294604F0B3FFD4F800270B4B1340F6
:1037AC0043F00403C4F800373846BDE8F08104F058
:1037BC0084FCA0EB08000628E6D96FF07307E7E756
:1037CC0004F5E074002353F82430FFDEF0F8FCFF1E
:1037DC0070B5012383400E4ABFF35B8FDC4352E884
:1037EC00001F01EA040542E80056002EF7D1BFF392
:1037FC005B8F4FF4803282400648C0F80823BFF339
:10380C005F8FBFF36F8F0B4214BF0120002070BD80
:10381C009C1C00200010014070B40E49D1E900340A
:10382C00D01AC31844F10004C2F30E06C1E90034E7
:10383C00A6F58053B3F5C04F09D2074B1B685A0C41
:10384C00DB039C19054B42F10005C3E9004570BC34
:10385C0001F010BF68190020A01C00207019002076
:10386C0011B3BFF35B8F0123104A834052E800CFA2
:10387C004CEA030C42E800C10029F7D1BFF35B8F7F
:10388C000B4A4FF480338340C2F80433094BBFF327
:10389C005B8F1B68BFF35B8FC340DB0742BF064BDC
:1038AC004FF40032C3F80021704700BF9C1C00206D
:1038BC0000100140941C002000E100E030B5144BD6
:1038CC001868410CC003BFF35F8F124BD3F804355B
:1038DC0047F6FF7293420AD10F4AD2E9004584425F
:1038EC0075EB010209D3C01841F1000130BD181865
:1038FC0041F10001B3F5006FF8D2074BD3E9002377
:10390C00904271EB0303F1D210F50040ECE700BFDD
:10391C00A01C002000100140701900202DE9F04F70
:10392C0085B016461F469DF840A00446FFF750FF91
:10393C000190FFF7C3FFB04271EB07035CD2301A62
:10394C0044F2010367EB0101984271F1000156D278
:10395C003D4B03EB0413D3E902239F4208BF96426D
:10396C0065D03A494FF4803804F1500508FA04F850
:10397C00AD002046C1F84883ADB204F092FBC6F30B
:10398C000E0B05F1804504F5A87305F588355846EE
:10399C004FF003090293C0F30E03002B029A08BFE9
:1039AC000120C0F30E0341F82230C1F84483D1F852
:1039BC0004356FF0020CACEB030C6044C0F30E004A
:1039CC0043F6FD72904232D9286868B1D1F80435BB
:1039DC000393A3EB0B00C0F30E00B0F5804F26D978
:1039EC00204604F05EFB039BBAF1000F07D109EBF4
:1039FC00030009F10109CEE7BAF1000F09D06FF00D
:103A0C00150520460199FFF72BFF284605B0BDE8A8
:103A1C00F08F01230E4ABFF35B8FA34052E8000FD7
:103A2C00184342E800010029F8D1BFF35B8F064927
:103A3C000E98230101EB0412C8500F9B5360C2E98E
:103A4C0002670025DDE700BF481900200010014087
:103A5C00941C002070B5294C294BC4F80833C4F8C9
:103A6C004833284B284A00254FF0FF304FF0FF31E8
:103A7C004FF48036C4F80855C3E90201C4F8046356
:103A8C00C3E906014FF4003386B00121C4F80433B6
:103A9C001120C2F880312A46FEF748FD1120FEF7AE
:103AAC0015FD1A4B01200322A06020601A60184BF0
:103ABC00009343F6FF720023CDE90155FFF72EFF6B
:103ACC000220FFF7E3F8134A13491368134823F055
:103ADC000103136047F6FF73C4F844630DF117023A
:103AEC00C4F8403504F03BFB002804DB9DF81700BC
:103AFC0000F038FA284606B070BD00BF0010014037
:103B0C0001000F004819002000E100E09C1C00207F
:103B1C0025380000981C002008100140401101407D
:103B2C002DE9F743374CD4F80433D90319D5402386
:103B3C000022990810290CD1D4F84031002B41D027
:103B4C000023C4F84031D4F840314FF48032442380
:103B5C00EFE70433502BECD11AB12B4A1368013325
:103B6C001360D4F804339A0329D5BFF35B8F274B2A
:103B7C0053E8002F22F0020143E800100028F7D18F
:103B8C00BFF35B8F930702D4D4F84431BBB100254B
:103B9C00C4F84451D4F84431FFF790FEEFF311828E
:103BAC00202383F31288BFF36F8F194BD3E9066779
:103BBC00B042B94108D282F31188BFF36F8F03B0C2
:103BCC00BDE8F0834423B4E74FF0FF384FF0FF39E2
:103BDC00C3E90689D3E904101D614FF40033C4F81E
:103BEC004833C4F84451D4F8443182F31188BFF3FC
:103BFC006F8F0029E3D0009032463B460120884766
:103C0C00DDE700BF00100140A01C0020941C002028
:103C1C004819002030B5431C85B043F6FF7223D001
:103C2C009042A8BF104601280446B8BF0124FFF7F4
:103C3C0045FE0F4BD3E90013401AB0F5804F43F605
:103C4C00FF7513D22218AA4228BF2A4652184FF0E9
:103C5C00000008490091CDE9010043F10003012067
:103C6C00FFF75CFE05B030BD1446E0E72A46EDE7F1
:103C7C00681900202538000008B5FFF71FFE024B1D
:103C8C001B68C01A08BD00BF681900204FF07043B4
:103C9C0093F8E02F062A09D1D3F8E83FC3F30313B6
:103CAC00033B042B02D8024AD05C704700207047BB
:103CBC00F5A20000024AD2F80034002BFBD070476A
:103CCC0000E0014010B504F0FCF940B14FF0805316
:103CDC008E4AD3F82433C3F30423C2F84035FFF7DC
:103CEC00D5FF10B18A4B8B4A5A6704F0EAF948B1F8
:103CFC004FF080534FF08042D3F84432C3F3423339
:103D0C00C2F83C35FFF7C2FF30B1834AD2F8FC3021
:103D1C0023F08073C2F8FC3004F0D3F940B14FF0BB
:103D2C0080430022C3F80C21C3F81021C3F83825B6
:103D3C00FFF7ACFF20B14FF080430322C3F8A0255E
:103D4C00FFF7A4FF60B1754B0522C3F810260122C2
:103D5C00C3F888260022C3F818263F22C3F814267D
:103D6C004FF08053D3F83021511C09BF4FF07043F2
:103D7C00D3F8343193F8E02FD3F8E83F08BFC3F3FE
:103D8C000313062A4DD1033B042B03D8644AD35C9E
:103D9C00002B46D04FF08052624BD2F80414C3F87B
:103DAC002015D2F80814C3F82415D2F80C14C3F853
:103DBC002815D2F81014C3F82C15D2F81414C3F823
:103DCC003015D2F81814C3F83415D2F81C14C3F8F3
:103DDC004015D2F82014C3F84415D2F82414C3F8B3
:103DEC004815D2F82814C3F84C15D2F82C14C3F883
:103DFC005015D2F83014C3F85415D2F83414C3F853
:103E0C006015D2F83814C3F86415D2F83C14C3F812
:103E1C006815D2F84014C3F86C15D2F84424C3F8D2
:103E2C00702504F04EF948B14FF080534FF08042AA
:103E3C00D3F8583203F04F03C2F8E43E04F041F9D2
:103E4C0048B14FF08043D3F80024D20744BF6FF041
:103E5C000102C3F800244FF08053D3F83021062A16
:103E6C0026D1D3F83431033B042B02D82E4AD35C31
:103E7C0063B12E4AD2F83C3743F48063C2F83C3726
:103E8C004FF08053D3F83031062B11D14FF08053C3
:103E9C00D3F83431033B042B02D8254AD35C3BB115
:103EAC004FF01023D3F808224FF08043C3F8582565
:103EBC004FF01023D3F80022002A03DBD3F804328E
:103ECC00002B22DA1B4901234FF01020C1F80435D6
:103EDC001524FFF7EFFEC0F80042FFF7EBFEC0F829
:103EEC000442FFF7E7FE0023C1F80435FFF7E2FEBA
:103EFC00BFF34F8F0849104BCA6802F4E0621343BA
:103F0C00CB60BFF34F8F00BFFDE710BD0030014009
:103F1C0000C007400DF0ADBA00ED00E000500040CD
:103F2C00F0A2000000C00040EBA200000010004016
:103F3C00E6A2000000E001400400FA05014B186005
:103F4C00704700BFA41C002010B5054B1868144620
:103F5C0004F0CAF80028A4BF2070002010BD00BFD8
:103F6C00A41C0020024A01238340C2F80435704788
:103F7C0000F00140014B00201B681847A81C0020D2
:103F8C00014B1B68184700BFA81C002010B50C4C37
:103F9C00237993B9012323710A4B2060002818BFA1
:103FAC00184600F069F850B923680748002BBDE8A3
:103FBC00104008BF184600F0AFB86FF0770010BD86
:103FCC00A81C0020813F00008D3F000008B5064B67
:103FDC001B683BB10020FEF79BFA18B9BDE80840FE
:103FEC00FEF774BA08BD00BFA81C00204FF0805328
:103FFC00D3F83021511C09BF4FF07043D3F8343142
:10400C0093F8E02FD3F8E83F08BFC3F30313062A55
:10401C0005D1033B042B04D8034AD05C7047002025
:10402C0070470120704700BFFAA2000038B54FF06E
:10403C0080440123C4F8083363600023C4F80031C2
:10404C00D4F8003142F21075D4F80C24D4F80C34A6
:10405C00D20307D5DB0705D5012004F043F8013D59
:10406C00F2D138BDFFF7C2FF0028FAD0014B002275
:10407C005A71F6E7B01C002038B5084C25794DB9BB
:10408C00012320602371FFF7B1FF08B9002038BD70
:10409C006571FBE76FF07700F9E700BFB01C0020FB
:1040AC004FF080430022C3F80021D3F800210949C6
:1040BC0001221A60096811B1C3F804237047D3F8C0
:1040CC000021002AFBD00022C3F80021D3F80031D4
:1040DC00704700BFB01C002010B54FF08043D3F8E0
:1040EC000423D20715D5D3F8002192B10022C3F8CE
:1040FC0000210124D3F80021C3F80843FFF776FF11
:10410C00044B10B15A7922B95C71BDE810401B68A0
:10411C00184710BDB01C0020074A137943B9012180
:10412C00106011714FF080421846C2F81835704774
:10413C006FF07700704700BFB81C002010B54FF02F
:10414C0080432C4CD3F81814D3F8182411F4803F66
:10415C0037D002F00303012B03D00BB104F02EF87F
:10416C0000234FF08042C2F818350023C2F8043106
:10417C00D2F804314FF08053D3F83021511C09BFD1
:10418C004FF07043D3F8343193F8E02FD3F8E83F75
:10419C0008BFC3F30313062A08D1033B042B02D830
:1041AC00154AD35C13B18A2003F09CFF4FF0804377
:1041BC0001229A60226872B9D3F80421002AFBD03C
:1041CC0011E0D3F81424D207CAD5D3F81C249007D5
:1041DC00C4D422681AB10222C3F8042310BDD3F848
:1041EC000421002AFBD00022C3F80421D3F80431A7
:1041FC00F4E700BFB81C0020FFA20000F8B54FF098
:10420C008043194FD3F80443012504F01A04002607
:10421C0004B9F8BDB4FA84F0C0F11F00830003F5B3
:10422C0080739BB203F1804305FA00F2196824EA0B
:10423C0002040029ECD01E601B684FF0804301285B
:10424C00C3F808230CD1D3F81824D3F818249207F8
:10425C0006D10222C3F81805C3F804239860D7E7E7
:10426C003B68C0B29847D3E7B81C00204FF080538E
:10427C00D3F83021511C09BF4FF07043D3F83431BF
:10428C0093F8E02FD3F8E83F08BFC3F30313062AD3
:10429C0005D1033B042B04D8034AD05C70470020A3
:1042AC0070470120704700BF04A3000073B5CEB265
:1042BC0000EB46060446B38ADB070D4625D504F011
:1042CC0085F8B38A9A0608D55A0B236803EB820348
:1042DC000022C3F81025C3F81025204629460024D7
:1042EC0004F006F8B48201A8019503F082FF019B4B
:1042FC0000EB8300064BD0F80027134043F0020379
:10430C00C0F80037204602B070BD6FF01500FAE718
:10431C00F0F8FCFF014803F005BF00BF2412002099
:10432C0010B504480C4603F0DFFE0028A4BF207033
:10433C00002010BD2412002007B5019001A804F044
:10434C009BFA019B00EB8300054BD0F80027134030
:10435C0043F00303C0F8003703B05DF804FB00BF63
:10436C00F0F8FCFF73B5CB7B0446002B38D10B7BEC
:10437C000878012B77D804F096FA0B78019301A8F2
:10438C0004F07AFA019B00EB83003C4BD0F8002739
:10439C00134043F00103C0F800374878FF2804D0DD
:1043AC0004F081FA4878FFF7C7FF8B78FF2B0FD00A
:1043BC0001A88D7B019304F05FFA019B00EB830055
:1043CC002E4BD0F80027134043EA8503C0F8003782
:1043DC00C878FF2804D004F059FAC878FFF7ACFF6E
:1043EC0023792748CA78282505FB03039A770B7C89
:1043FC009BB94B7825680E78FF2B18BF1A468B7823
:10440C00C5F8086508BF4FF0FF32FF2B08BF4FF00F
:10441C00FF33C5F80C25C5F8103523688A68C3F836
:10442C0024254B7B0A7B2568003B18BF0123022AFD
:10443C001CD0032A1DD0012A01D143F00203C5F878
:10444C00543523794979282202FB0303D977237940
:10445C005343C35883B1206840F3073002B0BDE822
:10446C007040FEF733B804F011FA86E743F004030A
:10447C00E5E743F00603E2E702B070BDF0F8FCFF9D
:10448C00C01C002007B5019001A804F0F5F9019BB0
:10449C0000EB8300054BD0F80027134043F00203D8
:1044AC00C0F8003703B05DF804FB00BFF0F8FCFF68
:1044BC002DE9F04190F80480144C4FF0280C0CFBC3
:1044CC0008FC04EB0C06074696F81CE0BEF1000F46
:1044DC0018D144F80C20736041B1CB7B86F82530A1
:1044EC00CB78B3774B79F377FFF73CFF3A6801232E
:1044FC00C2F80035282202FB08440020607723779D
:10450C00BDE8F0816FF07700FAE700BFC01C002017
:10451C0070B50679194C056828237343E35833B1F9
:10452C0045F30730FDF7E0FF0423C5F808330023FB
:10453C00C5F80035282303FB064393F82530BBB997
:10454C00D5F80805FFF79EFFD5F81005421C01D0E1
:10455C00FFF798FFD5F80C05431C01D0FFF792FF2D
:10456C00282303FB0643987FFF2801D0FFF78AFF1F
:10457C00282303FB06440023237770BDC01C0020B6
:10458C002DE9F84307793A4C28237B439046E218EF
:10459C000E46517F8146002967D1E3580BB10123A8
:1045AC00537796E80F00282505FB074505F10C0C01
:1045BC008CE80F00A87F0023FF2885F8243001D059
:1045CC0004F071F92823B8F1000F07D003FB07435F
:1045DC0000225A776FF08500BDE8F883D9F80050B7
:1045EC0003FB07430422C5F80823C3F82080C5F851
:1045FC000881D5F8082172689AB133681B78C5F820
:10460C001C357368012B0ED933685B78C5F81C35E3
:10461C0028237B43E65876B10423C5F804330020E5
:10462C00DAE7DB7FEBE7F368012BF1D9282303FBF7
:10463C000743DB7FEAE707EB870104EBC101D5F801
:10464C000831002BFBD0C5F808612846D5F8083195
:10465C0004F036F90028F2D1282303FB0744A07F8D
:10466C00FF28DCD004F012F9D9E76FF00F00B3E7A4
:10467C00C01C002002494FF0402004F054B900BF88
:10468C00C01C00200149024804F04DB9E81C002070
:10469C000030024008B5124BA8220021184604F045
:1046AC003DFB032202610F4942610F4A8161C261E5
:1046BC004FF480520262002282624262C262016640
:1046CC000A49416610218166094902670346C266A0
:1046DC00426711F8010D98540132102AF9D108BD26
:1046EC001010002009A30000100000200000002082
:1046FC0022A300002DE9F84FDFF87C80182606FB7A
:10470C00008E00FB06664644DEF82440DEF828C026
:10471C007368A44507468946154603EB040022D866
:10472C00DEF820B0ABEB040A0AF1FF339A4203D84F
:10473C0004F0E6FA2C440FE063449A4219D852462E
:10474C002C4404F0DDFAB4EB0B0405D0706822465F
:10475C0009EB0A0104F0D4FA182303FB07830120A8
:10476C005C62BDE8F88F0CF1FF3CACEB040C94459B
:10477C00DED20020F5E700BF10100020F8B5144B76
:10478C00182700FB07751D4407FB00330E46DB6A38
:10479C00012B14460AD0022B14D023B9284604F05E
:1047AC00DCF8844208D900242046F8BD284604F0E1
:1047BC00D4F8844228BF044622463146284604F0E9
:1047CC00D5F8F1E72846BDE8F84004F0EAB800BF98
:1047DC0010100020F8B50B4B1B78532B04460E46DB
:1047EC00174601D0FFF756FF04F00AF93A46054682
:1047FC0031462046FFF7C2FF0446284604F008F96C
:10480C002046F8BD10100020034B182202FB003389
:10481C009A6A586A801A70471010002010B4084A1F
:10482C0008490023C85C12F8014D844204D10133BD
:10483C00102BF7D110BC704710BCFFF72BBF00BF7B
:10484C0022A300001010002010B50446FCF754FE03
:10485C000348044A012103F019F8204604F004F936
:10486C00AC93000023A300002DE9F843044600AFED
:10487C000D46EFF31188202383F31288BFF36F8F5B
:10488C000428294A98BF294B9668117C94BF53F889
:10489C002030274BE9468AB06A462648C2E90731E0
:1048AC0040F201339384244BC2E9050442F8103FD3
:1048BC00224800234FF43151FCF7EEFECD4645B1B2
:1048CC00EB69C3F3080323B11D4A1C48012102F014
:1048DC00DDFF2EB1304604F0ECF808B1037803B9D3
:1048EC001848E9468AB06A46174BD061C2E90536CA
:1048FC0040F201331384154B42F8103F00230F484C
:10490C004FF41151FCF7C8FE2946CD462046FFF75F
:10491C009BFF88F31188BFF36F8F3046FDF77CFD4A
:10492C00BD46BDE8F88300BF101D0020B098000004
:10493C0032A3000048A3000005000001AC93000066
:10494C0070A3000040A3000091A30000040000012C
:10495C0038B50A4B53F82040013053F82050A5428B
:10496C0000D838BD606830B1037FDB0701D404F098
:10497C0058F80834F3E723689847FAE7C49800001E
:10498C0070B52A4B2A4C2B4D012286B003201A708D
:10499C00FFF7DEFFFDF7C8F90420FFF7D9FF264625
:1049AC00AE4204F1300410D300F066FB204C224ED2
:1049BC00AC4226D300F074FBFBF7FAFD1F4A137BC5
:1049CC0023F00103137306B070BD54F80C3C05932F
:1049DC0054F8103C049354F8143C039354F8183CCA
:1049EC00029354F81C3C019354F8203C009354E976
:1049FC000A2354E90C0100F06BF954F8303C5E6565
:104A0C00CDE7D4E90A23B3F1FF3F08BFB2F1FF3F72
:104A1C0005D052EA0301206803D100F0FDFB3034CD
:104A2C00C6E73146183000F095FDF8E71934002040
:104A3C003093000030930000B18B0000281A002046
:104A4C0070B5174E174D184986B0B02303FB00669E
:104A5C00164B059301220F23CDE903320023CDE938
:104A6C000133142303FB005504464FF4C07000FBC4
:104A7C0004110F4B00954FF4A072304600F028F94A
:104A8C00737B0C4AEE6023F0040373734FF40463DE
:104A9C0004FB033313442C746B6006B070BD00BF71
:104AAC0078190020101D0020C03F0020F3A3000047
:104ABC00858A000080370020BFB50020FFF748FF33
:104ACC00294B83F30888294C294F636943F40073FD
:104ADC0063610025E02384F82230E577257665763E
:104AEC00A57684F82050636A43F4E023636284F86B
:104AFC002350FDF707FCFDF7A7FD4FF0FF33A36232
:104B0C00E362FDF77DFEFDF7C3FDFCF751FC194890
:104B1C00194C00F07FF90120FFF71AFF0220FFF774
:104B2C0017FF00F0F1FA154B15495C61154B059315
:104B3C000123CDE903534FF480623B46CDE9015587
:104B4C000095204600F0C4F8627B064622F0040271
:104B5C002046627303F0E9FF2846FFF771FF3A46DF
:104B6C0031462046FDF750FDC03F002000ED00E02F
:104B7C008D490000D81A0020281A0020101D002092
:104B8C0040410020F8A3000070B5EFF311862023FC
:104B9C0083F31288BFF36F8F0468A0421BD0D4B18B
:104BAC00D4E9003213605A60637B002523F00203C2
:104BBC006373C4E90055A56004F1180004F04AF8C9
:104BCC002046C4F8AC5003F0B0FF31460748BDE8AE
:104BDC00704000F02BBAD0E902329A4218BF013370
:104BEC00836086F31188BFF36F8F70BD1A34002079
:104BFC0013B5EFF31181202484F31288BFF36F8F68
:104C0C00846844B1013C846081F31188BFF36F8FD9
:104C1C00002002B010BD52EA030406D181F31188C2
:104C2C00BFF36F8F6FF00F00F3E7CDE9002302465F
:104C3C00014800F0D9F9ECE71A3400202DE9F041D5
:104C4C000546EFF31187202383F31288BFF36F8F90
:104C5C0000231E466FF00A082C68A54216D0ACB192
:104C6C00D4E9003213605A60637BA66023F0020320
:104C7C006373C4E9006604F1180003F0EBFFC4F899
:104C8C00AC80204603F051FF0123E5E70022AA6027
:104C9C002BB139460548BDE8F04100F0C7B987F3A0
:104CAC001188BFF36F8FBDE8F08100BF1A3400206C
:104CBC0010B5044608B9054B9C681F2204F174001A
:104CCC0004F034F8002084F8930010BD101D00206F
:104CDC002DE9F04F073285B022F0070204461E463C
:104CEC007F3200F15803C0E9163322F03F02129BC9
:104CFC00237300200D46119BDDF838A0139FA06094
:104D0C0004213F2AC4E906006173A373E07305F123
:104D1C004009A2F1400B05D880F31188BFF36F8FC7
:104D2C00084602DF05EB020841462046FDF792F8E3
:104D3C000730109B20F00700C4E9259BC4F89C00A9
:104D4C0002930F9BA8EB000BCDE900A35A46334608
:104D5C0029462046FDF724FC0F9BA3664FF0000864
:104D6C00109BC4F85480C4E9186AE366EFF311820F
:104D7C00202181F31288BFF36F8F0F4D296A2167B1
:104D8C002C6282F31188BFF36F8F8FB11F223946CB
:104D9C0004F1740003F0CAFF84F89380AB680BB184
:104DAC00D3F8A030C4F8A030584605B0BDE8F08F59
:104DBC0084F87470F2E700BF101D0020F0B587B0C6
:104DCC0000250595109D04950F9D03950E9D02954C
:104DDC00DDE912760D9D01950C9D00950446FFF7BB
:104DEC0077FFB6F1FF3F08BFB7F1FF3F05D056EA9A
:104DFC00070305D1204600F00FFA204607B0F0BD9E
:104E0C003A46334604F11800014900F0A3FBF4E7DD
:104E1C00B18B000040F2011383810023C0E92533DC
:104E2C00C0F8A030014B9860704700BF101D0020E7
:104E3C000A4A93686FF00A01C3F8AC100849C3F82A
:104E4C00A8004B6843F080534B60002383F3118818
:104E5C00BFF36F8F9368D3F8AC007047101D002020
:104E6C0000ED00E070B590F90D20437B002A36DB95
:104E7C00D90634D11B4C63F07F032246437352F89E
:104E8C00183FE169934207D1C0E900210860E06155
:104E9C0011E09942F8D01B68002BF5D090F90E5018
:104EAC0093F90E60B542F4D0AE42F2DD5968C0E918
:104EBC00003108605860A569954200D005B9E568D5
:104ECC00A3685A7BD20604D1DA897F2A01D9AA6950
:104EDC0032B1AB4202D0284600F098FA656170BD41
:104EEC006361FCE7101D002038B590F90D20437B61
:104EFC00002A014604DA03F07F03437303F0DBFD61
:104F0C000D4D2A46AB6852F8184F944200D004B9A4
:104F1C00EC688B4207D05A7BD20604D1DA897F2AFF
:104F2C0001D9A2692AB1A34202D0204600F06EFA40
:104F3C0023466B6138BD00BF101D0020B3F1FF3F4D
:104F4C0008BFB2F1FF3F03D00249183000F002BB9A
:104F5C00704700BFB18B000070B590F90D20437BFA
:104F6C00002A014604DA03F07F03437303F0A3FD28
:104F7C004B7B1C4C63F07F0322464B7352F8183F5B
:104F8C00E069934207D1C1E900200160E16111E0C1
:104F9C009842F8D01B68002BF5D091F90E5093F97C
:104FAC000E60B542F4D0AE42F2DD5868C1E9003073
:104FBC0001605960A569A368954200D005B9E56800
:104FCC008B4207D05A7BD20604D1DA897F2A01D9C9
:104FDC00AA692AB1AB4202D0284600F017FA2B4638
:104FEC00636170BD101D0020F8B50E4B0C461146C8
:104FFC000D4A98681060DDE90667EFF311822022F4
:10500C0082F31288BFF36F8F9D68284603F065FD0D
:10501C00284632463B46FFF791FF2046BDE8F84054
:10502C00FFF706BF101D0020341D002049B9EFF317
:10503C00058030B9054B5A699B689A4201D0FFF73D
:10504C00F7BE81F31188BFF36F8F7047101D0020DE
:10505C00034648B9EFF3058232B9064A51699268A2
:10506C00914201D0FFF7E4BE83F31188BFF36F8F39
:10507C00704700BF101D0020EFF31181202383F334
:10508C001288BFF36F8F054B9A68D37B013BD373A8
:10509C0081F31188BFF36F8F704700BF101D002084
:1050AC0070B5EFF31186202383F31288BFF36F8F53
:1050BC00144DAB68DA7B0132DA732A4652F8184F7A
:1050CC00944200D004B9EC685A7BD20604D1DA8938
:1050DC007F2A01D9A2692AB1A34202D0204600F04E
:1050EC0095F923466B6186F31188BFF36F8FEFF34D
:1050FC001180202383F31288BFF36F8FBDE87040BB
:10510C00FFF7A6BF101D0020024B03F11802C3E9E4
:10511C0006227047101D002070B5EFF31186202376
:10512C0083F31288BFF36F8F1B4CA168E0690B6887
:10513C00814214BF1A46002249680B605960A3686B
:10514C00E1692AB9154AC3E900210B60E3610CE05F
:10515C0093F90E0092F90E50A84218D0854216DD34
:10516C005168C3E900210B605360A5690B4B9D424C
:10517C0000D005B9E568A3689D4202D0284600F02E
:10518C0045F965613046BDE87040FFF751BE8A4273
:10519C00D8D01268D5E700BF101D0020281D0020B4
:1051AC00F8B550EA010306460C4603D1FFF7B4FFED
:1051BC000020F8BDEFF31187202383F31288BFF38F
:1051CC006F8F124D124BA8681860FFF78DFEA86800
:1051DC00104923463246183000F0BCF9AA68537BBC
:1051EC0043F00403537304463846FFF721FEAB68C3
:1051FC00D3E90A23B3F1004F08BF002AD8D103F03A
:10520C0051FD201A20EAE070D3E700BF101D0020EA
:10521C00341D0020B18B000038B50446EFF3118526
:10522C00202383F31288BFF36F8F437B5B070FD56B
:10523C00183003F00FFD637B23F0040320466373E7
:10524C00FFF710FE29460548BDE83840FFF7EEBED3
:10525C0085F31188BFF36F8F38BD00BF1A3400205F
:10526C00014B9868704700BF101D00202DE9F843D2
:10527C000446077BEFF31185202383F31288BFF3D9
:10528C006F8F437B190705D585F31188BFF36F8F9B
:10529C00BDE8F883D90943F0080260D14273A368D2
:1052AC0013B1204603F00FFC04F1180003F0D2FCFC
:1052BC00A66D04F15808B04511D04FF0000976B135
:1052CC00304603F000FC06F1180003F0C3FCC6F8EE
:1052DC00AC903046FFF7C6FDA66DB045EFD1DFF8B8
:1052EC00C480D8F808309C4241D1EFF30589B9F15C
:1052FC00000918BF4FF00109D8F818602A4A9642E5
:10530C0000D00EB9D8F80C60B34202D0304600F091
:10531C007DF82046C8F8146002F05BFB204600F0D4
:10532C00CDF8B9F1000F02D02048FFF773FDD8F883
:10533C0008309C4231D1EFF3058373BB227BD2073B
:10534C0018D42846FFF774FDFB07A1D5002383F37F
:10535C001188BFF36F8F0423184602DF98E703F020
:10536C007F0343F00803437303F0A5FB97E74FF06B
:10537C000009C1E785F31188BFF36F8F83F31188A0
:10538C00BFF36F8F0423184602DFEFF31180202345
:10539C0083F31288BFF36F8FD4E785F31188BFF3C3
:1053AC006F8FD1E7101D0020281D0020D81A002077
:1053BC00044BC01A044BC0105843044B01221A541E
:1053CC00704700BF881B0020ABAAAAAA1A34002081
:1053DC00C3897F2B12D80A4B1B6863B1094B90F918
:1053EC000E201B689A4209DB437BDB0606D1064B79
:1053FC00C31A18BF012303F0010070470023FAE71A
:10540C0028120020381D00207819002070B50E4B92
:10541C000E4C1E7C06EB460304EBC30405462046EB
:10542C0003F018FC0A4B002228469A55FFF7D0FFD0
:10543C0048B1084B08491A68013A2046D317BDE811
:10544C00704000F087B870BD101D0020881B002034
:10545C001A34002028120020BD53000038B5EFF399
:10546C001185202383F31288BFF36F8F104B114AE1
:10547C009C681068A04206D1FFF7C8FF85F311881D
:10548C00BFF36F8F38BD00211B7C11600A4AD35CBF
:10549C00002BF3D02046FFF79BFF0028EED0637B58
:1054AC00DB0602D12046FFF757FD2046E4E700BF9C
:1054BC00101D0020341D00201A340020EFF3118140
:1054CC00202383F31288BFF36F8F0A4A136A834237
:1054DC0007D11B6F136281F31188BFF36F8F704775
:1054EC001346002BF7D01A6F8242F9D1026F1A675C
:1054FC00F1E700BF101D0020024B1868984208BF4E
:10550C00002070472C120020034B1B680BB9FEF7D0
:10551C00B3BB0020704700BF3C1D002030B570B1FC
:10552C000B4B5B6898420AD0036843B1D3E9042162
:10553C00D0E90445121941EB0501C3E90421D0E976
:10554C00003213605A600023C0E9003330BD00BF45
:10555C002C120020B3F1FF3F08BFB2F1FF3F2DE941
:10556C00F84F0446994615461F467AD08160EFF3F2
:10557C001188202383F31288BFF36F8FB9F1000FCA
:10558C00DFF8E4A020DBFFF7BFFFDAE900270135E5
:10559C0049F100092D1849EBE073C4E90453AD1827
:1055AC00064643EB07074FF00109FFF7A5FFDFF8AD
:1055BC00BCE0DEF804A00346EBB9C4E900EACAF883
:1055CC000040CEF8044028E0DAE900126FF0010345
:1055DC005B1A4FF0FF3161EB02025B1B62EB0902BD
:1055EC00012B72F10001BCBF01230022C0E904327F
:1055FC004FF00009D9E7D3E9041CD4E904208A420E
:10560C0070EB0C0B24DA891A5A686CEB0000C3E9B6
:10561C000410C4E9003214605C60FFF76DFF844233
:10562C000ED1134B1B685BB9B9F1000F02D1FFF718
:10563C006BFF0646304603F0F6FA0021FEF7EAFA55
:10564C0088F31188BFF36F8F28463946BDE8F88F71
:10565C00521A60EB0C009A45C4E90420ADD01B68CB
:10566C00AAE700252F46EFE7A01B00202C120020F4
:10567C003C1D00202DE9F047EFF31185202383F327
:10568C001288BFF36F8FDFF8A490DFF8A480C9F8FD
:10569C000000FFF731FF00260027D9F80030D8E9C9
:1056AC0000ECD91750B1D0E90442A34271EB020AC5
:1056BC001CDAE41A62EB0102C0E9044213EB0E039C
:1056CC004FF000044CEB01012046C8E90031C9F849
:1056DC00004003F0A8FA2146FEF79CFA85F31188E6
:1056EC00BFF36F8FBDE8F047FFF7B8BE14EB0E02A7
:1056FC004CEBE473C0E90467C8E90023FFF70EFF25
:10570C0085F31188BFF36F8F83689847EFF311858A
:10571C00202383F31288BFF36F8FD9F800301B1B43
:10572C00C9F80030FFF7E8FEB7E700BF3C1D0020CA
:10573C00A01B002010B5EFF31184202383F31288F3
:10574C00BFF36F8FFFF7E0FE054A0346D2E9000175
:10575C00181841EBE37184F31188BFF36F8F10BD00
:10576C00A01B0020F8B50546EFF31187202383F327
:10577C001288BFF36F8F036823B187F31188BFF3CF
:10578C006F8FF8BDD0E90A46611C46F10002022970
:10579C0072F1000236D3012C76F10002BCBF012459
:1057AC001E46013C46F1FF3603F080FA013041F110
:1057BC000001001946EB0101012871F1000130DBF9
:1057CC0003F074FA013041F100016FF0020300198B
:1057DC0046EB010183426FF000438B4126DB03F063
:1057EC0065FA013041F100016FF00102001946EB3E
:1057FC000103121A4FF0FF3161EB03031C492846D9
:10580C00FFF7A8FE2B6B01332B632B6A93B93C4635
:10581C002B4653F8185F9D4200D0D5B984F31188FC
:10582C00ADE76FF001024FF0FF33E7E700224FF0D6
:10583C000043E3E787F31188BFF36F8F2B6A284689
:10584C009847EFF31184202383F31288BFF36F8FF3
:10585C00DEE7284603F078F90023C5F8AC3084F372
:10586C001188BFF36F8F2846BDE8F84003F05DB98F
:10587C00715700002DE9F04105461C4690461F4625
:10588C00EFF31186202383F31288BFF36F8FB4F1EB
:10589C00FF3F08BFB2F1FF3F05D186F31188BFF37C
:1058AC006F8FBDE8F081002C09DB012A74F1000335
:1058BC00BCBF0122002412F1FF3844F1FF37284607
:1058CC0003F0C8F9DDE906010023C5E90A012B63E1
:1058DC0042463B4628460249FFF73CFEDDE700BF47
:1058EC00715700000CB430B589B005460C461C222B
:1058FC00002101A803F012FA02238DF806300E4B9A
:10590C000293059523462CB1B4F1004F28BF4FF0FC
:10591C000043013B1D440DAA0C99069501A8009269
:10592C0000F0D0F814B1059B00221A7009B0BDE844
:10593C00304002B0704700BFD39000000EB470B579
:10594C0089B00DAD04461C22002101A855F8046B4A
:10595C0003F0E4F902238DF806300B4B029304F1AB
:10596C000043013B2A46314601A806930594009555
:10597C0000F0A8F80028A4BF0023235409B0BDE808
:10598C00704003B0704700BFD39000002DE9F04188
:10599C0001260746B24201DCBDE8F0813B461F46BA
:1059AC0013F8014B002CF7D0252CF8D11C78252CA2
:1059BC0007F10207F2D00023DFF804819C461D4654
:1059CC001F2D18D8A4F1200EBEF1100F09D9A4F187
:1059DC00300EBEF1090F1ED80A2404FB03E3202568
:1059EC0004E028FA0EFE1EF0010F06D017F8014B4A
:1059FC00002CE5D128E07F2D1CD8A4F1300EBEF18F
:105A0C00090FE9D9242C10D1BCF1000F46D0B342B8
:105A1C0046D00023EAE724F0040EBEF12A0FF8D09A
:105A2C006C2C09D145F08005E0E724F0040EBEF1A2
:105A3C002A0FEED06C2C22D06C2C1BD8682C23D0C7
:105A4C006A2C28D04C2C26D0BCF1000FA4D0B44525
:105A5C00A0D144F02007A7F1650CBCF1020F0B6834
:105A6C0001D9612F1ED1073323F0070308330B60D4
:105A7C0001368EE7742CB9D07A2CB7D0E4E72C061B
:105A8C0048BF45F40075CDE7EC0548BF45F40075FB
:105A9C0045F48075AAE745F42075A7E79C46B8E75E
:105AAC006324D6E7692C02D007D8632C03D02F06C9
:105ABC0001D5AC05D7D40433D9E7732CF6E700BF76
:105ACC00892801002DE9F04F95B043680393837842
