:10000000801F0020C9100000DD400000B510000076
:10001000B5100000B5100000B51000000000000091
:10002000000000000000000000000000411200007D
:10003000B510000000000000DD110000B510000048
:10004000DD130000DD130000DD130000DD130000F0
:10005000DD130000DD130000DD130000DD130000E0
:10006000DD130000DD130000DD130000DD130000D0
:10007000DD130000DD130000DD130000DD130000C0
:10008000DD130000DD130000DD130000DD130000B0
:10009000DD130000DD130000DD130000DD130000A0
:1000A000DD130000DD130000DD130000DD13000090
:1000B000DD130000DD130000DD130000DD13000080
:1000C000DD130000DD130000DD130000DD13000070
:0C00D000DD130000DD130000DD13000054
:1000DC0053B94AB9002908BF00281CBF4FF0FF31A3
:1000EC004FF0FF3000F00CB8ADF1080C6DE904CE08
:1000FC0000F008F8DDF804E0DDE9022304B07047F5
:10010C00704700BF2DE9F04786468C460846089E8E
:10011C00154674461946002B40F0C2808542B2FA4F
:10012C0082F245D94AB1C2F1200300FA02FC2EFA40
:10013C0003F3954043EA0C0C94404FEA154EA8B2D9
:10014C00BCFBFEF8230C0EFB18CC08FB00F943EAB1
:10015C000C43994528D9EB1808F1FF3704D299457F
:10016C0002D9A8F102072B44A3EB0903A4B2B3FBF9
:10017C00FEFC0EFB1C330CFB00F044EA0344A042D3
:10018C0014D92C190CF1FF3304D2A04202D9ACF1D2
:10019C0002032C44241A43EA07401EB1D440002326
:1001AC0034607360BDE8F0874746DDE76346F1E7EE
:1001BC0092BB431B01214FEA154EAFB2B3FBFEFCC1
:1001CC00200C0EFB1C330CFB07F840EA034398454C
:1001DC0062D9EB180CF1FF3004D2984502D9ACF17E
:1001EC0002002B44A3EB0803A4B2B3FBFEFC0EFBF2
:1001FC001C330CFB07F744EA0344A7424ED92C19D5
:10020C000CF1FF3304D2A74202D9ACF102032C4407
:10021C00E41B43EA0040C0E7C2F1200320FA03F1DB
:10022C00954090402EFA03F303434FEA154EAFB2BC
:10023C00B1FBFEFC0EFB1C10190C0CFB07F841EA81
:10024C000041884504FA02F422D969180CF1FF30F8
:10025C0004D2884502D9ACF102002944A1EB080173
:10026C009BB2B1FBFEFC0EFB1C110CFB07F743EA27
:10027C0001439F420ED9EB180CF1FF3104D29F427F
:10028C0002D9ACF102012B44DB1B41EA004192E79D
:10029C006046E3E76146F7E76046A3E76346B7E7E6
:1002AC00834206D916B9002108467BE7C6E900E06F
:1002BC00F9E7B3FA83F78FB9834201D3724508D8B3
:1002CC00BEEB020460EB030301209C461EB9002127
:1002DC0068E73846FAE7C6E9004CF8E7C7F1200CA6
:1002EC00BB4022FA0CF41C432EFA0CF120FA0CF34E
:1002FC00B84001434FEA14490EFA07F5B3FBF9F87D
:10030C001FFA84FE09FB18300B0C08FB0EFA43EAAB
:10031C0000439A4502FA07F240D9E31808F1FF307E
:10032C0004D29A4502D9A8F102002344A3EB0A0394
:10033C0089B2B3FBF9F809FB183308FB0EFE41EA4E
:10034C0003418E452CD9611808F1FF3304D28E4538
:10035C0002D9A8F10203214443EA0040A0FB029811
:10036C00A1EB0E014145CE46434602D306D14D4585
:10037C0004D2B9EB020E68EB04030138002EA6D0B0
:10038C00B5EB0E0261EB030101FA0CFC22FA07F348
:10039C004CEA0303F940C6E9003198E74046C5E74B
:1003AC004346D9E72DE9F34104468368DB6B002B08
:1003BC002ED1A368DB6A002B30D14B4F4B4EA36878
:1003CC001B69002B5ED13A8833889342F7D8DFF84B
:1003DC002081484B98F8005047490B3A92B223F8C9
:1003EC001520464B642005FB00300135EDB204F0BE
:1003FC00EBFF132D88F8005002D9414803F07BFD28
:10040C0000233B80092333803E4B01221A7009E004
:10041C0098470028CDD102B0BDE8F081204698471E
:10042C000028CAD1A368DB69002B4DD13648374E62
:10043C00374F03F060FD002533689D4249D3354D9D
:10044C00354803F058FD2B68396832681944D21AC4
:10045C00A368DB68002B43D0204698472B681844D0
:10046C00336828609842D6D3A3689B69002BD2D0FE
:10047C0020469847CFE7294803F03DFD00233B80F9
:10048C003580C8E701220DF1070120469847C0B21C
:10049C00012898D13B88DFF888809DF8072008F860
:1004AC0003205D1CADB2092D3D8088D11D4906226B
:1004BC00404604F09FFF0028DDD1B8F807303288A1
:1004CC005BBA134433807AE7204698470028A2D0C1
:1004DC00ACE73B681448595D03F00DFD0135ABE703
:1004EC006FF05700BAE700BF040900207C0500201C
:1004FC0093090020060900203809002094090020E7
:10050C00A95800002E090020BA5800000408002049
:10051C000808002000080020A35D00009858000087
:10052C002F09002068590000CE58000010B4074C69
:10053C00216007490A60074A0021116083685B69E2
:10054C000BB110BC184710BC704700BF0808002046
:10055C0004080020000800202DE9F84F06460D463F
:10056C001A4FBB681B6A0BB138469847B5FBF6F5BA
:10057C0000244FF4004C40F2E7302146ECFB06011E
:10058C004FF47A720023FFF7A3FDDFF844B08046E6
:10059C00894626469BF800A0BAF1000F0AD000232A
:1005AC008BF80030BB685B6A0BB108489847504623
:1005BC00BDE8F88F4046494604F094FEAC4276F113
:1005CC000003F4D2013446F10006E3E7AC55000019
:1005DC002E09002010B59AB00446084611461A465A
:1005EC00FFF7A4FFBDF87410BDF87000FFF7B4FF5F
:1005FC00104B114A1978ADF800104B1E32F813202D
:10060C00ADF8662079B10D49642000FB03110DF1A2
:10061C00020004F0D9FE68226946204604F0D4FE9C
:10062C0020461AB010BD64220DF1020004F0DAFE6F
:10063C00F1E700BF9309002006090020940900206F
:10064C0030B500259BB004462946602202A80195CE
:10065C0004F0C8FE0548642201A902FB040004F062
:10066C00B3FE034B23F814501BB030BD940900208B
:10067C000609002010B50024E0B20134FFF7E0FFBA
:10068C00142CF9D1014B00221A7010BD93090020D3
:10069C002DE9F0411C46234B1B789CB0054688463F
:1006AC0016460BB1FFF7E6FF1F4B8DF815809A88A5
:1006BC0018689B798DF81230E31CADF810201A0ADB
:1006CC0004F10C0703908DF813208DF814303CB313
:1006DC00224631460DF1160004F076FE0A34E2B2E1
:1006EC00062103A803F0B9FA04F170036B44020A63
:1006FC0003F8642C04F170030DEB030441F288330E
:10070C0004F8630C0193BDF8883000932846074920
:10071C003B4603AAFFF75EFF28461CB0BDE8F081FC
:10072C000A24DCE793090020D2580000AC550000E5
:10073C00F8B5084F06460D460024A54204DCBDE87A
:10074C00F840054803F0D7BB315D384603F0D3FBC6
:10075C000134F2E7CE580000A35D000030B51F4D08
:10076C001F4C9FB004A803F085FABDF81010284662
:10077C0003F0C1FB204603F0BEFBBDF876100DF173
:10078C001200FFF7D5FF04A8012103F07FFABDF892
:10079C001010284603F0AFFB204603F0ACFBBDF86D
:1007AC0076100DF11200FFF7C3FF01220023114652
:1007BC00CDE90133009204A803F077FABDF81010CC
:1007CC00284603F098FB204603F095FBBDF8761005
:1007DC000DF11200FFF7ACFF1FB030BDDA5800006E
:1007EC00FA58000030B51E4D1E4C9BB0684603F005
:1007FC0041FABDF80010284603F07DFB204603F0BB
:10080C007AFBBDF866100DF10200FFF791FF684608
:10081C00012103F03BFABDF80010284603F06BFBF6
:10082C00204603F068FBBDF866100DF10200FFF7DF
:10083C007FFF012211460023684603F05FFABDF8E2
:10084C000010284603F057FB204603F054FBBDF87C
:10085C0066100DF10200FFF76BFF1BB030BD00BF3F
:10086C00DA580000FA58000010B5154C204604F078
:10087C00A8FCF0B1A3682BB11B6C1BB11149002271
:10088C0020469847104803F036FB104803F033FB22
:10089C00FFF764FF0E4803F02EFB0C4803F02BFB14
:1008AC00FFF7A0FF4FF0FF314FF0FF3004F01AFDBF
:1008BC00F8E7084803F01FFB4FF0FF3010BD00BFF6
:1008CC00AC550000B1030000245900003B59000056
:1008DC005259000011590000014B1B68184700BF0A
:1008EC00C0040020014B1860704700BFC0040020FA
:1008FC0030B585B004460D4610220021684604F040
:10090C0071FD02238DF802302A46044B01932146D7
:10091C00684602F045FF05B030BD00BFE508000099
:10092C0080B505460E461746984602F09FFC0346D6
:10093C0004F0E4FDDFF81890044649F80030424614
:10094C0030463946A84754F8090000F02BFC00BF8C
:10095C00080000002DE9F047058B04462807904657
:10096C0011D4022905F0070540F0CC80204603F095
:10097C00CFFA78B10138218B042811D8DFE800F0C8
:10098C00C2106D85950001290CBF45F0100545F08E
:10099C002005258388F31188BFF36F8FBDE8F0879E
:1009AC0001F0070AAA4500F0A5800027B9463E468B
:1009BC00A368002B00F0BC8041F00801218388F370
:1009CC001188BFF36F8FA168002900F0BA800D6801
:1009DC00002900F0B680D1F80480334652462046F8
:1009EC00C047002D76D02B6829461D46F0E701F054
:1009FC0007035A1F012A1BD8002221F00701062BDE
:100A0C00276889B2C4E9002209D13B4603E0628B16
:100A1C00013262831B68002BF9D141F00201218362
:100A2C00204603F075FA00287AD041F0200176E0D8
:100A3C00042B0AD121F0070189B22183204603F04F
:100A4C0067FA10B141F020012183218B01F0070AD4
:100A5C00AA454FD00027B946AAE7236921F0070120
:100A6C0041F00601062DD3F8009021832DD1B9F168
:100A7C00000F3FD041F00801218388F31188BFF3A8
:100A8C006F8F3A492046C84729E021F007012369B6
:100A9C0041F0040189B2042DD3F804902183E6D0EF
:100AAC0000273E464FF0040A82E721F00701236934
:100ABC0041F0050189B2052DD3F808902183D6D0D9
:100ACC0000273E464FF0050A72E700273E464FF0DE
:100ADC00060A6DE72B4687E7B9F1000FD1D1EFF38A
:100AEC001188202383F31288BFF36F8F238B23F09D
:100AFC0008032383258BEA062ED525F010032383C8
:100B0C0005F007056669218B002EBFF670AF002338
:100B1C002768C4E9003321F0070141F0010121836A
:100B2C00218B01F0070AAA454FF000097FF440AF72
:100B3C00002F9CD041F00801218388F31188BFF36A
:100B4C006F8F002FC8D03D68394633465246204639
:100B5C0003F00AFA2F46F4E7AB067FF51BAF25F03E
:100B6C002003238305F0070500E700BFA13F000029
:100B7C00014B036000207047D857000008B50448AB
:100B8C0003F0B9F9BDE80840024803F0B4B900BF5E
:100B9C006E590000A359000008B50348034A002110
:100BAC00121A03F08DFA08BDA00500208C1100204C
:100BBC000748084A084908B5121A03F083FA07488F
:100BCC00074A0849BDE80840121A03F07BBA00BF77
:100BDC00C00400209C050020805E0000B8040020AA
:100BEC00C0040020785E000038B505460C4699B16B
:100BFC00D1E901230F48096803F07DF9D4E90423F6
:100C0C00E1680D4803F077F9E1690C4803F073F9DA
:100C1C00A1690B4803F06FF9012D05D1EFF30581A4
:100C2C000848103903F067F921462846BDE83840DA
:100C3C0001F0F2BED1590000015A0000315A0000F7
:100C4C00415A0000705A000030BFFFF7FDBF00BFD3
:100C5C002DE9F0410B4EDFF8308006EB0807CC1B7A
:100C6C00054632460949204604F0AEFBA01942461F
:100C7C000021083C04F0B6FBC5F8A44007F10800BD
:100C8C00BDE8F0810000000004000000CC5700001B
:100C9C00054B5A699B689A421FBF044A536843F03C
:100CAC0080535360704700BFD408002000ED00E073
:100CBC002DE9F843324D804632488946174603F0F9
:100CCC001AF9AB6ADE0622D52F4803F014F9112469
:100CDC00AB6A1D0703D52D4803F00DF91224284DDE
:100CEC00AB6A980715D52A4803F005F96E6BAB6A09
:100CFC00190642D52748314603F0FDF8B9F1000F2B
:100D0C0003D0AB6A23F08003AB62132403E01024FE
:100D1C00DEE76FF015061A4DAB6ADA0703D51E48ED
:100D2C0003F0E9F81424AB6A9B0603D51B4803F0C7
:100D3C00E2F81524124B9A6AD50602D49A6A9007E7
:100D4C000AD55B68190507D54146304600F0F6FA1E
:100D5C0010B180F309880224094B9A6A920642BFAB
:100D6C005A6A22F400525A629A6A42F0FF029A625C
:100D7C0000233B702046BDE8F8836FF01506C4E7EE
:100D8C0000ED00E0845A00009B5A0000CF5A00008E
:100D9C00E35A0000FC5A0000135B0000335B0000B8
:100DAC0010B51D4C1D4803F0A6F8A36A990130D567
:100DBC001B4803F0A0F81E20A36ADA0103D51948DA
:100DCC0003F099F81F20144CA36A1B0303D5164893
:100DDC0003F091F82120A36A590303D5134803F0BB
:100DEC008AF822200C4CA36A9A0303D5104803F00E
:100DFC0082F82320A36ADB0303D50E4803F07BF8AB
:100E0C002420054A936A6FEA03436FEA1343936203
:100E1C0010BD1D20D0E700BF00ED00E0635B0000BB
:100E2C007C5B0000905B0000AB5B0000CA5B0000C9
:100E3C00F05B00000B5C000070B5244C06462448A7
:100E4C000D4603F058F8A36AD90435D5214803F0B0
:100E5C0052F81720A36A1A0503D51F4803F04BF864
:100E6C0018201A4CA36A9B050FD51C4803F043F8B5
:100E7C00A16BA36A180407D5194803F03CF81EB1FE
:100E8C00A36A23F40043A3621920104CA36A5905EA
:100E9C0003D5144803F02FF81A20A36ADA050DD5F0
:100EAC00114803F028F81B20084A936A43F47F4347
:100EBC00936200232B7070BD1620CBE7A36A9B04B2
:100ECC00F2D50A4803F017F81C20EDE700ED00E01E
:100EDC00375C00004E5C0000CF5A0000605C0000E4
:100EEC007A5C0000905C0000AC5C0000335B00009E
:100EFC002DE9F0415B4B5F688AB00446C7F30806E6
:100F0C00002585F31188BFF36F8F02F07F43B3F197
:100F1C007F4F06D102F00C03082B13D1524802F07C
:100F2C00EAFF00252C464FF00008F31E8DF80780D1
:100F3C00092B00F28680DFE803F00A7A7E7684843F
:100F4C008484848210074CBF0C460125EBE747488C
:100F5C00444E02F0D0FF8DF80780F36A9A0704D54F
:100F6C00434802F0C8FF002330E0F36A002B01DA9B
:100F7C004048F6E7F36A5B00F5D53F4802F0BBFF4B
:100F8C007369A26943F480737361BFF34F8FBFF32E
:100F9C006F8F736932F8022C23F480737361BFF383
:100FAC004F8FBFF36F8F4DF602739A4209D0B36A1D
:100FBC00DBB253B30DF1070201212046FFF778FE97
:100FCC0033E021682D4802F096FF23689DF8072036
:100FDC00C2B902AE04F1200720686168324603C230
:100FEC000834BC421646F7D1099AB5B3C2F30801CE
:100FFC0021B96FEA52226FEA4222099202A91846DD
:10100C00FFF7F2FD0AB0BDE8F081B36A13F47F4F2D
:10101C0005D00DF107010120FFF70EFF05E0B36AC3
:10102C00B3F5803F9FD3FFF7BBFE0346CEE70DF130
:10103C0007020021C1E70DF107010020ECE7104881
:10104C008FE7104B1049114817F4F87FA6F11002E6
:10105C0018BF194602F04FFF85E722F4FF7222F009
:10106C000102CAE700ED00E0F35C00001F5D000028
:10107C00375D0000595D0000685D0000885D000070
:10108C00A55D0000DA5C0000C55C0000CA5D0000D4
:10109C00044B5A6942F010025A615A6922F0080254
:1010AC005A61704700ED00E0EFF30880EFF309811F
:1010BC0001B57246FFF71CFF01BD00BF002080F395
:1010CC001488BFF36F8F114880F3088800201049F3
:1010DC00087001F0CFF800200E490860BFF34F8F65
:1010EC0000F02EF8202080F311880B484FF4046197
:1010FC00401880F30988EFF314800221084380F331
:10110C001488BFF36F8F00F0E9F80000801F0020F7
:10111C008911002094ED00E0C01100200749D1F89E
:10112C0090200023C2F307221846934200DB70473D
:10113C00C1F89830C1F8A0000133F6E700ED00E0EB
:10114C0008B572B6002383F31388FFF7E7FF144B3F
:10115C004FF0FF32C3F88020C3F88420C3F88820F6
:10116C00C3F88C20C3F89020C3F89420C3F89820BF
:10117C00C3F89C20C3F88021C3F88421C3F88821CC
:10118C00C3F88C21C3F89021C3F89421C3F898219B
:10119C00C3F89C2162B6BFF34F8FBFF36F8F08BDAE
:1011AC0000E100E0084B9B6883420BD1EFF3058311
:1011BC0043B1064B5A6842F080525A605A6A22F484
:1011CC0000425A6202F058B8D408002000ED00E04A
:1011DC0015498A684FF030001044EFF3098C80E811
:1011EC00F01F202080F31288BFF36F8F0F4F4FF04A
:1011FC0000664A698A603E60D2F8A4000C4C2060FC
:10120C00D2F8A8000023C2F8A83080F3118804B5E6
:10121C00104600F0FBF8BDE8044002F1300090E805
:10122C00F01F8CF309887047D408002004ED00E00F
:10123C000C0800201EF0040F0CBFEFF30880EFF336
:10124C000980816911F8021C0229FFD001B5724690
:10125C0002F03AFF01BD00BF40B2002807DB044A90
:10126C004109012300F01F00834042F821307047F0
:10127C0000E100E0054B420900F01F0053F822206A
:10128C00012303FA00F01040704700BF00E100E0BA
:10129C0040B20028A8BF00F1604001F10101B8BFC5
:1012AC00064B4FEA4111ACBF00F5614000F00F0056
:1012BC00C9B2B4BF195480F80013704714ED00E0A4
:1012CC00044B054A23F07F039360BFF34F8FBFF3AA
:1012DC006F8F70470000000000ED00E008B5FFF7CD
:1012EC00EFFF074AD2F8883023F47003C2F8883035
:1012FC00FFF752FCFFF75CFC00F05EF801F058FCC5
:10130C0000ED00E042F8203C009B42F81C3C0A49EE
:10131C00019B42F8183C029B42F8143C21F001015D
:10132C004FF0807342F8043C42F8081C0023203A2A
:10133C000265C0F8A83070472D0900000A4A034620
:10134C00906878B113F1160FD0F8940005D0A0F185
:10135C0040029A4205D8834203D2814228BF002022
:10136C0070470020704700BFD408002008B5154610
:10137C000C4A0D4B9060D0F8A4201A600E4600F079
:10138C0045F82C4686F309880020044B98472046E4
:10139C00002100220023024C20470000F9400000ED
:1013AC002D090000D40800200C080020014B10224D
:1013BC001A61704700ED00E0044800232021C21898
:1013CC000133272B82F80013F9D1704700E100E0BC
:1013DC0008B5EFF30583064A103B02EBC30152F844
:1013EC00330049688847BDE80840FFF751BC00BF8F
:1013FC00CC550000024B034A0348012100F078B899
:10140C000000012000000020D8570000D0F89420E4
:10141C00054B403A1A60054A4021C3E901121846AF
:10142C00012100F06FB800BF1008002000000B1560
:10143C00084AC2F898000B6823F01F03034343F0DB
:10144C001003C2F89C308B6843F00103C2F8A03043
:10145C00704700BF00ED00E02DE9F043DFF860803D
:10146C0085B00E461F4604464FF00009B14523DAFD
:10147C006068D8B13FB1411E08421BD11F2819D951
:10148C002368194216D12368019302F052FEA36817
:10149C0003430393D8F89050C5F30725D0B2013D10
:1014AC00A84207D801A9FFF7C3FF421C09F10109A3
:1014BC000C34DBE76FF01502104605B0BDE8F08385
:1014CC0000ED00E0044B0522C3F89420BFF34F8FCE
:1014DC00BFF36F8F704700BF00ED00E0BFF35F8F6D
:1014EC00024B0022C3F89420704700BF00ED00E0CF
:1014FC0010B5034C01232278FFF7AEFF207010BD0E
:10150C006411002008B50B4A00231278FFF7A4FFE2
:10151C0010F1160F07D0084A0021D2F89030C3F30F
:10152C000723984200DB08BDC2F89800C2F8A0104F
:10153C000130F2E76411002000ED00E02DE9F043EA
:10154C00534B544CD3F890302568C3F307239D427A
:10155C0085B000F29A80FFF7C1FF00200C2685426F
:10156C001AD14D4C4D4F25706846FFF701FBDFF843
:10157C002081DFF82C9106460025AE4213D123784A
:10158C0043490020D1F89020C2F30722934276DB26
:10159C00FFF798FF002042E0616806FB0011FFF79F
:1015AC0047FF0130DBE7009800EB05114FEA051C03
:1015BC00CB683B40B3F5000F48D00AD8B3F5001FF9
:1015CC0030D0B3F5800F36D0B3F5801F10D0013575
:1015DC00D3E7B3F1807F42D0B3F1007FF7D150F85D
:1015EC000C3088684A6802F0A4FD40F4802009E0C1
:1015FC0050F80C3088684A6802F09BFD40F0885027
:10160C0040F43020CDE901230390D8F890302078B5
:10161C00C3F30723013B98422AD96FF0150005B09C
:10162C00BDE8F08350F80C3088684A6802F081FD00
:10163C0040EA0900E6E750F80C3088684A6802F086
:10164C0078FD40F0C06040F40030DBE750F80C301F
:10165C0088684A6802F06DFD40F08270D2E750F85D
:10166C000C3088684A6802F064FD40F08870C9E765
:10167C0001A9FFF7DDFE237801332370A7E7C1F83A
:10168C009830C1F8A00001337CE74FF0FF30C6E77B
:10169C0000ED00E0E4570000641100200000F0FFB2
:1016AC000000081108B5024B1B689847002008BDC4
:1016BC001C080020034B044A1860937843F0020383
:1016CC00937070471C080020C404002008B506491C
:1016DC00064821F00701C1F1005202F5803202F0F8
:1016EC00B0FB002008BD00BFC72F00202008002041
:1016FC00044A0123C2F840354FF080420020C2F862
:10170C007835704700E0014048B1054B054A1B682D
:10171C00B3FBF2F35843044B43F0010318477047F3
:10172C006805002040420F00D057000008B504485F
:10173C00044A3F23C0E9002300F0D8FE002008BD76
:10174C002C080020FFFF0F00084B70B5C31A0D4684
:10175C0007499B10044659430648402202F007FDF6
:10176C002B4601462046BDE870401847480800202B
:10177C00B76DDBB66C55000073B50C4C0C4A4023AE
:10178C00041B00930D460B460A49A4106143064600
:10179C00094802F018FD011E05DA30462B4602B04E
:1017AC00BDE87040184702B070BD00BF480800206B
:1017BC003D420000B76DDBB66C5500000022F8B559
:1017CC00012105461046FFF763FD104800F0B6FEF8
:1017DC000446B8B900F0D2FE2F690D49384602F024
:1017EC00E6FB031E09DB01263E642D69084905F161
:1017FC001C0002F0DCFB031E02DA1C462046F8BD7E
:10180C00EE64FBE76FF00404F8E700BF6D1900000D
:10181C00045800001FB500220123CDE90223094A18
:10182C00CDF800D06B46CDF804D002F0FAFC0028BD
:10183C0005DB4FF480420023684601F053FA05B0F3
:10184C005DF804FB4F42000010B5064C23782BB911
:10185C004FF4A57003F099FC01232370BDE81040F0
:10186C0000F044BF6511002010B5EFF31184202364
:10187C0083F31288BFF36F8F074A136823F00201BA
:10188C00DB07116002D4012003F0C7F884F3118840
:10189C00BFF36F8F10BD00BF9808002030B4104B01
:1018AC000C2202FB003301460020D3E90E52986350
:1018BC00EFF31180202484F31288BFF36F8F1C6C1C
:1018CC0004F0C00444F002041C6480F31188BFF3DC
:1018DC006F8F1DB12B46034830BC184730BC704786
:1018EC00480800206C55000010B4EFF3118220233F
:1018FC0083F31288BFF36F8F1748016841F002041D
:10190C000460C80707D482F31188BFF36F8F0120DE
:10191C0010BC03F07AB84FF08041D1F80C04D1F828
:10192C000C14C907EFD5EFF3118083F31288BFF3C2
:10193C006F8F0A490B6C03F0C00343F002030B6476
:10194C0080F31188BFF36F8F82F31188BFF36F8F11
:10195C00002010BCFFF7A2BF980800204808002008
:10196C0010B1012804D07047034B1B6C5B0701D1ED
:10197C00FFF794BF704700BF480800202DE9F041E5
:10198C003849BFF35B8F0746012251E8003F41E81D
:10199C0000200028F9D1BFF35B8F33B932493348AB
:1019AC004B60CB608A6002F015FB7B1E012B2BD8A1
:1019BC00012F07D14FF08043D3F81C3403F00303FD
:1019CC00012B21D003F01EFC0546F8B9284B1B78DF
:1019DC00E3B14FF080430222C3F808230646DFF838
:1019EC0094804FF08044D4F81824D4F81834D203DF
:1019FC0015D503F00303012B01D0012F0FD155B3E3
:101A0C0086F31188BFF36F8FBDE8F081EFF3118679
:101A1C00202383F31288BFF36F8F0125DFE7ADB16D
:101A2C00304602F077FBD4F81835002BDBD1D4F814
:101A3C000421002AD7D0C4F80431D4F8043101238E
:101A4C00C4F81835C8F88031A360CCE700212120F8
:101A5C0003F048FCE7E74FF080430222C3F804236D
:101A6C00D2E700BF4408002034080020640800209E
:101A7C008911002000E100E010B5044C2046FEF76F
:101A8C0031FF2046FFF716FE002010BD9D1A000006
:101A9C0073B5104E8DF807000446032501220DF195
:101AAC000701002000F080FF20B101233370204695
:101ABC0002B070BD3378002BF9D0013D08D003F093
:101ACC00A1FB0028EAD10021422003F00BFCE5E742
:101ADC003570ECE766110020430970B507D10B4B4C
:101AEC00596821B101250C68094E854001B970BDBA
:101AFC008A682A4002D04B68304698471CB123684C
:101B0C0021461C46F2E72346FAE700BF9C0800205A
:101B1C008C55000038B54568A86890B103F0D3F92E
:101B2C00014670B9A86803F0B2F9044658B90246E8
:101B3C000649A86803F09CF9224605210620FFF708
:101B4C00A7FB002038BD6FF00400FBE7E51A00008E
:101B5C002DE9F0435B4E5C4F00EB810140F2FF1529
:101B6C00814202D10020BDE8F083046814F4804F58
:101B7C00C4F3C32CC4F3080340F09080240E16F871
:101B8C000CC0AB4208BF4FF0FF33192C00F2898018
:101B9C00DFE804F00D13191C1F251C878787873677
:101BAC0063878787878787878787667B7E81C2F86D
:101BBC000C355C1C5ED10430D2E7C2F814355C1CC9
:101BCC00F9D000245FE0C2F80835F2E7C2F810350E
:101BDC00F5E75C1CC2F80835EDD0002404E05C1C71
:101BEC00C2F80C35E7D001245FEA531E5CD14FF0EC
:101BFC0001084FF0A04E08FA03F9CEF80C950AE054
:101C0C00C2F80835BCF1000FD9D15C1CD3D000242C
:101C1C00A0464FF0060CD0F8009009F4004EBEF12F
:101C2C00000F1CBF4FF00008012403F01F0E5B09CE
:101C3C0042D14FEA8E0E0EF1A04EC9F34129DEF8C7
:101C4C0000373B4043EA890343EA0C2343EA080389
:101C5C0043EA4403CEF80037ADE7C2F80C35D1E7C0
:101C6C00C2F86035B3F1FF3F0468A4D0C4F300445C
:101C7C00002CB8D05C091BD101244FF0A04E04FA03
:101C8C0003F8CEF80885A046C5E7C2F86435E9E745
:101C9C00C2F86835E6E7C2F86C35E3E76FF015007B
:101CAC0061E76FF085005EE70023C3F80C35FFDEBB
:101CBC000023C3F80835FAE70EF5E07E002353F84D
:101CCC002E30F4E70A5E0000F0F8FCFF2DE9F0413D
:101CDC00044647680D4603F095FA4FF0200888B982
:101CEC00264B1B7873B16426606802F0F9FCF0B9DE
:101CFC00012002F037FE013EF6D10021212003F035
:101D0C00F1FAF0E7EFF31186314688F31288BFF34E
:101D1C006F8F606802F0E4FCA8B986F31188BFF3FA
:101D2C006F8FEFE786F31188BFF36F8FE5E7EFF363
:101D3C001186314688F31288BFF36F8F606802F00A
:101D4C00CFFC0028EED0BB691D706368BA691B68B4
:101D5C000020C3F844250122C3F84825C3F820010C
:101D6C00D3F82041C3F85801D3F858019A6081F395
:101D7C001188BFF36F8FBDE8F08100BF891100207F
:101D8C0070B5012383400E4ABFF35B8FDC4352E8EE
:101D9C00001F01EA040542E80056002EF7D1BFF3FC
:101DAC005B8F4FF4803282400648C0F80823BFF3A3
:101DBC005F8FBFF36F8F0B4214BF0120002070BDEB
:101DCC00B00800200010014070B40E49D1E9003475
:101DDC00D01AC31844F10004C2F30E06C1E9003452
:101DEC00A6F58053B3F5C04F09D2074B1B685A0CAC
:101DFC00DB039C19054B42F10005C3E9004570BC9F
:101E0C0001F03EBCC0050020B4080020C80500202D
:101E1C0011B3BFF35B8F0123104A834052E800CF0C
:101E2C004CEA030C42E800C10029F7D1BFF35B8FE9
:101E3C000B4A4FF480338340C2F80433094BBFF391
:101E4C005B8F1B68BFF35B8FC340DB0742BF064B46
:101E5C004FF40032C3F80021704700BFB0080020D7
:101E6C0000100140A808002000E100E030B5144B40
:101E7C001868410CC003BFF35F8F124BD3F80435C5
:101E8C0047F6FF7293420AD10F4AD2E900458442C9
:101E9C0075EB010209D3C01841F1000130BD1818CF
:101EAC0041F10001B3F5006FF8D2074BD3E90023E1
:101EBC00904271EB0303F1D210F50040ECE700BF48
:101ECC00B408002000100140C80500202DE9F04F97
:101EDC0085B016461F469DF840A00446FFF750FFFC
:101EEC000190FFF7C3FFB04271EB07035CD2301ACD
:101EFC0044F2010367EB0101984271F1000156D2E3
:101F0C003D4B03EB0413D3E902239F4208BF9642D7
:101F1C0065D03A494FF4803804F1500508FA04F8BA
:101F2C00AD002046C1F84883ADB202F0FEFCC6F30A
:101F3C000E0B05F1804504F5A87305F58835584658
:101F4C004FF003090293C0F30E03002B029A08BF53
:101F5C000120C0F30E0341F82230C1F84483D1F8BC
:101F6C0004356FF0020CACEB030C6044C0F30E00B4
:101F7C0043F6FD72904232D9286868B1D1F8043525
:101F8C000393A3EB0B00C0F30E00B0F5804F26D9E2
:101F9C00204602F0CAFC039BBAF1000F07D109EBF3
:101FAC00030009F10109CEE7BAF1000F09D06FF077
:101FBC00150520460199FFF72BFF284605B0BDE813
:101FCC00F08F01230E4ABFF35B8FA34052E8000F42
:101FDC00184342E800010029F8D1BFF35B8F064992
:101FEC000E98230101EB0412C8500F9B5360C2E9F9
:101FFC0002670025DDE700BFA005002000100140AE
:10200C00A808002070B5294C294BC4F80833C4F833
:10201C004833284B284A00254FF0FF304FF0FF3152
:10202C004FF48036C4F80855C3E90201C4F80463C0
:10203C00C3E906014FF4003386B00121C4F8043320
:10204C001120C2F880312A46FFF722F91120FFF740
:10205C0003F91A4B01200322A06020601A60184B70
:10206C00009343F6FF720023CDE90155FFF72EFFD5
:10207C000220FFF783FC134A13491368134823F01B
:10208C000103136047F6FF73C4F844630DF11702A4
:10209C00C4F8403502F0A3FC002804DB9DF81700BF
:1020AC0000F038FA284606B070BD00BF00100140A1
:1020BC0001000F00A005002000E100E0B0080020A6
:1020CC00D51D0000AC080020081001404011014053
:1020DC002DE9F743374CD4F80433D90319D54023F1
:1020EC000022990810290CD1D4F84031002B41D092
:1020FC000023C4F84031D4F840314FF480324423EB
:10210C00EFE70433502BECD11AB12B4A136801338F
:10211C001360D4F804339A0329D5BFF35B8F274B94
:10212C0053E8002F22F0020143E800100028F7D1F9
:10213C00BFF35B8F930702D4D4F84431BBB10025B5
:10214C00C4F84451D4F84431FFF790FEEFF31182F8
:10215C00202383F31288BFF36F8F194BD3E90667E3
:10216C00B042B94108D282F31188BFF36F8F03B02C
:10217C00BDE8F0834423B4E74FF0FF384FF0FF394C
:10218C00C3E90689D3E904101D614FF40033C4F888
:10219C004833C4F84451D4F8443182F31188BFF366
:1021AC006F8F0029E3D0009032463B4601208847D0
:1021BC00DDE700BF00100140B4080020A808002093
:1021CC00A005002030B5431C85B043F6FF7223D028
:1021DC009042A8BF104601280446B8BF0124FFF75F
:1021EC0045FE0F4BD3E90013401AB0F5804F43F670
:1021FC00FF7513D22218AA4228BF2A4652184FF054
:10220C00000008490091CDE9010043F100030120D1
:10221C00FFF75CFE05B030BD1446E0E72A46EDE75B
:10222C00C0050020D51D000008B5FFF71FFE024BAE
:10223C001B68C01A08BD00BFC00500204FF07043DA
:10224C0093F8E02F062A09D1D3F8E83FC3F3031320
:10225C00033B042B02D8024AD05C70470020704725
:10226C002F5E0000024AD2F80034002BFBD07047DE
:10227C0000E0014010B502F064FB40B14FF0805318
:10228C008E4AD3F82433C3F30423C2F84035FFF746
:10229C00D5FF10B18A4B8B4A5A6702F052FB48B1FA
:1022AC004FF080534FF08042D3F84432C3F34233A3
:1022BC00C2F83C35FFF7C2FF30B1834AD2F8FC308C
:1022CC0023F08073C2F8FC3002F03BFB40B14FF0BE
:1022DC0080430022C3F80C21C3F81021C3F8382521
:1022EC00FFF7ACFF20B14FF080430322C3F8A025C9
:1022FC00FFF7A4FF60B1754B0522C3F8102601222D
:10230C00C3F888260022C3F818263F22C3F81426E7
:10231C004FF08053D3F83021511C09BF4FF070435C
:10232C00D3F8343193F8E02FD3F8E83F08BFC3F368
:10233C000313062A4DD1033B042B03D8644AD35C08
:10234C00002B46D04FF08052624BD2F80414C3F8E5
:10235C002015D2F80814C3F82415D2F80C14C3F8BD
:10236C002815D2F81014C3F82C15D2F81414C3F88D
:10237C003015D2F81814C3F83415D2F81C14C3F85D
:10238C004015D2F82014C3F84415D2F82414C3F81D
:10239C004815D2F82814C3F84C15D2F82C14C3F8ED
:1023AC005015D2F83014C3F85415D2F83414C3F8BD
:1023BC006015D2F83814C3F86415D2F83C14C3F87D
:1023CC006815D2F84014C3F86C15D2F84424C3F83D
:1023DC00702502F0B6FA48B14FF080534FF08042AE
:1023EC00D3F8583203F04F03C2F8E43E02F0A9FAD6
:1023FC0048B14FF08043D3F80024D20744BF6FF0AC
:10240C000102C3F800244FF08053D3F83021062A80
:10241C0026D1D3F83431033B042B02D82E4AD35C9B
:10242C0063B12E4AD2F83C3743F48063C2F83C3790
:10243C004FF08053D3F83031062B11D14FF080532D
:10244C00D3F83431033B042B02D8254AD35C3BB17F
:10245C004FF01023D3F808224FF08043C3F85825CF
:10246C004FF01023D3F80022002A03DBD3F80432F8
:10247C00002B22DA1B4901234FF01020C1F8043540
:10248C001524FFF7EFFEC0F80042FFF7EBFEC0F893
:10249C000442FFF7E7FE0023C1F80435FFF7E2FE24
:1024AC00BFF34F8F0849104BCA6802F4E062134324
:1024BC00CB60BFF34F8F00BFFDE710BD0030014074
:1024CC0000C007400DF0ADBA00ED00E00050004038
:1024DC002A5E000000C00040255E00000010004095
:1024EC00205E000000E001400400FA05014B18607A
:1024FC00704700BFB808002010B5054B186814468B
:10250C0002F032FA0028A4BF2070002010BD00BFDA
:10251C00B8080020024A01238340C2F804357047F2
:10252C0000F00140014B00201B681847BC0800203C
:10253C00014B1B68184700BFBC08002010B50C4CA1
:10254C00237993B9012323710A4B2060002818BF0B
:10255C00184600F069F850B923680748002BBDE80D
:10256C00104008BF184600F0AFB86FF0770010BDF0
:10257C00BC080020312500003D25000008B5064BA5
:10258C001B683BB10020FEF775FE18B9BDE808408A
:10259C00FEF762BE08BD00BFBC0800204FF08053A0
:1025AC00D3F83021511C09BF4FF07043D3F83431AC
:1025BC0093F8E02FD3F8E83F08BFC3F30313062AC0
:1025CC0005D1033B042B04D8034AD05C7047002090
:1025DC0070470120704700BF345E000038B54FF0E3
:1025EC0080440123C4F8083363600023C4F800312D
:1025FC00D4F8003142F21075D4F80C24D4F80C3411
:10260C00D20307D5DB0705D5012002F0ABF9013D5C
:10261C00F2D138BDFFF7C2FF0028FAD0014B0022DF
:10262C005A71F6E7C408002038B5084C25794DB925
:10263C00012320602371FFF7B1FF08B9002038BDDA
:10264C006571FBE76FF07700F9E700BFC408002065
:10265C004FF080430022C3F80021D3F80021094930
:10266C0001221A60096811B1C3F804237047D3F82A
:10267C000021002AFBD00022C3F80021D3F800313E
:10268C00704700BFC408002010B54FF08043D3F84A
:10269C000423D20715D5D3F8002192B10022C3F838
:1026AC0000210124D3F80021C3F80843FFF776FF7B
:1026BC00044B10B15A7922B95C71BDE810401B680B
:1026CC00184710BDC4080020074A137943B90121EB
:1026DC00106011714FF080421846C2F818357047DF
:1026EC006FF07700704700BFCC08002010B54FF09A
:1026FC0080432C4CD3F81814D3F8182411F4803FD1
:10270C0037D002F00303012B03D00BB102F096F982
:10271C0000234FF08042C2F818350023C2F8043170
:10272C00D2F804314FF08053D3F83021511C09BF3B
:10273C004FF07043D3F8343193F8E02FD3F8E83FDF
:10274C0008BFC3F30313062A08D1033B042B02D89A
:10275C00154AD35C13B18A2002F004F94FF0804380
:10276C0001229A60226872B9D3F80421002AFBD0A6
:10277C0011E0D3F81424D207CAD5D3F81C2490073F
:10278C00C4D422681AB10222C3F8042310BDD3F8B2
:10279C000421002AFBD00022C3F80421D3F8043111
:1027AC00F4E700BFCC080020395E0000F8B54FF00C
:1027BC008043194FD3F80443012504F01A04002672
:1027CC0004B9F8BDB4FA84F0C0F11F00830003F51E
:1027DC0080739BB203F1804305FA00F2196824EA76
:1027EC0002040029ECD01E601B684FF080430128C6
:1027FC00C3F808230CD1D3F81824D3F81824920763
:10280C0006D10222C3F81805C3F804239860D7E751
:10281C003B68C0B29847D3E7CC0800204FF08053F8
:10282C00D3F83021511C09BF4FF07043D3F8343129
:10283C0093F8E02FD3F8E83F08BFC3F30313062A3D
:10284C0005D1033B042B04D8034AD05C704700200D
:10285C0070470120704700BF3E5E000073B5CEB2DA
:10286C0000EB46060446B38ADB070D4625D502F07D
:10287C00E0F9B38A9A0608D55A0B236803EB820356
:10288C000022C3F81025C3F8102520462946002441
:10289C0002F06EF9B48201A8019502F0EAF8019BEE
:1028AC0000EB8300064BD0F80027134043F00203E3
:1028BC00C0F80037204602B070BD6FF01500FAE783
:1028CC00F0F8FCFF014802F06DB800BF6C05002069
:1028DC0010B504480C4602F047F80028A4BF20703D
:1028EC00002010BD6C05002008B5144BA822002157
:1028FC00184602F077FD0322026111494261114A28
:10290C008161C2614FF48062026200228262426283
:10291C00C26201660C49416610218166034602675A
:10292C00C2664267BFF35F8F084911F8010D9854D6
:10293C000132102AF9D1BFF35F8F08BD10040020BB
:10294C00435E000010000020000000205C5E0000D0
:10295C00F8B5144B182700FB07751D4407FB003313
:10296C000E46DB6A012B14460AD0022B14D023B975
:10297C00284602F0B2FB844208D900242046F8BD58
:10298C00284602F0AAFB844228BF04462246314660
:10299C00284602F0ABFBF1E72846BDE8F84002F010
:1029AC00C2BB00BF10040020F8B50B4B1B78532B97
:1029BC0004460D46164601D0FFF796FFEFF311873C
:1029CC004FF0200181F31188324629462046FFF74B
:1029DC00BFFF87F31188F8BD1004002010B4BFF3BB
:1029EC005F8F0B4A0B490023C85C12F8014D8442DF
:1029FC0009D10133102BF7D10023BFF35F8F23B123
:102A0C0010BCFFF771BF0123F7E710BC704700BF84
:102A1C005C5E00001004002038B5EFF31185202314
:102A2C0083F31288BFF36F8F064B9C6802F0DCFBBC
:102A3C0085F31188BFF36F8F2046BDE83840FEF751
:102A4C00B1BB00BFD408002038B50A4B53F8204066
:102A5C00013053F82050A54200D838BD606830B121
:102A6C00037FDB0701D402F094FB0834F3E72368FF
:102A7C009847FAE78058000070B52A4B2A4C2B4D2A
:102A8C00012286B003201A70FFF7DEFFFEF776F8FE
:102A9C000420FFF7D9FF2646AE4204F1300410D3D0
:102AAC0000F0F0FA204C224EAC4226D300F0FEFA95
:102ABC00FDF7DAFE1F4A137B23F00103137306B0F4
:102ACC0070BD54F80C3C059354F8103C049354F826
:102ADC00143C039354F8183C029354F81C3C019397
:102AEC0054F8203C009354E90A2354E90C0100F0FB
:102AFC001FF954F8303C5E65CDE7D4E90A23B3F1F5
:102B0C00FF3F08BFB2F1FF3F05D052EA0301206836
:102B1C0003D100F087FB3034C6E73146183000F0A3
:102B2C001FFDF8E78911002004570000045700002E
:102B3C00E95200008006002070B5174E174D184959
:102B4C0086B0B02303FB0066164B059301220F23BE
:102B5C00CDE903320023CDE90133142303FB0055E7
:102B6C0004464FF4C07000FB04110F4B00954FF45A
:102B7C00A072304600F0DCF8737B0C4AEE6023F058
:102B8C00040373734FF4046304FB033313442C7476
:102B9C006B6006B070BD00BFD0050020D4080020CB
:102BAC00001A00205D5E0000FB510000C0110020E7
:102BBC00BFB50020FFF748FF284B83F30888284C4B
:102BCC00284F636943F4007363610025E02384F8A4
:102BDC002230E57725766576A57684F82050636AF1
:102BEC0043F4E023636284F82350FEF751FAFEF7B6
:102BFC00DDFB4FF0FF33A362E362FEF79FFCFEF7B1
:102C0C00F9FB1948194C00F009F90120FFF71CFFDA
:102C1C000220FFF719FF00F07DFA154B15495C6196
:102C2C00154B05930123CDE903534FF480623B46CA
:102C3C00CDE901550095204600F07AF8627B0646F6
:102C4C0022F004022046627302F01CFB2846FFF7B8
:102C5C0073FF3A4631462046FEF788FB001A0020E7
:102C6C0000ED00E0852A00003007002080060020DF
:102C7C00D4080020801B0020625E000070B5EFF3CA
:102C8C001186202383F31288BFF36F8F0468A04250
:102C9C001BD0D4B1D4E9003213605A60637B002599
:102CAC0023F002036373C4E90055A56004F1180016
:102CBC0002F056FB2046C4F8AC5002F0E3FA314661
:102CCC000748BDE8704000F0B7B9D0E902329A422B
:102CDC0018BF0133836086F31188BFF36F8F70BD0B
:102CEC008A11002013B5EFF31181202484F312888C
:102CFC00BFF36F8F846844B1013C846081F3118809
:102D0C00BFF36F8F002002B010BD52EA030406D14E
:102D1C0081F31188BFF36F8F6FF00F00F3E7CDE9EC
:102D2C0000230246014800F065F9ECE78A11002007
:102D3C002DE9F04F073285B022F0070204461E46FB
:102D4C007F3200F15803C0E9163322F03F02129B88
:102D5C00237300200D46119BDDF838A0139FA06053
:102D6C0004213F2AC4E906006173A373E07305F1E3
:102D7C004009A2F1400B05D880F31188BFF36F8F87
:102D8C00084602DF05EB020841462046FDF760FFCE
:102D9C000730109B20F00700C4E9259BC4F89C0069
:102DAC0002930F9BA8EB000BCDE900A35A463346C8
:102DBC0029462046FEF7A6FA0F9BA3664FF00008A3
:102DCC00109BC4F85480C4E9186AE366EFF31182CF
:102DDC00202181F31288BFF36F8F0F4D296A216771
:102DEC002C6282F31188BFF36F8F8FB11F2239468B
:102DFC0004F1740002F00EFB84F89380AB680BB105
:102E0C00D3F8A030C4F8A030584605B0BDE8F08F18
:102E1C0084F87470F2E700BFD408002040F201136C
:102E2C0010B583810023C0E92533044600F0A0FCD3
:102E3C00014B9C6010BD00BFD40800200A4A936867
:102E4C006FF00A01C3F8AC100849C3F8A8004B682E
:102E5C0043F080534B60002383F31188BFF36F8FD3
:102E6C009368D3F8AC007047D408002000ED00E064
:102E7C0070B590F90D20437B002A36DBD90634D18E
:102E8C001B4C63F07F032246437352F8183FE169F1
:102E9C00934207D1C0E900210860E06111E099423A
:102EAC00F8D01B68002BF5D090F90E5093F90E60FA
:102EBC00B542F4D0AE42F2DD5968C0E90031086089
:102ECC005860A569954200D005B9E568A3685A7B9E
:102EDC00D20604D1DA897F2A01D9AA6932B1AB4270
:102EEC0002D0284600F098FA656170BD6361FCE77A
:102EFC00D408002038B590F90D20437B002A0146F8
:102F0C0004DA03F07F03437302F082F90D4D2A4675
:102F1C00AB6852F8184F944200D004B9EC688B425D
:102F2C0007D05A7BD20604D1DA897F2A01D9A2694B
:102F3C002AB1A34202D0204600F06EFA23466B6100
:102F4C0038BD00BFD4080020B3F1FF3F08BFB2F179
:102F5C00FF3F03D00249183000F002BB704700BF9E
:102F6C00E952000070B590F90D20437B002A014610
:102F7C0004DA03F07F03437302F04AF94B7B1C4CD9
:102F8C0063F07F0322464B7352F8183FE06993427B
:102F9C0007D1C1E900200160E16111E09842F8D04D
:102FAC001B68002BF5D091F90E5093F90E60B542C9
:102FBC00F4D0AE42F2DD5868C1E9003001605960CE
:102FCC00A569A368954200D005B9E5688B4207D086
:102FDC005A7BD20604D1DA897F2A01D9AA692AB18F
:102FEC00AB4202D0284600F017FA2B46636170BD45
:102FFC00D4080020F8B50E4B0C4611460D4A9868C3
:10300C001060DDE90667EFF31182202282F312884B
:10301C00BFF36F8F9D68284602F00CF928463246A4
:10302C003B46FFF791FF2046BDE8F840FFF706BF8F
:10303C00D4080020F808002049B9EFF3058030B916
:10304C00054B5A699B689A4201D0FFF7F7BE81F392
:10305C001188BFF36F8F7047D4080020034648B91E
:10306C00EFF3058232B9064A51699268914201D058
:10307C00FFF7E4BE83F31188BFF36F8F704700BF77
:10308C00D4080020EFF31181202383F31288BFF3BF
:10309C006F8F054B9A68D37B013BD37381F31188F7
:1030AC00BFF36F8F704700BFD408002070B5EFF3EB
:1030BC001186202383F31288BFF36F8F144DAB68F6
:1030CC00DA7B0132DA732A4652F8184F944200D058
:1030DC0004B9EC685A7BD20604D1DA897F2A01D96B
:1030EC00A2692AB1A34202D0204600F095F92346EA
:1030FC006B6186F31188BFF36F8FEFF31180202380
:10310C0083F31288BFF36F8FBDE87040FFF7A6BF43
:10311C00D4080020024B03F11802C3E906227047C1
:10312C00D408002070B5EFF31186202383F31288A6
:10313C00BFF36F8F1B4CA168E0690B68814214BF11
:10314C001A46002249680B605960A368E1692AB9E4
:10315C00154AC3E900210B60E3610CE093F90E0002
:10316C0092F90E50A84218D0854216DD5168C3E979
:10317C0000210B605360A5690B4B9D4200D005B933
:10318C00E568A3689D4202D0284600F045F96561C8
:10319C003046BDE87040FFF751BE8A42D8D0126865
:1031AC00D5E700BFD4080020EC080020F8B550EAA1
:1031BC00010306460C4603D1FFF7B4FF0020F8BD0F
:1031CC00EFF31187202383F31288BFF36F8F124D17
:1031DC00124BA8681860FFF78DFEA86810492346AB
:1031EC003246183000F0BCF9AA68537B43F0040354
:1031FC00537304463846FFF721FEAB68D3E90A2324
:10320C00B3F1004F08BF002AD8D102F0D1F8201A30
:10321C0020EAE070D3E700BFD4080020F8080020B3
:10322C00E952000038B50446EFF31185202383F3EF
:10323C001288BFF36F8F437B5B070FD5183002F0FA
:10324C008FF8637B23F0040320466373FFF710FEB3
:10325C0029460548BDE83840FFF7EEBE85F31188D6
:10326C00BFF36F8F38BD00BF8A110020014B9868E7
:10327C00704700BFD40800202DE9F8430446077BB3
:10328C00EFF31185202383F31288BFF36F8F437BF9
:10329C00190705D585F31188BFF36F8FBDE8F88347
:1032AC00D90943F0080260D14273A36813B12046D8
:1032BC0001F0B6FF04F1180002F052F8A66D04F10B
:1032CC005808B04511D04FF0000976B1304601F0E6
:1032DC00A7FF06F1180002F043F8C6F8AC90304690
:1032EC00FFF7C6FDA66DB045EFD1DFF8C480D8F866
:1032FC0008309C4241D1EFF30589B9F1000918BFA0
:10330C004FF00109D8F818602A4A964200D00EB93D
:10331C00D8F80C60B34202D0304600F07DF820465D
:10332C00C8F8146000F0DFFE204600F0CDF8B9F1CB
:10333C00000F02D02048FFF771FDD8F808309C42EE
:10334C0031D1EFF3058373BB227BD20718D4284607
:10335C00FFF774FDFB07A1D5002383F31188BFF39E
:10336C006F8F0423184602DF98E703F07F0343F0C6
:10337C000803437301F04CFF97E74FF00009C1E7D6
:10338C0085F31188BFF36F8F83F31188BFF36F8FB1
:10339C000423184602DFEFF31180202383F31288F5
:1033AC00BFF36F8FD4E785F31188BFF36F8FD1E72D
:1033BC00D4080020EC08002030070020044BC01A71
:1033CC00044BC0105843044B01221A54704700BFE1
:1033DC00E0070020ABAAAAAA8A110020C3897F2B80
:1033EC0012D80A4B1B6863B1094B90F90E201B686D
:1033FC009A4209DB437BDB0606D1064BC31A18BF86
:10340C00012303F0010070470023FAE77005002048
:10341C00FC080020D005002070B50E4B0E4C1E7C15
:10342C0006EB460304EBC3040546204601F098FF67
:10343C000A4B002228469A55FFF7D0FF48B1084B9B
:10344C0008491A68013A2046D317BDE8704000F0CD
:10345C0087B870BDD4080020E00700208A11002036
:10346C0070050020C933000038B5EFF31185202317
:10347C0083F31288BFF36F8F104B114A9C6810684E
:10348C00A04206D1FFF7C8FF85F31188BFF36F8FF9
:10349C0038BD00211B7C11600A4AD35C002BF3D091
:1034AC002046FFF79BFF0028EED0637BDB0602D1A2
:1034BC002046FFF757FD2046E4E700BFD408002064
:1034CC00F80800208A110020EFF31181202383F3E8
:1034DC001288BFF36F8F0A4A136A834207D11B6F9E
:1034EC00136281F31188BFF36F8F70471346002B63
:1034FC00F7D01A6F8242F9D1026F1A67F1E700BF59
:10350C00D4080020024B1868984208BF002070476E
:10351C0074050020034B1B680BB9FEF785BE002019
:10352C00704700BF0009002030B570B10B4B5B68D1
:10353C0098420AD0036843B1D3E90421D0E9044589
:10354C00121941EB0501C3E90421D0E900321360E3
:10355C005A600023C0E9003330BD00BF7405002061
:10356C00B3F1FF3F08BFB2F1FF3F2DE9F84F04461E
:10357C00994615461F467AD08160EFF311882023B7
:10358C0083F31288BFF36F8FB9F1000FDFF8E4A05B
:10359C0020DBFFF7BFFFDAE90027013549F100090D
:1035AC002D1849EBE073C4E90453AD18064643EB00
:1035BC0007074FF00109FFF7A5FFDFF8BCE0DEF8C5
:1035CC0004A00346EBB9C4E900EACAF80040CEF8FF
:1035DC00044028E0DAE900126FF001035B1A4FF0A7
:1035EC00FF3161EB02025B1B62EB0902012B72F1F2
:1035FC000001BCBF01230022C0E904324FF00009D6
:10360C00D9E7D3E9041CD4E904208A4270EB0C0BF3
:10361C0024DA891A5A686CEB0000C3E90410C4E977
:10362C00003214605C60FFF76DFF84420ED1134BC7
:10363C001B685BB9B9F1000F02D1FFF76BFF0646AF
:10364C00304601F076FE0021FEF7BCFD88F31188B0
:10365C00BFF36F8F28463946BDE8F88F521A60EBDE
:10366C000C009A45C4E90420ADD01B68AAE70025DC
:10367C002F46EFE7F8070020740500200009002012
:10368C002DE9F047EFF31185202383F31288BFF364
:10369C006F8FDFF8A490DFF8A480C9F80000FFF763
:1036AC0031FF00260027D9F80030D8E900ECD917F3
:1036BC0050B1D0E90442A34271EB020A1CDAE41ABD
:1036CC0062EB0102C0E9044213EB0E034FF000045D
:1036DC004CEB01012046C8E90031C9F8004001F06B
:1036EC0028FE2146FEF76EFD85F31188BFF36F8F20
:1036FC00BDE8F047FFF7B8BE14EB0E024CEBE473D9
:10370C00C0E90467C8E90023FFF70EFF85F31188B1
:10371C00BFF36F8F83689847EFF31185202383F3F2
:10372C001288BFF36F8FD9F800301B1BC9F800301B
:10373C00FFF7E8FEB7E700BF00090020F8070020FC
:10374C0010B5EFF31184202383F31288BFF36F8F2E
:10375C00FFF7E0FE054A0346D2E90001181841EBD9
:10376C00E37184F31188BFF36F8F10BDF80700204D
:10377C00014BC0F8A03070478805002038B5064CC6
:10378C00064DAC4201D3002038BDD4E901122046CD
:10379C0001F012FE1434F4E7880500209C0500208B
:1037AC002DE9F04F8DB043680293837815469A0744
:1037BC00804640F10D8100240E78002E00F00A8125
:1037CC00252E0BD04B1C03930134029B41463046F3
:1037DC0098470028C0F2F6800399EDE74E788B1CD1
:1037EC00252E0393F0D00027B946BB46BBF11F0F23
:1037FC0038D8A6F12003102B0AD8DFE803F02A09E9
:10380C0009300909092109090928092D09091F008D
:10381C00A6F13003092B33D92A2E37D11BF0400FD8
:10382C0055F8043B40F08280002BA7BF4BF0200BD7
:10383C009946C3F100094BF0280B01E04BF0010B4A
:10384C00039B13F8016B0393002ECFD130E04BF0A8
:10385C00020B4BF0040BF3E74BF0080BF0E74BF0CB
:10386C00100BEDE7BBF17F0F19D8A6F13003092B34
:10387C00D2D81BF0400F03D00A2101FB0737DFE73A
:10388C000A2101FB09394BF0200BD9E72E2E06D16A
:10389C001BF0400F40F09E804BF0400BD0E76C2E9D
:1038AC0031D02BD8682E36D06A2E3CD04C2E3AD044
:1038BC00002F46F02003B8BF2BF04002A3F16501A6
:1038CC00BCBF1FFA82FB0027022901D9612B2FD123
:1038DC00073525F00705DFF8ACA2083507271BF0E4
:1038EC00080F66D00AEB070B56465E4563D1A4EB76
:1038FC000A0A06EB0A02A9EB07096FE1742E9FD0A6
:10390C007A2E9DD0D4E71BF0800F18BF4BF4007BB0
:10391C004BF0800B94E71BF4807F18BF4BF4007BBB
:10392C004BF4807B8CE74BF4207B89E71F4687E7C1
:10393C00A6F16301122900F2F080DFE811F0130008
:10394C004F00EE00EE00EE00EE004F00EE00EE0039
:10395C00EE00EE00EE00FE00E900EE00EE001B00B3
:10396C00EE00AF0055F8043B8DF8183001270DF12F
:10397C00180AB4E755F804AB834BBAF1000F08BF33
:10398C009A461BF0400F14BF39464FF0FF3150469A
:10399C0001F050FD0746A2E7029B414620209847C4
:1039AC0000280FDB013EB742F6D34C44A41BB146B2
:1039BC0098E74E46F7E716F8010B029B41469847ED
:1039CC00002892DA98F8023043F0040388F80230A9
:1039DC004FF0FF3420460DB0BDE8F08F1BF0800F88
:1039EC0034D01BF4007F2CD0073525F00705AA46F0
:1039FC0069685AF8080B2BF010050029ADB237DABC
:103A0C00404261EB410145F480650DF1180B0A232E
:103A1C005A4601F01BFDA0EB0B0301936B0662D51C
:103A2C00019B25F001019F4289B240F3A180002E39
:103A3C0000F0998015F0100240F09C80BB460D46BA
:103A4C0023E0AA465AF8040BC117D4E7AA461BF484
:103A5C00807F5AF8041B01D10846F5E71BF4007F60
:103A6C0015BF48B208B241F3C01141F3C031C2E7EF
:103A7C0050EA0103C9D11BF0400FC6D0002FC4D1AE
:103A8C002BF0110295B2BB46019740F2064115EAA4
:103A9C0001021CBF0BF1010B00222CE02BF01002D9
:103AAC001FFA82FB0A231BF0800C49D01BF4007117
:103ABC001DBF073525F00705AA46AA461ABF5AF8B6
:103ACC00080B69685AF8040B50EA010545D12BF034
:103ADC0016051BF0400FADB242D0002F40D12BF099
:103AEC00170295B2019715F0100248D0019B002ED9
:103AFC0042D103F1010B29075AD4EB0706D5D9455E
:103B0C006FDD0199A9EB0B035F18CB465B4649E0CF
:103B1C004BF0100B10237826C5E7782B04D1C6F197
:103B2C00780343F01003BEE7029B414625209847DB
:103B3C000028FFF647AF023447E608230026B2E719
:103B4C00AA461BF480715AF8040BBDD01BF400710B
:103B5C001ABFC0B2614680B2B6E72BF0060295B22E
:103B6C000DF1180B54E725F01105ADB2BB468CE7EF
:103B7C000D46B8E73B460D4603F1020BBBE7DDF8FB
:103B8C0004B082E76E5E0000675E0000CDE904328F
:103B9C004146029B202098470028FFF613AF049B58
:103BAC00059A01339945F1DCA4EB0B01CC189B462B
:103BBC000AB3029B4146302098470028FFF602AF1B
:103BCC008EB901342744019B391B994224DC1D46D4
:103BDC005DBB019AA9EB0B0922445546144691444E
:103BEC0035E0019F92E7023441463046029B9847EC
:103BFC000028E7DAE6E640F206410D42E2D015F085
:103C0C00020F14BF2B20202015F4806F04F1010447
:103C1C00414618BF2D20E9E7029B414630209847CA
:103C2C00002804F10104CEDACCE606AB013D414696
:103C3C00585D029B98470028CADAC3E6029B4146AE
:103C4C0020209847002804F10104FFF6BBAEA9EB35
:103C5C000403002BF2DCBFE5704710B543180020BD
:103C6C008A4201D880B210BD13F8014B01312044B7
:103C7C0089B2F5E713B50A23009300231A46D42121
:103C8C000446FCF705FD204602B010BD1FB50A2303
:103C9C008DF80F1000930DF10F020123D221044671
:103CAC00FCF7F6FC204604B010BD7FB59DF82060F3
:103CBC009DF824508DF80A2049BA9B000446ADF8B3
:103CCC0008109DF82800DBB20EB143F008030DB9C3
:103CDC0043F0100308B943F020038DF80C30002298
:103CEC0041F288338DF80B2000932046052302AA5D
:103CFC003121FCF7CDFC204604B070BD1FB59B00F4
:103D0C008DF808108DF80A20110A8DF80C3000225D
:103D1C004FF47A738DF809108DF80B20009302AADA
:103D2C00052332210446FCF7B3FC204604B010BD39
:103D3C00836800EBC101B3F5004F2CBF51F8220092
:103D4C0031F81200704700EBC1018068B0F5004FEC
:103D5C002CBF41F8223021F81230704708B50122EF
:103D6C00FFF7E6FFD04008BD8368B3F5004F00EBCA
:103D7C00C10108D34B681AB143F001034B60704783
:103D8C0023F00103FAE74B881AB143F001034B808F
:103D9C00704723F00103FAE753000122FFF7D3BF6A
:103DAC008368B3F5004F34BF04230823481C083341
:103DBC00A0EBD300B0FA80F0C0F11F0070472DE9E2
:103DCC00F0410D4686680446FFF7C8FFB6F5004F74
:103DDC00014601D3012832D02046FFF7E1FF04EB66
:103DEC0080010E6996B9E368012282401343E360B7
:103DFC0002220D612B4629462046FFF7A4FF032221
:103E0C0029462046BDE8F041FFF79DBF022231460E
:103E1C002046FFF78DFF2946034607462046FFF74D
:103E2C0092FF0322334629462046FFF78CFF394682
:103E3C002B462046FFF787FF02223146E1E7BDE81B
:103E4C00F081B2F5802F2CBF08230423D21A2DE960
:103E5C00F0418C18CD1D25F0070524F00704641BD8
:103E6C000026E40805602146AC60EE602846FFF7AA
:103E7C0097FF421D9200013002F107074FEAD70766
:103E8C00A2F110023146B8BF324605F1100001F024
:103E9C00A9FA3A4631462846FFF77EFF33463246AA
:103EAC0031462846FFF74FFFA4EB0708284631465A
:103EBC000122FFF759FF42463946FFF76DFF3B469B
:103ECC00324639462846FFF73EFF21462846FFF783
:103EDC0063FF4346324621462846FFF734FF21460E
:103EEC0028460122FFF740FF3946BDE8F041FFF7B5
:103EFC0066BF002070470FB407B504A951F8040B36
:103F0C000191FCF7F5FC03B05DF804EB04B07047CD
:103F1C00038B13F0070305D10368002B0CBF0020A3
:103F2C0003207047022B05D1408BB0FA80F040097A
:103F3C0080007047012B05D10368002B0CBF0020BB
:103F4C00052070470020704710B50C4600B111B920
:103F5C006FF0150010BD081D00F093F80028F9D182
:103F6C00A368032BF6D9F3E72DE9F0410D4607467C
:103F7C001946281D90461E4600F094F8044638B1A8
:103F8C003346424629463846A446BDE8F0416047D0
:103F9C00BDE8F08110B4EFF31182202484F3128871
:103FAC00BFF36F8F416110BC0121FCF7D3BC38B556
:103FBC000C46054658B151B10B6843B14B6833B14F
:103FCC001C22002101F00EFA2C61002038BD6FF08C
:103FDC001500FBE770B505460E46FFF7B5FF041E4E
:103FEC0014DBEFF31182202383F31288BFF36F8F5E
:103FFC006B8B2C8B4FF6FF718B4204F0070407D1AF
:10400C0082F31188BFF36F8F6FF00A04204670BDE6
:10401C00022C0CD101336B8382F31188BFF36F8FA9
:10402C000023224631462846FFF79EFFEEE7062C7A
:10403C0014D8DFE804F004131313041A040000234B
:10404C0033606B683BB9C5E90066ACB90221284600
:10405C00FCF780FCDAE71E606E60F6E782F31188ED
:10406C00BFF36F8F6FF00404D0E782F31188BFF3B6
:10407C006F8F6FF08504C9E782F31188BFF36F8FE0
:10408C00C4E7034658B1426802F00302012A03D088
:10409C00032A04D1026812B10020986070476FF0B7
:1040AC00150070474268816002F00302032A4FF04A
:1040BC00000203460CBF006810465A6070477047F8
:1040CC0001F090B901F080B901460068FCF78CBD95
:1040DC0008B5FCF7B9FDBDE80840FCF7D9BD0021D7
:1040EC000120FCF781BD6FF08500704761B662B6A8
:1040FC0080F31188BFF36F8F704772B6002383F380
:10410C001188BFF36F8FBFF34F8F30BF62B6BFF311
:10411C006F8F704772B6002383F31188BFF36F8FD4
:10412C00BFF34F8F20BF80F31188BFF36F8F62B640
:10413C007047202809D9B0F1004F08D80138B0FADF
:10414C0080F0C0F11F0040007047082070473E20EF
:10415C00704708B5FDF7A6FA002008BD0369C9B27F
:10416C000C2201FB0233186C00F00700704770B58D
:10417C00C9B20369EFF31185202484F31288BFF3CD
:10418C006F8F0C2606FB0134246C14F0C00408D08D
:10419C00A24206D085F31188BFF36F8F4FF0FF302A
:1041AC0070BD06FB013301221A6485F31188BFF33D
:1041BC006F8F436803EBC1035B6898470020EFE700
:1041CC008022FFF7D4BFF8B5069F0469C9B2EFF39C
:1041DC001186202585F31288BFF36F8F0C2505FB04
:1041EC000144256C05F0070CBCF1010F0CD12764C0
:1041FC0086F31188BFF36F8FC4E90E23436853F81D
:10420C00313098470020F8BD05F0C005AF4286F369
:10421C001188BFF36F8F0CBF6FF077004FF0FF303A
:10422C00F1E713B580240094FFF7CDFF02B010BD69
:10423C0010B40069CBB21C2403FB0400002110BC99
:10424C0010471046FEF71ABD00F011BC43685B68BE
:10425C00D3F810350B600020704743685B6802EAA6
:10426C00010021EA0201C3F80805C3F80C1500206F
:10427C00704743685B680020C3F8081570474368B3
:10428C005B680020C3F80C15704743685A68D2F875
:10429C00043521EA03000B40C2F80805C2F80C35BE
:1042AC000020704710B503695868F8B1884219D1DD
:1042BC009C6808685860A14200D198600020086092
:1042CC002AB15A680A609A68596002B9996000204C
:1042DC0010E0814206D10868206098688142EDD1D7
:1042EC009C60EBE7044600680028F2D1002AE8D174
:1042FC006FF0150010BD00F037BE2DE9F043476894
:10430C0040F20636D0063B7C87B002EA060654BF64
:10431C00C2F3401C4FF0030C01F01F05B6F5837F70
:10432C00144645EA43158DF803C043D00DD8062E2C
:10433C0016D005D8A6B1022E3ED06FF0150036E08F
:10434C00B6F5807FF9D101260AE040F202229642AE
:10435C0034D0B6F5407F33D0B6F5007FEDD10226D0
:10436C000123220303FA01F12CD57B68C3F808154D
:10437C00B86868BB05F01F026D0972D1920002F19A
:10438C00A04284F48031D2F80037C1F30041C4F369
:10439C00404423F4E16344EA410423F007031C4343
:1043AC0044EA8C0444EA0624C2F80047002007B013
:1043BC00BDE8F0830726D3E70426D1E70526CFE72F
:1043CC000326CDE7630344BF7B68C3F80C15CFE726
:1043DC000DF10202294600F04EFD14F4403F8046D8
:1043EC000CD1B868294600F074FDB8F1000FDDD18E
:1043FC009DF80210B868FEF765FAD7E74FF0000990
:10440C0001ABCDE90199CDE90439CDF80C90B86830
:10441C0003AA294600F02AFC4845C7DB14F40033F4
:10442C0014D084F480349DF803308DF80E30C4F32E
:10443C0000448DF80C608DF80D40B8684B4603AA0B
:10444C00294600F0AEFC0028CFDAAFE7CDE9043303
:10445C000DF103030393B86803AA294600F006FC88
:10446C00F1E702F5E07250F82230FFDEF0B5446857
:10447C001646A068227C01F01F0587B045EA42155C
:10448C00002865D0B6F5001F04D1294600F06AFD5E
:10449C0000204EE001AA0020B6F5800F019050607C
:1044AC0036D1B3F1007F14BF052304238DF80430FB
:1044BC000023CDE904230393E36823FA01F111F0FF
:1044CC0001010DF1030736D1B6F1A07F33D105F010
:1044DC001F036A0903F5E0733DD14FF0A04252F877
:1044EC002330DB0727D4A0683A46294600F0C3FCEA
:1044FC00163018D00297A06803AA294600F0B6FB24
:10450C00002816DBA0680122294600F0E4FCBFE776
:10451C00B3F1C06F05D0B3F1007F14BF01230223A8
:10452C00C4E70323C2E7A0683946FEF7D1F9002897
:10453C00E0DA07B0F0BDA0683A46294600F09BFCD3
:10454C000028D8D19DF80310A068FEF7BBF9D2E77C
:10455C006FF08500EDE751F82330FFDE30B543688E
:10456C001360057A446804EBC504A34202D36FF0D0
:10457C00010030BD5C798C4201D00833F0E700209B
:10458C00F7E743681B68D3F88004C3F880047047CE
:10459C0042681368D3F8100150B1D2690020127828
:1045AC000A70C3F81001D3F8102101221A60704769
:1045BC004FF0FF307047002A0FDD42681368D3F8C4
:1045CC00100158B10020C3F81001D269D3F81001C2
:1045DC0012780A700120186070470020704710B5DF
:1045EC0043681C680369EFF31180202282F3128860
:1045FC00BFF36F8F1A68D17B39B991731B68012295
:10460C00DA734FF48003C4F8043380F31188BFF3DA
:10461C006F8F10BD03691A68D17B21B10121917391
:10462C001B680022DA737047026911680346C87B65
:10463C0040B15B681B68D3F8580118B100230B61BB
:10464C0013689889704743681B68D3F810010038C9
:10465C0018BF0120704743681B68D3F80423D206A7
:10466C005CBF1022C3F80423704743681B68D3F85F
:10467C000423D20644BF1022C3F8082370474368B2
:10468C001B684FF40072C3F80423704743681B681F
:10469C004FF40072C3F80823704738B543681D689F
:1046AC00D5F804335B02044605D4D5F8040310F0A6
:1046BC00100006D138BDFFF7B7FF0028F5D0012058
:1046CC00F8E72046FFF7BFFF003818BF0120F1E7DD
:1046DC00012070470369186801601B685A607047B5
:1046EC0002680346D2F8580140B95B68DB0706D470
:1046FC00D2F82001003818BF012070470120704704
:10470C0010B4436802691B68D3F80413C90517D5A4
:10471C00D3F82011A1B1EFF31181202484F3128876
:10472C00BFF36F8FD3F8204134B10024C3F820417C
:10473C00D3F820410124DC6081F31188BFF36F8F23
:10474C001168D3F8584171B17CB100240C61116827
:10475C00C97B19B94FF48001C3F8081311688C7B1D
:10476C001CB100238B7310BC7047D3F8241121B1FA
:10477C000021C3F82411D3F8243112681368002BDC
:10478C00F1D0516810BC184713B501AA0446FFF7C5
:10479C00E5FE002805DB019B226819791868FDF7F6
:1047AC00D7F902B010BD6FF085007047F8B5002244
:1047BC00054601210220FCF76BFD0220FCF74CFDA5
:1047CC006C680121E068FFF7DFFF6B681A682369EA
:1047DC00C2F82435637D217D0B43C2F86C356E68BD
:1047EC00D6E9004313F001033CD02F6904F10C010E
:1047FC0007F10C0204F5907000F0F1F8002830DBA2
:10480C00387BFDF787FE0823C4F80035B369C4F87C
:10481C0044350023C4F848350123A360D4F858313B
:10482C00002BFBD00026C4F800656B683146D868B5
:10483C00FFF7AAFF6D6831462C68E868FFF7A4FF04
:10484C000823C4F800352A7A52B9EB69C4F8343518
:10485C000123C4F83835C4F81021D4F81021236092
:10486C000020F8BD0822C4F80025B269C4F844251C
:10487C00C4F848350123A360D4F82031002BFBD0B9
:10488C000023C4F82031D4F820310123E3604FF425
:10489C008073C4F80433C1E72DE9F041066933682D
:1048AC009C89BFF35B8F94420546A8BF1446103316
:1048BC00012753E8002F002A03D143E80070002899
:1048CC00F7D1BFF35B8F0CBF3B4600232BD1336872
:1048DC002246986800F078FDEFF31188202383F3CB
:1048EC001288BFF36F8F69680846FFF7F9FE3268CC
:1048FC0040B91061044688F31188BFF36F8F2046CE
:10490C00BDE8F0810B689268C3F844250022C3F817
:10491C004845C3F82021D3F82011C3F85821D3F807
:10492C0058219F60E7E71C46E9E700F150039B0024
:10493C009BB203F1804303F5883300221A601B6895
:10494C0070474FF08053D3F83001421C04BF4FF036
:10495C00704393F8E00F831F584258417047034649
:10496C000020184700F011BC10B502461168B1B117
:10497C00BFF35B8FB1FA81F3C3F11F0001238340B6
:10498C0021EA030352E8004F8C4204D142E8003C78
:10499C00BCF1000FF6D1BFF35B8FE7D110BD6FF008
:1049AC000B00FBE710B50368CB40DB0714D40123E5
:1049BC008B400268BFF35B8F43EA020150E8004F63
:1049CC00944204D140E8001CBCF1000FF6D1BFF3B7
:1049DC005B8FEED1002010BD6FF01500FBE770B5BA
:1049EC000C460021054608461646FDF785FD0028B5
:1049FC000ADB3378DB0003F1804303F5F833002046
:104A0C00C3F81055C3F8144570BD10B1012802D07D
:104A1C007047FDF76BBEFDF71BBE18B1012803D123
:104A2C0000F00AB800F023B8704708B5FDF72CFE6B
:104A3C00BDE80840FDF7BABEFDF7D0BD38B54FF064
:104A4C0080440223C4F808330123E3600023C4F834
:104A5C000431D4F8043142F21075D4F81834DB0365
:104A6C0004D50120FFF77EFF013DF6D138BDFFF7DD
:104A7C00E5BF036803F01F025B0902600CBF4FF037
:104A8C00A04000207047F7B5019001A8DDE9084768
:104A9C0016461D46FFF7EDFF019BB6F1000C18BF43
:104AAC004FF0010C00EB83000B1E18BF0123002DEF
:104ABC0043EA4C0314BF4FF00C0C4FF0000C002CCD
:104ACC0043EA0C0314BF4FF4E06C4FF0000C002FC2
:104ADC0043EA0C03D0F8002714BF4FF4403C4FF0CE
:104AEC00000C43EA0C0322EA030301B109780EB16E
:104AFC003678760019430DB12D78AD0031430CB1E9
:104B0C002478240229430FB13F783F040C433C43E3
:104B1C00C0F8004703B0F0BD1FB50DF10F030193B2
:104B2C0000238DF80F1000931A461946FFF7ABFFC0
:104B3C0005B05DF804FB70B5CBB20833164630F8FF
:104B4C001330DA0504460D4609D5C3F3432300EBB5
:104B5C00C302314650F83330526828469847A36850
:104B6C002BB1E26831462846BDE87040184770BD4D
:104B7C0010B4CBB200EB43039A8AD1051BD5C2F318
:104B8C00432122F4F8529A8200F1520400F11202ED
:104B9C0032F8023F13F4807F03D0C3F343239942CE
:104BAC0009D0A242F4D100EBC10300225A6010BC20
:104BBC005830FFF7F7BE10BC704770B511F0010408
:104BCC000CD04FF0A046D6F820550560C6F82055FD
:104BDC00FDF724FE08B1D6F8203505B9002420468F
:104BEC0070BDF0B5034600F5807400200546012722
:104BFC00844695420AD1D3F87C2132B10022C3F805
:104C0C007C21D3F87C3140F00040F0BD25F04046CB
:104C1C0007FA06F6314209D0D4F800E0BEF1000FD5
:104C2C0004D0C4F800C0D4F800E03043013504349B
:104C3C00DFE70246CBB202EB430308469B8A990698
:104C4C0011D599070FD410685B0B01219940C0F85E
:104C5C000813126802EB8303D3F8102522F0030229
:104C6C00C3F8102570470021FFF756BFF0B5136845
:104C7C0085B005460C461646DBB1CFB200EB4707B4
:104C8C00BA8A02F02202222A1ED00022CDE900228A
:104C9C008DF80E208DF80F200DF10E010DF10F0285
:104CAC002046FFF7F0FEBB8A23F0020343F001031A
:104CBC00BB82736823B31A785868E3B205EB4303DD
:104CCC00998A8F0703D5A8B16FF015001BE021F46A
:104CDC00604121F02001998260B1032AF4D87168F7
:104CEC0048682968077801EB870172B9C1F810256B
:104CFC00C1F81025998A21F01C0141EA82029A829E
:104D0C00B3684BBB002005B0F0BDD1F8100520F006
:104D1C000300C1F81005286800EB8700D0F81015C7
:104D2C0021F4473121F44071C0F810152102D0F85C
:104D3C0010C501F4F85141EA024141EA0C01C0F8F6
:104D4C00101505EB4701A1F85C40998A41EA4731FF
:104D5C0041F020019982CDE7D3E90067214628462E
:104D6C00FFF706FF002ECDD06B689E4206D005F1F2
:104D7C005800FFF7F9FD002804DAC4E7AB689F423E
:104D8C00F5D1002005EBC003C3E90167E4B205EBE4
:104D9C004404C0B2A38A43EA402343F48073A38241
:104DAC00B0E7F0B5074685B00C461D46F2B1CEB261
:104DBC0000EB4606B38A980701D499061ED413F06B
:104DCC001C0F02D05378012B18D001238DF80F3013
:104DDC000023CDE900230DF10F01931C2046013275
:104DEC00FFF751FEB38A43F00303B382002D3DD08D
:104DFC00E2B207EB4202938A9B0703D46FF01500D3
:104E0C0005B0F0BD28783B6803EB80030021C3F8A4
:104E1C001015C3F81015938A23F4604323F0200374
:104E2C0093826E784FEA800C06B33968AD78614492
:104E3C003604D1F8103523F4981323F4F853C1F841
:104E4C001035230203F4F85306F440362D05D1F83F
:104E5C001075334305F480152B433B43C1F81035D3
:104E6C00938A43EA403343F0200393820020C7E740
:104E7C00C0E903127047C9B200EB4100838A99065E
:104E8C0043BF5B0B002013706FF01500704738B5F3
:104E9C0090F86C4005469CB940222146143000F035
:104EAC00A1FA2868C0F87C41D0F87C3140F3073077
:104EBC00FCF7D2F9012385F86C30AB65204638BD80
:104ECC006FF07700FBE790F86C00003818BF0120FA
:104EDC007047FDF7C3BC73B50C46C9B200EB41017A
:104EEC0005688B8A9E0619D513F0020616D15B0B4A
:104EFC009C0004F580716E50695801682144D1F80A
:104F0C00104544F00104C1F810452AB10168012292
:104F1C0002FA03F3C1F8043302B070BDD5F80433C0
:104F2C00002BA4BF4FF00043C5F804338B8AC3F3A6
:104F3C008203042B12D0052B12D001A80194FFF789
:104F4C0098FD019AD0F81035D34003F00103991C59
:104F5C00204602B0BDE87040FFF7DEBD0321F7E745
:104F6C000221F5E7FFF765BE2DE9F04F074685B046
:104F7C0057F8049BD9F80413C9B28046082241F0B3
:104F8C0000414846FFF72DFE051E16DA00230121CD
:104F9C0002A80293FFF711FE4FF0010A029A92B990
:104FAC004FF000414846FFF71CFE012102A8FFF715
:104FBC0004FE0028F2D125F000450124002D76D105
:104FCC0005B0BDE8F08F92FAA2F4B4FA84F408EBC1
:104FDC004403E0089E8A039402AB04F007021B5CB6
:104FEC000AFA02F223EA020302AAB108135403A834
:104FFC00FFF73FFD039B03F5E073C6F3820B50F8FC
:10500C0023304A075E46C3F3014332D53246384655
:10501C0021465FFA83FBFFF78EFD03A80394FFF78D
:10502C0028FD039B03F5E07350F82330C3F30143D1
:10503C009B4507D100212046FFF76EFD59462046BF
:10504C00FFF76AFD03A80394FFF713FD039B0AFA0D
:10505C0003F3C0F820350446FDF7E0FB00289DD093
:10506C00D4F82035D4F82035D4F82035D4F82035B0
:10507C0094E7022B0DD103212046FFF74DFD0BF0D9
:10508C000503012BDED1324621463846FFF753FD8E
:10509C00D8E7022120460193FFF73EFDBBF1030F39
:1050AC00F1D0019B032BCDD1BBF1020FEAE795FAAE
:1050BC00A5F3B3FA83F304FA03F225EA020503F528
:1050CC00A27208EB430359F82220B3F85C10C2F328
:1050DC0001423846FFF72FFD70E70369C26893421F
:1050EC009CBF81685B18013B981A70472DE9F04111
:1050FC00D0E902840546A8EB040640689642204499
:10510C000F46144406D900F05FF9BFF35F8FEC60D3
:10511C00BDE8F0813246A4EB080400F055F968684C
:10512C002246B919EFE72DE9F843C56806468946CA
:10513C0017464FF000083369B46870689D4228BF69
:10514C001B19641BBC4203F1FF3328BF3C465B1B9D
:10515C009C4228BF1C4649462246284400F034F99C
:10516C00B3682544A044A1443F1BAB4208BF0025B3
:10517C00BFF35F8FF560002FDDD14046BDE8F883AB
:10518C0008B5FDF72BFC002008BD08B1FCF7BCBA34
:10519C00704710B5436904463BB90020E268537868
:1051AC0043F001035370404210BD98470028F4D0DF
:1051BC000028B8BF4042E368FF28A8BFFF20187042
:1051CC00ECE740B1C368587810F001001EBF1878A6
:1051DC00B0FA80F040097047EFF31183202383F37A
:1051EC001288BFF36F8FFEE708B5FFF7F5FF08B520
:1051FC002024EFF3118384F31288BFF36F8FFEF733
:10520C007CFFF6E7EFF30580003818BF01207047EC
:10521C00D0E9003213605A600023C0E900337047B4
:10522C0008B5FFF7F5FF437B23F00203437300231C
:10523C00836008BD38B504460D46FDF75BFE637B05
:10524C0043F002036373E5B1A5602B689D4209D15D
:10525C006B68C4E900531C606C6012E06A689A4287
:10526C00F6D01B68002BF3D094F90E2093F90E1096
:10527C008A42F3D09142F1DD5A68C4E900321460DD
:10528C005C6038BD10B5EFF31184202383F31288D2
:10529C00BFF36F8FFDF7ECFD84F31188BFF36F8FB5
:1052AC0010BD10B50146EFF31184202383F312884F
:1052BC00BFF36F8F437B13F0280F0AD183680BB1B8
:1052CC00FFF7AEFF4B7B23F004034B730846FDF74F
:1052DC00CFFD84F31188BFF36F8F10BD01211838F7
:1052EC00FFF7DFBF38B504460D46FDF75FFFB5F19C
:1052FC00FF3F08BFB4F1FF3F0246204618D0002004
:10530C004FF47A7447F6FF730146C2FB0431B3F5D0
:10531C00004F71F100020BD36FF400429A4243F636
:10532C00FF728A4126BFD80B40EA41406FF0004023
:10533C0038BD08B50246FEF7E5F870B1D0E9043186
:10534C009B1A61EBE272B3F1004F72F1000104DAC7
:10535C00002AACBF1846002008BD6FF00040FBE7E8
:10536C0038B50246EFF31185202383F31288BFF37F
:10537C006F8F0368CBB1FEF7C5F804461046FEF7F5
:10538C00D3F800224FF000438442C0E9042306D135
:10539C00FEF7C0F8FFF7CDFF0021FCF713FF00204C
:1053AC0085F31188BFF36F8F38BD6FF01500F7E7E9
:1053BC0008B5FEF7C5F908BD10B400F10C04C0E93E
:1053CC00034410BCFEF73DBD0A44914200F1FF338B
:1053DC0000D1704710B511F8014B03F8014F914201
:1053EC00F9D110BD02440346934200D1704703F833
:1053FC00011BF9E710B501390244904201D100209C
:10540C0005E0037811F8014FA34201D0181B10BD21
:10541C000130F2E710B50139044632B111F8013F01
:10542C0000F8013B013A002BF7D10021FFF7DAFF1E
:10543C00204610BD10B5024601448A42134603D0E3
:10544C001C780132002CF8D1181A10BDF0B5C3F13C
:10545C0037070446FFB203F01F031046082BE6B2D1
:10546C0033D0102B3ED06508A40844EA817445EA79
:10547C00C1752D194FEA910242EB5102290941EAFB
:10548C0002716D1842EB1212290A41EA02616D1881
:10549C0042EB1222290C41EA02416D1842EB1242F6
:1054AC00AD1842F10002EC0844EA4274D10804EB56
:1054BC008402A6EB4205EDB2092D0CD90134A5F1FD
:1054CC000A0541F10001EDB212E0E40844EA41742E
:1054DC0006F00705C908303554EA010200F8015BF3
:1054EC00BCD1F0BD240944EA017406F00F0509098A
:1054FC00092D84BFED19EDB2EDE7000001480068FD
:08550C00704700000C080020AC
:08551400FCABFF7F0100000069
:10551C00FD1600000000000039170000000000001C
:10552C00000000006C5500008D51000000000000D0
:10553C008937000000000000000000008C550000BE
:10554C00851A00000000000000000000AC550000AF
:10555C001120000000000000D9160000000000001F
:10556C00ED5D000010580000285700008005002059
:10557C0048080020C91700000000000000000000CF
:10558C00FC5D00002058000004570000820500203C
:10559C009C080020211B00000000000000000000FF
:1055AC00125E0000345800004457000084050020AF
:1055BC0044050020B9470000B3470000000000007C
:1055CC00374A00006B49000000000000EB4000006F
:1055DC00AC5500000D47000000000000EB4000003F
:1055EC0000000000EB40000000000000EB40000059
:1055FC00D40400200343000000000000EB40000036
:10560C0000000000EB40000000000000EB40000038
:10561C0000000000EB40000000000000EB40000028
:10562C0000000000EB40000000000000EB40000018
:10563C0000000000EB40000000000000EB40000008
:10564C0000000000EB40000000000000DD20000026
:10565C0000000000EB40000000000000EB400000E8
:10566C0000000000EB40000000000000EB400000D8
:10567C0000000000EB40000000000000EB400000C8
:10568C0000000000EB40000000000000EB400000B8
:10569C0000000000EB40000000000000EB400000A8
:1056AC0000000000EB40000000000000EB40000098
:1056BC0000000000EB40000000000000EB40000088
:1056CC0000000000EB40000000000000EB40000078
:1056DC0000000000EB40000000000000EB40000068
:1056EC0000000000EB40000000000000EB40000058
:0856FC0000000000EB4000007B
:105704000743000059420000674200007F42000046
:105714008B4200009742000079440000B14200002F
:045724000000000081
:1057280021180000CD4100002F42000000000000B9
:0C573800694100000000000000000000BB
:105744009D450000D91C00008F450000A5480000BD
:10575400C3450000EB45000021460000354600002B
:1057640063460000774600003546000053460000BB
:105774008B46000099460000A7460000DD46000065
:04578400E1460000FA
:10578800040000000F0000000100000008000000F5
:105798002000000060000000700000000D00000004
:1057A8000C0000000E000000500000007400000013
:1057B800A8000000FFFFFFFFFFFFFFFFFFFFFFFF45
:0457C800FFFFFFFFE1
:1057D0000338FDD870470000C0040020000000001E
:1057E00000000B0602000000EC5700000000000063
:1057F000DE5D00002400020600000020E65D0000DF
:105800001E000B1185170000551700000000000056
:10581000F5180000751800005518000055420000EA
:10582000FFFFFFFF00000050D40400200000000034
:105830000000000000200040010000000000000007
:10584000545800000000D60100000000681100203C
:105850006711002000200040605800000200000096
:10586000785800000200000070580000020100009B
:10587000068000000B800001060000000B00000104
:105880001C5500001C5500005C55000064550000CC
:105890006C5500006C550000486561646572206DB0
:1058A00069736D617463680A004261636B6C6F6752
:1058B0002066756C6C2121210A005472616E736D33
:1058C000697474696E6720646174613A20002558B8
:1058D0002000EF01FFFFFFFF01004E756D62657252
:1058E000206F66207061636B6574732072656365F9
:1058F000697665643A2025640A004C6173742070EF
:1059000061636B65742072656365697665643A20CE
:105910000046502055415254206E6F7420726561CC
:1059200064790A00465020656E726F6C6C696E6710
:105930002073746172746564210A003D3D3D3D3DF4
:105940003D3D3D3D3D3D3D3D3D3D3D3D3D3D3D3D87
:105950000A004650206964656E7469667920737424
:105960006172746564210A00EF01FFFFFFFF2A2ABC
:105970002A20426F6F74696E67206E524620436F13
:105980006E6E6563742053444B2076332E322E3274
:105990002D373438343565313639626532202A2A5C
:1059A0002A0A002A2A2A205573696E67205A6570D0
:1059B000687972204F532076342E322E39392D6675
:1059C0006534663031303638303365202A2A2A0A69
:1059D0000072302F61313A2020307825303878201D
:1059E0002072312F61323A202030782530387820EB
:1059F0002072322F61333A20203078253038780AEF
:105A00000072332F61343A202030782530387820E6
:105A10007231322F69703A20203078253038782062
:105A20007231342F6C723A20203078253038780A61
:105A30000020787073723A20203078253038780A48
:105A4000004661756C74696E6720696E7374727557
:105A50006374696F6E206164647265737320287269
:105A600031352F7063293A203078253038780A0094
:105A7000556E68616E646C6564204952516E3A20BF
:105A800025640A002A2A2A2A2A204D5055204641F8
:105A9000554C54202A2A2A2A2A0A002020537461AD
:105AA000636B696E67206572726F722028636F6E18
:105AB000746578742061726561206D69676874200F
:105AC0006265206E6F742076616C6964290A00201B
