:10000000C0330020612F0000D5AA00004D2F000052
:100010004D2F00004D2F00004D2F0000000000006C
:10002000000000000000000000000000D9300000C7
:100030004D2F000000000000753000004D2F000023
:10004000AD320000AD320000AD320000AD32000034
:10005000AD320000AD320000AD320000AD32000024
:10006000AD320000AD320000AD320000AD32000014
:10007000AD320000AD320000AD320000AD32000004
:10008000AD320000AD320000AD320000AD320000F4
:10009000AD320000AD320000AD320000AD320000E4
:1000A000AD320000AD320000AD320000AD320000D4
:1000B000AD320000AD320000AD320000AD320000C4
:1000C000AD320000AD320000AD320000AD320000B4
:1000D000AD320000AD320000AD32000053B94AB974
:1000E000002908BF00281CBF4FF0FF314FF0FF3040
:1000F00000F00CB8ADF1080C6DE904CE00F010F87A
:10010000DDF804E0DDE9022304B07047704700BF6A
:10011000034613F8012B002AFBD1181A0138704747
:100120002DE9F04786468C460846089E15467446DB
:100130001946002B40F0C2808542B2FA82F245D9BE
:100140004AB1C2F1200300FA02FC2EFA03F39540F3
:1001500043EA0C0C94404FEA154EA8B2BCFBFEF8E3
:10016000230C0EFB18CC08FB00F943EA0C4399451D
:1001700028D9EB1808F1FF3704D2994502D9A8F124
:1001800002072B44A3EB0903A4B2B3FBFEFC0EFB56
:100190001C330CFB00F044EA0344A04214D92C1990
:1001A0000CF1FF3304D2A04202D9ACF102032C447B
:1001B000241A43EA07401EB1D44000233460736020
:1001C000BDE8F0874746DDE76346F1E792BB431B96
:1001D00001214FEA154EAFB2B3FBFEFC200C0EFB23
:1001E0001C330CFB07F840EA0343984562D9EB182F
:1001F0000CF1FF3004D2984502D9ACF102002B4437
:10020000A3EB0803A4B2B3FBFEFC0EFB1C330CFBF8
:1002100007F744EA0344A7424ED92C190CF1FF33E7
:1002200004D2A74202D9ACF102032C44E41B43EAF6
:100230000040C0E7C2F1200320FA03F1954090404E
:100240002EFA03F303434FEA154EAFB2B1FBFEFCA7
:100250000EFB1C10190C0CFB07F841EA0041884505
:1002600004FA02F422D969180CF1FF3004D288454F
:1002700002D9ACF102002944A1EB08019BB2B1FB09
:10028000FEFC0EFB1C110CFB07F743EA01439F42E7
:100290000ED9EB180CF1FF3104D29F4202D9ACF118
:1002A00002012B44DB1B41EA004192E76046E3E791
:1002B0006146F7E76046A3E76346B7E7834206D99E
:1002C00016B9002108467BE7C6E900E0F9E7B3FA72
:1002D00083F78FB9834201D3724508D8BEEB02047D
:1002E00060EB030301209C461EB9002168E73846F5
:1002F000FAE7C6E9004CF8E7C7F1200CBB4022FA48
:100300000CF41C432EFA0CF120FA0CF3B840014314
:100310004FEA14490EFA07F5B3FBF9F81FFA84FE09
:1003200009FB18300B0C08FB0EFA43EA00439A4510
:1003300002FA07F240D9E31808F1FF3004D29A45D7
:1003400002D9A8F102002344A3EB0A0389B2B3FB4C
:10035000F9F809FB183308FB0EFE41EA03418E450C
:100360002CD9611808F1FF3304D28E4502D9A8F1C7
:100370000203214443EA0040A0FB0298A1EB0E01D6
:100380004145CE46434602D306D14D4504D2B9EB92
:10039000020E68EB04030138002EA6D0B5EB0E0266
:1003A00061EB030101FA0CFC22FA07F34CEA0303A8
:1003B000F940C6E9003198E74046C5E74346D9E72A
:1003C0002DE9F0411148124E124FDFF84C800AF02F
:1003D00098F809F01FFF00F021F8054609F02BFFFF
:1003E000002D044602DA30460AF08BF8002C08DAB9
:1003F00040460AF086F800214FF4004007F018FF4D
:10040000E9E7214638460AF07CF8F4E720C300000B
:1004100034C300005BC3000047C3000007B50023DE
:100420000DF107010B208DF8073009F0FEFE38B101
:1004300007480AF066F84FF0FF3003B05DF804FBA0
:1004400004489DF807100AF05CF89DF80700F4E7EF
:1004500070C30000A2C30000B2F5802F2DE9F04167
:1004600010D2042A28D84549454A464840F21A2362
:100470000AF05DF844480AF05AF840F21A21404860
:100480000AF04CF80823D21ACC1D114424F00704BA
:1004900021F00701091B17294FEAD1060ED83B4965
:1004A000374A384840F223230AF041F836480AF028
:1004B0003EF840F22321E2E70423E4E7002504604C
:1004C0003146A660E560204609F070FFB6F5004FA2
:1004D0002CBF08230423421D92000833D11DDB08E2
:1004E00003EBD103B3424FEAD10739D80130A2F16F
:1004F00010022946B8BF2A4604F110000BF0DFF8BD
:100500003A462946204609F04DFF2B462A46294601
:10051000204609F01EFFA6EB0708204629460122C7
:1005200009F028FF4246394609F03CFF3B462A467F
:100530003946204609F00DFF3146204609F032FFCA
:1005400043462A463146204609F003FF31462046FD
:10055000012209F00FFF3946BDE8F04109F035BF2F
:100560000B49074A07484FF40E7309F0E0FF0648AD
:1005700009F0DDFF4FF40E7181E700BFA1C4000058
:10058000B6C30000EAC30000C2C40000DBC4000020
:1005900004C500002DE9F04F91B00546009302F02C
:1005A00004030193C2F3C203013304938307DDF80C
:1005B000689002920E4640F0FC81041D30B107297C
:1005C00009D86FF01B0011B0BDE8F08F01F00706ED
:1005D0003444C6F10806009B4FF000084FF0040BAE
:1005E000591ECDF80C80474643464FF0FF32DA469D
:1005F0000DB1009820600498002800F3DF809B482C
:10060000DDF800C0844503D399488445C0F0D68006
:10061000DDF808C0A4EB050E1CF0020F4FEA9E00A7
:1006200000F0E7804FF0000CD1E07A2862D84B2828
:100630000FD847285ED829282DD8252859D059D831
:1006400020287DD0A0F12309D9F1000343EB090351
:1006500076E04C382E284DD8DFE800F0724C4C4C38
:100660004C4C4C4C4C4C4C4C4E4C4C4C4C4C4C4CC8
:100670004C5C4C4E4E5C5C5C724E6F4C724C184E37
:10068000184C4C817E4E4C4C4E4C7E00002000237A
:100690004FF0040B3CE02A384FF0010EC0B20EFAC6
:1006A00000F04FF6DA7E10EA0E0F49D110F0625ECC
:1006B00030D110F0010343D07046013C5C44B4FBE0
:1006C000FBF40BFB04F4002D5ED0AAEB050EA64450
:1006D000B6453FF676AF002868D1BAF1040F43D192
:1006E000E14659F8040B20600434CC464FF0040A6C
:1006F00026E0013A002323E011F8013C6C2B30D1B5
:1007000011F8023C00206C2B0346C1D14FF0080BBE
:10071000DA46D2E70CF1070929F0070C0734FCE8A8
:1007200002AB24F0070435B105982044B0423FF6EF
:1007300048AFC4E900AB083400234FF0080BDA4699
:1007400011F8010F002800F0BC80002B7FF46DAF82
:100750002528F5D1013201234FF0040BEFE71846AD
:1007600095E700200346A8E7BAF1080F40F09B8008
:100770000CF1070929F0070CFCE8029AC4E9009A79
:1007800008344FF0080ADBE780B9BAF1040F02D150
:100790000CF10409A8E7BAF1080F40F084800CF1CD
:1007A000070929F0070909F1080CE9E70498E1466F
:1007B0000138049059F8040B009019E7029880075B
:1007C00048D5A4EB050E4FEA9E004FF0010CBEF594
:1007D000007F1DD32749284A28484FF41F7309F08A
:1007E000A6FE274809F0A3FE4FF41F71224809F026
:1007F00095FE0F2F0ED8002D46D007F1400CEC448B
:100800000CF8200C0CF8102C03980130039020E019
:100810000F2F0CD91749184A184840F2812309F0C4
:1008200086FE184809F083FE40F28121DEE7BDB163
:1008300007F1400EEE44C0B20EF8200C0EF8102C5A
:10084000BCF1000FE0D060F07F000EF8200C08F142
:1008500001080137C5F108000434CC4605906FE764
:10086000BCF1000F10D00136F3E700BF8CBA0000D6
:1008700060E600008BDD00002FC50000EAC3000029
:100880005DC500007EC50000019802360028E0D159
:1008900000980592CDE90631FFF73AFCDDE9063113
:1008A000059A0644D5E7444A4449454840F2C623E0
:1008B00009F03DFE5146434809F039FE40F2C62199
:1008C00094E7631BB3F5806F0CD33C493A4A3C482C
:1008D00040F2D22309F02BFE3B4809F028FE40F2FB
:1008E000D22183E71DB9A6F10804E0186BE6019A4E
:1008F00028609B082B709DF80C30C2B1EB7085F816
:100900000280B8F1000F05D008A80022C5F1010C43
:1009100097420ED1C5F101030DF120094FF0000AF5
:1009200002930DF1300B574512D1601B4BE66B70F3
:10093000E5E710F8013B190608D50CEB040EB645A7
:1009400003F07F033FF63DAE04F8013B0132DFE7E1
:10095000B8F1000F03D099F90020002A17DB019BA2
:10096000D3B11AF80B2004F8012B0022029B1819AE
:100970001044B0423FF625AE99F8000004F8010B90
:100980000099039220460AF08CFE039A14440AF15F
:10099000010A09F10109C6E799F8002055F822304B
:1009A0000093019B45F822300098FFF7B1FB421CF1
:1009B000DCE76FF00D0006E62FC500008BDD0000C0
:1009C000EAC3000098C50000ADC500002DE9F04F56
:1009D00097B000AF8946D7F880B0FA623B62044610
:1009E00058B9A849A84AA94840F2993309F09FFD8F
:1009F00040F29931A44809F091FDCBF3C00390F87F
:100A000002A07B6141B9457800780AEB8000204460
:100A10004D4517D8A0EB0409E378FB61BAF1000F4C
:100A200002D01BF0010F16D1FB6953BBFB6A1BB14F
:100A30003A6A4946204698474D4628465C37BD46A7
:100A4000BDE8F08F461C3046FFF762FB01303044B2
:100A500009F10109DCE7237862687A62FA6A990091
:100A6000B96104EB8301002A40F001814D460E4636
:100A700001EB0A094FF000084E454CD101EB0A0684
:100A800010E01BF0020FD1D023789A00BA6162689F
:100A90007A62FA6A04EB8301002A77D14D4601EBB2
:100AA0000A0690461BF0050F0CBF02230123FB62D0
:100AB000FB6906EB430A0BF00203BB625645BCD050
:100AC00016F8021B16F8013C54F82390704B994518
:100AD00002D3704B994536D37B69002B40D0786A9E
:100AE00009F0E6FC00283BD0E9468AB06A466A4B2A
:100AF00053617B6AC2E906314FF400731384674B7C
:100B000042F8103F664800234FF4125101F0DAFA20
:100B1000023DCD46D2E716F8013BF96254F82300B6
:100B2000FFF7F6FAD7F88430F96A01304BB1D7F8FD
:100B3000883098453EBFD7F8843023F8180008F174
:100B40000108054498E77B6923B1786A09F0B0FC95
:100B50000028C9D11BF0010F05D1FB6AED1AADE7E2
:100B6000BB6A002BAAD04846FFF7D2FAD7F88430E8
:100B700053B1D7F8883098453FBFD7F88420431C3D
:100B800022F8183008F10108054497E7BAF1000F80
:100B900073D01BF0040673D0D046002607F148003E
:100BA00052463B61B9620AF07CFDB96A3B6901EBD0
:100BB0000A02BA62FA69F9695200FA60BA6A02EB8B
:100BC00041023A610BF00202BA60BA6A39698A429C
:100BD00068D162787A621BF0020F32440CBF4FEA90
:100BE000580100211BF0010FD2B240F0E4801BF04D
:100BF000040F14BF404600207B616270A070E1705A
:100C00003A6AB969FB6A20469847051EFFF615AF98
:100C10007B6923707B6A6370FB69E37041463A6AC3
:100C2000FB6A84F802A007F148009847B0F1000879
:100C3000C0F2F580BB693A6AA9EB0A01C91AFB68E0
:100C4000C91AD7E90A0398470028C0F2EA80A844E5
:100C500008EB00054FF0000B07F1380AB345C0F070
:100C6000AC8000213A6AFB6A08469847E5E656469A
:100C70004FF0000807F1380092E75646D04696E755
:100C8000B04694E7C4C500002FC50000EAC30000C9
:100C90008CBA000060E60000DFC50000040000011F
:100CA0003CBD0000BA6A12F8021BBA6212F8015C7D
:100CB0005D4A54F82500904202D35C4A904218D312
:100CC0007A693AB1786A7B6009F0F2FB7B680028A8
:100CD0007FF47BAFBA68002A4CD00F2E40D954491C
:100CE000544A554840F24D4309F021FC40F24D4131
:100CF00080E67A693AB1786A7B6009F0D9FB7B6853
:100D000000287FF462AF1BF0010F0BD00F2E27D904
:100D10004749484A484840F2434309F008FC40F23A
:100D2000434167E61BF0040F3FF44FAFB8F10F0FDC
:100D300009D942493F4A404840F2464309F0F7FB8F
:100D400040F2464156E608F1280207F1300008F16A
:100D5000010102EB000808F8105C5FFA81F834E743
:100D600006F1280207F13000711C161806F8205C05
:100D7000CEB22AE7B8F10F0F09D930492D4A2E48D3
:100D80004FF48A6309F0D3FB4FF48A6132E608F12D
:100D9000280207F1300C08F10100944407F15802D1
:100DA00052FA80F008F102080CF8101C5FFA88F87B
:100DB00000F8105C09E700201EE71BF80A3087F8EE
:100DC000373054F82390D7F884302BB3D7F88830D5
:100DD0009B4521D2D7F8843033F81B803A6AFB6AEE
:100DE000012107F13700984700281ADB0544B8F1C4
:100DF000000F06D14846FFF78BF900F101081FFAF2
:100E000088F83A6AFB6A414648469847002808DB5A
:100E100005440BF1010B21E74FF00008DEE74546E2
:100E20000BE6054609E600BF8CBA000060E600004C
:100E300082C600002FC50000EAC30000A1C6000062
:100E4000014B1860704700BFC010002080B50546F8
:100E50000E461746984607F07DFA03460AF00CFE48
:100E6000DFF83C90044649F80030424639463046A7
:100E7000A8470C4B1B7873B90B490C4A0C4840F23D
:100E8000463309F054FB0B4809F051FB074840F288
:100E9000463109F043FB54F8090002F0D5F800BFD1
:100EA00008000000961D0020FDC60000D2C600000C
:100EB000EAC3000010C7000038B50D4604462022E2
:100EC00000210AF0FCFBEB68E361AB68A3612B68CF
:100ED00023626B6863620022A2622A6923B1591EF1
:100EE000194208BF42F0010222610122002104F1EF
:100EF0002C000AF048FB48B105490648064A2F2352
:100F000009F015FB04482F2109F008FB38BD00BF8C
:100F100058C70000EAC3000032C700002DE9F04FB7
:100F200089B0CDE90123436A00278B4204468846F5
:100F300005970797BA4654D300F11406EFF31185CD
:100F4000202383F31288BFF36F8F3046A94607F042
:100F500015FC58B94D4A4E494E48882309F0E7FA26
:100F600031464D4809F0E3FA882163E0304607F046
:100F700029FC079A2AB13946204609F0C0FB002314
:100F8000079306A9204609F0DFFA069941458346F2
:100F900030D32268236A13F8221021F0030103F8EA
:100FA000221003EB820A21684246204609F0F0FA3B
:100FB000E3682060984218D04FF0000B304607F0ED
:100FC000EBFB50B389F31188BFF36F8F059929B1FB
:100FD000A2690AB12046904700230593BBF1000F98
:100FE000ACD1504609B0BDE8F08F236943F0080347
:100FF0002361E1E718B1204609F0E4FADEE7DDE914
:101000000132134339D003910AF0C9FA0399A0BB06
:101010009DBB304607F0C0FB78B91C4A1F491D48EC
:101020004FF49A7309F083FA31461D4809F07FFAAC
:101030004FF49A71154809F071FA85F31188BFF3DE
:101040006F8FDDE9012304F12C0006F0B3F983462C
:10105000EFF31189202383F31288BFF36F8F30469B
:1010600007F08CFB00283FF475AF3046BBFA8BFBD2
:1010700007F0A8FB4FEA5B1BA0E707AB05AA2046D9
:10108000276809F0BCFA834698E700BF61C70000F3
:101090008EC70000EAC30000A3C70000B9C7000064
:1010A000D0C700002DE9F0410446C36908460E464A
:1010B000984704F114050746EFF31188202383F3C2
:1010C0001288BFF36F8F284607F058FB68B91B4A98
:1010D0001B491C48882309F02AFA29461A4809F0B6
:1010E00026FA8821154809F019FA284607F06AFB04
:1010F000337843F00103337061683A46204609F0C3
:1011000047FA6060204609F015FB284607F044FBCB
:1011100068B90A4A0D490B484FF49A7309F007FA67
:1011200029460B4809F003FA4FF49A71DAE788F37D
:101130001188BFF36F8FBDE8F08100BF61C7000069
:101140008EC70000EAC30000A3C70000B9C70000B3
:10115000D0C700002DE9F0470446002700F114062F
:10116000EFF31188202383F31288BFF36F8F30468B
:1011700007F004FB054668B93A4A3B493B488823D7
:1011800009F0D5F931463A4809F0D1F988213548B6
:1011900009F0C4F9304607F015FB2369A16813F084
:1011A000080F02D16368994200D9636A5B1A002B69
:1011B00041D0206A10F8213013F0030200EB8109BE
:1011C0003CD0022A04D150F821205FEA920A05D1CE
:1011D000DA0720D4E369484698478246A168524618
:1011E000204609F0D5F95146A060204609F0DEF905
:1011F0002F46304607F0D0FA10BB1A4A1D491B484B
:101200004FF49A7309F093F931461B4809F08FF9AE
:101210004FF49A71BBE743F0020300F821304846CF
:10122000E369A568984729460246204609F0B0F9C7
:101230000025A060DDE71D46A946DAE71546FBE775
:1012400088F31188BFF36F8F002D89D137B1B9F1C1
:10125000000F03D104F12C0006F02EF84846BDE83B
:10126000F08700BF61C700008EC70000EAC300001E
:10127000A3C70000B9C70000D0C700002DE9F041A6
:101280000446C36908460D46984704F1140607460C
:10129000EFF31188202383F31288BFF36F8F30465A
:1012A00007F06CFA68B9284A28492948882309F0C8
:1012B0003EF93146274809F03AF98821224809F0D9
:1012C0002DF9304607F07EFA2B786FF300032B7070
:1012D00023699B0705D5E268236A03EB82039D42DD
:1012E00022D12B786FF341032B70D4E9023199425C
:1012F00004D13A46204609F04BF9A0603946204611
:1013000009F054F9304607F047FA90B90E4A1249ED
:101310000F484FF49A7309F00AF931460F4809F063
:1013200006F94FF49A71C9E72B6867F39F032B60A6
:10133000E8E788F31188BFF36F8F04F12C00BDE854
:10134000F04105F0B9BF00BF61C700008EC70000C3
:10135000EAC30000A3C70000B9C70000D0C700005F
:1013600070B5044600F11405EFF31186202383F3D2
:101370001288BFF36F8F284607F000FA68B91B4A3E
:101380001B491C48882309F0D2F829461A4809F05D
:10139000CEF88821154809F0C1F8284607F012FA5E
:1013A0002369A06813F0080F02D16368984213D92B
:1013B000646A241A284607F0EFF978B90B4A0F49F6
:1013C0000C484FF49A7309F0B2F829460C4809F01A
:1013D000AEF84FF49A71DDE71C1AEBE786F311883B
:1013E000BFF36F8F201E18BF012070BD61C70000C2
:1013F0008EC70000EAC30000A3C70000B9C7000001
:10140000D0C700002DE9F84F04460846A38B190702
:10141000154612D4022803F0070165D1204609F0D1
:1014200096F988B10138042800F23781DFE810F01E
:101430005C0035018200D400040101280CBF43F098
:10144000100143F02001A1831434204607F0A4F9D1
:10145000002840F09D819A499A4A9B484FF49A731C
:1014600009F065F82146B1E003F00702501F01289A
:101470001ED80020062A2768C4E9000014D13A4685
:1014800003E0E08B0130E0831268002AF9D123F0F9
:10149000070343F00202A283204609F058F990B3F3
:1014A00042F02002A2832EE023F007039AB2F2E773
:1014B000042A33D123F007039AB2A283204609F00D
:1014C00046F910B142F02002A283A38B03F0070972
:1014D000894540F0EC80A18BCA0640F1508121F093
:1014E0001003A38301F00701D4F81880A38BB8F18F
:1014F000000FB9DA0022276823F00703C4E90022AD
:1015000043F00103A383A38B03F00709894540F04F
:10151000CF80002FDFD00026B24644E06B496C4AF2
:10152000694840F21B1309F002F840F21B116848A9
:1015300008F0F4FF49B16749654A63484FF4AB735B
:1015400008F0F5FF4FF4AB71F1E723684BB962493E
:101550005F4A5D4840F2571308F0E9FF40F2571127
:10156000E5E723691E684EB95C49594A56484FF46D
:10157000AD7308F0DCFF4FF4AD71D8E7A38B23F017
:10158000070343F006039BB2A3830F4688464FF040
:101590000609A268002A40F08D80002F40F08D805F
:1015A000002E98D0BA4643F0080304F1140BA3832D
:1015B000584607F0F1F8002840F09A804049414A27
:1015C00041484FF49A7308F0B2FF5946444808F076
:1015D000AEFF4FF49A71ADE0022909D041493C4A6F
:1015E000394840F25D1308F0A2FF40F25D119EE71A
:1015F000E78B4FB13C49364A33484FF4AF7308F09C
:1016000096FF4FF4AF7192E723695E684EB9334994
:101610002F4A2D4840F2611308F089FF40F2611112
:1016200085E7A38B23F0070343F004039BB2A38356
:10163000B8464FF00409ACE7012909D02B49244AE8
:1016400021484FF4B27308F072FF4FF4B2716EE7A5
:1016500023684BB920491E4A1B4840F2651308F025
:1016600066FF40F2651162E723699E684EB91B4927
:10167000174A15484FF4B47308F059FF4FF4B4718A
:1016800055E7A38B23F0070343F005039BB2002724
:10169000A383B8464FF005097BE70C490C4A0A487A
:1016A00040F26B1308F043FF40F26B113FE7002755
:1016B00000266EE74FF0010A75E7924673E700BF18
:1016C000B9C7000061C70000EAC300008BDD00005D
:1016D000F0C7000015C8000021C8000044C8000081
:1016E000D0C700005BC8000071C8000080C80000BF
:1016F00085F31188BFF36F8FBAF1000F1CD177BB50
:1017000016B126492046B047EFF31185202383F315
:101710001288BFF36F8F584607F030F838BB204A65
:1017200020492148882308F002FF59461F4808F045
:10173000FEFE88211A48FBE6A1680029DFD00D686B
:101740000029DCD0D1F804A043464A462046D047C1
:101750001DB12B6829461D46F2E72B46FAE73946AC
:1017600043464A4620463F6809F01DF8C7E75846F9
:1017700007F028F8A38B23F00803A383ABE68B06BE
:101780007FF562AE21F02003A38301F0070145E657
:1017900085F31188BFF36F8FBDE8F88FB117000094
:1017A00061C700008EC70000EAC30000A3C70000A5
:1017B000F8B504460D4600F11406EFF31187202317
:1017C00083F31288BFF36F8F304606F0D7FF68B9F6
:1017D0000C4A0D490D48882308F0A9FE0C483146F3
:1017E00008F0A5FE0748882108F098FE304606F06C
:1017F000E9FFA5613A4620460121BDE8F840FFF720
:1018000001BE00BF61C700008EC70000EAC3000030
:10181000A3C700002DE9F04704460F4608F0B3FFC8
:10182000051E68DB04F11409EFF3118A202383F30A
:101830001288BFF36F8F484606F0A0FF804660B95C
:10184000384A39493948882308F071FE49463848F2
:1018500008F06DFE8821334842E0484606F0B2FFAA
:10186000E38BA68B4FF6FF72934206F0070645D036
:10187000022E15D10133E3833546484606F08CFF2E
:10188000002841D1274A2B4928484FF49A7308F081
:101890004EFE4946284808F04AFE4FF49A71DAE7AE
:1018A000062E13D8DFE806F0092D121209040900EC
:1018B0006FF085054FF00008DFE700233B606368A9
:1018C00083B9C4E9007786B13546F3E71B49174869
:1018D0001B4A4FF4E47308F02AFE19484FF4E471F0
:1018E00008F01CFE1F606760EDE7524602212046AB
:1018F000FFF788FD35462846BDE8F0876FF00A05FA
:10190000D8E76FF00405D5E78AF31188BFF36F8F2E
:10191000B8F1000FEFD0002332463946204608F0D8
:1019200042FFE8E761C700008EC70000EAC300007D
:10193000A3C70000B9C70000D0C7000080C80000DE
:10194000F0C7000008B54268816002F00302032A74
:10195000034602D02AB1002000E0006800225A604D
:1019600008BD05490548064A452308F0E0FD04483E
:10197000452108F0D3FD00BF8BDD0000EAC3000065
:1019800096C8000030B51049104889B0002209F00F
:101990005FFE0F4D0F4900220023CDE906230024EE
:1019A0000E23CDE90334CDE901440B4B00944FF4F1
:1019B0000062284605F056FE0849284605F074FDE9
:1019C000204609B030BD00BF291B000010170020C1
:1019D00058120020C01D00207D1E0000BCC8000061
:1019E0002DE9F047DFF85880044607464FF001091B
:1019F00014B93846BDE8F08794FAA4F5B5FA85F530
:101A000009FA05F32E0108EB05156FEA030A24EA2B
:101A100003042B7B002BEBD058F806301B694BB925
:101A20004644042273682846196807EA0A0708F042
:101A300029FFDDE7284698470028D9D1F0E700BF05
:101A4000A4BD00002DE9F047DFF8BC902F4CA9EBB6
:101A500004038F2B80460F460BD92D492D4A2E4863
:101A60004FF4A67308F063FD4FF4A671294808F0FF
:101A700055FD2A4808F0E6FE064678B300252846BC
:101A8000BDE8F087237B83B12368DB680BB1204678
:101A90009847636883F806A023681B69B3B9636835
:101AA00004221968204608F0EDFE013610344C453A
:101AB00018D91B49174A18484FF4AC7308F037FD82
:101AC000184808F034FD4FF4AC71CFE72046984732
:101AD0000028E4D00AFA06F31D43E6E705464FF076
:101AE000010AE4E7CED3B8F1000FC8D0002DC5D06D
:101AF0002846FFF775FF0546002FF7D000214FF469
:101B0000A47006F095FBF1E7C4BD0000A4BD000081
:101B1000F1C80000C4C80000EAC30000BC190020DE
:101B200021C9000042C90000014805F0C5BB00BF43
:101B300048120020014B53F820007047BCC0000041
:101B400008B5034608462BB1044A136000F0D6FDE1
:101B5000002008BD6FF01500FBE700BFC410002097
:101B600010B5044C237813B9034805F0A5FB0123F5
:101B7000237010BD7C1B00204812002010B50446C5
:101B80000B4808F05FFE5CB1BFF35B8F094B53E875
:101B9000001F013943E80012002AF8D1BFF35B8F20
:101BA000054809F061FD0548BDE8104005F084BB1B
:101BB000B4190020B8190020101700204812002086
:101BC0000020064BBFF35B8F014653E8000F43E84C
:101BD0000012002AF9D1BFF35B8F7047B4190020BF
:101BE00070B5FFF7EDFF104C104E0546B44219D901
:101BF0000F49104A10484FF4037308F098FC0F483F
:101C000008F095FC0B484FF4037108F087FC6368FB
:101C10005B792BB123685B6813B12946204698474E
:101C20001034E3E7F3D370BDA4BD0000C4BD0000D1
:101C300021C90000C4C80000EAC3000042C9000076
:101C400010B5044C04492046FFF736F9034B1C60DD
:101C500010BD00BF08120020A8C00000A819002075
:101C6000154A1648002310B51370154A1360154A1B
:101C70004FF400411360FFF763FFFFF7E1FF124BE2
:101C8000124918468B4215D91149124A124840F29E
:101C9000271308F04CFC114808F049FC0D4840F2AD
:101CA000271108F03BFC1A1A5C68121101322271EC
:101CB0001033E7E7F7D310BD7D1B002041A80000DB
:101CC000B4190020B8190020A4BD0000C4BD000054
:101CD00021C90000C4C80000EAC3000042C90000D6
:101CE0000146002201480023FFF718B9081200201E
:101CF0000148FFF72FBA00BF08120020024B01462F
:101D00001868FFF7BBBA00BFA81900200148FFF709
:101D100027BB00BF0812002070B5314B187800288F
:101D20005DD0FFF7E5FF0546002844D12D4B2E4C32
:101D30001B68002B19DD09F089FC4FF47A72A0FBB7
:101D4000020302FB0131C30BD4E9002043EA414303
:101D50009B1A4FEAD13140F2E93261EB0001934224
:101D600071F1000101D3FFF73BFFD4E9003213F515
:101D70007A7342F10002C4E90032BDE87040FFF717
:101D8000C5BF63685B7923B1236829461B68204679
:101D900098471034B44211D91449154A15484FF4E4
:101DA000007308F0C4FB144808F0C1FB10484FF45E
:101DB000007108F0B3FB114C114EEBE7E1D328465C
:101DC000FFF79CFFBFF35B8F0E4B53E8001F0139F9
:101DD00043E80012002AF8D1BFF35B8FA6E770BD7D
:101DE0007C1B0020B41900200817002021C9000026
:101DF000C4C80000EAC3000042C90000A4BD00003E
:101E0000C4BD0000B819002070B5154D297829BB54
:101E10000120FFF717FE134C134EB44217D9134994
:101E2000134A144840F2C51308F081FB124808F029
:101E30007EFB0F4840F2C51108F070FB63685B79C8
:101E40001BB1236820469B6898471034E5E7F5D31B
:101E5000FFF762FF0028FBD101232B7070BD00BF8C
:101E60007D1B0020A4BD0000C4BD000021C90000EE
:101E7000C4C80000EAC3000042C900002DE9F047D1
:101E8000384B394FFB1A1B090AD13849384A3948AF
:101E900040F2A93308F04BFB40F2A931344819E075
:101EA00000210846FFF7CEFD0446A8B140F267685E
:101EB0004FF00009304B1B789BB93049304A2D4810
:101EC00040F2463308F033FB2E4808F030FB2C4834
:101ED00040F2463108F022FB4FF0FF384FF0FF3957
:101EE000E8E709F0C9FD284B284A1B58136033B1B5
:101EF000274B1B68092B02DD264805F0DDF9DFF8CA
:101F000094A0002544B12046FFF76AFD044618B9A5
:101F10004FF0FF384FF0FF39FFF7FEFE064628B9B5
:101F200035B942464B46504605F044FA3546E9E796
:101F30000C4D08E0F5D22B689B691BB100221146BD
:101F4000284698471035BD42F4D91349084A094834
:101F500040F29D3308F0EBFA104808F0E8FA40F23E
:101F60009D319BE7A4BD0000C4BD000061C9000015
:101F7000C4C80000EAC30000961D0020FDC6000092
:101F8000D2C6000010C7000008000000B0190020F1
:101F9000B81900204812002021C9000042C90000E1
:101FA00013B52C4808F04EFC2B4B1B78002B35D07A
:101FB000EFF31184202383F31288BFF36F8F274838
:101FC00006F0DCFB68B9264A26492748882308F032
:101FD000AEFA2249254808F0AAFA8821204808F0DC
:101FE0009DFA1E4806F0EEFBFFF796FE1B4806F032
:101FF000D3FB68B91A4A1E491B484FF49A7308F07C
:1020000096FA16491B4808F092FA4FF49A71E5E7E0
:1020100084F31188BFF36F8F02B010BD164B1B689D
:10202000002BF9D050B900220023CDE9002313483A
:102030004FF40042002306F049FFEDE70928EBD1F9
:102040000E4809F011FB0E4802B0BDE8104005F043
:1020500033B900BFB81900207D1B0020AC19002047
:1020600061C700008EC70000EAC30000A3C70000DC
:10207000B9C70000D0C70000B01900201017002019
:102080004812002010B5064B1B68044698472146AD
:10209000A0600448FFF706F8BDE81040FFF780BFD6
:1020A000C410002008120020044A054B9B1AB1EB13
:1020B000D30F34BF52F83100002070473CBD000000
:1020C000A4BD00002DE9F04F8FB004AFC1F34A2842
:1020D000B8600D4691467B600C0DB8F1000F68D0DA
:1020E000002607F114034FF0040B4FF00A0AC7F85B
:1020F0000C80C7E907667E620193CDF808B0CDF881
:1021000000A007F11C03F96832464846FEF75EFC62
:10211000B0F5006F03461CD36C468AB0D9F80410A2
:1021200004AB2C48C3E9050140F2FF71D9611A469E
:102130004FF400711984284B42F8103F274833466A
:102140004FF41251FFF7BEFFA5462C37BD46BDE840
:10215000F08FC0F30A0804F11700184420F00700BC
:1021600080083B60FFF7BCFD68F35325044640B38D
:102170003B681B4AC7E9083600F1100107F1140358
:10218000F961CDE900A3CDF808B0F96807F11C03A7
:102190004846FEF71BFC002813DA12491248134A7E
:1021A0004FF4A37308F0C3F910484FF4A37108F07B
:1021B000B5F904F1170020F007008008FFF790FD43
:1021C000044668F353257B68B9682A46204608F020
:1021D00079FBBAE78AC900000400000164BD000071
:1021E00097A80000F6C90000EAC30000C9C90000B2
:1021F0002DE9F04F87B0DDE91279DDE9106A044678
:1022000003919346984627B3CDF800903B4652463B
:1022100010210020CDF81490FEF7BCF9051E0BDA52
:102220002649274A274840F2651308F080F940F212
:102230006511234808F072F9B5F5006F0ADB224AF0
:10224000224840F2FF73022107B0BDE8F04F08F0CA
:1022500092BB3D4606F11700284420F0070004F029
:1022600007048008FFF73CFD0BF0070BE40044EA8D
:102270008B1444EA452444EA06540646A0B19FB1B3
:10228000CDF800903B46524629461030FEF782F9C1
:10229000002809DA09490A4A0A484FF4C47308F0C9
:1022A00046F94FF4C471C4E70399434622463046C9
:1022B00007B0BDE8F04F08F005BB00BFF5C900004E
:1022C000C9C90000EAC30000FFC9000064BD0000E6
:1022D000406820B1034BC01A40F3CF0070474FF065
:1022E000FF3070473CBD00000EB403B503AB0146A0
:1022F00053F8042B0448019301F000FA02B05DF892
:1023000004EB03B0704700BF29230000CA0605D4C0
:102310008B064CBF02490349FFF7E6BF704700BF79
:102320000DE00000B3C3000038B54B681A68CB68F5
:102330009A4205460C4602D1084608F040FB636805
:10234000BFF35B8F53E8002F511C43E800100028B7
:10235000F8D1BFF35B8FA3689D5463681A68E36884
:102360009A4209D905490648064A722308F0DFF85F
:102370000448722108F0D2F8002038BD66CA000077
:10238000EAC3000037CA00002DE9F04F89B09B4630
:10239000149B06939DF84CA0159B0593169B179EC6
:1023A000049304460D469046BAF1000F00F0AD804C
:1023B000BAF1040F0BD9A349A34AA44840F24D2314
:1023C00008F0B5F840F24D219F4808F0A7F806F450
:1023D0008073079308F054FA06F0020902460028B9
:1023E0003FD09B492046FFF77FFF0746B9F1000F1A
:1023F00008D016F0440F36D196492A462046FFF7FA
:1024000073FF074406F0010353B1934B934953F80C
:102410002A20934B2046002A08BF1A46FFF764FF84
:1024200006F48073002B4AD006F00803002B64D119
:10243000B8F1000F67D08B4942462046FFF754FFA2
:102440000546069B3D44002B6ED1049B002B40F0BB
:102450008380F30700F1F08031462046FFF756FFF6
:10246000E4E00746C2E7804B18680028C9D07F4BDC
:102470004FF47A791B68B5FBF3F54FF46163B5FB54
:10248000F0F100FB115509FB05F54FF03C0CB1FBD9
:10249000F3F203FB1211B5FBF0FEB1FBFCF300FB02
:1024A0001E550CFB131109FB05F50091B5FBF0F56A
:1024B0006F49CDE901E52046FFF716FFA1E706F0D9
:1024C0000803EBB16B4B6C4953F82A202046FFF709
:1024D0000BFF0546B8F1000F05D062494246204681
:1024E000FFF702FF0544BBF1000FAAD063495A462B
:1024F0002046FFF7F9FE0544A3E74FF0000BE1E7A4
:1025000006F00805E6E745469BE7BBF1010F069B91
:1025100006D1DBB9049B002B00F0888000251BE06E
:10252000002BF7D0564812E05648069B56492246E3
:1025300007F08DFF00280CDA5449434A434840F223
:10254000A72307F0F4FF40F2A7213DE74D48554689
:10255000EBE7049B002B65D0DFF83481DFF8349182
:10256000049F3146102F204628BF1027FFF7CEFECC
:102570004FF0000B5D4542DC059B49461A7820462A
:10258000FFF7B2FE4FF0010B1BF0070F03D14146DE
:102590002046FFF7A9FE5F4538D9059B494613F849
:1025A0000B202046FFF7A0FE0BF1010BBBF1100F33
:1025B000EAD1394920464FF0000BFFF795FE5A4605
:1025C000059B9A5CA2F120015F2928BF2E22334986
:1025D0002046FFF789FE0BF1010BBBF1100F1AD05B
:1025E0001BF0070F03D141462046FFF77DFE5F45F4
:1025F0005A46E5D841462046FFF776FEEBE74146CE
:102600002046FFF771FE0BF1010BB3E7244920468A
:10261000FFF76AFEC8E7059B3B440593049BDB1B61
:1026200004939DD1BAF1000F7FF413AF204609B097
:10263000BDE8F04F08F0C3B9094A08492046FFF742
:1026400053FE09E79BCA000037CA0000EAC3000036
:10265000A6CA0000AACA0000CCC00000C3D5000072
:1026600096CA0000CFCA0000C4190020C01900207B
:10267000B3CA0000E0C00000D3CA0000D9CA0000FD
:10268000D9A9000029230000FD360000DECA0000A1
:10269000EFCA0000E7CA0000F1CA0000F3CA000058
:1026A000EDCA000073B542F20F738B4228BF0B4690
:1026B00005680F4A04460521684606F075FC636804
:1026C0000C495B6806460B22284608F06AF96368E5
:1026D0003246694628465B6808F063F96368064934
:1026E0005B681B22284608F05CF902B070BD00BF91
:1026F000CECC000012CB0000F6CA0000074A002131
:102700000123904206D8064A01B901231360054B04
:102710001860704740085B000121F2E740420F005B
:10272000C0190020C4190020014B01221A70704703
:102730007E1B0020014B002019607047DC1900202F
:102740000148FFF7AFBF00BF10C1000010B5064B36
:1027500018680C46FFF7EEF921460346BDE8104025
:1027600002480F22184700BFDC19002010C10000EA
:10277000F8B5094D094B0A4ED5E9004701221A70F8
:102780000CB92C60F8BD214630463A4600F01EF8E0
:10279000241A0644F4E700BFD01900207F1B002054
:1027A000801B002010B9074B18707047064B1B7830
:1027B0001BB141F2883008F0CFBEA420002105F003
:1027C00037BD00BF7E1B00207F1B00202DE9F04796
:1027D000DFF878901E4F80460E46042499F800508A
:1027E000A5B908F0ACFE324682464146284604F0C0
:1027F0004BFA0546504608F0AAFEE5B101233B70AE
:1028000099F8003073B93046BDE8F087324641464A
:10281000002004F039FA0546EFE72046FFF7C2FF33
:10282000651E2C46002004F0B9FA0028EBD03B7856
:10283000002BF2D1E7E73B78002BE4D0013C2046A7
:10284000FFF7B0FF3B78002BC8D1DCE77F1B0020EF
:102850007E1B0020F8B5074F0D4604464618B442CB
:1028600001D12846F8BD14F8011BBB6801485B681C
:102870009847F4E734BB000010B543681C6809486A
:1028800008F06EFE48B908490848094A992307F03C
:102890004EFE0748992107F041FE23685B685C60A3
:1028A00010BD00BF34BB00008CCB0000EAC30000A9
:1028B0004ECB0000014B03600020704754C1000064
:1028C00008B5044807F01DFE034807F01AFE002073
:1028D00008BD00BFC0CB0000F5CB000008B5034821
:1028E000034A0021121A08F0EDF808BD5812002022
:1028F000981D00200748084A084908B5121A08F030
:10290000E3F80748074A0849BDE80840121A08F0EA
:10291000DBB800BFC01000205812002068E600009D
:10292000B8100020C010002060E600002DE9F0473C
:10293000064600AF0C46002936D0E9468AB0D1E9F8
:102940000012A3686D462148A8464FF0050AC5E964
:102950000501C5E9072348F810AF1D48424600238A
:102960004FF42151FFF7AEFBCD46D4E90312636962
:10297000AD461848C5F810A0C5E90501C5E907230B
:102980001348002342464FF42151FFF79BFBCD46ED
:10299000E369114A0E48012107F0EDFFA3690F4AD0
:1029A0000B48012107F0E7FF012E07D1EFF3058364
:1029B0000B4A0748103B314607F0DDFF2146304601
:1029C00004F04CFABD46BDE8F08700BF23CC000000
:1029D00084BD000052CC000081CC000090CC0000EF
:1029E000BECC000030BFFFF7FDBF00BF2DE9F041B6
:1029F0000B4EDFF8308006EB0807CC1B054632464D
:102A00000949204608F04DFEA01942460021083C25
:102A100008F055FEC5F8A44007F10800BDE8F081B4
:102A2000000000000400000008BE0000054B5A69C9
:102A30009B689A421FBF044A536843F08053536017
:102A4000704700BF381B002000ED00E070B5294C36
:102A500006460D462848294908F043F8A36AD904D8
:102A60003CD52548264908F03CF81720A36A1A05EA
:102A700004D52148234908F034F818201D4CA36AD6
:102A80009B0512D51C48204908F02BF8A36BA26ABD
:102A9000100409D51D4A1848012107F06CFF1EB12A
:102AA000A36A23F40043A3621920124CA36A5905B8
:102AB00004D51148164908F014F81A20A36ADA055B
:102AC0000ED50D48134908F00CF81B20094A936AEB
:102AD00043F47F43936200232B7070BD1620C5E73B
:102AE000A36A9B04F2D504480B4907F0FAFF1C20A7
:102AF000ECE700BF00ED00E084BD0000D1CC000099
:102B0000E7CC0000F8CC00000BCD000024CD000085
:102B100039CD000054CD00006CCD000010B5204C24
:102B20002049214807F0DDFFA36A990136D51E48E8
:102B30001E4907F0D6FF1E20A36ADA0104D51A4801
:102B40001B4907F0CEFF1F20154CA36A1B0304D5B9
:102B50001548184907F0C5FF2120A36A590304D579
:102B60001148154907F0BDFF22200D4CA36A9A03B6
:102B700004D50D48114907F0B4FF2320A36ADB03F5
:102B800004D509480E4907F0ACFF2420044A936A93
:102B90006FEA03436FEA1343936210BD1D20CBE736
:102BA00000ED00E09BCD000084BD0000B3CD00002F
:102BB000C6CD0000E0CD0000FECD000023CE000019
:102BC0003DCE00002DE9F8433F4D804689463F4801
:102BD0003F49174607F085FFAB6ADA0627D53D491E
:102BE0003A4807F07EFF1124AB6A1B0704D53A4927
:102BF000364807F076FF1224334DAB6A9E0718D58E
:102C00003649324807F06DFF6E6BAB6A1C0646D53D
:102C1000334A2E483346012107F0ADFEB9F1000FCB
:102C200003D0AB6A23F08003AB62132403E01024CB
:102C3000DAE76FF01506244DAB6AD80704D52949A9
:102C4000224807F04EFF1424AB6A990604D52649A2
:102C50001E4807F046FF15241B4DAB6ADA0602D466
:102C6000AB6A9B070AD56B68180507D54146304605
:102C700000F0D2FAB0B180F309880224124B9A6AAC
:102C8000920642BF5A6A22F400525A629A6A42F08D
:102C9000FF029A6200233B702046BDE8F8836FF084
:102CA0001506C2E7AB6AD906E8D51049104A1148A3
:102CB00040F2271307F03BFC0F4807F038FC0C48A4
:102CC00040F2271107F02AFC00ED00E084BD00006F
:102CD00068CE00007ECE0000F8CC0000B1CE00002F
:102CE000C9CE0000DFCE00006CCD000030CF000068
:102CF000FECE0000EAC300007ACF0000F0B5794BA9
:102D00008BB00446586800AFC0F30803002686F372
:102D10001188BFF36F8F02F07F45B5F17F4F07D168
:102D200002F00C05082D12D16F49704807F0D9FE4A
:102D30006F49704A704840F2144307F0F8FB6F483F
:102D400007F0F5FB40F214416A4807F0E7FB15076E
:102D50004CBF0C460126002CEAD00022FA71DA1E84
:102D6000092A00F29E80DFE802F0059497779C9C88
:102D70009C9C9C9A62495D485A4D07F0B2FE002324
:102D8000FB71EB6A9A0705D55E49584807F0A9FE22
:102D9000002329E0EB6A002B01DA5B49F5E7EB6AD7
:102DA0005B0069D55949514807F09BFE6B69A269E0
:102DB00043F480736B61BFF34F8FBFF36F8F6B6909
:102DC00032F8022C23F480736B61BFF34F8FBFF393
:102DD0006F8F4DF602739A4227D123684C4A4348BD
:102DE000012107F0C8FD2368FA79DAB907F108056F
:102DF00004F1200C206861682A4603C20834644547
:102E00001546F7D17A6A002E67D0C2F3080121B9BE
:102E10006FEA52226FEA42227A6207F108011846ED
:102E2000FFF784FD2C37BD46F0BDAB6ADBB233B192
:102E3000FA1D01212046FFF7C5FE0346D4E7AB6A21
:102E400013F47F4F04D0F91D0120FFF7FFFDF4E7D5
:102E5000AB6AB3F5803F02D3FFF760FEEDE72D4983
:102E6000244A254840F2ED2307F061FB2A4807F089
:102E70005EFB40F2ED2167E726491E4A1E484FF4EB
:102E80003C7307F054FB254807F051FB4FF43C71AD
:102E90005AE7FA1D0021CDE7F91D0020D5E72049AA
:102EA00073E7204A204910F4F87F6D468AB018BFB6
:102EB00011466A46103BD3611C484FF400731384DB
:102EC0001B4BC2E9050142F8103F084800234FF4AC
:102ED0001151FFF7F7F8AD465AE722F4FF7222F0DE
:102EE000010299E700ED00E0CBCF000084BD0000B7
:102EF000F6CF0000FECE0000EAC3000009D00000BB
:102F000047D000005ED000007FD000008DD00000D0
:102F1000ACD000008BDD0000C8D00000ECD0000079
:102F20001CD10000B2CF00009DCF000040D10000B6
:102F300004000001044B5A6942F010025A615A69B8
:102F400022F008025A61704700ED00E0EFF30880BC
:102F5000EFF3098101B57246FFF7D0FE01BD00BF56
:102F6000002080F31488BFF36F8F114880F3088826
:102F700000201049087001F0A7FE00200E490860EB
:102F8000BFF34F8F00F02EF8202080F311880B48FC
:102F90004FF40461401880F30988EFF31480022194
:102FA000084380F31488BFF36F8F00F005F9000029
:102FB000C0330020961D002094ED00E00026002084
:102FC0000749D1F890200023C2F307221846934204
:102FD00000DB7047C1F89830C1F8A0000133F6E774
:102FE00000ED00E008B572B6002383F31388FFF705
:102FF000E7FF144B4FF0FF32C3F88020C3F8842062
:10300000C3F88820C3F88C20C3F89020C3F894201C
:10301000C3F89820C3F89C20C3F88021C3F884210A
:10302000C3F88821C3F88C21C3F89021C3F89421F8
:10303000C3F89821C3F89C2162B6BFF34F8FBFF34A
:103040006F8F08BD00E100E0084B9B6883420BD105
:10305000EFF3058343B1064B5A6842F080525A6041
:103060005A6A22F400425A6205F07AB9381B0020ED
:1030700000ED00E015498A684FF030001044EFF38E
:10308000098C80E8F01F202080F31288BFF36F8F37
:103090000F4F4FF000664A698A603E60D2F8A40084
:1030A0000C4C2060D2F8A8000023C2F8A83080F3AE
:1030B000118804B5104600F017F9BDE8044002F18C
:1030C000300090E8F01F8CF309887047381B00200F
:1030D00004ED00E0041A00201EF0040F0CBFEFF313
:1030E0000880EFF30980816911F8021C0229FFD0E2
:1030F00001B5724607F0EAFC01BD00BF40B20028EE
:1031000007DB044A4109012300F01F00834042F815
:103110002130704700E100E0054B420900F01F003C
:1031200053F82220012303FA00F01040704700BF3B
:1031300000E100E038B54B1C072B04460D460FD9C3
:10314000114A124912486B2307F0F1F91148294638
:103150000723224607F0EBF90B486B2107F0DEF955
:1031600040B20028ACBF00F160400B4A4FEA431365
:10317000B8BF00F00F00DBB2AABF00F561401354E6
:1031800080F8003338BD00BF53D100008AD1000061
:10319000EAC30000A5D1000014ED00E0044B054A8D
:1031A00023F07F039360BFF34F8FBFF36F8F7047A0
:1031B0000000000000ED00E008B5FFF7EFFF074A50
:1031C000D2F8883023F47003C2F88830FFF786FB0A
:1031D000FFF790FB00F05EF803F0A2FF00ED00E0C7
:1031E00042F8203C009B42F81C3C0A49019B42F8F3
:1031F000183C029B42F8143C21F001014FF080730F
:1032000042F8043C42F8081C0023203A0265C0F84A
:10321000A83070474D0E00000A4A0346906878B106
:1032200013F1160FD0F8940005D0A0F140029A4295
:1032300005D8834203D2814228BF00207047002076
:10324000704700BF381B002008B515460C4A0D4BCF
:103250009060D0F8A4201A600E4600F045F82C4685
:1032600086F309880020044B98472046002100225D
:103270000023024C20470000F9AA00004D0E000078
:10328000381B0020041A0020014B10221A617047DD
:1032900000ED00E0044800232021C2180133272B51
:1032A00082F80013F9D1704700E100E008B5EFF3B0
:1032B0000583064A103B02EBC30152F8330049680C
:1032C0008847BDE80840FFF7B1BB00BF88BB0000DE
:1032D000024B034A0348012100F08CB80000012092
:1032E0000000002054C10000D0F89420054B403A63
:1032F0001A60054A4021C3E901121846012100F075
:103300009FB800BF081A002000000B1508B503463F
:103310001048D0F89020C2F30722013A934207D90F
:103320000D480E4A012107F026FB6FF0150008BD7D
:10333000C0F898300A6822F01F021A4342F01002C7
:10334000C0F89C208A6842F00102C0F8A02018460C
:10335000EDE700BF00ED00E07CBD0000E9D100001A
:10336000F0B50E4685B01F4604460025B5420DDA7D
:10337000606810B397B1431E18420AD0104A114832
:103380002B46012107F0F7FA6FF01502104605B041
:10339000F0BD1F28F2D921680B42EFD123680193B9
:1033A00007F0CDFBA36801A90343D0B20393FFF755
:1033B000ADFF10F1160FE7D0421C01350C34D5E7F4
:1033C0000FD200007CBD0000044B0522C3F89420FE
:1033D000BFF34F8FBFF36F8F704700BF00ED00E06A
:1033E000BFF35F8F024B0022C3F89420704700BFE9
:1033F00000ED00E038B50D4D01232A780C46FFF7AB
:10340000AFFF287016300FD1094A0A490A484FF415
:10341000C47307F08CF80948214607F088F804487F
:103420004FF4C47107F07AF838BD00BF911B00203B
:1034300032D200008BDD0000EAC3000061D2000040
:1034400010B5144A002312780C46FFF789FF10F1DB
:10345000160F08D0104A0021D2F89030C3F307238A
:10346000984210DB10BD0D4A0D490E4840F2A713DB
:1034700007F05DF80C48214607F059F8074840F27C
:10348000A71107F04BF8C2F89800C2F8A01001305D
:10349000E2E700BF911B002000ED00E032D2000007
:1034A0008BDD0000EAC300008DD200002DE9F04F53
:1034B000834C8449D4F890300D68C3F307239D42B0
:1034C00085B013D9804A8149814840F2012307F031
:1034D0002EF8D4F890207F482946C2F3072207F03F
:1034E00026F840F20121784807F018F8FFF778FF36
:1034F00049680022954201F10C012DD1764C774F9D
:1035000025706846FFF7D6F9DFF8D481DFF8D4914B
:1035100006460025AE4232D1237869490020D1F811
:103520009020C2F307229342C0F2BF80FFF74CFF06
:10353000D1F89030C3F30723082B00F0BC806A4910
:10354000614A634840F2732306F0F1FF674806F0D2
:10355000EEFF40F27321C6E7C4F8982051F80C3C06
:1035600023F01F03134343F01003C4F89C3051F8B9
:10357000043C43F00103C4F8A0300132BAE7009ADA
:1035800002EB05132901D3F80CA00AEA0700B0F5F5
:10359000000F65D00AD8B0F5001F3BD0B0F5800F02
:1035A00051D0B0F5801F15D00135B3E7B0F1007FE1
:1035B00061D0B0F1805F69D0B0F1807FF4D19868BC
:1035C000D3F804A0525807F0BAFACDE901A240F0AE
:1035D00088700BE09868D3F804A0525807F0AFFA4F
:1035E000CDE901A240F0885040F4302003902078CB
:1035F00001A9FFF78BFE002853DA3449324A3448D8
:1036000040F22B2306F093FF394806F090FF40F27A
:103610002B2168E79868D3F804B0525807F08FFA66
:103620001AF0010F40EA0900CDE901B20390DED0A3
:103630003049254A2648832306F079FF2E4806F0B4
:1036400076FF83214FE79868D3F804A0525807F01B
:1036500076FA40F0C060CDE901A240F40030C5E741
:103660009868D3F804A0525807F069FACDE901A28E
:1036700040F08270BAE79868D3F804A0525807F077
:103680005EFACDE901A240F48020AFE79868D3F854
:1036900004A0525807F053FACDE901A240EA08000D
:1036A000A4E72378013323707EE7C1F89830C1F88E
:1036B000A000013333E7002005B0BDE8F08F00BF64
:1036C00000ED00E060C1000032D200008BDD0000A0
:1036D000EAC30000BAD20000911B00200000F0FFF6
:1036E00000000211000008116DD30000BDD30000DE
:1036F00043D30000EED2000014D30000F0B587B031
:1037000007460E4614460021102268461D4607F063
:10371000D6FF02238DF802302A46054B019321463D
:103720006846CDE9047605F007FD07B0F0BD00BF9F
:103730005FAB000008B5024B1B689847002008BD2E
:10374000141A0020034B044A1860937843F00203D4
:1037500093707047141A0020D010002008B5064955
:10376000064821F00701C1F1005202F58032FCF752
:1037700073FE002008BD00BF07340020181A002087
:10378000044A0123C2F840354FF080420020C2F8BD
:103790007835704700E0014048B1054B054A1B6889
:1037A000B3FBF2F35843044B43F00103184770474F
:1037B000E811002040420F0010BE000008B5044888
:1037C000044A3F23C0E9002301F0BAFB002008BDF2
:1037D000241A0020FFFF0F0037B50C460A490B4A98
:1037E000411A40230093491105462346084807F033
:1037F000C1F9011E05DA2846234603B0BDE8304072
:10380000184703B030BD00BF401A0020DDAB0000F8
:10381000FCBA000010B5EFF31184202383F3128863
:10382000BFF36F8F074A136823F00201DB071160B3
:1038300002D4012001F02EFC84F31188BFF36F8FB6
:1038400010BD00BF981A0020C9B2012908B509D9D6
:1038500008490948094A7E2306F069FE07487E2187
:1038600006F05CFE03690C2201FB0233986C00F049
:10387000070008BD2ED40000EAC30000F1D3000009
:1038800070B5C9B2012903690BD918491848194AFA
:103890004FF4E87306F04BFE16484FF4E87106F05B
:1038A0003DFEEFF31185202484F31288BFF36F8F60
:1038B0000C2606FB0134A46C14F0C00408D0A2420C
:1038C00006D085F31188BFF36F8F4FF0FF3070BDC6
:1038D00071430B4401229A6485F31188BFF36F8F03
:1038E00043680B445B6898470020F0E72ED4000043
:1038F000EAC30000F1D3000070B50D460649411A35
:103900000446491105484022FFF7BAFF2B460146FD
:103910002046BDE870401847401A0020FCBA00005D
:103920000022F8B5012105461046FFF703FC1048B8
:1039300001F03EFB0446B8B901F05AFB2F690D496E
:10394000384606F046FF031E09DB0126BE642D69DA
:10395000084905F1200006F03CFF031E02DA1C4670
:103960002046F8BD6E65FBE76FF00404F8E700BF82
:10397000193A000080C100001FB500220123CDE9E3
:103980000223094ACDF800D06B46CDF804D007F0E9
:103990001EF9002805DB4FF480420023684603F03F
:1039A00009FD05B05DF804FBE9AB000010B5064C5D
:1039B00023782BB94FF4A57007F0CEFD01232370B7
:1039C000BDE8104001F06ABC921B002030B4104BDF
:1039D0000C2202FB003301460020D3E91052186488
:1039E000EFF31180202484F31288BFF36F8F9C6C57
:1039F00004F0C00444F002049C6480F31188BFF317
:103A00006F8F1DB12B46034830BC184730BC704740
:103A1000401A0020FCBA0000012808B506D003288F
:103A200008D098B90F4B9B6C5B0719D1BDE80840D3
:103A3000FFF7CCBF0C490D4A0D4840F2FA2306F0BF
:103A400076FD40F2FA21094806F068FD0649074A6A
:103A500007484FF4417306F06AFD4FF44171F2E7F5
:103A600008BD00BF401A00208BDD0000F1D300002C
:103A7000EAC3000010B4EFF31182202383F312880D
:103A8000BFF36F8F1748016841F002040460C80754
:103A900007D482F31188BFF36F8F012010BC01F0AF
:103AA000C9BA4FF08041D1F80C04D1F80C14C90701
:103AB000EFD5EFF3118083F31288BFF36F8F0A49BC
:103AC0008B6C03F0C00343F002038B6480F3118816
:103AD000BFF36F8F82F31188BFF36F8F002010BC8C
:103AE000FFF774BF981A0020401A00202DE9F0411A
:103AF0004449BFF35B8F0646012251E8003F41E88D
:103B000000200028F9D1BFF35B8FA3B93E493F489D
:103B10004B60CB608A60FDF77DFE00280BDA3C49E4
:103B20003C4A3D4840F2A32306F001FD40F2A321A8
:103B3000384806F0F3FC76B3731E012B58D8012EDB
:103B400007D14FF08043D3F81C3403F00303012B5B
:103B500021D007F024FD0546F8B9304B1B78E3B1BE
:103B60004FF080430222C3F808230746DFF8B080F5
:103B70004FF08044D4F81824D4F81834D20315D563
:103B800003F00303012B01D0012E0FD155B387F3AE
:103B90001188BFF36F8FBDE8F081EFF31187202309
:103BA00083F31288BFF36F8F0125DFE7ADB138468D
:103BB00006F0B6FFD4F81835002BDBD1D4F8042179
:103BC000002AD7D0C4F80431D4F804310123C4F852
:103BD0001835C8F88031A360CCE70021212004F01B
:103BE00027FBE7E74FF080430222C3F80423D2E724
:103BF0000C49084A084840F2B52306F098FC40F208
:103C0000B52195E73C1A00202C1A0020601A0020EC
:103C1000DECA0000F1D30000EAC30000961D0020B8
:103C200000E100E08BDD000010B5044C2046FDF7FC
:103C300007F92046FFF786FD002010BD413C00003B
:103C400073B5104E8DF807000446032501220DF1CF
:103C50000701002003F088F820B1012333702046CB
:103C600002B070BD3378002BF9D0013D08D007F0C9
:103C700096FC0028EAD10021422004F0D9FAE5E7B9
:103C80003570ECE7931B002008B5074807F068FC87
:103C900038B10648FFF756FD0448FDF7D1F800207B
:103CA00008BD6FF01200FBE734BB0000B13C000020
:103CB0000A2838B5074D044604D1AB680D215B686E
:103CC00028469847AB6803485B68E1B298472046AE
:103CD00038BD00BF34BB000010B5036961B920498D
:103CE000204A21484F2306F022FC204806F01FFC02
:103CF0004F211C4806F012FC486850B91C49194A6B
:103D00001948502306F013FC1A4806F010FC502105
:103D1000EFE75868F8B1884219D19C680868586084
:103D2000A14200D19860002008602AB15A680A6058
:103D30009A68596002B99960002010E0814206D16A
:103D40000868206098688142EDD19C60EBE70446EA
:103D500000680028F2D1002AE8D16FF0150010BDEC
:103D6000B7D400007BD40000EAC30000C0D4000038
:103D7000CFD40000E1D4000008B50268530904D193
:103D80004FF0FF33D340DB070BD407490748084AFD
:103D90004FF4747306F0CBFB05484FF4747106F0D2
:103DA000BDFB4FF0A04008BD2BD50000EAC30000CA
:103DB000F8D4000070B54468207C01F01F0545EA86
:103DC0004015A06886B0002871D0B2F5001F04D15C
:103DD000294601F0B9FE00204DE06068667CC0F81D
:103DE000246501A80026B2F5800F0196466031D106
:103DF000B3F1007F14BF052304238DF804300023A2
:103E0000CDE904030393E368CB40D90735D4B2F17D
:103E1000A07F32D168460095FFF7AEFF05F5E0734D
:103E200050F82330DB0728D4A0686A46294601F001
:103E30002BFD163019D0CDF808D0A06803AA29466A
:103E400001F0D8FB002816DBA0680122294601F00A
:103E5000FBFDC0E7B3F1C06F05D0B3F1007F14BF25
:103E600001230223C9E70323C7E7A068694601F0DD
:103E7000CBFD0028DFDA06B070BDA0686A4629468F
:103E800001F002FD0028D8D19DF80010A06801F0D3
:103E90009FFD0028D1D007490748084A40F2F11396
:103EA00006F045FB054840F2F11106F037FB6FF0D4
:103EB0008500E0E758C70000EAC300004ED50000C7
:103EC000430970B507D1124B596821B101250C681F
:103ED000104E854001B970BD8A682A4010D04B68E9
:103EE00063B90D490D4A0E48742306F020FB0D48B6
:103EF00006F01DFB0948742106F010FB3046984778
:103F00001CB1236821461C46E4E72346FAE700BFBC
:103F10009C1A002018BB000022DD00007BD40000AA
:103F2000EAC30000E1D400002DE9F043476840F205
:103F300006363B7CD00687B001F01F0502EA060674
:103F400045EA431554BFC2F340130323B6F5837FFC
:103F500014468DF8033044D00DD8062E16D005D85F
:103F6000A6B1022E3FD06FF0150037E0B6F5807F86
:103F7000F9D101260AE040F20222964235D0B6F588
:103F8000407F34D0B6F5007FEDD102260123220315
:103F900003FA01F12DD57B68C3F80815B86870BB2A
:103FA00003A80395FFF7E8FE84F4803300EB850057
:103FB000C3F30043C4F34044D0F8002744EA430469
:103FC0009DF8033022F4E16244EA830422F0070200
:103FD00044EA06231343C0F80037002007B0BDE8C9
:103FE000F0830726D2E70426D0E70526CEE703268E
:103FF000CCE7630344BF7B68C3F80C15CEE70DF133
:104000000202294601F040FC14F4403F804617D1DB
:10401000B868294601F0C4FCB8F1000FDDD19DF865
:104020000210B86801F0D4FC0028D6D01E491F4801
:104030001F4AFC2306F07BFA1D48FC2106F06EFAAD
:104040004FF0000901ABCDE90199CDE90439CDF874
:104050000C90B86803AA294601F0CCFA4845BCDBAD
:1040600014F4003314D084F480349DF803308DF8B8
:104070000E30C4F300448DF80C608DF80D40B86824
:104080004B4603AA294601F067FB0028C4DAA4E7DF
:10409000CDE904330DF103030393B86803AA29465D
:1040A00001F0A8FAF1E700BF58C70000EAC300001A
:1040B0004ED5000038B54568A86890B101F056FCAF
:1040C000014670B9A86801F011FC044658B90246CF
:1040D0000649A86801F0C0FB224605210620FFF72B
:1040E00029F8002038BD6FF00400FBE7C13E000056
:1040F000B0B5416803460A6900AF0446006901F0A3
:104100003BFF054698B123686C4688B06A4609496A
:10411000C2E905134FF400739383074B42F8103F35
:10412000064800234FF4E251FDF7CCFFA546284690
:10413000BD46B0BDA6D500000300000154BD00007F
:1041400008B5CA0703690AD4C1F34202012A09D09B
:10415000022A0FD0094A0A48012106F003FC6FF039
:10416000150006E01A684FF0CC70C2F824051964F7
:10417000002008BD1A684FF0CD60F6E7C6D50000F4
:1041800054BD00002DE9F04186B00C4607699DF84A
:1041900034801546002112220DF106001E4607F05C
:1041A0008EFABDF830208DF8052004F0010314F0DC
:1041B00008028DF804300296049509D00C4A0D4887
:1041C000012106F0CFFB6FF0850006B0BDE8F0815D
:1041D000A10705D4B8F1000F07D1002BF3D120229D
:1041E00001A9384601F07AFFEFE74022F8E700BF67
:1041F000D8D5000054BD0000054A064B93624FF02D
:1042000040221A60012100220420FEF793BF00BF64
:10421000B8110020A81A00202DE9F04F89B002AF94
:10422000D0F810A0BB6043683A61D3F820B09B8AF5
:104230007B614FF0FF324FF0FF3305460C4606F02E
:10424000C6FD0AF14003FB60002300220AF1400092
:10425000002603F0AFF833463A69964201D30023B3
:1042600041E0207A010700F196803A692168013621
:1042700096420BD2820709D4227D80EA020C0CF010
:10428000010C02F004025CEA020C08D023B901F030
:104290006042B2F1005F3FD04FF0000801E04FF004
:1042A00001086268D7F814E003EB020CF44524D946
:1042B0006C468CB0286802A93A4ECA61C1E9056310
:1042C0007B690A46C1E9083040F203530B85364B3F
:1042D00042F8103F002335484FF45151FDF7F2FEEC
:1042E0006FF01B03A54628467B6106F074FD7B69D1
:1042F0001C371846BD46BDE8F08FC00705D40BEB50
:1043000003007B6007F0CDF97B6862681A4493B2C2
:10431000B8F1000F28D1E3B9D4F80080A3884FF09A
:104320000009BA68CAF85480217A009228464246A9
:1043300000F062F8031ED6DB4FF48042F8680023D9
:1043400003F038F840B1284606F058FD6FF07303CB
:10435000C9E79946D846E4E7DAF85030002B1DDB70
:10436000237ADB0702D400230C3475E7C345FAD166
:1043700023460AE0A9EB0201D8687B601FFA81F9A5
:1043800018FA81F107F08DF97B685A689145A3F11D
:104390000C03EFD2E7E76FF08503A4E76FF00403A7
:1043A000A1E700BFFED50000060000015CBD0000D3
:1043B00008B5CA0743680AD4C1F34201012909D0EC
:1043C00002290FD00A4A0B48012106F0CBFA6FF000
:1043D000150006E09B6A1B684FF0CC72C3F82425D9
:1043E000002008BD9B6A4FF0C8621B68F6E700BF5B
:1043F000C6D500005CBD0000F0B589B047680C462A
:104400001646002112220DF10E001D4607F057F945
:1044100004F001038DF80C30BDF838308DF80D3004
:10442000BB8C0495AB4206960AD20A4800930A4A0E
:104430002B46012106F0A9FA6FF01B0009B0F0BD70
:1044400084F00202C2F34002B86A520103A902F0EA
:1044500071F8F3E75CBD0000E4D60000B0B5456834
:1044600000AFAB6904469847E869012106F0B7FC44
:104470002A69A86A2346294601F098FF002817DA1E
:1044800023686C4688B06A460C49C2E905134FF4AC
:10449000007393830A4B42F8103F0A4800234FF4FD
:1044A000E251FDF70FFE6FF00400A546BD46B0BD1A
:1044B000204606F0BBFC0020F8E700BFA6D50000B0
:1044C000030000015CBD000008B50268530904D177
:1044D0004FF0FF33D340DB070BD407490748084AA6
:1044E0004FF4747306F023F805484FF4747106F026
:1044F00015F84FF0A04008BD2BD50000EAC300001E
:10450000F8D400002DE9F04FDFF854B185B015461E
:10451000824600EB810840F2FF19D04503D100200C
:1045200005B0BDE8F08FDAF800305A04C3F3C321B8
:10453000C3F3080400F18E804A4A1B0E575C4C45B9
:1045400008BF4FF0FF34192B00F28780DFE803F03B
:104550000D141A1D20261D85858585356185858567
:1045600085858585858564797C7FC5F80C45631CC8
:104570005CD10AF1040AD0E7C5F81445661CF8D0EE
:1045800000265CE0C5F80845F1E7C5F81045F5E7F9
:10459000601CC5F80845ECD0002604E0611CC5F895
:1045A0000C45E6D0012603A80394FFF78DFF0121F7
:1045B00001FA04F3C0F80C3508E0C5F80845002FEF
:1045C000DCD1631CD5D0002631460627DAF800304E
:1045D000019303F40040002818BF002103A80091B4
:1045E00018BF01260394FFF76FFF019B009900EBB2
:1045F0008400C3F3412CD0F800473B0243EA8C030C
:104600000B4304EA0B04234343EA4603C0F8003794
:10461000AFE7C5F80C45D2E7C5F86045621CDAF88B
:104620000030A6D0C3F30043002BBBD003A80394F3
:10463000FFF74AFF012606FA04F3C0F808353146B1
:10464000C4E7C5F86445E9E7C5F86845E6E7C5F895
:104650006C45E3E76FF0150062E76FF085005FE7F8
:10466000F0F8FCFF2BD700002DE9F0410446476825
:104670000D4606F094FF88B14FF02008EFF3118645
:10468000314688F31288BFF36F8F606806F006FC2E
:1046900050BB86F31188BFF36F8FEFE71F4B1B787A
:1046A000002BE9D04FF020086426606806F0F6FB86
:1046B00070B9012006F047FC013EF6D1002121200F
:1046C00003F0B6FDF0E786F31188BFF36F8FF5E7CF
:1046D000EFF31186314688F31288BFF36F8F60685D
:1046E00006F0DCFB0028EED0BB691D706368BA6978
:1046F0001B680020C3F844250122C3F84825C3F8ED
:104700002001D3F82041C3F85801D3F858019A602A
:1047100081F31188BFF36F8FBDE8F081961D0020F3
:104720002DE9F0410022054601210220FEF702FD9D
:104730000220FEF7E3FC6C680121E06806F0DFFB75
:104740006B681A682369C2F82435637D217D0B43A9
:10475000C2F86C356F68D7E9004313F0010340D00D
:10476000D5F8108004F10C0108F1080204F59070EE
:1047700006F026FC061E07DA274A2848012106F023
:10478000F1F83046BDE8F08198F8080000F0FCFB35
:104790000823C4F80035BB69C4F844350023C4F8C5
:1047A00048350123A360D4F85831002BFBD00021F9
:1047B000C4F800156D682C68E86806F0A0FB0823B3
:1047C000C4F800352A7A52B9EB69C4F834350123AC
:1047D000C4F83835C4F81021D4F81021236000261D
:1047E000CFE70822C4F80025BA69C4F84425C4F804
:1047F00048350123A360D4F82031002BFBD00023DF
:10480000C4F82031D4F820310123E3604FF48073E1
:10481000C4F80433C7E700BF33D700009CBD0000D5
:1048200070B40E49D1E90034D01AC31844F1000421
:10483000C2F30E06C1E90034A6F58053B3F5C04FAC
:1048400009D2074B1B685A0CDB039C19054B42F13C
:104850000005C3E9004570BC04F078B96817002072
:10486000181B002070170020E0B1BFF35B8F0E4BC8
:1048700053E8001F41F0020143E80012002AF7D17B
:10488000BFF35B8F094A4FF40033C2F80433084A80
:10489000BFF35B8F1268BFF35B8F920744BF054A7B
:1048A000C2F80031704700BF141B00200010014007
:1048B0000C1B002000E100E00C4BBFF35B8F53E8C2
:1048C000000F20F0020243E800210029F7D1BFF3D6
:1048D0005B8F074B4FF40032C3F80823BFF35F8FA1
:1048E000BFF36F8FC0F34000704700BF141B002060
:1048F0000010014030B5144B1868410CC003BFF3E1
:104900005F8F124BD3F8043547F6FF7293420AD1FA
:104910000F4AD2E90045844275EB010209D3C01861
:1049200041F1000130BD181841F10001B3F5006FED
:10493000F8D2074BD3E90023904271EB0303F1D285
:1049400010F50040ECE700BF181B002000100140EC
:10495000701700202DE9F743374CD4F80433D903FE
:1049600019D540230022990810290CD1D4F84031E0
:10497000002B41D00023C4F84031D4F840314FF42B
:1049800080324423EFE70433502BECD11AB12B4A89
:10499000136801331360D4F804339A0329D5BFF3A5
:1049A0005B8F274B53E8002F22F0020143E80010F1
:1049B0000028F7D1BFF35B8F930702D4D4F84431BA
:1049C000BBB10025C4F84451D4F84431FFF792FF3D
:1049D000EFF31182202383F31288BFF36F8F194BFB
:1049E000D3E90667B042B94108D282F31188BFF318
:1049F0006F8F03B0BDE8F0834423B4E74FF0FF3876
:104A00004FF0FF39C3E90689D3E904101D614FF463
:104A10000033C4F84833C4F84451D4F8443182F325
:104A20001188BFF36F8F0029E3D0009032463B46D8
:104A300001208847DDE700BF00100140181B00205F
:104A40000C1B0020481700202DE9F74F0D461F468C
:104A5000044601929DF83080FFF72EFF0090FFF78B
:104A600049FFA04271EB05034CD2201A44F2010326
:104A700065EB0101984271F1000146D2324BD3E956
:104A800006239D4208BF944255D0304B4FF4003E60
:104A90004FF00009C3F848E3C4F30E0CC3F8449187
:104AA000D3F84421032062466FF0020A43F6FD7BEF
:104AB000C2F30E01002908BF0122C2F30E01C3F8A0
:104AC0004415C3F844E3D3F80465AAEB0601114486
:104AD000C1F30E0159452ED9D3F8442162B1D3F860
:104AE0000465A6EB0C02C2F30E02B2F5804F22D988
:104AF000C3F84491D3F84421B8F1000F05D18219CD
:104B00000130D5E7B8F1000F08D06FF01504009818
:104B1000FFF7AAFE204603B0BDE8F08F0C4BBFF3B1
:104B20005B8F53E8001F41F0020143E80012002AA6
:104B3000F7D1BFF35B8F044B019AC3E90645C3E984
:104B400004270024E3E700BF4817002000100140BD
:104B50000C1B00207FB5284C284BC4F80833C4F840
:104B60004833274B274A00254FF0FF304FF0FF31E5
:104B70004FF48036C4F80855C3E90201C4F8046351
:104B8000C3E906014FF40033C4F804330121C2F82D
:104B9000803111202A46FEF7CDFA1120FEF7AEFA39
:104BA0000123A3602360184B03221A600021174AD7
:104BB00000952B4643F6FF70FFF746FF0220FEF7F5
:104BC00095FF134A13491368134823F00103136038
:104BD00047F6FF73C4F844630DF10F02C4F8403583
:104BE00006F0EEF9002804DB9DF80F0000F0CCF988
:104BF000284604B070BD00BF0010014001000F0046
:104C00004817002000E100E0141B002021480000AC
:104C1000101B00200810014040110140421C13B538
:104C2000034643F6FF7020D08342A8BF0346012B02
:104C30001C46B8BF0124FFF75DFE0E4BD3E90021EF
:104C4000801AB0F5804F43F6FF7310D2204498428B
:104C500028BF184680184FF00003074A009341F11F
:104C60000001FFF7F1FE02B010BD0446E3E718466D
:104C7000F0E700BF681700202148000008B5FFF7E3
:104C800039FE024B1B68C01A08BD00BF6817002020
:104C90004FF0704393F8E02F062A09D1D3F8E83F8C
:104CA000C3F30313033B042B02D8024AD05C7047C2
:104CB000002070477FD70000024AD2F80034002B52
:104CC000FBD0704700E0014010B506F02BF940B171
:104CD0004FF080538E4AD3F82433C3F30423C2F831
:104CE0004035FFF7D5FF10B18A4B8B4A5A6706F063
:104CF00019F948B14FF080534FF08042D3F8443255
:104D0000C3F34233C2F83C35FFF7C2FF30B1834AE8
:104D1000D2F8FC3023F08073C2F8FC3006F002F9C0
:104D200040B14FF080430022C3F80C21C3F810219A
:104D3000C3F83825FFF7ACFF20B14FF080430322C2
:104D4000C3F8A025FFF7A4FF60B1754B0522C3F897
:104D500010260122C3F888260022C3F818263F2215
:104D6000C3F814264FF08053D3F83021511C09BFEB
:104D70004FF07043D3F8343193F8E02FD3F8E83F85
:104D800008BFC3F30313062A4DD1033B042B03D8FA
:104D9000644AD35C002B46D04FF08052624BD2F86D
:104DA0000414C3F82015D2F80814C3F82415D2F857
:104DB0000C14C3F82815D2F81014C3F82C15D2F827
:104DC0001414C3F83015D2F81814C3F83415D2F8F7
:104DD0001C14C3F84015D2F82014C3F84415D2F8B7
:104DE0002414C3F84815D2F82814C3F84C15D2F887
:104DF0002C14C3F85015D2F83014C3F85415D2F857
:104E00003414C3F86015D2F83814C3F86415D2F816
:104E10003C14C3F86815D2F84014C3F86C15D2F8E6
:104E20004424C3F8702506F07DF848B14FF0805354
:104E30004FF08042D3F8583203F04F03C2F8E43EFB
:104E400006F070F848B14FF08043D3F80024D20741
:104E500044BF6FF00102C3F800244FF08053D3F831
:104E60003021062A26D1D3F83431033B042B02D853
:104E70002E4AD35C63B12E4AD2F83C3743F48063A8
:104E8000C2F83C374FF08053D3F83031062B11D1A4
:104E90004FF08053D3F83431033B042B02D8254A1A
:104EA000D35C3BB14FF01023D3F808224FF080437E
:104EB000C3F858254FF01023D3F80022002A03DB53
:104EC000D3F80432002B22DA1B4901234FF01020C3
:104ED000C1F804351524FFF7EFFEC0F80042FFF7D4
:104EE000EBFEC0F80442FFF7E7FE0023C1F80435EB
:104EF000FFF7E2FEBFF34F8F0849104BCA6802F478
:104F0000E0621343CB60BFF34F8F00BFFDE710BDDE
:104F10000030014000C007400DF0ADBA00ED00E0E8
:104F2000005000407AD7000000C0004075D7000054
:104F30000010004070D7000000E001400400FA05B6
:104F4000014B1860704700BF1C1B002010B50A4BB6
:104F50001868144648B9094909480A4A3B2305F02C
:104F6000E6FA08483B2105F0D9FA05F0EEFF0028E3
:104F7000A4BF2070002010BD1C1B0020C0D7000063
:104F8000EAC3000084D70000024A01238340C2F82C
:104F90000435704700F00140014B00201B681847A2
:104FA000201B0020014B1B68184700BF201B00205E
:104FB00010B50C4C237993B9012323710A4B20605F
:104FC000002818BF184600F0DBF850B923680748DE
:104FD000002BBDE8104008BF184600F04DB96FF037
:104FE000770010BD201B0020994F0000A54F000046
:104FF00008B50C4B1A794AB90B490C480C4AB12335
:1050000005F095FA0A48B12105F088FA1B683BB112
:105010000020FEF781F818B9BDE80840FEF76EB829
:1050200008BD00BF201B002013D80000EAC3000009
:10503000D6D7000008B5124B1B795BB91149124A4B
:10504000124840F2051305F072FA40F205110E48BD
:1050500005F064FA58B101280DD00D490A4A0B48F1
:105060004FF4927305F063FA4FF49271EFE7BDE8E5
:10507000084000F013B9BDE8084000F095B800BF43
:10508000201B002013D80000D6D70000EAC3000080
:105090008BDD000008B5124B1B795BB91149124A30
:1050A000124840F22B1305F042FA40F22B110E4841
:1050B00005F034FA28B1012807D1BDE8084000F016
:1050C000A1B8BDE8084000F059B90949064A0748A7
:1050D0004FF4A57305F02BFA4FF4A571E7E700BF75
:1050E000201B002013D80000D6D70000EAC3000020
:1050F0008BDD00004FF08053D3F83021511C09BFE5
:105100004FF07043D3F8343193F8E02FD3F8E83FF1
:1051100008BFC3F30313062A05D1033B042B04D8AD
:10512000034AD05C7047002070470120704700BFE1
:1051300074D8000038B54FF080440123C4F8083318
:1051400063600023C4F80031D4F8003142F21075D6
:10515000D4F80C24D4F80C34D20307D5DB0705D5DA
:10516000012005F0F0FE013DF2D138BDFFF7C2FF8E
:105170000028FAD0014B00225A71F6E7281B0020C4
:1051800038B5084C25794DB9012320602371FFF70C
:10519000B1FF08B9002038BD6571FBE76FF07700FB
:1051A000F9E700BF281B002008B512490B794BB95D
:1051B00011491248124A772305F0B9F910487721AE
:1051C00005F0ACF94FF080430022C3F80021D3F87A
:1051D000002101221A60096811B1C3F8042308BD37
:1051E000D3F80021002AFBD00022C3F80021D3F815
:1051F0000031F4E7281B002013D80000EAC30000A8
:1052000031D8000008B5084B1B794BB9074908484D
:10521000084A892305F08BF90648892105F07EF9B3
:10522000BDE80840FFF786BF281B002013D8000008
:10523000EAC3000031D8000010B54FF08043D3F826
:105240000423D20715D5D3F8002192B10022C3F868
:1052500000210124D3F80021C3F80843FFF74AFFD7
:10526000044B10B15A7922B95C71BDE810401B683B
:10527000184710BD281B0020074A137943B90121A4
:10528000106011714FF080421846C2F8183570470F
:105290006FF07700704700BF301B002010B5324C14
:1052A00023794BB931493248324AE52305F03FF9B9
:1052B0003048E52105F032F94FF08043D3F8181457
:1052C000D3F81824C90337D502F00303012B03D008
:1052D0000BB105F092FE00234FF08042C2F8183562
:1052E0000023C2F80431D2F804314FF08053D3F8D0
:1052F0003021511C09BF4FF07043D3F8343193F87B
:10530000E02FD3F8E83F08BFC3F30313062A08D100
:10531000033B042B02D8184AD35C13B18A2005F052
:1053200012FE4FF0804301229A60226872B9D3F8CE
:105330000421002AFBD011E0D3F81424D207CAD5E7
:10534000D3F81C249007C4D422681AB10222C3F8EF
:10535000042310BDD3F80421002AFBD00022C3F897
:105360000421D3F80431F4E7301B002013D80000E7
:10537000EAC3000079D80000BCD8000008B5094B8A
:105380001B795BB908490948094A4FF4917305F044
:10539000CEF807484FF4917105F0C0F8BDE8084019
:1053A00005F02BBE301B002013D80000EAC300001C
:1053B00079D80000F8B54FF080431F4FD3F804436D
:1053C000012504F01A04002604B9F8BDB4FA84F0EB
:1053D000C0F11F00830003F580739BB203F180438B
:1053E00005FA00F2196824EA02040029ECD01E60D4
:1053F0001B684FF080430128C3F808230FD1D3F86E
:105400001824D3F81824920702D03B689847DBE7AA
:105410000222C3F81805C3F804239860D4E70749AB
:105420000748084A4FF4F57305F081F805484FF432
:10543000F57105F073F800BF301B00208BDD000014
:10544000EAC3000079D800004FF08053D3F8302130
:10545000511C09BF4FF07043D3F8343193F8E02F5B
:10546000D3F8E83F08BFC3F30313062A05D1033B73
:10547000042B04D8034AD05C7047002070470120F9
:10548000704700BF7FD9000008B50268014610468A
:1054900005F0CCFD58B90F490F4A10484FF474730A
:1054A00005F045F84FF474710B4805F037F802F039
:1054B0001F0352090B6009D00949074A074840F207
:1054C000D93305F034F840F2D931EDE74FF0A04080
:1054D00008BD00BF2BD50000F8D40000EAC30000CF
:1054E0008BDD0000072808B50BD908490848094A90
:1054F00040F2A73305F01BF8064840F2A73105F04B
:105500000DF8800000F5807008BD00BFF6D80000DF
:10551000EAC30000C1D8000010B5CBB200EB4303D2
:105520009A8AD1051BD5C2F3432122F4F8529A82FC
:1055300000F1520400F1120232F8023F13F4807FAE
:1055400003D0C3F34323994209D09442F4D100EB32
:10555000C10300225A60583005F015FD00B910BD96
:1055600005490648064A4FF4DB7304F0E0FF04489F
:105570004FF4DB7104F0D2FF58C70000EAC300000B
:1055800000D9000073B5CEB200EB46060546B38ADB
:10559000DB070C4628D505F028FE2146284605F0F5
:1055A0004FFD48B1B28A2B68520B03EB82030022F5
:1055B000C3F81025C3F81025284621460025FFF71B
:1055C000ABFFB58201A80194FFF75EFF019B00EBE2
:1055D0008300074BD0F80027134043F00203C0F8C4
:1055E0000037284602B070BD6FF01500FAE700BF23
:1055F000F0F8FCFFF0B50D4685B01646044658B9E4
:1056000052495348534A40F25E4304F090FF5148D8
:1056100040F25E4104F082FF1768CFB105F01EFD35
:1056200000BBCDE900008DF80E008DF80F003B4661
:105630000DF10F020DF10E01284605F039FDEAB219
:1056400004EB4202938A23F0020343F001039382A6
:10565000736853B3294620461A785F6805F0F7FC53
:1056600018B1CFB16FF0150022E0E9B204EB4101AF
:105670008B8A23F4604323F020038B8267B1032AD3
:10568000F0D8736858682368077803EB87038AB9F2
:10569000C3F81025C3F81025E9B204EB41018B8A49
:1056A00023F01C0343EA82038B82B3684BBB0020C8
:1056B00005B0F0BDD3F8100520F00300C3F81005C5
:1056C000206800EB8700D0F8103523F4473323F42B
:1056D0004073C0F810352B02D0F810C503F4F8530E
:1056E00043EA024343EA0C03C0F8103504EB4703D6
:1056F000A3F85C508B8A43EA473343F020038B8244
:10570000CAE7D3E9006729462046FFF705FF002EC8
:10571000CDD063689E4206D004F1580005F015FC18
:10572000002804DAC4E7A3689F42F5D1002004EB07
:10573000C003C3E90167EDB204EB4505C0B2AB8A13
:1057400043EA402343F48073AB82B0E73ED90000C4
:10575000EAC3000000D90000F0B50C4685B01E4633
:10576000054658B939493A483A4A4FF48D6304F02E
:10577000DEFE38484FF48D6104F0D0FE12B305F020
:1057800066FC20B92146284605F05AFC08BBE7B262
:1057900005EB4707BB8A13F01C0F02D05378012B8F
:1057A00017D001238DF80F300023CDE900230DF130
:1057B0000F01931C2046013205F07AFCBB8A43F0AE
:1057C0000303BB82002E3FD02146284605F03FFC54
:1057D00018B96FF0150005B0F0BD37782B6803EBF2
:1057E00087030022C3F81025C3F81025E2B205EBA9
:1057F00042024FEA870C938A23F4604323F020038C
:105800009382707800B32968B67861440004D1F8B7
:10581000103523F4981323F4F853C1F810352302FC
:1058200000F4403003F4F85303433005D1F8105529
:1058300000F4801003432B43C1F81035938A43EAE8
:10584000473343F0200393820020C4E73ED9000091
:10585000EAC3000000D9000008B558B90749084854
:10586000084A40F2714304F062FE064840F271417A
:1058700004F054FEC0E9031208BD00BF3ED9000089
:10588000EAC3000000D9000010B503460C4658B921
:105890001249134A134840F27A4304F048FE40F29A
:1058A0007A410F4804F03AFE4AB90F490C4A0D48B4
:1058B00040F2233304F03BFE40F22331F1E705F0E0
:1058C000BFFB38B1E4B203EB440300209B8A5B0BBF
:1058D000137010BD6FF01500FBE700BF3ED900004C
:1058E00000D90000EAC3000049D90000F8B5054618
:1058F00058B91B491B481C4A4FF4916304F017FE2A
:1059000019484FF4916104F009FE90F86C4024BBF3
:1059100040222146143005F0D2FE2E682746E0B220
:10592000FFF7E0FDA0F580739B081F2B08BF3750E1
:1059300004F1010408BF3358082CF0D10024C6F844
:105940007C4146F30730D6F87C31FDF7D7FB0123C5
:1059500085F86C30AB652046F8BD6FF07700FBE74B
:105960003ED90000EAC3000000D9000008B558B9CC
:1059700008490948094A40F28F4304F0D8FD074816
:1059800040F28F4104F0CAFD90F86C00003818BF57
:10599000012008BD3ED90000EAC3000000D9000084
:1059A00008B558B907490848084A40F29D4304F031
:1059B000BEFD064840F29D4104F0B0FDBDE8084040
:1059C000FFF7E0BD3ED90000EAC3000000D90000A7
:1059D00008B558B908490948094A40F2A44304F0F7
:1059E000A6FD074840F2A44104F098FDBDE8084038
:1059F000044805F0C8BA00BF3ED90000EAC3000061
:105A000000D90000EC11002010B50C4658B90A4925
:105A10000A480B4A40F2AB4304F089FD084840F2C3
:105A2000AB4104F07BFD074805F08FFA0028A4BFC6
:105A30002070002010BD00BF3ED90000EAC3000066
:105A400000D90000EC1100202DE9F3410D46164667
:105A5000044658B93749384A38484FF4A56304F02A
:105A600066FD4FF4A561344804F058FDCBB200EB5D
:105A700043039A8A12F01C0F09D131492E4A2F484C
:105A800040F2354304F053FD40F23541EBE705F0B9
:105A9000D7FA2768F0B12946204605F0D8FA8046A3
:105AA000C0B9550B2846FFF71DFD47F800803B584D
:105AB000236803EB8503D3F8102542F00102C3F8F5
:105AC000102526B122680123AB40C2F8043302B08E
:105AD000BDE8F081D7F80423002AA4BF4FF00042AC
