:10000000C034002015300000FBAC000001300000BF
:10001000013000000130000001300000000000004D
:100020000000000000000000000000008D31000012
:100030000130000000000000293100000130000004
:1000400089330000893300008933000089330000C0
:1000500089330000893300008933000089330000B0
:1000600089330000893300008933000089330000A0
:100070008933000089330000893300008933000090
:100080008933000089330000893300008933000080
:100090008933000089330000893300008933000070
:1000A0008933000089330000893300008933000060
:1000B0008933000089330000893300008933000050
:1000C0008933000089330000893300008933000040
:1000D00089330000893300008933000053B94AB9DD
:1000E000002908BF00281CBF4FF0FF314FF0FF3040
:1000F00000F00CB8ADF1080C6DE904CE00F010F87A
:10010000DDF804E0DDE9022304B07047704700BF6A
:10011000034613F8012B002AFBD1181A0138704747
:100120002DE9F04786468C460846089E15467446DB
:100130001946002B40F0C2808542B2FA82F245D9BE
:100140004AB1C2F1200300FA02FC2EFA03F39540F3
:1001500043EA0C0C94404FEA154EA8B2BCFBFEF8E3
:10016000230C0EFB18CC08FB00F943EA0C4399451D
:1001700028D9EB1808F1FF3704D2994502D9A8F124
:1001800002072B44A3EB0903A4B2B3FBFEFC0EFB56
:100190001C330CFB00F044EA0344A04214D92C1990
:1001A0000CF1FF3304D2A04202D9ACF102032C447B
:1001B000241A43EA07401EB1D44000233460736020
:1001C000BDE8F0874746DDE76346F1E792BB431B96
:1001D00001214FEA154EAFB2B3FBFEFC200C0EFB23
:1001E0001C330CFB07F840EA0343984562D9EB182F
:1001F0000CF1FF3004D2984502D9ACF102002B4437
:10020000A3EB0803A4B2B3FBFEFC0EFB1C330CFBF8
:1002100007F744EA0344A7424ED92C190CF1FF33E7
:1002200004D2A74202D9ACF102032C44E41B43EAF6
:100230000040C0E7C2F1200320FA03F1954090404E
:100240002EFA03F303434FEA154EAFB2B1FBFEFCA7
:100250000EFB1C10190C0CFB07F841EA0041884505
:1002600004FA02F422D969180CF1FF3004D288454F
:1002700002D9ACF102002944A1EB08019BB2B1FB09
:10028000FEFC0EFB1C110CFB07F743EA01439F42E7
:100290000ED9EB180CF1FF3104D29F4202D9ACF118
:1002A00002012B44DB1B41EA004192E76046E3E791
:1002B0006146F7E76046A3E76346B7E7834206D99E
:1002C00016B9002108467BE7C6E900E0F9E7B3FA72
:1002D00083F78FB9834201D3724508D8BEEB02047D
:1002E00060EB030301209C461EB9002168E73846F5
:1002F000FAE7C6E9004CF8E7C7F1200CBB4022FA48
:100300000CF41C432EFA0CF120FA0CF3B840014314
:100310004FEA14490EFA07F5B3FBF9F81FFA84FE09
:1003200009FB18300B0C08FB0EFA43EA00439A4510
:1003300002FA07F240D9E31808F1FF3004D29A45D7
:1003400002D9A8F102002344A3EB0A0389B2B3FB4C
:10035000F9F809FB183308FB0EFE41EA03418E450C
:100360002CD9611808F1FF3304D28E4502D9A8F1C7
:100370000203214443EA0040A0FB0298A1EB0E01D6
:100380004145CE46434602D306D14D4504D2B9EB92
:10039000020E68EB04030138002EA6D0B5EB0E0266
:1003A00061EB030101FA0CFC22FA07F34CEA0303A8
:1003B000F940C6E9003198E74046C5E74346D9E72A
:1003C00013B519480AF0B0F900F03EF8044600F001
:1003D00059F80CBB15480AF0A7F90422144B0193F5
:1003E0000DEB0201204600F075F8124800F09CF871
:1003F0007321044610480AF097F944B90F480AF0EF
:1004000093F900214FF4004008F0BCF8F9E70C48DC
:1004100021460AF089F9F4E70A4821460AF084F9EE
:10042000002002B010BD00BF10C500003FC5000095
:10043000E14020004DC50000C1C50000CDC5000051
:10044000EAC5000029C5000010B50A4C0A48206022
:100450000BF05BF948B109480AF066F920680BF027
:1004600054F928B906480AF05FF96FF0120010BD80
:100470000020FCE7681900201CBD000004C6000035
:1004800022C600002DE9FF41104E114F082400251F
:100490000223CDE9015530688DF80C309DF80C3001
:1004A000826843F002038DF80C30D2F80880A3B2C2
:1004B000012201A9C04718B9214638460AF034F98B
:1004C0000134782CE4D104B0BDE8F0816819002033
:1004D00031C6000030B5C5B040BAADF80C000DF122
:1004E0000E0014460BF0B1F90E4B03AD18680095E1
:1004F0000234022301948DF808309DF80830826898
:1005000043F002038DF808309468532301226946B2
:10051000A04704460021A42008F034F8204645B046
:1005200030BD00BF68190020F8B50646FFF7F0FDA2
:10053000DC28054624D8144C03232370C123A37060
:100540000123E370002323716371A371431CE371E2
:10055000042755230246314604F10A0023726772CC
:100560000BF073F905F1080363706319FE229A72A8
:10057000214605F10B023846BDE8F840FFF7AABF57
:100580006FF01500F8BD00BF781B0020B2F5802F7A
:100590002DE9F04110D2042A28D84549454A464859
:1005A00040F21A230AF0D6F844480AF0D3F840F291
:1005B0001A2140480AF0C5F80823D21ACC1D11446C
:1005C00024F0070421F00701091B17294FEAD1067F
:1005D0000ED83B49374A384840F223230AF0BAF88C
:1005E00036480AF0B7F840F22321E2E70423E4E7B3
:1005F000002504603146A660E560204609F0E9FF69
:10060000B6F5004F2CBF08230423421D9200083387
:10061000D11DDB0803EBD103B3424FEAD10739D830
:100620000130A2F110022946B8BF2A4604F1100099
:100630000BF019F93A462946204609F0C6FF2B4629
:100640002A462946204609F097FFA6EB07082046D0
:100650002946012209F0A1FF4246394609F0B5FFBB
:100660003B462A463946204609F086FF3146204659
:1006700009F0ABFF43462A463146204609F07CFF8D
:1006800031462046012209F088FF3946BDE8F04195
:1006900009F0AEBF0B49074A07484FF40E730AF042
:1006A00059F806480AF056F84FF40E7181E700BF7A
:1006B00033C7000048C600007CC6000054C70000D5
:1006C0006DC7000096C700002DE9F04F91B00546B8
:1006D000009302F004030193C2F3C20301330493B5
:1006E0008307DDF8689002920E4640F0FC81041DFD
:1006F00030B1072909D86FF01B0011B0BDE8F08FA9
:1007000001F007063444C6F10806009B4FF00008CC
:100710004FF0040B591ECDF80C80474643464FF06E
:10072000FF32DA460DB1009820600498002800F3EB
:10073000DF809B48DDF800C0844503D39948844599
:10074000C0F0D680DDF808C0A4EB050E1CF0020F47
:100750004FEA9E0000F0E7804FF0000CD1E07A28CD
:1007600062D84B280FD847285ED829282DD82528AD
:1007700059D059D820287DD0A0F12309D9F1000300
:1007800043EB090376E04C382E284DD8DFE800F023
:10079000724C4C4C4C4C4C4C4C4C4C4C4E4C4C4C71
:1007A0004C4C4C4C4C5C4C4E4E5C5C5C724E6F4CFA
:1007B000724C184E184C4C817E4E4C4C4E4C7E0068
:1007C000002000234FF0040B3CE02A384FF0010ECC
:1007D000C0B20EFA00F04FF6DA7E10EA0E0F49D1E1
:1007E00010F0625E30D110F0010343D07046013C3E
:1007F0005C44B4FBFBF40BFB04F4002D5ED0AAEBCD
:10080000050EA644B6453FF676AF002868D1BAF18A
:10081000040F43D1E14659F8040B20600434CC4660
:100820004FF0040A26E0013A002323E011F8013CCE
:100830006C2B30D111F8023C00206C2B0346C1D147
:100840004FF0080BDA46D2E70CF1070929F0070C44
:100850000734FCE802AB24F0070435B105982044C6
:10086000B0423FF648AFC4E900AB083400234FF074
:10087000080BDA4611F8010F002800F0BC80002BAD
:100880007FF46DAF2528F5D1013201234FF0040B21
:10089000EFE7184695E700200346A8E7BAF1080FEE
:1008A00040F09B800CF1070929F0070CFCE8029A44
:1008B000C4E9009A08344FF0080ADBE780B9BAF1BE
:1008C000040F02D10CF10409A8E7BAF1080F40F0B7
:1008D00084800CF1070929F0070909F1080CE9E700
:1008E0000498E1460138049059F8040B009019E788
:1008F0000298800748D5A4EB050E4FEA9E004FF002
:10090000010CBEF5007F1DD32749284A28484FF423
:100910001F7309F01FFF274809F01CFF4FF41F71D8
:10092000224809F00EFF0F2F0ED8002D46D007F1F8
:10093000400CEC440CF8200C0CF8102C03980130FF
:10094000039020E00F2F0CD91749184A184840F29D
:10095000812309F0FFFE184809F0FCFE40F28121D6
:10096000DEE7BDB107F1400EEE44C0B20EF8200C38
:100970000EF8102CBCF1000FE0D060F07F000EF8F4
:10098000200C08F101080137C5F108000434CC46F9
:1009900005906FE7BCF1000F10D00136F3E700BF00
:1009A00034BC000060E80000B4DF0000C1C70000F4
:1009B0007CC60000EFC7000010C800000198023696
:1009C0000028E0D100980592CDE90631FFF7A0FBA1
:1009D000DDE90631059A0644D5E7444A44494548CD
:1009E00040F2C62309F0B6FE5146434809F0B2FE74
:1009F00040F2C62194E7631BB3F5806F0CD33C49EA
:100A00003A4A3C4840F2D22309F0A4FE3B4809F0A0
:100A1000A1FE40F2D22183E71DB9A6F10804E01837
:100A20006BE6019A28609B082B709DF80C30C2B1D0
:100A3000EB7085F80280B8F1000F05D008A80022FD
:100A4000C5F1010C97420ED1C5F101030DF120094A
:100A50004FF0000A02930DF1300B574512D1601B85
:100A60004BE66B70E5E710F8013B190608D50CEB77
:100A7000040EB64503F07F033FF63DAE04F8013B9C
:100A80000132DFE7B8F1000F03D099F90020002A06
:100A900017DB019BD3B11AF80B2004F8012B0022BD
:100AA000029B18191044B0423FF625AE99F8000099
:100AB00004F8010B0099039220460AF0C6FE039A3F
:100AC00014440AF1010A09F10109C6E799F8002066
:100AD00055F822300093019B45F822300098FFF72B
:100AE00017FB421CDCE76FF00D0006E6C1C70000F3
:100AF000B4DF00007CC600002AC800003FC8000028
:100B00002DE9F04F97B000AF8946D7F880B0FA6270
:100B10003B62044658B9A849A84AA94840F299330B
:100B200009F018FE40F29931A44809F00AFECBF30F
:100B3000C00390F802A07B6141B9457800780AEBC8
:100B4000800020444D4517D8A0EB0409E378FB61F1
:100B5000BAF1000F02D01BF0010F16D1FB6953BB95
:100B6000FB6A1BB13A6A4946204698474D462846DB
:100B70005C37BD46BDE8F08F461C3046FFF7C8FA2B
:100B80000130304409F10109DCE7237862687A62B8
:100B9000FA6A9900B96104EB8301002A40F00181EF
:100BA0004D460E4601EB0A094FF000084E454CD168
:100BB00001EB0A0610E01BF0020FD1D023789A0057
:100BC000BA6162687A62FA6A04EB8301002A77D11B
:100BD0004D4601EB0A0690461BF0050F0CBF0223A1
:100BE0000123FB62FB6906EB430A0BF00203BB62C5
:100BF0005645BCD016F8021B16F8013C54F8239059
:100C0000704B994502D3704B994536D37B69002BC5
:100C100040D0786A09F05FFD00283BD0E9468AB0F1
:100C20006A466A4B53617B6AC2E906314FF400732E
:100C30001384674B42F8103F664800234FF412516B
:100C400001F09AFA023DCD46D2E716F8013BF9626F
:100C500054F82300FFF75CFAD7F88430F96A0130C2
:100C60004BB1D7F8883098453EBFD7F8843023F889
:100C7000180008F10108054498E77B6923B1786AF8
:100C800009F029FD0028C9D11BF0010F05D1FB6A2D
:100C9000ED1AADE7BB6A002BAAD04846FFF738FA39
:100CA000D7F8843053B1D7F8883098453FBFD7F88C
:100CB0008420431C22F8183008F10108054497E706
:100CC000BAF1000F73D01BF0040673D0D046002693
:100CD00007F1480052463B61B9620AF0B6FDB96AB5
:100CE0003B6901EB0A02BA62FA69F9695200FA60DB
:100CF000BA6A02EB41023A610BF00202BA60BA6AC8
:100D000039698A4268D162787A621BF0020F3244F4
:100D10000CBF4FEA580100211BF0010FD2B240F086
:100D2000E4801BF0040F14BF404600207B6162701A
:100D3000A070E1703A6AB969FB6A20469847051EBF
:100D4000FFF615AF7B6923707B6A6370FB69E37004
:100D500041463A6AFB6A84F802A007F148009847C6
:100D6000B0F10008C0F2F580BB693A6AA9EB0A014C
:100D7000C91AFB68C91AD7E90A0398470028C0F2C4
:100D8000EA80A84408EB00054FF0000B07F1380A91
:100D9000B345C0F0AC8000213A6AFB6A0846984728
:100DA000E5E656464FF0000807F1380092E7564650
:100DB000D04696E7B04694E756C80000C1C7000089
:100DC0007CC6000034BC000060E8000071C8000070
:100DD00004000001F0BE0000BA6A12F8021BBA62F9
:100DE00012F8015C5D4A54F82500904202D35C4A37
:100DF000904218D37A693AB1786A7B6009F06BFC4B
:100E00007B6800287FF47BAFBA68002A4CD00F2E95
:100E100040D95449544A554840F24D4309F09AFC90
:100E200040F24D4180E67A693AB1786A7B6009F018
:100E300052FC7B6800287FF462AF1BF0010F0BD0DF
:100E40000F2E27D94749484A484840F2434309F002
:100E500081FC40F2434167E61BF0040F3FF44FAFC3
:100E6000B8F10F0F09D942493F4A404840F2464382
:100E700009F070FC40F2464156E608F1280207F1FD
:100E8000300008F1010102EB000808F8105C5FFA7D
:100E900081F834E706F1280207F13000711C1618BA
:100EA00006F8205CCEB22AE7B8F10F0F09D9304915
:100EB0002D4A2E484FF48A6309F04CFC4FF48A61A6
:100EC00032E608F1280207F1300C08F101009444E1
:100ED00007F1580252FA80F008F102080CF8101CD1
:100EE0005FFA88F800F8105C09E700201EE71BF89D
:100EF0000A3087F8373054F82390D7F884302BB372
:100F0000D7F888309B4521D2D7F8843033F81B803E
:100F10003A6AFB6A012107F13700984700281ADB7B
:100F20000544B8F1000F06D14846FFF7F1F800F18B
:100F300001081FFA88F83A6AFB6A41464846984712
:100F4000002808DB05440BF1010B21E74FF00008F6
:100F5000DEE745460BE6054609E600BF34BC000067
:100F600060E8000014C90000C1C700007CC6000092
:100F700033C90000014B1860704700BFC01000204B
:100F800080B505460E461746984607F097FB034680
:100F90000AF046FEDFF81890044649F80030424651
:100FA00030463946A84754F8090002F0A7F800BFB8
:100FB0000800000038B50D460446202200210AF042
:100FC00052FCEB68E361AB68A3612B6823626B683A
:100FD00063620022A2622A6923B1591E194208BF26
:100FE00042F0010222610122002104F12C000AF0EA
:100FF0009FFB48B105490648064A2F2309F0AAFB82
:1010000004482F2109F09DFB38BD00BF8AC90000AC
:101010007CC6000064C900002DE9F04F89B0CDE91D
:101020000123436A00278B420446884605970797A9
:10103000BA4654D300F11406EFF31185202383F34D
:101040001288BFF36F8F3046A94607F041FD58B9AB
:101050004D4A4E494E48882309F07CFB31464D48A5
:1010600009F078FB882163E0304607F055FD079AC8
:101070002AB13946204609F055FC0023079306A9FA
:10108000204609F074FB06994145834630D3226817
:10109000236A13F8221021F0030103F8221003EB56
:1010A000820A21684246204609F085FBE3682060F9
:1010B000984218D04FF0000B304607F017FD50B3A0
:1010C00089F31188BFF36F8F059929B1A2690AB11D
:1010D0002046904700230593BBF1000FACD150464A
:1010E00009B0BDE8F08F236943F008032361E1E70D
:1010F00018B1204609F079FBDEE7DDE90132134340
:1011000039D003910AF020FB0399A0BB9DBB304668
:1011100007F0ECFC78B91C4A1F491D484FF49A733C
:1011200009F018FB31461D4809F014FB4FF49A7181
:10113000154809F006FB85F31188BFF36F8FDDE9D1
:10114000012304F12C0006F0B5FA8346EFF3118970
:10115000202383F31288BFF36F8F304607F0B8FC6B
:1011600000283FF475AF3046BBFA8BFB07F0D4FC88
:101170004FEA5B1BA0E707AB05AA2046276809F0EA
:1011800051FB834698E700BF93C90000C0C9000027
:101190007CC60000D5C90000EBC9000002CA0000EF
:1011A0002DE9F0410446C36908460E46984704F10C
:1011B00014050746EFF31188202383F31288BFF349
:1011C0006F8F284607F084FC68B91B4A1B491C48EE
:1011D000882309F0BFFA29461A4809F0BBFA88218A
:1011E000154809F0AEFA284607F096FC337843F02C
:1011F0000103337061683A46204609F0DCFA60600A
:10120000204609F0AAFB284607F070FC68B90A4A94
:101210000D490B484FF49A7309F09CFA29460B4884
:1012200009F098FA4FF49A71DAE788F31188BFF35E
:101230006F8FBDE8F08100BF93C90000C0C90000F6
:101240007CC60000D5C90000EBC9000002CA00003E
:101250002DE9F843044600F11407EFF31188202329
:1012600083F31288BFF36F8F384607F031FC0546D1
:1012700068B9354A35493648882309F06BFA39464A
:10128000344809F067FA88212F4809F05AFA38469D
:1012900007F042FC2369A26813F0080F02D16368CB
:1012A0009A4200D9636A9B1A002B3FD0216A11F839
:1012B000223013F0030001EB82093AD0022803D157
:1012C00051F82260B60805D1D8071FD4E369484613
:1012D00098470646A1683246204609F06CFA314626
:1012E000A060204609F075FA384607F0FFFB10BBF6
:1012F000154A194916484FF49A7309F02BFA3946E2
:10130000164809F027FA4FF49A71BDE743F002033B
:1013100001F822304846E369A56898472946024605
:10132000204609F048FA0025A060DDE71D46A946E1
:10133000DAE70546FBE788F31188BFF36F8F002DCE
:101340008BD14846BDE8F88393C90000C0C90000AE
:101350007CC60000D5C90000EBC9000002CA00002D
:101360002DE9F0410446C36908460D46984704F14B
:1013700014060746EFF31188202383F31288BFF386
:101380006F8F304607F0A4FB68B9284A28492948DE
:10139000882309F0DFF93146274809F0DBF9882175
:1013A000224809F0CEF9304607F0B6FB2B786FF3F0
:1013B00000032B7023699B0705D5E268236A03EBC2
:1013C00082039D4222D12B786FF341032B70D4E925
:1013D0000231994204D13A46204609F0ECF9A06066
:1013E0003946204609F0F5F9304607F07FFB90B901
:1013F0000E4A12490F484FF49A7309F0ABF931467F
:101400000F4809F0A7F94FF49A71C9E72B6867F301
:101410009F032B60E8E788F31188BFF36F8F04F117
:101420002C00BDE8F04106F0C7B800BF93C900002A
:10143000C0C900007CC60000D5C90000EBC900008F
:1014400002CA000070B5044600F11405EFF31186DE
:10145000202383F31288BFF36F8F284607F038FBF1
:1014600068B91B4A1B491C48882309F073F92946AF
:101470001A4809F06FF98821154809F062F92846E1
:1014800007F04AFB2369A06813F0080F02D16368D4
:10149000984213D9646A241A284607F027FB78B9C2
:1014A0000B4A0F490C484FF49A7309F053F9294637
:1014B0000C4809F04FF94FF49A71DDE71C1AEBE77D
:1014C00086F31188BFF36F8F201E18BF012070BDF7
:1014D00093C90000C0C900007CC60000D5C9000047
:1014E000EBC9000002CA00002DE9F84F0446084687
:1014F000A38B1907154612D4022803F0070165D102
:10150000204609F037FA88B10138042800F2378103
:10151000DFE810F05C0035018200D40004010128EE
:101520000CBF43F0100143F02001A1831434204686
:1015300007F0DCFA002840F09D819A499A4A9B48BE
:101540004FF49A7309F006F92146B1E003F007025F
:10155000501F01281ED80020062A2768C4E9000071
:1015600014D13A4603E0E08B0130E0831268002A90
:10157000F9D123F0070343F00202A283204609F0C9
:10158000F9F990B342F02002A2832EE023F0070382
:101590009AB2F2E7042A33D123F007039AB2A28366
:1015A000204609F0E7F910B142F02002A283A38B94
:1015B00003F00709894540F0EC80A18BCA0640F191
:1015C000508121F01003A38301F00701D4F81880A3
:1015D000A38BB8F1000FB9DA0022276823F00703C4
:1015E000C4E9002243F00103A383A38B03F007099E
:1015F000894540F0CF80002FDFD00026B24644E07E
:101600006B496C4A694840F21B1309F0A3F840F299
:101610001B11684809F095F849B16749654A634864
:101620004FF4AB7309F096F84FF4AB71F1E7236810
:101630004BB962495F4A5D4840F2571309F08AF896
:1016400040F25711E5E723691E684EB95C49594AD3
:1016500056484FF4AD7309F07DF84FF4AD71D8E7FB
:10166000A38B23F0070343F006039BB2A3830F462B
:1016700088464FF00609A268002A40F08D80002FAE
:1016800040F08D80002E98D0BA4643F0080304F154
:10169000140BA383584607F029FA002840F09A80DB
:1016A0004049414A41484FF49A7309F053F859466A
:1016B000444809F04FF84FF49A71ADE0022909D07F
:1016C00041493C4A394840F25D1309F043F840F281
:1016D0005D119EE7E78B4FB13C49364A33484FF4E2
:1016E000AF7309F037F84FF4AF7192E723695E6882
:1016F0004EB933492F4A2D4840F2611309F02AF8B8
:1017000040F2611185E7A38B23F0070343F0040344
:101710009BB2A383B8464FF00409ACE7012909D076
:101720002B49244A21484FF4B27309F013F84FF4BF
:10173000B2716EE723684BB920491E4A1B4840F23C
:10174000651309F007F840F2651162E723699E68A6
:101750004EB91B49174A15484FF4B47308F0FAFF05
:101760004FF4B47155E7A38B23F0070343F005034F
:101770009BB20027A383B8464FF005097BE70C49CD
:101780000C4A0A4840F26B1308F0E4FF40F26B1178
:101790003FE7002700266EE74FF0010A75E7924603
:1017A00073E700BFEBC9000093C900007CC60000CE
:1017B000B4DF000017CA00003CCA000048CA00009D
:1017C0006BCA000002CA000082CA000098CA00006A
:1017D000A7CA000085F31188BFF36F8FBAF1000F1D
:1017E0001CD177BB16B126492046B047EFF31185CF
:1017F000202383F31288BFF36F8F584607F068F9F0
:1018000038BB204A20492148882308F0A3FF5946C5
:101810001F4808F09FFF88211A48FBE6A1680029AD
:10182000DFD00D680029DCD0D1F804A043464A4639
:101830002046D0471DB12B6829461D46F2E72B46AE
:10184000FAE7394643464A4620463F6809F0BEF863
:10185000C7E7584607F060F9A38B23F00803A3837A
:10186000ABE68B067FF562AE21F02003A38301F087
:10187000070145E685F31188BFF36F8FBDE8F88F48
:101880009518000093C90000C0C900007CC6000084
:10189000D5C90000F8B504460D4600F11406EFF373
:1018A0001187202383F31288BFF36F8F304607F030
:1018B0000FF968B90C4A0D490D48882308F04AFF12
:1018C0000C48314608F046FF0748882108F039FFE8
:1018D000304607F021F9A5613A4620460121BDE8CE
:1018E000F840FFF701BE00BF93C90000C0C9000067
:1018F0007CC60000D5C900002DE9F04704460F461C
:1019000009F054F8051E68DB04F11409EFF3118A9D
:10191000202383F31288BFF36F8F484607F0D8F86F
:10192000804660B9384A39493948882308F012FF9F
:101930004946384808F00EFF8821334842E04846BF
:1019400007F0EAF8E38BA68B4FF6FF72934206F09E
:10195000070645D0022E15D10133E38335464846AC
:1019600007F0C4F8002841D1274A2B4928484FF4F2
:101970009A7308F0EFFE4946284808F0EBFE4FF452
:101980009A71DAE7062E13D8DFE806F0092D121255
:10199000090409006FF085054FF00008DFE7002318
:1019A0003B60636883B9C4E9007786B13546F3E7E5
:1019B0001B4917481B4A4FF4E47308F0CBFE194843
:1019C0004FF4E47108F0BDFE1F606760EDE752461A
:1019D00002212046FFF788FD35462846BDE8F087FE
:1019E0006FF00A05D8E76FF00405D5E78AF3118890
:1019F000BFF36F8FB8F1000FEFD0002332463946A6
:101A0000204608F0E3FFE8E793C90000C0C90000E2
:101A10007CC60000D5C90000EBC9000002CA000066
:101A2000A7CA000017CA000008B54268816002F02A
:101A30000302032A034602D02AB1002000E0006816
:101A400000225A6008BD05490548064A452308F0AA
:101A500081FE0448452108F074FE00BFB4DF000099
:101A60007CC60000BDCA000030B51049104889B0DE
:101A7000002209F0C2FE0F4D0F4900220023CDE9DC
:101A8000062300240E23CDE90334CDE901440B4B9A
:101A900000944FF40062284605F064FF0849284688
:101AA00005F082FE204609B030BD00BF0D1C0000CD
:101AB000D016002018120020C01E0020611F000058
:101AC000E3CA00002DE9F047DFF8588004460746D6
:101AD0004FF0010914B93846BDE8F08794FAA4F52F
:101AE000B5FA85F509FA05F32E0108EB05156FEA3D
:101AF000030A24EA03042B7B002BEBD058F80630B2
:101B00001B694BB94644042273682846196807EAE2
:101B10000A0708F0CAFFDDE7284698470028D9D110
:101B2000F0E700BF50BF00002DE9F047DFF8BC90A0
:101B30002F4CA9EB04038F2B80460F460BD92D4960
:101B40002D4A2E484FF4A67308F004FE4FF4A671F8
:101B5000294808F0F6FD2A4808F087FF064678B3C2
:101B600000252846BDE8F087237B83B12368DB6826
:101B70000BB120469847636883F806A023681B6969
:101B8000B3B9636804221968204608F08EFF013655
:101B900010344C4518D91B49174A18484FF4AC73F8
:101BA00008F0D8FD184808F0D5FD4FF4AC71CFE728
:101BB000204698470028E4D00AFA06F31D43E6E7DA
:101BC00005464FF0010AE4E7CED3B8F1000FC8D0C4
:101BD000002DC5D02846FFF775FF0546002FF7D02A
:101BE00000214FF4A47006F0CDFCF1E770BF0000B7
:101BF00050BF000018CB0000EBCA00007CC60000FC
:101C00008019002048CB000069CB0000014805F096
:101C1000D3BC00BF04120020014B53F820007047D2
:101C20006CC2000008B5034608462BB1044A136095
:101C300000F0BEFD002008BD6FF01500FBE700BFFF
:101C4000C410002010B5044C237813B9034805F0E4
:101C5000B3FC0123237010BDA41C0020041200203B
:101C600010B504460B4808F000FF5CB1BFF35B8F72
:101C7000094B53E8001F013943E80012002AF8D14C
:101C8000BFF35B8F054809F0C4FD0548BDE810406F
:101C900005F092BC781900207C190020D016002095
:101CA000041200200020064BBFF35B8F014653E86F
:101CB000000F43E80012002AF9D1BFF35B8F704791
:101CC0007819002070B5FFF7EDFF104C104E054657
:101CD000B44219D90F49104A10484FF4037308F061
:101CE00039FD0F4808F036FD0B484FF4037108F03A
:101CF00028FD63685B792BB123685B6813B12946C3
:101D0000204698471034E3E7F3D370BD50BF00007E
:101D100070BF000048CB0000EBCA00007CC600008A
:101D200069CB000010B5044C04492046FFF742F986
:101D3000034B1C6010BD00BFC411002058C200003E
:101D40006C190020154A1648002310B51370154A67
:101D50001360154A4FF400411360FFF763FFFFF76C
:101D6000E1FF124B124918468B4215D91149124A0C
:101D7000124840F2271308F0EDFC114808F0EAFC85
:101D80000D4840F2271108F0DCFC1A1A5C681211A9
:101D9000013222711033E7E7F7D310BDA51C0020F4
:101DA00067AA0000781900207C19002050BF0000AD
:101DB00070BF000048CB0000EBCA00007CC60000EA
:101DC00069CB00000146002201480023FFF724B937
:101DD000C41100200148FFF73BBA00BFC411002026
:101DE000024B01461868FFF7BBBA00BF6C19002010
:101DF0000148FFF727BB00BFC411002070B5314B6D
:101E0000187800285DD0FFF7E5FF0546002844D18B
:101E10002D4B2E4C1B68002B19DD09F0ECFC4FF408
:101E20007A72A0FB020302FB0131C30BD4E900204C
:101E300043EA41439B1A4FEAD13140F2E93261EB68
:101E40000001934271F1000101D3FFF73BFFD4E998
:101E5000003213F57A7342F10002C4E90032BDE8A2
:101E60007040FFF7C5BF63685B7923B123682946DB
:101E70001B68204698471034B44211D91449154ABA
:101E800015484FF4007308F065FC144808F062FC34
:101E900010484FF4007108F054FC114C114EEBE760
:101EA000E1D32846FFF79CFFBFF35B8F0E4B53E84F
:101EB000001F013943E80012002AF8D1BFF35B8FFD
:101EC000A6E770BDA41C002078190020C8160020C9
:101ED00048CB0000EBCA00007CC6000069CB0000C4
:101EE00050BF000070BF00007C19002070B5154D78
:101EF000297829BB0120FFF717FE134C134EB4427B
:101F000017D91349134A144840F2C51308F022FCAC
:101F1000124808F01FFC0F4840F2C51108F011FCF0
:101F200063685B791BB1236820469B68984710342F
:101F3000E5E7F5D3FFF762FF0028FBD101232B7003
:101F400070BD00BFA51C002050BF000070BF000086
:101F500048CB0000EBCA00007CC6000069CB000043
:101F60002DE9F047304B314FFB1A1B090BD130499B
:101F7000304A314840F2A93308F0ECFB40F2A93175
:101F80002C4808F0DEFB00210846FFF7CDFD044693
:101F900050B340F267684FF0000909F041FE274B4B
:101FA000274A1B58136033B1264B1B68092B02DDEF
:101FB000254805F001FBDFF890A0002544B120463C
:101FC000FFF780FD044618B94FF0FF384FF0FF3996
:101FD000FFF714FF064628B95DB942464B46504606
:101FE00005F068FB3546E9E74FF0FF384FF0FF3961
:101FF000D3E70D4D08E0F0D22B689B691BB100229E
:102000001146284698471035BD42F4D90F49094A70
:10201000094840F29D3308F09DFB0D4808F09AFBFB
:1020200040F29D31ACE700BF50BF000070BF000020
:1020300088CB0000EBCA00007CC60000080000004E
:10204000741900207C1900200412002048CB0000E5
:1020500069CB000013B52C4808F007FD2B4B1B780B
:10206000002B35D0EFF31184202383F31288BFF3C4
:102070006F8F274806F02CFD68B9264A2649274865
:10208000882308F067FB2249254808F063FB882174
:10209000204808F056FB1E4806F03EFDFFF7AEFE56
:1020A0001B4806F023FD68B91A4A1E491B484FF425
:1020B0009A7308F04FFB16491B4808F04BFB4FF48E
:1020C0009A71E5E784F31188BFF36F8F02B010BDFA
:1020D000164B1B68002BF9D050B900220023CDE924
:1020E000002313484FF40042002307F0A3F8EDE764
:1020F0000928EBD10E4809F08CFB0E4802B0BDE870
:10210000104005F059BA00BF7C190020A51C002022
:102110007019002093C90000C0C900007CC60000EF
:10212000D5C90000EBC9000002CA000074190020E4
:10213000D01600200412002010B5064B1B68044680
:1021400098472146A0600448FFF72AF8BDE81040F0
:10215000FFF780BFC4100020C4110020044A054BC3
:102160009B1AB1EBD30F34BF52F8310000207047F7
:10217000F0BE000050BF00002DE9F04F8FB004AF5B
:10218000C1F34A28B8600D4691467B600C0DB8F14A
:10219000000F68D0002607F114034FF0040B4FF036
:1021A0000A0AC7F80C80C7E907667E620193CDF87A
:1021B00008B0CDF800A007F11C03F9683246484684
:1021C000FEF79EFCB0F5006F03461CD36C468AB048
:1021D000D9F8041004AB2C48C3E9050140F2FF71A3
:1021E000D9611A464FF400711984284B42F8103F08
:1021F000274833464FF41251FFF7BEFFA5462C3750
:10220000BD46BDE8F08FC0F30A0804F1170018447A
:1022100020F0070080083B60FFF7D4FD68F35325EA
:10222000044640B33B681B4AC7E9083600F1100179
:1022300007F11403F961CDE900A3CDF808B0F968FE
:1022400007F11C034846FEF75BFC002813DA12492D
:102250001248134A4FF4A37308F07CFA10484FF465
:10226000A37108F06EFA04F1170020F0070080084F
:10227000FFF7A8FD044668F353257B68B9682A4632
:10228000204608F032FCBAE7B1CB000004000001A0
:1022900018BF0000BDAA00001DCC00007CC60000D5
:1022A000F0CB00002DE9F04F87B0DDE91279DDE9D0
:1022B000106A044603919346984627B3CDF80090E0
:1022C0003B46524610210020CDF81490FEF7FCF951
:1022D000051E0BDA2649274A274840F2651308F005
:1022E00039FA40F26511234808F02BFAB5F5006F72
:1022F0000ADB224A224840F2FF73022107B0BDE800
:10230000F04F08F04BBC3D4606F11700284420F082
:10231000070004F007048008FFF754FD0BF0070BDB
:10232000E40044EA8B1444EA452444EA0654064691
:10233000A0B19FB1CDF800903B46524629461030DF
:10234000FEF7C2F9002809DA09490A4A0A484FF497
:10235000C47308F0FFF94FF4C471C4E7039943460E
:102360002246304607B0BDE8F04F08F0BEBB00BFC4
:102370001CCC0000F0CB00007CC6000026CC000086
:1023800018BF0000406820B1034BC01A40F3CF00D3
:1023900070474FF0FF307047F0BE00000EB403B539
:1023A00003AB014653F8042B0448019301F004FAEF
:1023B00002B05DF804EB03B0704700BFDD230000FE
:1023C000CA0605D48B064CBF02490349FFF7E6BF96
:1023D000704700BF1EE200005ECC000038B54B68BD
:1023E0001A68CB689A4205460C4602D1084608F0A6
:1023F000F9FB6368BFF35B8F53E8002F511C43E880
:1024000000100028F8D1BFF35B8FA3689D54636868
:102410001A68E3689A4209D905490648064A7223B0
:1024200008F098F90448722108F08BF9002038BDB3
:1024300090CC00007CC6000061CC00002DE9F04F7C
:1024400089B09B46149B06939DF84CA0159B059361
:10245000169B179E049304460D469046BAF1000F52
:1024600000F0AD80BAF1040F0BD9A349A34AA448E8
:1024700040F2462308F06EF940F246219F4808F0EA
:1024800060F906F48073079308F00DFB06F002096B
:10249000024600283FD09B492046FFF77FFF0746B2
:1024A000B9F1000F08D016F0440F36D196492A46EC
:1024B0002046FFF773FF074406F0010353B1934B27
:1024C000934953F82A20934B2046002A08BF1A4606
:1024D000FFF764FF06F48073002B4AD006F0080370
:1024E000002B64D1B8F1000F67D08B4942462046DB
:1024F000FFF754FF0546069B3D44002B6ED1049B1D
:10250000002B40F08380F30700F1F0803146204635
:10251000FFF756FFE4E00746C2E7804B1868002843
:10252000C9D07F4B4FF47A791B68B5FBF3F54FF4B4
:102530006163B5FBF0F100FB115509FB05F54FF0A8
:102540003C0CB1FBF3F203FB1211B5FBF0FEB1FB47
:10255000FCF300FB1E550CFB131109FB05F5009164
:10256000B5FBF0F56F49CDE901E52046FFF716FF11
:10257000A1E706F00803EBB16B4B6C4953F82A2036
:102580002046FFF70BFF0546B8F1000F05D0624962
:1025900042462046FFF702FF0544BBF1000FAAD0D8
:1025A00063495A462046FFF7F9FE0544A3E74FF07A
:1025B000000BE1E706F00805E6E745469BE7BBF1BF
:1025C000010F069B06D1DBB9049B002B00F088802D
:1025D00000251BE0002BF7D0564812E05648069B1A
:1025E0005649224608F046F800280CDA5449434A76
:1025F00043484FF4287308F0ADF84FF428713DE7D5
:102600004D485546EBE7049B002B65D0DFF834813D
:10261000DFF83491049F3146102F204628BF102741
:10262000FFF7CEFE4FF0000B5D4542DC059B4946AF
:102630001A782046FFF7B2FE4FF0010B1BF0070F90
:1026400003D141462046FFF7A9FE5F4538D9059BD7
:10265000494613F80B202046FFF7A0FE0BF1010BB3
:10266000BBF1100FEAD1394920464FF0000BFFF7BC
:1026700095FE5A46059B9A5CA2F120015F2928BF6E
:102680002E2233492046FFF789FE0BF1010BBBF1E7
:10269000100F1AD01BF0070F03D141462046FFF759
:1026A0007DFE5F455A46E5D841462046FFF776FE57
:1026B000EBE741462046FFF771FE0BF1010BB3E754
:1026C00024492046FFF76AFEC8E7059B3B44059373
:1026D000049BDB1B04939DD1BAF1000F7FF413AF71
:1026E000204609B0BDE8F04F08F07CBA094A084915
:1026F0002046FFF753FE09E7C5CC000061CC00007F
:102700007CC60000D0CC0000D4CC00007CC200000D
:10271000EDD70000C0CC0000F9CC000088190020E3
:1027200084190020DDCC000090C20000FDCC000028
:1027300003CD0000FFAB0000DD230000B93700002F
:1027400008CD000019CD000011CD00001BCD000008
:102750001DCD000017CD000073B542F20F738B4200
:1027600028BF0B4605680F4A04460521684606F057
:10277000CFFD63680C495B6806460B22284608F0CB
:1027800023FA63683246694628465B6808F01CFAFB
:10279000636806495B681B22284608F015FA02B0F8
:1027A00070BD00BFF8CE00003CCD000020CD000081
:1027B000074A00210123904206D8064A01B90123A5
:1027C0001360054B1860704740085B000121F2E779
:1027D00040420F008419002088190020014B01227B
:1027E0001A707047A61C0020014B0020196070472A
:1027F000A01900200148FFF7AFBF00BFC0C2000012
:1028000010B5064B18680C46FFF706FA214603463A
:10281000BDE8104002480F22184700BFA019002051
:10282000C0C20000F8B5094D094B0A4ED5E9004772
:1028300001221A700CB92C60F8BD214630463A4688
:1028400000F01EF8241A0644F4E700BF9419002093
:10285000A71C0020A81C002010B9074B1870704757
:10286000064B1B781BB141F2883008F04ABFA42008
:10287000002105F087BE00BFA61C0020A71C002079
:102880002DE9F047DFF878901E4F80460E4604246D
:1028900099F80050A5B908F027FF32468246414614
:1028A000284604F071FB0546504608F025FFE5B1C7
:1028B00001233B7099F8003073B93046BDE8F087CA
:1028C00032464146002004F05FFB0546EFE7204614
:1028D000FFF7C2FF651E2C46002004F0DFFB002836
:1028E000EBD03B78002BF2D1E7E73B78002BE4D02C
:1028F000013C2046FFF7B0FF3B78002BC8D1DCE756
:10290000A71C0020A61C0020F8B5074F0D46044662
:102910004618B44201D12846F8BD14F8011BBB6823
:1029200001485B689847F4E7DCBC000010B54368D9
:102930001C68094808F0E9FE48B908490848094AEE
:10294000992307F007FF0748992107F0FAFE23684B
:102950005B685C6010BD00BFDCBC0000B6CD000051
:102960007CC6000078CD0000014B0360002070475A
:1029700004C3000008B5044807F0D6FEBDE80840CF
:10298000024807F0D1BE00BFEACD00001FCE000014
:1029900008B50348034A0021121A08F0A6F908BD39
:1029A00018120020C01E00200748084A084908B530
:1029B000121A08F09CF90748074A0849BDE8084080
:1029C000121A08F094B900BFC010002014120020A1
:1029D00068E80000B8100020C010002060E8000087
:1029E0002DE9F047064600AF0C46002936D0E946EF
:1029F0008AB0D1E90012A3686D462148A8464FF07D
:102A0000050AC5E90501C5E9072348F810AF1D48C7
:102A1000424600234FF42151FFF7AEFBCD46D4E9E7
:102A200003126369AD461848C5F810A0C5E9050151
:102A3000C5E907231348002342464FF42151FFF70D
:102A40009BFBCD46E369114A0E48012108F0A6F828
:102A5000A3690F4A0B48012108F0A0F8012E07D105
:102A6000EFF305830B4A0748103B314608F096F810
:102A70002146304604F072FBBD46BDE8F08700BF3A
:102A80004DCE000038BF00007CCE0000ABCE000071
:102A9000BACE0000E8CE000030BFFFF7FDBF00BF98
:102AA0002DE9F0410B4EDFF8308006EB0807CC1B18
:102AB000054632460949204608F0C7FEA01942469D
:102AC0000021083C08F0CFFEC5F8A44007F108003B
:102AD000BDE8F0810000000004000000B4BF000069
:102AE000054B5A699B689A421FBF044A536843F0DA
:102AF00080535360704700BF341B002000ED00E09E
:102B000070B5294C06460D462848294908F0FCF8BE
:102B1000A36AD9043CD52548264908F0F5F81720C2
:102B2000A36A1A0504D52148234908F0EDF81820B6
:102B30001D4CA36A9B0512D51C48204908F0E4F8F7
:102B4000A36BA26A100409D51D4A1848012108F098
:102B500025F81EB1A36A23F40043A3621920124C86
:102B6000A36A590504D51148164908F0CDF81A2072
:102B7000A36ADA050ED50D48134908F0C5F81B20E5
:102B8000094A936A43F47F43936200232B7070BD1C
:102B90001620C5E7A36A9B04F2D504480B4908F048
:102BA000B3F81C20ECE700BF00ED00E038BF0000E8
:102BB000FBCE000011CF000022CF000035CF000077
:102BC0004ECF000063CF00007ECF000096CF000004
:102BD00010B5204C2049214808F096F8A36A9901C5
:102BE00036D51E481E4908F08FF81E20A36ADA0168
:102BF00004D51A481B4908F087F81F20154CA36A12
:102C00001B0304D51548184908F07EF82120A36A53
:102C1000590304D51148154908F076F822200D4CC7
:102C2000A36A9A0304D50D48114908F06DF82320D2
:102C3000A36ADB0304D509480E4908F065F824208F
:102C4000044A936A6FEA03436FEA1343936210BD29
:102C50001D20CBE700ED00E0C5CF000038BF00002D
:102C6000DDCF0000F0CF00000AD0000028D0000027
:102C70004DD0000067D000002DE9F8433F4D80465D
:102C800089463F483F49174608F03EF8AB6ADA06E6
:102C900027D53D493A4808F037F81124AB6A1B079D
:102CA00004D53A49364808F02FF81224334DAB6A60
:102CB0009E0718D53649324808F026F86E6BAB6A85
:102CC0001C0646D5334A2E483346012107F066FFDD
:102CD000B9F1000F03D0AB6A23F08003AB62132479
:102CE00003E01024DAE76FF01506244DAB6AD8072D
:102CF00004D52949224808F007F81424AB6A99063C
:102D000004D526491E4807F0FFFF15241B4DAB6A6A
:102D1000DA0602D4AB6A9B070AD56B68180507D59B
:102D20004146304600F0E6FAB0B180F3098802244B
:102D3000124B9A6A920642BF5A6A22F400525A62B1
:102D40009A6A42F0FF029A6200233B702046BDE877
:102D5000F8836FF01506C2E7AB6AD906E8D51049CB
:102D6000104A114840F2271307F0F4FC0F4807F00F
:102D7000F1FC0C4840F2271107F0E3FC00ED00E005
:102D800038BF000092D00000A8D0000022CF000081
:102D9000DBD00000F3D0000009D1000096CF000086
:102DA0005AD1000028D100007CC60000A4D1000048
:102DB000F0B5794B8BB00446586800AFC0F30803F8
:102DC000002686F31188BFF36F8F02F07F45B5F1BF
:102DD0007F4F07D102F00C05082D12D16F497048C2
:102DE00007F092FF6F49704A704840F2144307F0B1
:102DF000B1FC6F4807F0AEFC40F214416A4807F09E
:102E0000A0FC15074CBF0C460126002CEAD000227E
:102E1000FA71DA1E092A00F29E80DFE802F00594BA
:102E200097779C9C9C9C9C9A62495D485A4D07F000
:102E30006BFF0023FB71EB6A9A0705D55E49584882
:102E400007F062FF002329E0EB6A002B01DA5B49FF
:102E5000F5E7EB6A5B0069D55949514807F054FF23
:102E60006B69A26943F480736B61BFF34F8FBFF34B
:102E70006F8F6B6932F8022C23F480736B61BFF3A0
:102E80004F8FBFF36F8F4DF602739A4227D123689D
:102E90004C4A4348012107F081FE2368FA79DAB9E8
:102EA00007F1080504F1200C206861682A4603C276
:102EB000083464451546F7D17A6A002E67D0C2F30C
:102EC000080121B96FEA52226FEA42227A6207F1C1
:102ED00008011846FFF784FD2C37BD46F0BDAB6AEC
:102EE000DBB233B1FA1D01212046FFF7C5FE0346D0
:102EF000D4E7AB6A13F47F4F04D0F91D0120FFF72C
:102F0000FFFDF4E7AB6AB3F5803F02D3FFF760FE45
:102F1000EDE72D49244A254840F2ED2307F01AFC3D
:102F20002A4807F017FC40F2ED2167E726491E4AC0
:102F30001E484FF43C7307F00DFC254807F00AFCCF
:102F40004FF43C715AE7FA1D0021CDE7F91D00202E
:102F5000D5E7204973E7204A204910F4F87F6D46F1
:102F60008AB018BF11466A46103BD3611C484FF423
:102F7000007313841B4BC2E9050142F8103F084857
:102F800000234FF41151FFF7F7F8AD465AE722F44A
:102F9000FF7222F0010299E700ED00E0F5D1000098
:102FA00038BF000020D2000028D100007CC60000FD
:102FB00033D2000071D2000088D20000A9D20000F4
:102FC000B7D20000D6D20000B4DF0000F2D2000079
:102FD00016D3000046D30000DCD10000C7D10000AA
:102FE0006AD3000004000001044B5A6942F0100249
:102FF0005A615A6922F008025A61704700ED00E0F8
:10300000EFF30880EFF3098101B57246FFF7D0FEB8
:1030100001BD00BF002080F31488BFF36F8F1148FB
:1030200080F3088800201049087001F007FF002095
:103030000E490860BFF34F8F00F02EF8202080F378
:1030400011880B484FF40461401880F30988EFF3AE
:1030500014800221084380F31488BFF36F8F00F0BF
:1030600019F90000C0340020BE1E002094ED00E0DD
:10307000002700200749D1F890200023C2F307223F
:103080001846934200DB7047C1F89830C1F8A000A1
:103090000133F6E700ED00E008B572B6002383F3D4
:1030A0001388FFF7E7FF144B4FF0FF32C3F880207F
:1030B000C3F88420C3F88820C3F88C20C3F890207C
:1030C000C3F89420C3F89820C3F89C20C3F880214B
:1030D000C3F88421C3F88821C3F88C21C3F8902158
:1030E000C3F89421C3F89821C3F89C2162B6BFF3BA
:1030F0004F8FBFF36F8F08BD00E100E0084B9B6866
:1031000083420BD1EFF3058343B1064B5A6842F07B
:1031100080525A605A6A22F400425A6205F0D4BAC8
:10312000341B002000ED00E015498A684FF03000A4
:103130001044EFF3098C80E8F01F202080F3128800
:10314000BFF36F8F0F4F4FF000664A698A603E6091
:10315000D2F8A4000C4C2060D2F8A8000023C2F8DA
:10316000A83080F3118804B5104600F02BF9BDE8B3
:10317000044002F1300090E8F01F8CF3098870479A
:10318000341B002004ED00E0C81900201EF0040FDD
:103190000CBFEFF30880EFF30980816911F8021C7E
:1031A0000229FFD001B5724607F0A3FD01BD00BFA3
:1031B00040B2002807DB044A4109012300F01F0048
:1031C000834042F82130704700E100E040B200281F
:1031D0000CDB4309064900F01F0020330122824026
:1031E00041F82320BFF34F8FBFF36F8F704700BFAD
:1031F00000E100E0054B420900F01F0053F82220D7
:10320000012303FA00F01040704700BF00E100E026
:1032100038B54B1C072B04460D460FD9114A1249ED
:1032200012486B2307F096FA1148294607232246D5
:1032300007F090FA0B486B2107F083FA40B20028A0
:10324000ACBF00F160400B4A4FEA4313B8BF00F037
:103250000F00DBB2AABF00F56140135480F80033C1
:1032600038BD00BF7DD30000B4D300007CC6000091
:10327000CFD3000014ED00E0044B054A23F07F0398
:103280009360BFF34F8FBFF36F8F70470000000054
:1032900000ED00E008B5FFF7EFFF074AD2F88830ED
:1032A00023F47003C2F88830FFF772FBFFF77CFB52
:1032B00000F05EF804F0B4F800ED00E042F8203CC5
:1032C000009B42F81C3C0A49019B42F8183C029BB7
:1032D00042F8143C21F001014FF0807342F8043CA5
:1032E00042F8081C0023203A0265C0F8A830704755
:1032F000810F00000A4A0346906878B113F1160F57
:10330000D0F8940005D0A0F140029A4205D883423B
:1033100003D2814228BF002070470020704700BFC1
:10332000341B002008B515460C4A0D4B9060D0F8B0
:10333000A4201A600E4600F045F82C4686F3098852
:103340000020044B98472046002100220023024C15
:10335000204700001FAD0000810F0000341B00203B
:10336000C8190020014B10221A61704700ED00E0DF
:10337000044800232021C2180133272B82F80013B0
:10338000F9D1704700E100E008B5EFF30583064A84
:10339000103B02EBC30152F8330049688847BDE88F
:1033A0000840FFF79DBB00BF3CBD0000024B034A35
:1033B0000348012100F08CB800000120000000202B
:1033C00004C30000D0F89420054B403A1A60054A27
:1033D0004021C3E901121846012100F09FB800BF47
:1033E000CC19002000000B1508B503461048D0F892
:1033F0009020C2F30722013A934207D90D480E4AA2
:10340000012107F0CBFB6FF0150008BDC0F8983024
:103410000A6822F01F021A4342F01002C0F89C20F2
:103420008A6842F00102C0F8A0201846EDE700BF0C
:1034300000ED00E030BF000013D40000F0B50E46F0
:1034400085B01F4604460025B5420DDA606810B30A
:1034500097B1431E18420AD0104A11482B46012149
:1034600007F09CFB6FF01502104605B0F0BD1F2859
:10347000F2D921680B42EFD12368019307F072FC67
:10348000A36801A90343D0B20393FFF7ADFF10F186
:10349000160FE7D0421C01350C34D5E739D40000B3
:1034A00030BF0000044B0522C3F89420BFF34F8FB8
:1034B000BFF36F8F704700BF00ED00E0BFF35F8F79
:1034C000024B0022C3F89420704700BF00ED00E0DB
:1034D00038B50D4D01232A780C46FFF7AFFF287051
:1034E00016300FD1094A0A490A484FF4BF7307F052
:1034F00031F90948214607F02DF904484FF4BF710E
:1035000007F01FF938BD00BFB91C00205CD40000D3
:10351000B4DF00007CC600008BD4000010B5144A54
:10352000002312780C46FFF789FF10F1160F08D020
:10353000104A0021D2F89030C3F30723984210DBE1
:1035400010BD0D4A0D490E4840F29D1307F002F9D7
:103550000C48214607F0FEF8074840F29D1107F09D
:10356000F0F8C2F89800C2F8A0100130E2E700BFFE
:10357000B91C002000ED00E05CD40000B4DF0000C6
:103580007CC60000B7D400002DE9F04F7B4C7C498D
:10359000D4F890300D68C3F307239D4285B013D94A
:1035A000784A7949794840F2F71307F0D3F8D4F80C
:1035B000902077482946C2F3072207F0CBF840F263
:1035C000F711704807F0BDF8FFF778FF496800224F
:1035D000954201F10C012DD16E4C6F4F257068465C
:1035E000FFF7C2F9DFF8B481DFF8B4910646002591
:1035F000AE4232D1237861490020D1F89020C2F345
:1036000007229342C0F2AF80FFF74CFFD1F8903011
:10361000C3F30723082B00F0AC806249594A5B488A
:1036200040F2692307F096F85F4807F093F840F2FC
:103630006921C6E7C4F8982051F80C3C23F01F0319
:10364000134343F01003C4F89C3051F8043C43F09A
:103650000103C4F8A0300132BAE7009A02EB051367
:103660002901D3F80CA00AEA0700B0F5000F60D0DA
:103670000AD8B0F5001F38D0B0F5800F4ED0B0F5A5
:10368000801F12D00135B3E7B0F1807F5CD0B0F17C
:10369000007FF7D19868D3F804A0525807F062FB76
:1036A000CDE901A240F480200BE09868D3F804A093
:1036B000525807F057FBCDE901A240F0885040F482
:1036C00030200390207801A9FFF78EFE002846DA0B
:1036D0002D492C4A2D4840F2212307F03BF833486E
:1036E00007F038F840F221216BE79868D3F804B06E
:1036F000525807F037FB1AF0010F40EA0800CDE9F5
:1037000001B20390DED02A491E4A2048832307F0E5
:1037100021F8284807F01EF8832152E79868D3F86B
:1037200004A0525807F01EFBCDE901A240EA0900AF
:10373000C7E79868D3F804A0525807F013FBCDE907
:1037400001A240F08270BCE79868D3F804A05258F8
:1037500007F008FBCDE901A240F08870B1E72378BB
:10376000013323708EE7C1F89830C1F8A00001330F
:1037700043E7002005B0BDE8F08F00BF00ED00E09A
:1037800010C300005CD40000B4DF00007CC6000061
:10379000E4D40000B91C00200000F0FF0000081174
:1037A0000000020697D50000E7D500006DD50000A7
:1037B00018D500003ED50000F0B587B007460E468C
:1037C00014460021102268461D4608F04CF80223DA
:1037D0008DF802302A46054B019321466846CDE913
:1037E000047605F05DFE07B0F0BD00BF85AD0000BA
:1037F00008B5024B1B689847002008BDD819002067
:10380000034B044A1860937843F0020393707047A7
:10381000D8190020D010002008B50649064821F02C
:103820000701C1F1005202F58032FCF7AFFE002023
:1038300008BD00BF07350020DC190020044A012321
:10384000C2F840354FF080420020C2F8783570470A
:1038500000E0014048B1054B054A1B68B3FBF2F399
:103860005843044B43F0010318477047A41100204C
:1038700040420F00C0BF000008B50448044A3F237F
:10388000C0E9002301F016FC002008BDE819002063
:10389000FFFF0F0037B50C460A490B4A411A402377
:1038A0000093491105462346084807F076FA011EA1
:1038B00005DA2846234603B0BDE83040184703B078
:1038C00030BD00BF041A002003AE00009CBC000005
:1038D000C9B2012908B509D908490948094A7E230E
:1038E00006F038FF07487E2106F02BFF03690C2203
:1038F00001FB0233986C00F0070008BD58D60000A9
:103900007CC600001BD6000070B5C9B2012903694E
:103910000BD918491848194A40F2D71306F01AFF74
:10392000164840F2D71106F00CFFEFF31185202462
:1039300084F31288BFF36F8F0C2606FB0134A46C4E
:1039400014F0C00408D0A24206D085F31188BFF35A
:103950006F8F4FF0FF3070BD71430B4401229A64AA
:1039600085F31188BFF36F8F43680B445B689847FA
:103970000020F0E758D600007CC600001BD60000EF
:1039800070B50D460649411A0446491105484022C2
:10399000FFF7BAFF2B4601462046BDE870401847A6
:1039A000041A00209CBC00000022F8B50121054645
:1039B0001046FFF72DFC104801F0B4FB0446B8B9DF
:1039C00001F0D0FB2F690D49384607F015F8031EAA
:1039D00009DB0126BE642D69084905F1200007F0C6
:1039E0000BF8031E02DA1C462046F8BD6E65FBE7A5
:1039F0006FF00404F8E700BFD53A000030C30000C0
:103A00001FB500220123CDE90223094ACDF800D0D9
:103A10006B46CDF804D007F0EDF9002805DB4FF434
:103A200080420023684603F045FE05B05DF804FBC4
:103A30000FAE000010B5064C23782BB94FF4A570DB
:103A400007F05FFE01232370BDE8104001F0DEBCEB
:103A5000BA1C002010B5EFF31184202383F31288E1
:103A6000BFF36F8F074A136823F00201DB07116071
:103A700002D4012001F0C6FB84F31188BFF36F8FDD
:103A800010BD00BF5C1A002030B4104B0C2202FBAA
:103A9000003301460020D3E910521864EFF311807F
:103AA000202484F31288BFF36F8F9C6C04F0C00451
:103AB00044F002049C6480F31188BFF36F8F1DB142
:103AC0002B46034830BC184730BC7047041A00200E
:103AD0009CBC0000012808B506D0032808D098B97E
:103AE0000F4B9B6C5B0719D1BDE80840FFF7CCBFBB
:103AF0000C490D4A0D4840F2FE2306F02BFE40F221
:103B0000FE21094806F01DFE0649074A07484FF402
:103B1000427306F01FFE4FF44271F2E708BD00BF8A
:103B2000041A0020B4DF00001BD600007CC6000091
:103B300010B4EFF31182202383F31288BFF36F8F49
:103B40001748016841F002040460C80707D482F3F3
:103B50001188BFF36F8F012010BC01F025BB4FF01F
:103B60008041D1F80C04D1F80C14C907EFD5EFF35C
:103B7000118083F31288BFF36F8F0A498B6C03F0B7
:103B8000C00343F002038B6480F31188BFF36F8F8F
:103B900082F31188BFF36F8F002010BCFFF774BF52
:103BA0005C1A0020041A00202DE9F0414449BFF3BB
:103BB0005B8F0646012251E8003F41E800200028C3
:103BC000F9D1BFF35B8FA3B93E493F484B60CB604F
:103BD0008A60FDF791FE00280BDA3C493C4A3D48DB
:103BE00040F2AA2306F0B6FD40F2AA21384806F0BA
:103BF000A8FD76B3731E012B58D8012E07D14FF0C4
:103C00008043D3F81C3403F00303012B21D007F0C9
:103C10009BFD0546F8B9304B1B78E3B14FF080436C
:103C20000222C3F808230746DFF8B0804FF0804433
:103C3000D4F81824D4F81834D20315D503F00303AC
:103C4000012B01D0012E0FD155B387F31188BFF39B
:103C50006F8FBDE8F081EFF31187202383F3128883
:103C6000BFF36F8F0125DFE7ADB1384607F06BF882
:103C7000D4F81835002BDBD1D4F80421002AD7D092
:103C8000C4F80431D4F804310123C4F81835C8F855
:103C90008031A360CCE70021212004F073FCE7E72A
:103CA0004FF080430222C3F80423D2E70C49084AAC
:103CB00008484FF42F7306F04DFD4FF42F7195E730
:103CC000001A0020F0190020241A002008CD00005E
:103CD0001BD600007CC60000BE1E002000E100E0F4
:103CE000B4DF000010B5044C2046FDF743F9204630
:103CF000FFF786FD002010BDFD3C000073B5104E9F
:103D00008DF807000446032501220DF1070100206C
:103D100003F0AAF920B101233370204602B070BD30
:103D20003378002BF9D0013D08D007F00DFD0028B5
:103D3000EAD10021422004F025FCE5E73570ECE7EC
:103D4000BB1C002008B5074807F0DFFC38B1064867
:103D5000FFF756FD0448FDF70DF9002008BD6FF090
:103D60001200FBE7DCBC00006D3D00000A2838B5FE
:103D7000074D044604D1AB680D215B68284698477F
:103D8000AB6803485B68E1B29847204638BD00BF86
:103D9000DCBC000010B5036961B92049204A214804
:103DA0004F2306F0D7FC204806F0D4FC4F211C48D6
:103DB00006F0C7FC486850B91C49194A19485023F5
:103DC00006F0C8FC1A4806F0C5FC5021EFE7586819
:103DD000F8B1884219D19C6808685860A14200D1A6
:103DE0009860002008602AB15A680A609A68596091
:103DF00002B99960002010E0814206D10868206075
:103E000098688142EDD19C60EBE704460068002889
:103E1000F2D1002AE8D16FF0150010BDE1D6000004
:103E2000A5D600007CC60000EAD60000F9D6000046
:103E30000BD7000008B50268530904D14FF0FF33D7
:103E4000D340DB070BD407490748084A4FF4747383
:103E500006F080FC05484FF4747106F072FC4FF0D8
:103E6000A04008BD55D700007CC6000022D7000046
:103E700070B54468207C01F01F0545EA4015A06834
:103E800086B000286DD0B2F5001F04D1294601F09C
:103E900013FF002049E001A80026B2F5800F01962B
:103EA000466031D1B3F1007F14BF052304238DF8A0
:103EB00004300023CDE904030393E368CB40D90722
:103EC00035D4B2F1A07F32D168460095FFF7B2FF3A
:103ED00005F5E07350F82330DB0728D4A0686A4664
:103EE000294601F089FD163019D0CDF808D0A06818
:103EF00003AA294601F036FC002816DBA06801223F
:103F0000294601F059FEC4E7B3F1C06F05D0B3F103
:103F1000007F14BF01230223C9E70323C7E7A0687A
:103F2000694601F029FE0028DFDA06B070BDA068FE
:103F30006A46294601F060FD0028D8D19DF800109E
:103F4000A06801F0FDFD0028D1D007490748084AC4
:103F500040F2E51306F0FEFB054840F2E51106F0DD
:103F6000F0FB6FF08500E0E78AC900007CC6000026
:103F700078D70000430970B507D1124B596821B1B9
:103F800001250C68104E854001B970BD8A682A4031
:103F900010D04B6863B90D490D4A0E48742306F0E2
:103FA000D9FB0D4806F0D6FB0948742106F0C9FB81
:103FB000304698471CB1236821461C46E4E7234657
:103FC000FAE700BF601A0020BCBC0000EEDD000074
:103FD000A5D600007CC600000BD700002DE9F043F9
:103FE000476840F206363B7CD00687B001F01F05DB
:103FF00002EA060645EA431554BFC2F34013032301
:10400000B6F5837F14468DF8033044D00DD8062EC4
:1040100016D005D8A6B1022E3FD06FF0150037E0BC
:10402000B6F5807FF9D101260AE040F202229642DD
:1040300035D0B6F5407F34D0B6F5007FEDD10226FD
:104040000123220303FA01F12DD57B68C3F808157B
:10405000B86870BB03A80395FFF7ECFE84F48033C7
:1040600000EB8500C3F30043C4F34044D0F80027BD
:1040700044EA43049DF8033022F4E16244EA8304F5
:1040800022F0070244EA06231343C0F80037002059
:1040900007B0BDE8F0830726D2E70426D0E705265F
:1040A000CEE70326CCE7630344BF7B68C3F80C1557
:1040B000CEE70DF10202294601F09EFC14F4403FC8
:1040C000804617D1B868294601F022FDB8F1000FEB
:1040D000DDD19DF80210B86801F032FD0028D6D07D
:1040E0001E491F481F4AF42306F034FB1D48F421E3
:1040F00006F027FB4FF0000901ABCDE90199CDE9AE
:104100000439CDF80C90B86803AA294601F02AFBBF
:104110004845BCDB14F4003314D084F480349DF89B
:1041200003308DF80E30C4F300448DF80C608DF828
:104130000D40B8684B4603AA294601F0C5FB00288C
:10414000C4DAA4E7CDE904330DF103030393B8689F
:1041500003AA294601F006FBF1E700BF8AC9000067
:104160007CC6000078D7000038B54568A86890B1D3
:1041700001F0B4FC014670B9A86801F06FFC044678
:1041800058B902460649A86801F01EFC22460521DE
:104190000620FFF73DF8002038BD6FF00400FBE774
:1041A000753F00002DE9F04FD0F81090D0F8048052
:1041B00085B005460C461746029309F1040A4FF0F4
:1041C000FF324FF0FF33504603F074FA09F1140B3D
:1041D00000230022584603F06DFA404601F0D6FF56
:1041E0007B1E00260393B74201D8002322E0039BE5
:1041F000217AB34283BF237D83F00403C3F380039A
:1042000000230193029B0093D4E90023284600F089
:1042100077F8034670B94FF480420023584603F004
:1042200049FA98B1404601F0D7FF284606F05AFEF9
:104230006FF004034046029301F0CEFF504603F0B6
:10424000BBF9029B184605B0BDE8F08FD9F82430C1
:10425000034A934204F10C04EAD10136C3E700BFDC
:104260000000AD0BB0B50446406800AF826923463C
:1042700000F1080101F02CFF054698B123686C4657
:1042800088B06A460949C2E905134FF40073938365
:10429000074B42F8103F074800234FF4E251FDF767
:1042A0006BFFA5462846BD46B0BD00BFD0D7000075
:1042B0000300000108BF000008B5CA074368006991
:1042C0000AD4C1F34202012A09D0022A0FD00A4AB5
:1042D0000A48012106F059FC6FF0150006E01B6842
:1042E0004FF0CC72C3F824250160002008BD1B6884
:1042F0004FF0CD62F6E700BFF0D7000008BF000026
:104300002DE9F04186B00C4647689DF8348015468B
:10431000002112220DF106001E4607F0A4FABDF896
:1043200030208DF8052004F0010314F008028DF808
:1043300004300296049509D00C4A0D48012106F07C
:1043400024FC6FF0850006B0BDE8F081A10705D41C
:10435000B8F1000F07D1002BF3D1202201A9384674
:1043600001F06CFFEFE74022F8E700BF02D8000041
:1043700008BF0000054A064B93624FF040221A60C6
:10438000012100220420FEF743BF00BF7811002066
:104390006C1A00202DE9F04F89B002AF9346BB6044
:1043A00003693B614368D3F820A09B8AFB604FF010
:1043B000FF324FF0FF3305460C4606F0C6FD3B6961
:1043C00040337B61002378690022002603F072F9F4
:1043D00033465E4501D3002340E0207A010700F117
:1043E000938001365E4521680BD2820709D4227D75
:1043F00080EA020C0CF0010C02F004025CEA020CF0
:1044000008D023B901F06042B2F1005F3FD04FF015
:10441000000801E04FF001086268D7F80CE003EBF8
:10442000020CF44524D96C468CB0286802A9384E99
:10443000CA61C1E90563FB680A46C1E9083040F278
:1044400003530B85334B42F8103F002332484FF49F
:104450005151FDF791FE6FF01B03A54628467B6185
:1044600006F077FD7B691C371846BD46BDE8F08F26
:10447000C00705D40AEB03007B6007F0E6F97B6810
:1044800062681A4493B2B8F1000F26D1D3B9D4F8B8
:104490000090A3884FF00008BA68217A009228465D
:1044A0004A4600F05FF8031ED8DB4FF4804278697B
:1044B000002303F0FFF840B1284606F05DFD6FF0E1
:1044C0000403CBE79846D146E6E73B691B6D002B1A
:1044D000F5DB237ADB0702D400230C3479E7CA45E5
:1044E000FAD123460AE0A8EB0201D8687B601FFAE4
:1044F00081F819FA81F107F0A8F97B685A689045AC
:10450000A3F10C03EFD2E7E76FF08503A6E700BF46
:1045100028D800000600000110BF000008B5CA0737
:1045200043680AD4C1F34201012909D002290FD0FE
:104530000A4A0B48012106F028FB6FF0150006E03F
:104540009B6A1B684FF0CC72C3F82425002008BD7D
:104550009B6A4FF0C8621B68F6E700BFF0D7000007
:1045600010BF0000F0B589B047680C461646002120
:1045700012220DF10E001D4607F075F904F001033B
:104580008DF80C30BDF838308DF80D30BB8C0495AB
:10459000AB4206960AD20A4800930A4A2B460121EA
:1045A00006F006FB6FF01B0009B0F0BD84F00202BC
:1045B000C2F34002B86A520103A902F00BF9F3E713
:1045C00010BF00000ED90000B0B5456800AFAB6960
:1045D00004469847E869012106F0BFFC2A69A86AE9
:1045E0002346294601F0E2FF002817DA23686C46CB
:1045F00088B06A460C49C2E905134FF400739383EF
:104600000A4B42F8103F0A4800234FF4E251FDF7ED
:10461000B3FD6FF00400A546BD46B0BD204606F0D0
:10462000C3FC0020F8E700BFD0D700000300000162
:1046300010BF000008B50268530904D14FF0FF33E2
:10464000D340DB070BD407490748084A4FF474737B
:1046500006F080F805484FF4747106F072F84FF0D8
:10466000A04008BD55D700007CC6000022D700003E
:104670002DE9F04FDFF854B185B01546824600EBC6
:10468000810840F2FF19D04503D1002005B0BDE8F4
:10469000F08FDAF800305A04C3F3C321C3F30804DF
:1046A00000F18E804A4A1B0E575C4C4508BF4FF004
:1046B000FF34192B00F28780DFE803F00D141A1D78
:1046C00020261D858585853561858585858585853A
:1046D000858564797C7FC5F80C45631C5CD10AF143
:1046E000040AD0E7C5F81445661CF8D000265CE043
:1046F000C5F80845F1E7C5F81045F5E7601CC5F8B1
:104700000845ECD0002604E0611CC5F80C45E6D055
:10471000012603A80394FFF78DFF012101FA04F39A
:10472000C0F80C3508E0C5F80845002FDCD1631C43
:10473000D5D0002631460627DAF80030019303F47D
:104740000040002818BF002103A8009118BF0126CF
:104750000394FFF76FFF019B009900EB8400C3F304
:10476000412CD0F800473B0243EA8C030B4304EA98
:104770000B04234343EA4603C0F80037AFE7C5F80C
:104780000C45D2E7C5F86045621CDAF80030A6D0C7
:10479000C3F30043002BBBD003A80394FFF74AFFE9
:1047A000012606FA04F3C0F808353146C4E7C5F817
:1047B0006445E9E7C5F86845E6E7C5F86C45E3E711
:1047C0006FF0150062E76FF085005FE7F0F8FCFF1F
:1047D00055D900002DE9F041044647680D4606F022
:1047E000B3FF4FF0200888B9264B1B7873B16426BD
:1047F000606806F025FCF0B9012006F079FC013E66
:10480000F6D10021212003F0BDFEF0E7EFF3118681
:10481000314688F31288BFF36F8F606806F010FC92
:10482000A8B986F31188BFF36F8FEFE786F311887D
:10483000BFF36F8FE5E7EFF31186314688F31288F7
:10484000BFF36F8F606806F0FBFB0028EED0BB69FA
:104850001D706368BA691B680020C3F844250122F3
:10486000C3F84825C3F82001D3F82041C3F8580104
:10487000D3F858019A6081F31188BFF36F8FBDE8B8
:10488000F08100BFBE1E00202DE9F0410022054648
:1048900001210220FEF7BCFC0220FEF789FC6C68B7
:1048A0000121E06806F0FDFB6B681A682369C2F815
:1048B0002435637D217D0B43C2F86C356F68D7E9E1
:1048C000004313F0010346D0D5F8108004F10C0129
:1048D00008F1080204F5907006F047FC061E07DA9E
:1048E0002A4A2B48012106F050F93046BDE8F081F4
:1048F00098F8080000F002FC0823C4F80035BB69F2
:10490000C4F844350023C4F848350123A360D4F823
:104910005831002BFBD00026C4F800656B68314687
:10492000D86806F0BEFB6D6831462C68E86806F072
:10493000B8FB0823C4F800352A7A52B9EB69C4F8E9
:1049400034350123C4F83835C4F81021D4F81021C7
:1049500023600026C9E70822C4F80025BA69C4F814
:104960004425C4F848350123A360D4F82031002B36
:10497000FBD00023C4F82031D4F820310123E360B8
:104980004FF48073C4F80433C1E700BF5DD9000061
:1049900048BF000070B40E49D1E90034D01AC318E2
:1049A00044F10004C2F30E06C1E90034A6F58053B9
:1049B000B3F5C04F09D2074B1B685A0CDB039C1997
:1049C000054B42F10005C3E9004570BC04F068BA2C
:1049D00028170020D81A002030170020E0B1BFF3BC
:1049E0005B8F0E4B53E8001F41F0020143E80012B9
:1049F000002AF7D1BFF35B8F094A4FF40033C2F8A6
:104A00000433084ABFF35B8F1268BFF35B8F9207D2
:104A100044BF054AC2F80031704700BFD41A0020D5
:104A200000100140CC1A002000E100E00C4BBFF365
:104A30005B8F53E8000F20F0020243E800210029B9
:104A4000F7D1BFF35B8F074B4FF40032C3F8082355
:104A5000BFF35F8FBFF36F8FC0F34000704700BF9D
:104A6000D41A00200010014030B5144B1868410CD6
:104A7000C003BFF35F8F124BD3F8043547F6FF72C4
:104A800093420AD10F4AD2E90045844275EB0102F4
:104A900009D3C01841F1000130BD181841F10001DF
:104AA000B3F5006FF8D2074BD3E90023904271EBC6
:104AB0000303F1D210F50040ECE700BFD81A002044
:104AC00000100140301700202DE9F743374CD4F88F
:104AD0000433D90319D540230022990810290CD199
:104AE000D4F84031002B41D00023C4F84031D4F831
:104AF00040314FF480324423EFE70433502BECD1A4
:104B00001AB12B4A136801331360D4F804339A03A3
:104B100029D5BFF35B8F274B53E8002F22F002010A
:104B200043E800100028F7D1BFF35B8F930702D44E
:104B3000D4F84431BBB10025C4F84451D4F8443111
:104B4000FFF792FFEFF31182202383F31288BFF364
:104B50006F8F194BD3E90667B042B94108D282F38F
:104B60001188BFF36F8F03B0BDE8F0834423B4E72F
:104B70004FF0FF384FF0FF39C3E90689D3E904103D
:104B80001D614FF40033C4F84833C4F84451D4F8DD
:104B9000443182F31188BFF36F8F0029E3D0009076
:104BA00032463B4601208847DDE700BF0010014048
:104BB000D81A0020CC1A0020081700202DE9F74F42
:104BC0000D461F46044601929DF83080FFF72EFFE8
:104BD0000090FFF749FFA04271EB05034CD2201A69
:104BE00044F2010365EB0101984271F1000146D2E4
:104BF000324BD3E906239D4208BF944255D0304B37
:104C00004FF4003E4FF00009C3F848E3C4F30E0C24
:104C1000C3F84491D3F84421032062466FF0020A9E
:104C200043F6FD7BC2F30E01002908BF0122C2F347
:104C30000E01C3F84415C3F844E3D3F80465AAEBA6
:104C400006011144C1F30E0159452ED9D3F8442170
:104C500062B1D3F80465A6EB0C02C2F30E02B2F502
:104C6000804F22D9C3F84491D3F84421B8F1000F02
:104C700005D182190130D5E7B8F1000F08D06FF0E7
:104C800015040098FFF7AAFE204603B0BDE8F08F98
:104C90000C4BBFF35B8F53E8001F41F0020143E868
:104CA0000012002AF7D1BFF35B8F044B019AC3E9CE
:104CB0000645C3E904270024E3E700BF08170020E6
:104CC00000100140CC1A00207FB5284C284BC4F8B6
:104CD0000833C4F84833274B274A00254FF0FF30EC
:104CE0004FF0FF314FF48036C4F80855C3E9020194
:104CF000C4F80463C3E906014FF40033C4F8043375
:104D00000121C2F8803111202A46FEF781FA1120D4
:104D1000FEF74EFA0123A3602360184B03221A60AA
:104D20000021174A00952B4643F6FF70FFF746FF18
:104D30000220FEF739FF134A13491368134823F082
:104D40000103136047F6FF73C4F844630DF10F02CB
:104D5000C4F8403506F009FA002804DB9DF80F007E
:104D600000F0CCF9284604B070BD00BF001001402F
:104D700001000F000817002000E100E0D41A002015
:104D800095490000D01A0020081001404011014050
:104D9000421C13B5034643F6FF7020D08342A8BFE0
:104DA0000346012B1C46B8BF0124FFF75DFE0E4BE6
:104DB000D3E90021801AB0F5804F43F6FF7310D27B
:104DC0002044984228BF184680184FF00003074A35
:104DD000009341F10001FFF7F1FE02B010BD04465F
:104DE000E3E71846F0E700BF2817002095490000C8
:104DF00008B5FFF739FE024B1B68C01A08BD00BF9B
:104E0000281700204FF0704393F8E02F062A09D1AD
:104E1000D3F8E83FC3F30313033B042B02D8024A41
:104E2000D05C704700207047A9D90000024AD2F830
:104E30000034002BFBD0704700E0014010B506F0B5
:104E400046F940B14FF080538E4AD3F82433C3F370
:104E50000423C2F84035FFF7D5FF10B18A4B8B4AC7
:104E60005A6706F034F948B14FF080534FF0804252
:104E7000D3F84432C3F34233C2F83C35FFF7C2FFE4
:104E800030B1834AD2F8FC3023F08073C2F8FC3092
:104E900006F01DF940B14FF080430022C3F80C2109
:104EA000C3F81021C3F83825FFF7ACFF20B14FF04D
:104EB00080430322C3F8A025FFF7A4FF60B1754B20
:104EC0000522C3F810260122C3F888260022C3F861
:104ED00018263F22C3F814264FF08053D3F8302110
:104EE000511C09BF4FF07043D3F8343193F8E02FD1
:104EF000D3F8E83F08BFC3F30313062A4DD1033BA1
:104F0000042B03D8644AD35C002B46D04FF0805268
:104F1000624BD2F80414C3F82015D2F80814C3F871
:104F20002415D2F80C14C3F82815D2F81014C3F8BD
:104F30002C15D2F81414C3F83015D2F81814C3F88D
:104F40003415D2F81C14C3F84015D2F82014C3F855
:104F50004415D2F82414C3F84815D2F82814C3F81D
:104F60004C15D2F82C14C3F85015D2F83014C3F8ED
:104F70005415D2F83414C3F86015D2F83814C3F8B5
:104F80006415D2F83C14C3F86815D2F84014C3F87D
:104F90006C15D2F84424C3F8702506F098F848B18F
:104FA0004FF080534FF08042D3F8583203F04F0354
:104FB000C2F8E43E06F08BF848B14FF08043D3F8D6
:104FC0000024D20744BF6FF00102C3F800244FF061
:104FD0008053D3F83021062A26D1D3F83431033B4D
:104FE000042B02D82E4AD35C63B12E4AD2F83C3748
:104FF00043F48063C2F83C374FF08053D3F830312C
:10500000062B11D14FF08053D3F83431033B042BDE
:1050100002D8254AD35C3BB14FF01023D3F80822C5
:105020004FF08043C3F858254FF01023D3F80022E7
:10503000002A03DBD3F80432002B22DA1B490123B8
:105040004FF01020C1F804351524FFF7EFFEC0F82B
:105050000042FFF7EBFEC0F80442FFF7E7FE002333
:10506000C1F80435FFF7E2FEBFF34F8F0849104B3C
:10507000CA6802F4E0621343CB60BFF34F8F00BFF6
:10508000FDE710BD0030014000C007400DF0ADBA93
:1050900000ED00E000500040A4D9000000C0004036
:1050A0009FD90000001000409AD9000000E00140A4
:1050B0000400FA05014B1860704700BFDC1A00209D
:1050C00010B50A4B1868144648B9094909480A4AF4
:1050D0003B2305F03FFB08483B2105F032FB06F07F
:1050E00009F80028A4BF2070002010BDDC1A0020A1
:1050F000EAD900007CC60000AED90000024A0123B4
:105100008340C2F80435704700F00140014B002095
:105110001B681847E01A0020014B1B68184700BFA6
:10512000E01A002010B50C4C237993B901232371A8
:105130000A4B2060002818BF184600F0D9F850B973
:1051400023680748002BBDE8104008BF184600F050
:105150004BB96FF0770010BDE01A00200D51000030
:105160001951000008B50C4B1A794AB90B490C4883
:105170000C4AAD2305F0EEFA0A48AD2105F0E1FA3C
:105180001B683BB10020FEF735F818B9BDE80840B0
:10519000FEF70EB808BD00BFE01A00203DDA00009F
:1051A0007CC6000000DA000008B5114B1B794BB932
:1051B0001049114A1148FE2305F0CCFAFE210E4891
:1051C00005F0BFFA58B101280DD00D490A4A0B4825
:1051D00040F21B1305F0BEFA40F21B11EFE7BDE8E9
:1051E000084000F013B9BDE8084000F095B800BFD2
:1051F000E01A00203DDA000000DA00007CC6000062
:10520000B4DF000008B5124B1B795BB91149124A93
:1052100012484FF4917305F09DFA4FF491710E48C6
:1052200005F08FFA28B1012807D1BDE8084000F049
:10523000A1B8BDE8084000F059B90949064A074835
:1052400040F23F1305F086FA40F23F11E7E700BF56
:10525000E01A00203DDA000000DA00007CC6000001
:10526000B4DF00004FF08053D3F83021511C09BF48
:105270004FF07043D3F8343193F8E02FD3F8E83F80
:1052800008BFC3F30313062A05D1033B042B04D83C
:10529000034AD05C7047002070470120704700BF70
:1052A0009EDA000038B54FF080440123C4F808337B
:1052B00063600023C4F80031D4F8003142F2107565
:1052C000D4F80C24D4F80C34D20307D5DB0705D569
:1052D000012005F00DFF013DF2D138BDFFF7C2FFFF
:1052E0000028FAD0014B00225A71F6E7E81A002094
:1052F00038B5084C25794DB9012320602371FFF79B
:10530000B1FF08B9002038BD6571FBE76FF0770089
:10531000F9E700BFE81A002008B512490B794BB92C
:1053200011491248124A772305F014FA10487721E0
:1053300005F007FA4FF080430022C3F80021D3F8AC
:10534000002101221A60096811B1C3F8042308BDC5
:10535000D3F80021002AFBD00022C3F80021D3F8A3
:105360000031F4E7E81A00203DDA00007CC60000B6
:105370005BDA000008B5084B1B794BB907490848B0
:10538000084A892305F0E6F90648892105F0D9F98C
:10539000BDE80840FFF786BFE81A00203DDA0000AC
:1053A0007CC600005BDA000010B54FF08043D3F8F4
:1053B0000423D20715D5D3F8002192B10022C3F8F7
:1053C00000210124D3F80021C3F80843FFF74AFF66
:1053D000044B10B15A7922B95C71BDE810401B68CA
:1053E000184710BDE81A0020074A137943B9012174
:1053F000106011714FF080421846C2F8183570479E
:105400006FF07700704700BFF01A002010B5324CE3
:1054100023794BB931493248324AE32305F09AF9EE
:105420003048E32105F08DF94FF08043D3F818148C
:10543000D3F81824C90337D502F00303012B03D096
:105440000BB105F0AFFE00234FF08042C2F81835D3
:105450000023C2F80431D2F804314FF08053D3F85E
:105460003021511C09BF4FF07043D3F8343193F809
:10547000E02FD3F8E83F08BFC3F30313062A08D18F
:10548000033B042B02D8184AD35C13B18A2005F0E1
:105490002FFE4FF0804301229A60226872B9D3F840
:1054A0000421002AFBD011E0D3F81424D207CAD576
:1054B000D3F81C249007C4D422681AB10222C3F87E
:1054C000042310BDD3F80421002AFBD00022C3F826
:1054D0000421D3F80431F4E7F01A00203DDA00008B
:1054E0007CC60000A3DA0000E6DA000008B5094B2C
:1054F0001B795BB908490948094A4FF4907305F0D4
:1055000029F907484FF4907105F01BF9BDE80840F0
:1055100005F048BEF01A00203DDA00007CC600000D
:10552000A3DA0000F8B54FF080431F4FD3F80443CF
:10553000012504F01A04002604B9F8BDB4FA84F079
:10554000C0F11F00830003F580739BB203F1804319
:1055500005FA00F2196824EA02040029ECD01E6062
:105560001B684FF080430128C3F808230FD1D3F8FC
:105570001824D3F81824920702D03B689847DBE739
:105580000222C3F81805C3F804239860D4E707493A
:105590000748084A4FF4F47305F0DCF805484FF467
:1055A000F47105F0CEF800BFF01A0020B4DF00005F
:1055B0007CC60000A3DA00004FF08053D3F83021FE
:1055C000511C09BF4FF07043D3F8343193F8E02FEA
:1055D000D3F8E83F08BFC3F30313062A05D1033B02
:1055E000042B04D8034AD05C704700207047012088
:1055F000704700BFC7DB000008B5026801461046CF
:1056000005F0E9FD58B90F490F4A10484FF474737B
:1056100005F0A0F84FF474710B4805F092F802F011
:105620001F0352090B6009D00949074A074840F295
:10563000D93305F08FF840F2D931EDE74FF0A040B3
:1056400008BD00BF55D7000022D700007CC600006F
:10565000B4DF0000072808B50BD908490848094AF3
:1056600040F2A73305F076F8064840F2A73105F07E
:1056700068F8800000F5807008BD00BF20DB0000E6
:105680007CC60000EBDA000010B5CBB200EB4303A0
:105690009A8AD1051BD5C2F3432122F4F8529A828B
:1056A00000F1520400F1120232F8023F13F4807F3D
:1056B00003D0C3F34323994209D09442F4D100EBC1
:1056C000C10300225A60583005F032FD00B910BD08
:1056D00005490648064A4FF4DB7305F03BF80448D9
:1056E0004FF4DB7105F02DF88AC900007CC600007C
:1056F0002ADB000073B5CEB200EB46060546B38A3E
:10570000DB070C4628D505F045FE2146284605F066
:105710006CFD48B1B28A2B68520B03EB8203002266
:10572000C3F81025C3F81025284621460025FFF7A9
:10573000ABFFB58201A80194FFF75EFF019B00EB70
:105740008300074BD0F80027134043F00203C0F852
:105750000037284602B070BD6FF01500FAE700BFB1
:10576000F0F8FCFFF0B50D4685B01646044658B972
:1057700052495348534A40F23A4304F0EBFF514830
:1057800040F23A4104F0DDFF1768CFB105F03BFD70
:1057900000BBCDE900008DF80E008DF80F003B46F0
:1057A0000DF10F020DF10E01284605F056FDEAB28B
:1057B00004EB4202938A23F0020343F00103938235
:1057C000736853B3294620461A785F6805F014FDC4
:1057D00018B1CFB16FF0150022E0E9B204EB41013E
:1057E0008B8A23F4604323F020038B8267B1032A62
:1057F000F0D8736858682368077803EB87038AB981
:10580000C3F81025C3F81025E9B204EB41018B8AD7
:1058100023F01C0343EA82038B82B3684BBB002056
:1058200005B0F0BDD3F8100520F00300C3F8100553
:10583000206800EB8700D0F8103523F4473323F4B9
:105840004073C0F810352B02D0F810C503F4F8539C
:1058500043EA024343EA0C03C0F8103504EB470364
:10586000A3F85C508B8A43EA473343F020038B82D2
:10587000CAE7D3E9006729462046FFF705FF002E57
:10588000CDD063689E4206D004F1580005F032FC8A
:10589000002804DAC4E7A3689F42F5D1002004EB96
:1058A000C003C3E90167EDB204EB4505C0B2AB8AA2
:1058B00043EA402343F48073AB82B0E7A7DB0000E8
:1058C0007CC600002ADB0000F0B50C4685B01E4601
:1058D000054658B939493A483A4A40F2444304F037
:1058E00039FF384840F2444104F02BFF12B305F071
:1058F00083FC20B92146284605F077FC08BBE7B2B7
:1059000005EB4707BB8A13F01C0F02D05378012B1D
:1059100017D001238DF80F300023CDE900230DF1BE
:105920000F01931C2046013205F097FCBB8A43F01F
:105930000303BB82002E3FD02146284605F05CFCC5
:1059400018B96FF0150005B0F0BD37782B6803EB80
:1059500087030022C3F81025C3F81025E2B205EB37
:1059600042024FEA870C938A23F4604323F020031A
:105970009382707800B32968B67861440004D1F846
:10598000103523F4981323F4F853C1F8103523028B
:1059900000F4403003F4F85303433005D1F81055B8
:1059A00000F4801003432B43C1F81035938A43EA77
:1059B000473343F0200393820020C4E7A7DB0000B5
:1059C0007CC600002ADB000008B558B90749084822
:1059D000084A40F24D4304F0BDFE064840F24D41F6
:1059E00004F0AFFEC0E9031208BD00BFA7DB000052
:1059F0007CC600002ADB000010B503460C4658B9EF
:105A00001249134A134840F2564304F0A3FE40F2F1
:105A100056410F4804F095FE4AB90F490C4A0D480B
:105A20004FF4457304F096FE4FF44571F1E705F02D
:105A3000DCFB38B1E4B203EB440300209B8A5B0B30
:105A4000137010BD6FF01500FBE700BFA7DB00006F
:105A50002ADB00007CC60000B2DB0000F8B505467A
:105A600058B91B491B481C4A40F2644304F072FEBB
:105A7000194840F2644104F064FE90F86C4024BB85
:105A800040222146143005F0EEFE2E682746E0B293
:105A9000FFF7E0FDA0F580739B081F2B08BF375070
:105AA00004F1010408BF3358082CF0D10024C6F8D3
:105AB0007C4146F30730D6F87C31FDF779FB0123B2
:105AC00085F86C30AB652046F8BD6FF07700FBE7DA
:105AD000A7DB00007CC600002ADB000008B558B92F
